S01300004669726D77617265305F312E7372656314
S113000046C2000065C2000063C2000061C2000075
S11300105FC200005DC200005BC2000059C2000064
S113002057C2000055C2000053C2000051C2000074
S113003032C500004DC200004BC2000049C200009E
S113004047C2000045C2000043C2000041C2000094
S11300503FC200000C9408203BC2000039C20000DB
S11300600C94D42A0C9487270C94D92731C200000D
S11300702FC200002DC200002BC2000029C20000C4
S113008027C2000025C2000023C2000021C20000D4
S11300900C941D280C946F281BC200000C94032E92
S11300A017C2000015C2000013C2000011C20000F4
S11300B00FC200000DC200000BC2000009C2000004
S11300C007C2000005C2000003C200000C94B3285C
S11300D00C940529FDC100000C9449290C949B291A
S11300E0F7C10000BE01BE01BE01F8010002160204
S11300F0BE01BE01F8010002252E952E952E952EE7
S1130100952E952E952E952E252E952E952E952E43
S1130110952E952E952E952E272E952E952E952E31
S1130120952E952E952E952E952E952E952E952EB3
S1130130952E952E952E952E272E952E952E952E11
S1130140952E952E952E952E952E952E952E952E93
S1130150952E952E952E952E912E952E952E952E87
S1130160952E952E952E952E5C2E952E952E952EAC
S1130170952E952E952E952E952E952E952E952E63
S1130180952E952E952E952E502E952E952E952E98
S1130190952E952E952E952E742E0BE915E10F2E86
S11301A0FBECEF2EF5E1FF2EF02D80919A158823BC
S11301B011F10FB6F8940F92D8011796ED91FC91B6
S11301C01897C085D185CE01029625D380918E15CE
S11301D0815080938E1580919A15815080939A1541
S11301E00F900FBE8B8D9C8D8AD2CE0188D28091C8
S11301F09A158111DECFF7018081823008F085D312
S11302000E94C718D2CFCF93DF93CDB7DEB76097E4
S11302100FB6F894DEBF0FBECDBFCE0101969A870C
S11302208987812C912CA12CB12C69847A84E0914A
S11302304516F09146168081882309F40EC1078083
S1130240F085E02D20803180428053800E94520E40
S1130250CE0101960E9430186B877C878D879E871C
S11302608981811164C08B859C85AD85BE8582158D
S11302709305A405B50508F444C00E94960FE091C7
S11302804516F09146160780F085E02DA085B185CE
S1130290B88BAF87CD010296BED2EF85F8898689E7
S11302A082FF21C04685578560897189420D531D9F
S11302B0641D751D720161010B851C852D853E85AC
S11302C0CF010E943F17882399F0C82CD92CEA2C1F
S11302D0FB2C00E010E0A201910160E08F85988979
S11302E00E94D21705C08E7FAF85B88956968C932D
S11302F0AF85B8895496ED91FC915597CD01199528
S11303009EC020E0B201A1018B859C85AD85BE8590
S1130310481B590B6A0B7B0B809141169091421636
S113032051D70E94960F81118AC0EFD288C00E94D3
S1130330960F85C0898188230CF481C04E805F802C
S1130340D2011C968D919C911D97892B19F0C201A5
S1130350029661D2CE0108960E9430188B019C014E
S1130360E9810E2E000CFF0BEA30F10508F067C09E
S11303708827EE58FF4F8F4F0C945E30F201868928
S11303808160868BCA80DB80EC80FD804685578542
S1130390608971894C0D5D1D6E1D7F1DC2010E9417
S11303A03F17882309F44BC0D2015496ED91FC9178
S11303B05597C2011995F201868982FF40C04A818E
S11303C05B816C817D8186859785A089B1899A013D
S11303D0AB01280F391F4A1F5B1FC82CD92CEA2CEC
S11303E0FB2C00E010E060E0C2010E94D21727C09D
S11303F0D20156968C9156978E7F56968C931FC039
S1130400F20186898160868B4A815B816C817D8162
S113041046875787608B718B400F511F621F731F74
S113042068017901C2010E943F1709C0F20186895F
S113043081FD03C0C20163D102C08E7F868B282D4B
S1130440392D4A2D5B2D662D772D80914116909183
S1130450421651D581116ECFEACE0E94520ECE01C2
S113046001960E9430186B877C878D879E878981CF
S113047081115DCFE0914316F0914416808121E013
S1130480811120E0282C392C4A2C5B2C3BCF1124E1
S11304901FBECFEFD1E2DEBFCDBF00E00CBF17E03F
S11304A0A0E0B2E0E2E6FAE600E00BBF02C007908B
S11304B00D92AE3BB107D9F727E1AEEBB7E001C02F
S11304C01D92A63FB207E1F70E94D11D0C942F356F
S11304D097CD0895CF93DF93DC01EAECF7E001C0F8
S11304E0F901208131812A173B07D0F3828193815E
S11304F0AF01480F591FA417B50749F412964D913F
S11305005C911397840F951F93838283DF01129666
S11305108D919C911397ED01C80FD91F2C173D079E
S1130520D9F42091C8073091C907C217D30781F0C5
S11305302A813B81820F931F13969C938E9312976B
S1130540C081D1818881998111969C938E9307C033
S11305501196DC93CE9303C011963C932E93AE1761
S1130560BF0711F0B183A083DF91CF910895CF929B
S1130570DF92EF92FF920F931F93CF93DF93EC01DF
S11305800E94520E8091C8079091C907892B41F5AA
S1130590EAECF7E0AEECB7E0B183A08313821282F9
S11305A0E6E7F5E1F093C907E093C80713821282E6
S11305B01182108288EA9DE013969C938E93129781
S11305C0ED93FC939093C5078093C4079093C7075A
S11305D08093C60780E090E89093BF078093BE079E
S11305E0E090BE07F090BF07C7018C239D23892BA1
S11305F009F075C0209709F475C09E012C5F3F4F28
S1130600C217D30708F06EC02115310509F467C07D
S11306100091C6071091C7070217130708F45FC0BB
S1130620C091CA07D091CB07EAECF7E002C0FE0103
S1130630EC018A819B818217930720F48881998138
S11306400097A9F78091C8079091C907C817D907DF
S113065009F445C0C080D18084E0C80ED11C8881D3
S11306609981918380834A815B81421B530B49307A
S1130670510548F0CE01820F931FFC01538342833E
S11306803B832A8327DF8A819B81081B190B1093E4
S1130690C7070093C6072091C4073091C507021706
S11306A0130720F41093C5070093C407E82AF92A16
S11306B0FB82EA82198218828091C2079091C30753
S11306C001969093C3078093C2070E94960FC114AA
S11306D0D10459F40E94CD18C12CD12C06C00E941B
S11306E0960FF8CF0E94960FF5CFC601DF91CF91F8
S11306F01F910F91FF90EF90DF90CF900895CF93CB
S1130700DF93009799F1FC01349722813381409162
S1130710BE075091BF07B90164237523672B31F1DC
S113072060817181672B11F5EF0140955095242369
S11307303523338322830E94520E2091C6073091C1
S1130740C7078A819B81820F931F9093C707809369
S1130750C607CE01BFDE8091C0079091C107019604
S11307609093C1078093C0070E94960FDF91CF91A9
S11307700895FC010396928381834FEF5FEFBA01E2
S113078043835483658376839087878392878187A5
S113079010820895FC011386128608950F931F9307
S11307A0CF93DF93EB01088119812A813B810F3FAD
S11307B04FEF14072407340721F4FC01A185B28507
S11307C011C0DC01139601C0DF011496ED91FC9178
S11307D0159740815181628173810417150726079B
S11307E0370790F71496ED91FC911597FD83EC83F0
S11307F0D783C683BF83AE831596DC93CE931497B9
S11308009B878A87FC0120812F5F2083DF91CF9112
S11308101F910F910895CF93DF93FC01A285B385B7
S1130820C481D581868197819F838E83C681D78138
S1130830848195819D838C8311968D919C911297CF
S1130840E817F90731F48681978112969C938E9369
S11308501197138612868C9181508C938C91DF9121
S1130860CF910895FC016083319770833197108292
S113087031971082319720E8208331971082319785
S113088010823197108277974083319750838697EF
S11308900895A89590EC88E10FB6F894A8958093F4
S11308A060000FBE90936000A0913916B0913A1683
S11308B0CD91CDBFDD91DEBFFF91EF91DF91CF915F
S11308C0BF91AF919F918F917F916F915F914F9164
S11308D03F912F911F910F91FF90EF90DF90CF9058
S11308E0BF90AF909F908F907F906F905F904F904C
S11308F03F902F901F900F900CBE0F900BBE0F9047
S11309000FBE0F90089581E008950F920FB6F894EA
S11309100F920BB60F920CB60F921F9211242F92C6
S11309203F924F925F926F927F928F929F92AF927B
S1130930BF92CF92DF92EF92FF920F931F932F9368
S11309403F934F935F936F937F938F939F93AF9353
S1130950BF93CF93DF93EF93FF93A0913916B09198
S11309603A160DB60D920EB60D920E94FF10A0918C
S11309703916B0913A16CD91CDBFDD91DEBFFF910E
S1130980EF91DF91CF91BF91AF919F918F917F9123
S11309906F915F914F913F912F911F910F91FF9014
S11309A0EF90DF90CF90BF90AF909F908F907F900B
S11309B06F905F904F903F902F901F900F900CBEC0
S11309C00F900BBE0F900FBE0F9008950F920FB6AD
S11309D0F8940F920BB60F920CB60F921F9211243B
S11309E02F923F924F925F926F927F928F929F923B
S11309F0AF92BF92CF92DF92EF92FF920F931F9329
S1130A002F933F934F935F936F937F938F939F9312
S1130A10AF93BF93CF93DF93EF93FF93A0913916D6
S1130A20B0913A160DB60D920EB60D9213BE0E94F9
S1130A30660E81110E94FF10A0913916B0913A16EA
S1130A40CD91CDBFDD91DEBFFF91EF91DF91CF91CD
S1130A50BF91AF919F918F917F916F915F914F91D2
S1130A603F912F911F910F91FF90EF90DF90CF90C6
S1130A70BF90AF909F908F907F906F905F904F90BA
S1130A803F902F901F900F900CBE0F900BBE0F90B5
S1130A900FBE0F9008959ADF18950FB6F8940F9231
S1130AA0FC01968D0F900FBE81E0911180E00895B6
S1130AB00F931F93CF93DF93EC01042F1E8D48A156
S1130AC041110CC088819981892B09F042C08C8125
S1130AD09D810E9497131D821C8242C0011117C080
S1130AE050E08A819B810E948B3128A18A819B815D
S1130AF0820F911D9B838A832C813D8182179307EA
S1130B0050F1888199819B838A8380E029C050E0D9
S1130B108E819F810E948B3188A190E0919581956F
S1130B2091092E813F81280F391F3F832E834881ED
S1130B3059812417350730F42C813D81820F931F8E
S1130B409F838E83023049F4112349F0115080E0D1
S1130B5007C080E005C080E003C080E001C080E001
S1130B601F5F1E8FDF91CF911F910F910895FC019C
S1130B7040A14423A9F050E026813781240F351F7A
S1130B8037832683848195812817390720F0808153
S1130B90918197838683CB01668177810C948B3115
S1130BA00895EF92FF920F931F93CF938C010FB68A
S1130BB0F8940F92FC01C2A11C16ACF48389811134
S1130BC006C011C0F8018389811105C00CC07801E9
S1130BD0F3E1EF0EF11CC7010E94C91181110E94BB
S1130BE0F912C15079F78FEFF80182A30F900FBE6D
S1130BF00FB6F8940F92C1A11C16ACF48085811134
S1130C0006C011C0F8018085811105C00CC07801AF
S1130C10F8E0EF0EF11CC7010E94C91181110E9476
S1130C20F912C15079F78FEFF80181A30F900FBE2D
S1130C30CF911F910F91FF90EF900895CF93DF9381
S1130C40EC010FB6F8940F92E881F9818F8D28A1F9
S1130C5090E030E0829FA001839F500D929F500D41
S1130C6011244E0F5F1F5D834C831E8EFB83EA832A
S1130C700197829FA001839F500D929F500D1124D4
S1130C80CF01840F951F9F838E838FEF89A38AA33F
S1130C9061110BC08885882371F0CE0108960E94EB
S1130CA0C911882341F031DE06C0CE01089661DD0A
S1130CB0CE0143965EDD0F900FBE81E0DF91CF91B0
S1130CC008950F931F93CF93DF93082F162F869FBA
S1130CD0C001112483964BDCEC01009769F01111DB
S1130CE003C09983888303C08396998388830F8F75
S1130CF018A361E0CE01A2DFCE01DF91CF911F9155
S1130D000F9108959F92AF92BF92CF92DF92EF928C
S1130D10FF920F931F93CF93DF93CDB7DEB729973D
S1130D200FB6F894DEBF0FBECDBF7C015B012E83EE
S1130D303F834887598710E0992493946C0188E095
S1130D40C80ED11C0FB6F8940F92F701968D878DBB
S1130D50981710F00230B1F4402FB501C701A8DE96
S1130D60F7019389992341F0C70143960E94C91161
S1130D70882321F0CADD02C08111C7DD0F900FBEA8
S1130D8081E051C08E819F81A885B985892B8A2BEA
S1130D908B2B21F40F900FBE80E045C0111105C0CC
S1130DA0CE0101960E948F12192D0F900FBE7AD793
S1130DB00FB6F8940F92F70181A18F3F09F411A2A5
S1130DC0F70182A18F3F09F412A20F900FBEBE015A
S1130DD06A5F7F4FCE0101960E94A01281111EC04E
S1130DE00FB6F8940F92F701968D878D0F900FBE72
S1130DF098130FC04E815F8168857985C6010E9472
S1130E007011C701CEDE0E94960F81119BCF7DDD4C
S1130E1099CFC701C6DE0E94960F94CFC701C1DEE9
S1130E200E94960F80E029960FB6F894DEBF0FBE9D
S1130E30CDBFDF91CF911F910F91FF90EF90DF9085
S1130E40CF90BF90AF909F9008950F93CF93DF936F
S1130E50482F60E081E035DFEC01009761F01D82EE
S1130E601C82198218821E8200E020E030E0A90171
S1130E7060E070E047DFCE01DF91CF910F910895DC
S1130E80EF92FF920F931F93CF93DF938A01FC019C
S1130E90568D378D531710F02230F9F4422F780114
S1130EA0EC011AA18E8DCE0103DE1F3F81F48B89E4
S1130EB08823A9F0CE0143960E94C911882389F0A2
S1130EC0E114F10481F081E0F70180830DC0FF2477
S1130ED0F394F10EFAA281E007C080E005C081E03E
S1130EE003C081E001C081E0DF91CF911F910F9198
S1130EF0FF90EF9008959F92AF92BF92CF92DF92AE
S1130F00EF92FF920F931F93CF93DF93CDB7DEB78A
S1130F1029970FB6F894DEBF0FBECDBF8C015B01DD
S1130F202E833F8348875987E12C992493946C013D
S1130F3083E1C80ED11C0FB6F8940F92F801F68C19
S1130F40FF2099F0B501C80112DEFA94F801F68E7B
S1130F508085882331F0C80108960E94C911811147
S1130F60D4DC0F900FBE81E04DC08E819F81A88597
S1130F70B985892B8A2B8B2B21F40F900FBE80E02F
S1130F8041C0E11005C0CE0101960E948F12E92CE8
S1130F900F900FBE87D60FB6F8940F92F80181A177
S1130FA08F3F09F411A2F80182A18F3F09F412A224
S1130FB00F900FBEBE016A5F7F4FCE0101960E9463
S1130FC0A012811116C0C80168DD882371F04E811A
S1130FD05F8168857985C6010E947011C801E1DDD1
S1130FE0A5D78111A8CF91DCA6CFC801DADD9ED7A1
S1130FF0A2CFC801D6DD9AD7C8014FDD882309F4F2
S11310009ACF80E029960FB6F894DEBF0FBECDBF0D
S1131010DF91CF911F910F91FF90EF90DF90CF90D0
S1131020BF90AF909F900895BF92CF92DF92EF92BE
S1131030FF920F931F93CF93DF93CDB7DEB729971A
S11310400FB6F894DEBF0FBECDBF8C014E835F8315
S113105068877987B12CD12CCC24C3947C0183E19B
S1131060E80EF11C0FB6F8940F92D8015E968C919D
S11310705E978823E1F081505E968C935E978D9104
S11310809C91892B29F40E945914F8019583848337
S1131090D80118968C91882331F0C80108960E94D3
S11310A0C911811132DC0F900FBE81E07BC08E81AB
S11310B09F81A885B985892B8A2B8B2B21F40F90CE
S11310C00FBE80E06FC0D11005C0CE0101960E9412
S11310D08F12DC2C0F900FBEE5D50FB6F8940F924B
S11310E0F80181A18F3F09F411A2D80192968C9145
S11310F092978F3F11F492961C920F900FBEBE01EF
S11311006A5F7F4FCE0101960E94A012811125C013
S1131110C801C3DC8823E9F0F80180819181892B1F
S113112051F40FB6F8940F92848195810E941013A4
S1131130B82E0F900FBE4E815F8168857985C701F7
S11311400E947011C8012DDDF1D681118BCFDDDB3A
S113115089CFC80126DDEAD685CFC80122DDE6D6CF
S1131160C8019BDC882309F47DCFBB20D1F00FB6E6
S1131170F8940F92F8018389882339F0028CF38D57
S1131180E02D80816AE0681B01C060E0D8011496FC
S11311908D919C9115970E94F2130F900FBE80E0E1
S11311A001C080E029960FB6F894DEBF0FBECDBF14
S11311B0DF91CF911F910F91FF90EF90DF90CF902F
S11311C0BF900895CF93DF93EC010FB6F8940F927C
S11311D089A18F3F09F419A28AA18F3F09F41AA2A9
S11311E00F900FBE8E8D811104C0CE0143960E94D4
S11311F08711CE01D6DCDF91CF910895FC014481A3
S1131200558122813381240F351F80819181B90159
S1131210681B790BCB016417750710F0841B950BC1
S11312200895AF92BF92CF92DF92EF92FF920F9305
S11312301F93CF93DF936C015B017A01FC01C281A0
S1131240D381048115810C1B1D0B4017510708F431
S11312508A01F60184859585A801B5018C0F9D1F2F
S11312600E948B310E151F0558F4A701401B510B2A
S1131270B501600F711FF601848595850E948B313D
S1131280CE018E0D9F1DF6012481358182179307AF
S113129010F0821B930BF60193838283C701DF91C5
S11312A0CF911F910F91FF90EF90DF90CF90BF905F
S11312B0AF900895CF92DF92EF92FF920F931F9316
S11312C0CF93DF931F921F92CDB7DEB75A83498322
S11312D021153105C9F06B017C01FC01868580FD77
S11312E008C0CA012417350708F4C9019A83898301
S11312F011C02017310758F042E050E0BE016F5F83
S11313007F4FC7018EDF06C080E090E008C080E018
S113131090E005C049815A81B601C70182DF0F9070
S11313200F90DF91CF911F910F91FF90EF90DF907D
S1131330CF900895AF92BF92CF92DF92EF92FF9237
S11313400F931F93CF93DF937C015B01E901421755
S1131350530708F4EA01209779F1F701008111811C
S1131360C480D580C01AD10ACC15DD0508F46E01FD
S1131370F70164857585600F711FA601C5010E9480
S11313808B31CC16DD0658F4AE014C195D09F7011A
S113139064857585C5018C0D9D1D0E948B310C0FD4
S11313A01D1FF701848195810817190710F0081B88
S11313B0190BF70111830083CE01DF91CF911F91A7
S11313C00F91FF90EF90DF90CF90BF90AF90089572
S11313D0FF920F931F93CF93DF938B01FF24F3941A
S11313E0413009F0F12C0115110511F401E010E070
S11313F09C01205F3F4F82179307B0F4EC012196C4
S1131400C901B5D8FC01892B89F08FE0DF011D9259
S11314108A95E9F7CF010F9695878487D583C4838E
S113142017830683F68602C0E0E0F0E0CF01DF9187
S1131430CF911F910F91FF9008950FB6F8940F92DA
S1131440DC0118962D913C911997232B51F51A968E
S11314502D913C911B97232B31F51E962C911E97B1
S113146016964D915C91179714966D917C911597F2
S11314701C96ED91FC911D973FE01D923A95E9F77A
S1131480DC011D96FC93EE931C9715967C936E934A
S1131490149717965C934E9316971E962C9381E09F
S11314A003C080E001C080E00F900FBE0895FC01EE
S11314B0248135818081918142815381820F931FE0
S11314C00197841B950B8217930710F0821B930BD3
S11314D008952F923F924F925F926F927F928F92D4
S11314E09F92AF92BF92CF92DF92EF92FF920F93AF
S11314F01F93CF93DF93CDB7DEB72B970FB6F89436
S1131500DEBF0FBECDBF4C017B876A871A010E83F5
S11315101F8328873987FC0184819581019726855B
S113152020FF0CC02A01F2E04F0E511C84159505D2
S113153050F41E821F821886198646C02A01841719
S1131540950708F42C018E819F81A885B985892B84
S11315508A2B8B2B09F438C0CE010196CAD70FB65B
S1131560F8940F92C401A3DF3C018415950538F566
S113157060E080E090E00E9425170E94FD12F401D3
S1131580938782870F900FBEAE80BF80C884D984B2
S1131590E12CF12C00E010E0980140E050E0BA01A9
S11315A080E00E946B14F40113861286BE016A5F08
S11315B07F4FCE010196C4D7882389F202C00F90D1
S11315C00FBE6114710419F4C40171DF3C0182017E
S11315D09301A1016A857B85C4016CDE6C01892BB2
S11315E0E9F0C4010BDEF4012681378182179307E9
S11315F0A8F058D3F40180859185892B71F08085FA
S11316009185E12CF12C00E020E030E0A90160E0BC
S11316100E941315F4011186108688D4C6012B96F6
S11316200FB6F894DEBF0FBECDBFDF91CF911F91EF
S11316300F91FF90EF90DF90CF90BF90AF909F906D
S11316408F907F906F905F904F903F902F90089570
S1131650AF92BF92CF92DF92EF92FF920F931F93BC
S1131660CF93DF93EC017B015A0169018E8580FFE2
S113167004C08A010E5F1F4F01C08A01CE0117DF2B
S11316809C01A501B701CE0115DE5C01892BC1F0D7
S1131690CE01B4DD2E813F818217930788F08885BF
S11316A09985892B69F088859985E12CF12C00E0D6
S11316B020E030E0A90160E00E9407161986188630
S11316C0C501DF91CF911F910F91FF90EF90DF90B3
S11316D0CF90BF90AF9008952F923F924F925F9218
S11316E06F927F928F929F92AF92BF92CF92DF922E
S11316F0EF92FF920F931F93CF93DF931F921F924A
S1131700CDB7DEB74C011B012A0158016901FC0168
S1131710868580FD03C0612C712C04C06894662406
S113172061F8712CA114B104C104D10449F10FB6BC
S1131730F8940F92C40162DD8C016816790648F0B2
S113174060E080E090E00E94251757D7F40191876C
S113175080870F900FBE60167106C0F0E12CF12C4B
S113176000E010E0980140E050E0BA0180E00E94FF
S11317706B14F40111861086C40140DD8C0103C092
S1131780C4013CDD8C0160167106C8F56114710456
S1131790C1F0F401C080D1809801A301BE016F5F44
S11317A07F4FC401C7DD89819A810619170948163C
S11317B0590630F4F401D182C082412C512C01C06D
S11317C02C019801A201B101C401B4DD6C01892B83
S11317D0C1F068D2F40182859385892B71F08285EA
S11317E09385E12CF12C00E020E030E0A90160E0D9
S11317F00E941315F4011386128698D302C0C12CDB
S1131800D12CC6010F900F90DF91CF911F910F91B2
S1131810FF90EF90DF90CF90BF90AF909F908F900C
S11318207F906F905F904F903F902F900895E0913C
S1131830B315F091B415808181110CC08FEF9FEF27
S1131840DC0180937D1590937E15A0937F15B09352
S113185080150895E091B315F091B4150780F085D3
S1131860E02D80819181A281B38180937D15909335
S11318707E15A0937F15B093801508958F929F9243
S1131880AF92BF92CF92DF92EF92FF92CF93DF930A
S11318906B017C01C42F80908A1590908B15A090C9
S11318A08C15B0908D158091391690913A16029648
S11318B00E940B048FEFC816D806E806F806B1F5A7
S11318C0CC23A1F1EFE8F5E1A181B281C0913916F1
S11318D0D0913A16BF83AE83C0913916D0913A168F
S11318E016968D919C911797998788871696CD9116
S11318F0DC9117978091391690913A1602969D8340
S11319008C838091391690913A16029617969C937F
S11319108E931697A0913916B0913A161D96FC93A2
S1131920EE931C9780818F5F80833FC0C80CD91CC5
S1131930EA1CFB1CE0913916F0913A16C282D3825C
S1131940E482F582C814D904EA04FB0468F46091C3
S1131950391670913A168091B1159091B2156E5F57
S11319607F4F0E94CE0321C06091391670913A16C0
S11319708091B3159091B4156E5F7F4F0E94CE0392
S113198080917D1590917E15A0917F15B091801561
S1131990C816D906EA06FB0640F4C0927D15D0921B
S11319A07E15E0927F15F0928015DF91CF91FF9024
S11319B0EF90DF90CF90BF90AF909F908F9008955D
S11319C04F925F926F927F928F929F92AF92BF924B
S11319D0CF92DF92EF92FF920F931F93CF93DF93F7
S11319E04C016B015A012901CA010E94B7023C0152
S11319F0892B09F40DC184E390E00E94B702EC0145
S1131A00892B99F07C8E6B8EA50165EA70E0C30189
S1131A100E94943181E0A81AB1088B8D9C8DA80E88
S1131A20B91EC114D10429F420C0C3010E947F034C
S1131A30EFC0D6018C918D8F8C918823A1F0AE01DB
S1131A40425E5F4FF6013196B0E1CB0ED11CCF015F
S1131A502191DA012D93AD01DC018C91882319F0D9
S1131A60CE16DF06A1F71CA601C01D8E0A3008F0B1
S1131A7009E00A8F0DA71EA66E01B2E0CB0ED11CA1
S1131A80C6010E94CA03CE010E960E94CA03DB87D8
S1131A90CA878AE090E0A0E0B0E0801B9109A10928
S1131AA0B1098E879F87A88BB98BDF8BCE8B84E09F
S1131AB0FE01BF96DF011D928A95E9F71BAAA201D8
S1131AC0B401C5010E94320499838883E114F104AE
S1131AD019F0F701D183C0830FB6F8940F92809167
S1131AE08E158F5F80938E158091391690913A16DA
S1131AF0892BD1F5D0933A16C093391680918E155F
S1131B00813009F041C00BEC15E10F2EF9E3EF2E03
S1131B10F6E1FF2EF02DC8010E94B903055F1F4FA7
S1131B200E151F05C1F780EC95E10E94B90385EB02
S1131B3095E10E94B90386EA95E10E94B9038BE915
S1131B4095E10E94B9038FE895E10E94B90380EC06
S1131B5095E19093B4158093B31585EB95E190933B
S1131B60B2158093B11510C08091881581110CC0F5
S1131B70E0913916F0913A16928D8A8D891720F0EA
S1131B80D0933A16C0933916809181158F5F809354
S1131B908115EA8D809189158E1710F4E0938915CB
S1131BA08BE08E9FF0011124E553FA4E0180F281FF
S1131BB0E02DFF83EE832681378139872887A6812C
S1131BC0B7811596DC92CE921497D782C682EA8D9D
S1131BD08E9FF0011124E553FA4EFD87EC87808136
S1131BE08F5F80830F900FBE80918815882361F0EA
S1131BF0E0913916F0913A16928D8A8D981730F447
S1131C000E94850481E005C081E003C081E001C039
S1131C108FEFDF91CF911F910F91FF90EF90DF90A5
S1131C20CF90BF90AF909F908F907F906F905F9078
S1131C304F900895EF92FF920F930F2EFBE7EF2E34
S1131C40F5E1FF2EF02D00E020E030E040EC50E024
S1131C5069E772E08DEC90E0B3DE8130E9F40E9434
S1131C60B1178130C9F4F8948FEF9FEFDC018093B2
S1131C707D1590937E15A0937F15B093801581E018
S1131C808093881510928A1510928B1510928C15DA
S1131C9010928D150E944904809106020F91FF90C5
S1131CA0EF90089580917A158F5F80937A15089547
S1131CB00FB6F8940F9260918A1570918B158091EC
S1131CC08C1590918D150F900FBE0895CF92DF92D1
S1131CD0EF92FF920F931F93CF93DF9380917A1526
S1131CE0811107C1C0908A15D0908B15E0908C1596
S1131CF0F0908D158FEFC81AD80AE80AF80AC09236
S1131D008A15D0928B15E0928C15F0928D15C11422
S1131D10D104E104F104B1F48091B3159091B415A8
S1131D202091B1153091B2153093B4152093B315A9
S1131D309093B2158093B115809182158F5F809333
S1131D40821575DD80917D1590917E15A0917F158A
S1131D50B0918015C816D906EA06FB0610F480E097
S1131D60B3C080E04BE051E0E091B315F091B415BD
S1131D70908191110CC04FEF5FEFBA0140937D1534
S1131D8050937E1560937F15709380159DC0E091EC
S1131D90B315F091B4150780F085E02D0084F1852A
S1131DA0E02D0281138124813581C016D106E2061B
S1131DB0F30648F400937D1510937E1520937F1548
S1131DC03093801581C0A485B585C681D7812085CF
S1131DD031853F832E83C085D185268137813D831C
S1131DE02C839F012E5F3F4F11966D917C9112972A
S1131DF06217730731F46085718512967C936E9334
S1131E001197158614869C9191509C93A08DB18D49
S1131E10109709F1C289D389648975897F836E8398
S1131E20C489D589628973897D836C831196CD9128
S1131E30DC911297BF01625F7F4FC617D70731F459
S1131E406489758912967C936E931197118E108E06
S1131E509C9191509C93A28D909189159A1710F49E
S1131E60A09389154A9FD0011124A553BA4E119607
S1131E700D90BC91A02DB783A68316966D917C918D
S1131E801797718760871696CD91DC9117973D83DC
S1131E902C8317963C932E931697A28D4A9FD001BC
S1131EA01124A553BA4EB587A4879C919F5F9C9338
S1131EB0A0913916B0913A16228D5A969C91291701
S1131EC008F452CF852F50CFE0913916F0913A168D
S1131ED0E28D9BE0E99FF0011124E553FA4E9081D5
S1131EE0923008F081E0909183159923B1F081E05C
S1131EF014C08091841590918515A0918615B09198
S1131F0087150196A11DB11D8093841590938515A5
S1131F10A0938615B093871580E0DF91CF911F9130
S1131F200F91FF90EF90DF90CF900895CF92DF92C2
S1131F30EF92FF920F931F93CF93DF930FB6F89412
S1131F400F9280917A15815080937A1580917A1539
S1131F508111C4C080918E1581118BC0C2C0D8017B
S1131F601796ED91FC9118970084F185E02DA08DD2
S1131F70B18D8289938964897589EC017F836E832D
S1131F808489958962897389EC017D836C83CF018F
S1131F900E9611966D917C9112976817790731F41A
S1131FA08489958912969C938E931197118E108E25
S1131FB08C9181508C93A485B585868197816085A9
S1131FC07185EC017F836E8380859185668177813D
S1131FD0EC017D836C83CF01029611966D917C9107
S1131FE012976817790731F46085718512967C938E
S1131FF06E931197158614862C9121502C93A28DE3
S1132000209189152A1710F4A09389153A9FD001BD
S11320101124A553BA4E11960D90BC91A02DB783EF
S1132020A68316966D917C91179771876087169693
S11320306D917C911797EB019D838C8317969C93EC
S11320408E931697A28D3A9FD0011124A553BA4EB0
S1132050B587A4878C918F5F8C93A0913916B0912A
S11320603A16928D5A968C91981748F0409383159E
S113207006C0E0E0F0E006EA15E13BE041E0D8010B
S11320808C9181116CCFEF2B09F0D1DBC0908415BA
S1132090D0908515E0908615F0908715C114D10471
S11320A0E104F10499F0C1E011DE8111C0938315BC
S11320B0B1E0CB1AD108E108F108B1F71092841508
S11320C010928515109286151092871580918315AC
S11320D0882331F00E94850481E003C080E001C0C0
S11320E080E00F900FBEDF91CF911F910F91FF9071
S11320F0EF90DF90CF900895CF92DF92EF92FF920E
S11321000F931F93CF93DF93EC016A017B01CADD28
S113211000918A1510918B1520918C1530918D1595
S113212088819981AA81BB81AC01BD014C0D5D1DE3
S11321306E1D7F1D081719072A073B07B8F44817B7
S113214059076A077B0790F5FF24F39404171507D2
S11321502607370708F0F12C488359836A837B8369
S11321600417150726073707A0F40BC048175907AB
S11321706A077B07A0F0041715072607370778F0CE
S113218015C0CB01BA01601B710B820B930B40E0AD
S113219075DBCCDE811110C00E9485040DC048831C
S11321A059836A837B83FF24F394EBCF4883598359
S11321B06A837B83F12CEDCF8F2DDF91CF911F911B
S11321C00F91FF90EF90DF90CF900895CF92DF9220
S11321D0EF92FF926B017C01672B682B692B41F016
S11321E061DD40E0C701B60149DBA0DE811102C018
S11321F00E948504FF90EF90DF90CF900895809126
S11322007A15882321F081E0809383150895109234
S11322108315A0913916B0913A16E0913916F091D0
S11322203A162D913C91838D948D8217930758F023
S11322306091391670913A168091391690913A1638
S1132240635E7F4FB6D780918915282F30E09BE0DD
S1132250899FF0011124E553FA4E908191110EC02B
S11322604BE08150282F30E0429FF001439FF00D56
S11322701124E553FA4E9081992399F39BE0929FA0
S1132280A001939F500D1124DA01A553BA4E119663
S1132290ED91FC9112970480F581E02D1296FC9348
S11322A0EE93119742535A4EE417F50729F44481EB
S11322B05581FD01528341839BE0929FF001939FDE
S11322C0F00D1124E553FA4E0180F281E02D2085B2
S11322D0318530933A1620933916809389150895E1
S11322E0CF92DF92EF92FF926A017B0160913916DF
S11322F070913A16625F7F4F0E94CE0341E0C7019E
S1132300B601BCDAFF90EF90DF90CF900895CF93A1
S1132310DF93FC01CB01BA01A181B281C0913916CE
S1132320D0913A16BB8BAA8BC0913916D0913A162C
S113233016964D915C9117975D8B4C8B1696CD91AB
S1132340DC9117974091391650913A16425F5F4FCE
S11323505D834C834091391650913A16425F5F4F2A
S113236017965C934E931697A0913916B0913A162E
S11323705996FC93EE93589730813F5F3083222324
S113238019F06FEF7FEFCB01422F78DADF91CF9115
S11323900895CF93DF93DC011796ED91FC91189784
S11323A00084F185E02DA08DB18DC289D389848903
S11323B095899F838E83C489D589828993899D83D6
S11323C08C839F01225F3F4F11968D919C911297B0
S11323D08217930731F48489958912969C938E937E
S11323E01197118E108E8C9181508C9380917A1557
S11323F0811152C0A485B585C681D7818085918518
S11324009F838E83C085D185868197819D838C83AC
S11324109F012E5F3F4F11968D919C9112978217C9
S1132420930731F48085918512969C938E9311972E
S1132430158614868C9181508C93A28D8091891578
S11324408A1710F4A09389158BE08A9FD001112478
S1132450A553BA4E11960D90BC91A02DB783A683B7
S113246016964D915C911797518740871696CD919A
S1132470DC9117973D832C8317963C932E931697E4
S1132480A28D8A9FD0011124A553BA4EB587A48783
S11324908C918F5F8C931CC046EA55E1DA0111964A
S11324A0CD91DC911297D38BC28B8E819F81958BBA
S11324B0848B8E819F81DC0115963C932E93149717
S11324C03F832E83518F408FDA018C918F5F8C93E1
S11324D0A0913916B0913A16928D5A968C9189171B
S11324E020F481E08093831501C080E0DF91CF91D7
S11324F008950FB6F8940F9220918215FC01208361
S113250040918A1550918B1560918C1570918D15A1
S113251041835283638374830F900FBE0895209187
S11325208215FC01208340918A1550918B1560918E
S11325308C1570918D154183528363837483089540
S1132540CF92DF92EF92FF920F931F93CF93DF937B
S1132550FB010FB6F8940F9240918A1550918B1598
S113256060918C1570918D150081118122813381C8
S11325700F3FAFEF1A072A073A0779F1EC01C98038
S1132580DA80EB80FC80A0918215B881BA1759F0EB
S11325904C155D056E057F0530F0108211821282A4
S11325A0138281E01BC04C195D096E097F09401735
S11325B051076207730758F4041B150B260B370BDE
S11325C00083118322833383AADF80E007C0108253
S11325D011821282138281E001C080E00F900FBE4D
S11325E0DF91CF911F910F91FF90EF90DF90CF90EB
S11325F0089581E080938315089580913916909110
S11326003A16089580918815882331F080917A15BF
S1132610882321F080E0089581E0089582E0089500
S11326200F931F93CF93DF93FC01892B09F479C097
S1132630828DA0913916B0913A165A969C918917B9
S113264008F063C04685578560897189772394F0C3
S1132650A0913916B0913A165A969C914AE050E0EE
S113266060E070E0491B5109610971094687578789
S1132670608B718B2BE0829FC001112485539A4E8D
S11326802485358528173907B9F5EF018F010E5FC9
S11326901F4FC8010E940B04E0913916F0913A16BD
S11326A0E28DEA8F809189158E1710F4E0938915D5
S11326B08BE08E9FF0011124E553FA4E0180F281E4
S11326C0E02DFF83EE832681378139872887A68111
S11326D0B78115961C930E93149717830683EA8D7E
S11326E08E9FF0011124E553FA4EFD87EC8780811B
S11326F08F5F808381E016C0A0913916B0913A169D
S11327005A968C91828F81E00DC0A0913916B091B8
S11327103A1681E025A55A969C91291718F080E075
S113272001C080E0DF91CF911F910F9108950F9325
S11327301F93CF93DF93FC01892B09F449C086A52D
S1132740815086A7228D95A5291709F443C08111CC
S113275043C0EF018F010E5F1F4FC8010E940B049D
S1132760EDA5EA8F8AE090E0A0E0B0E08E1B91092D
S1132770A109B1098E879F87A88BB98B8091891590
S11327808E1710F4E09389158BE08E9FF0011124CD
S1132790E553FA4E0180F281E02DFF83EE8326811A
S11327A0378139872887A681B78115961C930E93A4
S11327B0149717830683EA8D8E9FF0011124E55345
S11327C0FA4EFD87EC8780818F5F808381E005C0AE
S11327D080E003C080E001C080E0DF91CF911F91D1
S11327E00F9108950F931F93CF93DF93FC01892BCF
S11327F009F45AC085A5861708F4862F928D981778
S113280009F452C026A5213009F04EC0828F4685B6
S1132810578560897189772364F04AE050E060E06D
S113282070E0481B51096109710946875787608B1D
S1132830718B2BE0929FC001112485539A4E2485FD
S113284035852817390781F5EF018F010E5F1F4F7A
S1132850C8010E940B04EA8D809189158E1710F42B
S1132860E09389158BE08E9FF0011124E553FA4E15
S11328700180F281E02DFF83EE8326813781398741
S11328802887A681B78115961C930E9314971783F6
S11328900683EA8D8E9FF0011124E553FA4EFD87DD
S11328A0EC8780818F5F8083DF91CF911F910F919F
S11328B008958091391690913A16892B39F0E09158
S11328C03916F0913A1686A58F5F86A7809139163E
S11328D090913A1608954F925F926F927F92AF92C1
S11328E0BF92CF92DF92EF92FF920F931F93CF93F9
S11328F0DF93280139010FB6F8940F92E09139164D
S1132900F0913A16C82FD0E0EC0FFD1F83A9823056
S113291079F1E0913916F0913A16CE01880F991F9A
S1132920880F991FE80FF91F87A590A9A1A9B2A93B
S11329304095509560957095482359236A237B23CD
S113294047A750AB61AB72ABE0913916F0913A16E0
S1132950EC0FFD1F81E083ABA114B104C104D104C9
S113296039F041E0C601B5010E943E0C0E94850485
S11329700F900FBE0FB6F8940F92E114F104A1F07A
S1132980E0913916F0913A16CE01880F991F880FFD
S1132990991FE80FF91F87A590A9A1A9B2A9F7016A
S11329A080839183A283B383E0913916F0913A1620
S11329B0EC0FFD1F83A98230E9F4E0913916F09100
S11329C03A16CE01880F991F880F991FE80FF91F37
S11329D087A590A9A1A9B2A9409450946094709439
S11329E0482259226A227B2247A650AA61AA72AAC7
S11329F081E001C080E02091391630913A16C20F6F
S1132A00D31F1BAA0F900FBEDF91CF911F910F917F
S1132A10FF90EF90DF90CF90BF90AF907F906F903A
S1132A205F904F9008958F929F92AF92BF92EF92D2
S1132A30FF920F93CF93DF93DC010FB6F8940F92BC
S1132A40E114F10479F0FC0184E0689FE00DF11DCC
S1132A50112487A490A8A1A8B2A8F701808291822A
S1132A60A282B38270E0FD01E60FF71F83A992E012
S1132A7093AB0230F9F018F4013031F049C003305F
S1132A8069F10430B9F144C0660F771F660F771FF0
S1132A90FD01E60FF71F87A490A8A1A8B2A8BA0168
S1132AA0A901482959296A297B2947A750AB61AB59
S1132AB072AB2EC0660F771F660F771FFD01E60FFE
S1132AC0F71F47A550A961A972A94F5F5F4F6F4FC8
S1132AD07F4F47A750AB61AB72AB1AC0660F771F2D
S1132AE0660F771FFD01E60FF71F27A730AB41AB39
S1132AF052AB0EC0823009F479C0660F771F660F9F
S1132B00771FFD01E60FF71F27A730AB41AB52AB90
S1132B10813009F06DC01C96ED91FC911D971696BD
S1132B20CD91DC91179718968D919C9119979F835D
S1132B308E831896CD91DC91199716968D919C9160
S1132B4017979D838C839D012E5F3F4F81819281D6
S1132B508217930731F418968D919C91199792835B
S1132B6081831D961C921E921C97808181508083C4
S1132B705A96EC915A97809189158E1710F4E09328
S1132B8089158BE08E9FF0011124E553FA4E0180E4
S1132B90F281E02D1796FC93EE93169746815781A8
S1132BA019965C934E931897C681D7813D832C83E5
S1132BB0378326835A96EC915A978E9FF0011124FD
S1132BC0E553FA4E1D96FC93EE931C9780818F5F1C
S1132BD08083E0913916F0913A165A969C91828D31
S1132BE0891740F40E94850481E005C080E003C099
S1132BF081E001C081E00F900FBEDF91CF910F9172
S1132C00FF90EF90BF90AF909F908F9008958F9218
S1132C109F92AF92BF92CF92DF92EF92FF920F9367
S1132C20CF93DF93DC01E114F10479F0FC0184E03B
S1132C30689FE00DF11D112487A490A8A1A8B2A853
S1132C40F70180829182A282B38270E0FD01E60FD7
S1132C50F71F83A992E093AB0230F9F018F4013026
S1132C6031F049C0033069F10430B9F144C0660F52
S1132C70771F660F771FFD01E60FF71F87A490A843
S1132C80A1A8B2A8BA01A901482959296A297B290E
S1132C9047A750AB61AB72AB2EC0660F771F660FB0
S1132CA0771FFD01E60FF71F47A550A961A972A977
S1132CB04F5F5F4F6F4F7F4F47A750AB61AB72AB16
S1132CC01AC0660F771F660F771FFD01E60FF71F07
S1132CD027A730AB41AB52AB0EC0823009F4A4C07D
S1132CE0660F771F660F771FFD01E60FF71F27A7F3
S1132CF030AB41AB52AB813009F098C080917A156A
S1132D0081115FC01C96ED91FC911D971696CD9193
S1132D10DC91179718968D919C9119979F838E83B8
S1132D201896CD91DC91199716968D919C911797D1
S1132D309D838C839D012E5F3F4F818192818217F9
S1132D40930731F418968D919C91199792838183FE
S1132D501D961C921E921C978081815080835A96E6
S1132D60EC915A97809189158E1710F4E093891588
S1132D708BE08E9FF0011124E553FA4E0180F2811D
S1132D80E02D1796FC93EE9316974681578119967A
S1132D905C934E931897C681D7813D832C833783E8
S1132DA026835A96EC915A978E9FF0011124E5538D
S1132DB0FA4E1D96FC93EE931C9780818F5F80835F
S1132DC020C046EA55E1FA01C181D2815396DC93D1
S1132DD0CE9352978E819F8155969C938E93549750
S1132DE02E813F81CD010E96F901958384839F83C3
S1132DF08E8359965C934E935897FA0180818F5F26
S1132E008083E0913916F0913A165A969C91828DFE
S1132E10891770F4C114D10419F081E0F60180839C
S1132E2081E08093831505C080E003C081E001C088
S1132E3081E0DF91CF910F91FF90EF90DF90CF90E1
S1132E40BF90AF909F908F900895009721F4809148
S1132E50391690913A160FB6F8940F9270E0FC016F
S1132E60E60FF71F23A9223031F4FC01E60FF71F08
S1132E7013AA81E001C080E00F900FBE0895CF92A5
S1132E80DF92EF92FF920F931F93FC0142835383CF
S1132E90648375839387828704171507260737078A
S1132EA0C0F00C191D092E093F0986859785A08954
S1132EB0B189081719072A073B0700F5BF016E5FA0
S1132EC07F4F80914316909144160E94CE0380E078
S1132ED018C00C151D052E053F0528F44C155D057D
S1132EE06E057F0568F4BF016E5F7F4F80914516C4
S1132EF0909146160E94CE0380E003C081E001C099
S1132F0081E01F910F91FF90EF90DF90CF90089593
S1132F100FB6F8940F928091411690914216892B26
S1132F20E9F482E596E10E94B90387E496E10E9400
S1132F30B90382E596E1909346168093451687E49B
S1132F4096E1909344168093431640E067E08AE04C
S1132F500E94610690934216809341160F900FBE13
S1132F600895EF92FF920F93D3DF809141169091D1
S1132F704216892B91F00F2EFFE3EF2EF6E1FF2E80
S1132F80F02D03E020E030E040EC50E06EE772E02A
S1132F9083E091E00E94E00C01C080E00F91FF907B
S1132FA0EF9008958F929F92AF92BF92CF92DF924B
S1132FB0EF92FF920F931F93CF93DF93CDB7DEB7BA
S1132FC027970FB6F894DEBF0FBECDBFE091411630
S1132FD0F0914216309781F169832A833B834C83B5
S1132FE05D839F838E836630F4F40CDB823069F456
S1132FF000E0A7019601BE016F5F7F4F80914116EB
S1133000909142160E94820618C000E020E030E051
S1133010A901BE016F5F7F4F8091411690914216C6
S11330200E9482060AC020E0A801BE016F5F7F4FA4
S1133030CF010E94400701C080E027960FB6F894A4
S1133040DEBF0FBECDBFDF91CF911F910F91FF90D7
S1133050EF90DF90CF90BF90AF909F908F900895A6
S11330602F923F924F925F926F927F928F929F9294
S1133070AF92BF92CF92DF92EF92FF920F931F9382
S1133080CF93DF931C010E94580E2B013C018091C9
S11330903B1690913C16A0913D16B0913E164816F1
S11330A059066A067B0608F053C03BC00780F085CA
S11330B0E02D80809180A280B380C085D1858E016F
S11330C00E5F1F4FC8010E940B04EC89FD89CE01DD
S11330D019958E8982FF25C08E859F85A889B98917
S11330E0880D991DAA1DBB1D88169906AA06BB0644
S11330F070F48A839B83AC83BD83DB87CA87B80162
S113310080914516909146160E94CE030AC0C12CA8
S1133110D12C760100E010E0A501940160E0CE011D
S113312041DFE0914516F091461680818111BECFB2
S113313080914316909144169093461680934516B9
S1133140F0934416E093431681E0F101808302C0BA
S1133150F101108240923B1650923C1660923D164B
S113316070923E16C301B201DF91CF911F910F916E
S1133170FF90EF90DF90CF90BF90AF909F908F9093
S11331807F906F905F904F903F902F900895089597
S1133190279A2F9A08951F9A0895FADF2FEF80E750
S11331A092E0215080409040E1F700C00000F3DF3E
S11331B0F5CFEEDF2FEF87EA91E621508040904073
S11331C0E1F700C00000E7DFF5CFCF93DF93CDB781
S11331D0DEB76A970FB6F894DEBF0FBECDBF0E946C
S11331E0580E69837A838B839C8304E011E04EE359
S11331F059E460E070E0CE0101960E947C1086E8FC
S113320092E00E9407320E831D83E1D494D56F832C
S113321012D591D56887F5D48ED56987F4D08A877D
S1133220BE016B5F7F4F80E00E941223E0CFCF92FC
S1133230EF920F931F93CF93DF93CDB7DEB76A97C7
S11332400FB6F894DEBF0FBECDBF0E94580E69833F
S11332507A838B839C834FE954E260E070E0CE0173
S113326001960E947C100FEF1FEF980146E150E099
S1133270BE016B5F7F4F8091E6179091E7170E9424
S11332806C0B8E81873038F3CD84E8840F812A85D6
S113329049856C858B85F0D4892B79F08985D6D0C6
S11332A08A85B4D08C8512D18B85F0D08F814ED194
S11332B088852CD18D85A5D1CECF6A960FB6F8948A
S11332C0DEBF0FBECDBFDF91CF911F910F91EF9065
S11332D0CF900895EF92FF920F93E12CF12C04E02C
S11332E020E030E040EC50E067E972E085EE98E1E0
S11332F00E94E00C05E020E030E040EC50E060EAA1
S113330072E087E199E10E94E00C0F91FF90EF9049
S11333100895CF93DF9300D01F92CDB7DEB70E94FC
S1133320580E69837A838B839C830F2EFCEAEF2EDD
S1133330F2E0FF2EF02D0F2EF9EDCF2EF7E1DF2E68
S1133340F02D40E759E964E170E0CE0101960E9456
S11333507C10FF92EF92BCD44CE050E060E070E04F
S11333608091E0179091E1170E9414080F900F903C
S1133370813039F7F601668180E090E00E942135C2
S1133380F601608181E090E00E942135F6016181BF
S113339082E090E00E942135F601638183E090E0B1
S11333A00E942135F601628184E090E00E9421357B
S11333B0F601658185E090E00E942135F601648183
S11333C086E090E00E94213500E020E030E0A90191
S11333D060E070E08091E0179091E1170E9482060E
S11333E0B0CF8091D91708958091DA17089580910C
S11333F0DC1708958091DB1708958091DE170895F6
S11334008091DD1708958091DF1708950F93CF936E
S1133410C82F4CE050E060E070E08091EA17909192
S1133420EB170E941408813071F4C093D91700E09F
S113343020E030E0A90160E070E08091EA1790910B
S1133440EB170E948206CF910F9108950F93CF93AB
S1133450C82F4CE050E060E070E08091EA17909152
S1133460EB170E941408813071F4C093DA1700E05E
S113347020E030E0A90160E070E08091EA179091CB
S1133480EB170E948206CF910F9108950F93CF936B
S1133490C82F4CE050E060E070E08091E21790911A
S11334A0E3170E941408813071F4C093DC1700E024
S11334B020E030E0A90160E070E08091E217909193
S11334C0E3170E948206CF910F9108950F93CF9333
S11334D0C82F4CE050E060E070E08091E2179091DA
S11334E0E3170E941408813071F4C093DB1700E0E5
S11334F020E030E0A90160E070E08091E217909153
S1133500E3170E948206CF910F9108950F93CF93F2
S1133510C82F4CE050E060E070E08091E417909197
S1133520E5170E941408813071F4C093DE1700E09F
S113353020E030E0A90160E070E08091E417909110
S1133540E5170E948206CF910F9108950F93CF93B0
S1133550C82F4CE050E060E070E08091E417909157
S1133560E5170E941408813071F4C093DD1700E060
S113357020E030E0A90160E070E08091E4179091D0
S1133580E5170E948206CF910F91089580E09EDF97
S11335908FE57CDF88EDDADF82E3B8DF80E056DF99
S11335A085E054CF0895CF93DF9380E090E00E94AC
S11335B019358F3F11F4EADF21C0C9EDD7E18E83BD
S11335C081E090E00E941935888382E090E00E94B7
S11335D01935898383E090E00E9419358B8384E058
S11335E090E00E9419358A8385E090E00E941935A5
S11335F08D8386E090E00E9419358C83DF91CF9112
S113360008958093DF170895EF92FF920F93E12CB2
S1133610F12C03E620E030E040EC50E06AEB72E08D
S113362089E899E10E94E00C0F91FF90EF900895D2
S1133630E8D42FEF83ED90E3215080409040E1F7F0
S113364000C00000DAD487EB96E02FC40895D9D4E3
S11336502FEF83ED90E3215080409040E1F700C0CC
S11336600000CBD484E496E020C40895CAD42FEF9C
S113367083ED90E3215080409040E1F700C00000CA
S1133680BCD484EC92E011C40895BBD42FEF83ED35
S113369090E3215080409040E1F700C00000ADD499
S11336A086EC92E002C40895ACD42FEF83ED90E34E
S11336B0215080409040E1F700C000009ED481E793
S11336C093E0F3C308959DD42FEF83ED90E321504D
S11336D080409040E1F700C000008FD488EC92E075
S11336E0E4C30895CF93DF9300D01F92CDB7DEB724
S11336F00E94580E69837A838B839C8346EA5EE03A
S113370060E070E0CE0101960E947C107AD26B01D9
S11337107C0170DE682F70E080E090E03AD39B017A
S1133720AC01C701B60103D3882314F4AEDFE6CF9E
S113373068D26B017C015BDE682F70E080E090E072
S113374028D39B01AC01C701B601ABD31816B4F65C
S11337508DDFD4CFCF93DF9300D01F92CDB7DEB7E8
S11337600E94580E69837A838B839C8346EA5EE0C9
S113377060E070E0CE0101960E947C105CD26B0187
S11337807C0132DE682F70E080E090E002D39B0180
S1133790AC01C701B601CBD2882314F449DFE6CFCC
S11337A04AD26B017C011DDE682F70E080E090E05E
S11337B0F0D29B01AC01C701B60173D31816B4F65D
S11337C046DFD4CFCF93DF9300D01F92CDB7DEB7BF
S11337D00E94580E69837A838B839C8346EA5EE059
S11337E060E070E0CE0101960E947C10F0D16B0184
S11337F07C0106DE682F70E080E090E0CAD29B0175
S1133800AC01C701B60193D2882314F44DDFE6CF8F
S1133810DED16B017C01F1DD682F70E080E090E087
S1133820B8D29B01AC01C701B6013BD31816B4F65C
S11338304ADFD4CFEF92FF920F93E12CF12C01E0F9
S113384020E030E040EC50E06AEC72E082E79BE17B
S11338500E94E00C02E020E030E040EC50E065ED36
S113386072E08AEA9BE10E94E00C03E020E030E091
S113387040EC50E060EE72E082EE9BE10E94E00CCE
S11338800F91FF90EF900895CF93DF93CDB7DEB7FC
S113389068970FB6F894DEBF0FBECDBF81E024D683
S11338A062E070E080E090E00E94E61080E01CD6C8
S11338B066E970E080E090E00E94E610CED581E0F9
S11338C00E949B2C1FD60E94FF249F938F938CEE03
S11338D092E09F938F930E94F43192D70E94FF2429
S11338E09F938F938FEF92E09F938F930E94F43175
S11338F08E010B5F1F4FC80117D60E94FF241F9330
S11339000F939F938F9388E193E09F938F930E94EB
S1133910F431C80125D60E94FF249F938F931F93EF
S11339200F938CE293E09F938F930E94F431A8014C
S113393061E473E082E693E00E94DE240E94FF24A7
S11339409F938F931F930F9381E493E09F938F939F
S113395082E693E09F938F9383E793E09F938F9303
S11339600E94F43130D60E94FF249F938F9389EAFA
S113397093E09F938F930E94F4310FB6F894DEBFC7
S11339800FBECDBF81E019D70E94FF249F938F9370
S113399088EB93E09F938F930E94F43184EF91E03E
S11339A017D70E94FF249F938F9381E08F9384EF16
S11339B08F9389ED93E09F938F930E94F4310FB618
S11339C0F894DEBF0FBECDBF0AE010E00F2EF9EF72
S11339D0EF2EF3E0FF2EF02D80E0FBD5D82E0E94D1
S11339E0FF249F938F931F930F93FF92EF920E9454
S11339F0F4310F900F900F900F900F900F90F8E00C
S1133A00DF16C1F180E00E94FF2C66E371E080E0E4
S1133A1090E00E94E61001501109F1F624C00E94C2
S1133A208504FDCF48EA58E460E070E0CE010196D9
S1133A300E947C10F80182829382A482B582C6829D
S1133A40D78283E00E94112DB80180E0EBD5D7D74F
S1133A509F938F93FF92EF920E94F4310F900F90F7
S1133A600F900F90DFCF81E00E94F02C80E00E9445
S1133A70BE2CD5CF81E00E94E12CEDE5F6E186E095
S1133A80818382E080830E94580E69837A838B83CA
S1133A909C830DE516E10F2EF0E38F2EF02D0F2EF3
S1133AA0F9E39F2EF02D6894AA24A1F80F2EF3EACF
S1133AB0BF2EF02D6894CC24C2F80F2EFAE1DF2E2D
S1133AC0F02D0F2EF9E1EF2EF4E0FF2EF02DAACF0A
S1133AD0EF92FF920F93E12CF12C082F20E030E0BD
S1133AE048E851E06EE274E084E49CE10E94E00C5A
S1133AF00F91FF90EF9008950F93CF93DF93FC0104
S1133B0020813181232B81F4EC0181E00E9425077F
S1133B1099838883009741F000E020E030E0A90118
S1133B2060E070E00E948206DF91CF910F910895CA
S1133B3082EE97E1E1DF84EE97E1DEDF8AEE97E142
S1133B40DBDF80EE97E1D8DF8091731690917416D5
S1133B50D3DFC0DB59DD6ECE0895F8D283E00C9438
S1133B60DB25089581B1816881B90E94690280E0F2
S1133B700E94FD29F2DFDCDF16DD83E30E944D2C79
S1133B8041E060E070E08CE290E00E94E8099093EC
S1133B90E7178093E617BC0181E066D482E398CFEF
S1133BA00895E0DF85E394E00E9407320E941A0E34
S1133BB0FFCFE7D27AD09F938F9387E494E09F93CB
S1133BC08F9386D00F900F900F900F900895F1DF90
S1133BD02FEF8DEE92E0215080409040E1F700C03D
S1133BE00000E4D209C02FEF8DEE92E02150804016
S1133BF09040E1F700C00000C1D28823A1F3FBC2CA
S1133C000895D7DF2FEF8DEE92E021508040904051
S1133C10E1F700C00000CAD209C02FEF8DEE92E098
S1133C20215080409040E1F700C00000A7D28823D3
S1133C30A1F3CDC20895CF93DF931F921F92CDB706
S1133C40DEB7DED73CD09F938F9383E694E09F93B7
S1133C508F933ED0CE0101960E942F2669817A81EE
S1133C6080E090E094D00F900F900F900F900F9001
S1133C700F90DF91CF910895CF92EF92CF93C62FFB
S1133C80C2DB8C1549F0C03650F481E090E022E3A9
S1133C902E1538F480E005C080E090E002C080E09A
S1133CA090E0CF91EF90CF9008952091070230914A
S1133CB00802F901E80FF11D808190E00895E82FD2
S1133CC0F0E0EE0FFF1FE75FFD4F808191810895C3
S1133CD0EF92FF920F931F93CF93DF93CDB7DEB78D
S1133CE08E01065F1F4FF801E190F1908F014FEFB5
S1133CF05FEFBA0180917316909174160E941408B4
S1133D00B801C7010E94653200E020E030E0A9015B
S1133D1060E070E080917316909174160E948206A0
S1133D20DF91CF911F910F91FF90EF9008956CD088
S1133D3008F481E0089594D088F09F5790F0B92F4B
S1133D409927B751A0F0D1F0660F771F881F991FEC
S1133D501AF0BA95C9F712C0B13081F09BD0B1E026
S1133D60089598C0672F782F8827B85F39F0B93F36
S1133D70CCF3869577956795B395D9F73EF49095EE
S1133D808095709561957F4F8F4F9F4F0895E8946C
S1133D9009C097FB3EF490958095709561957F4F8F
S1133DA08F4F9F4F9923A9F0F92F96E9BB2793953D
S1133DB0F695879577956795B795F111F8CFFAF44D
S1133DC0BB0F11F460FF1BC06F5F7F4F8F4F9F4F7E
S1133DD016C0882311F096E911C0772321F09EE8DC
S1133DE0872F762F05C0662371F096E8862F70E042
S1133DF060E02AF09A95660F771F881FDAF7880F1C
S1133E009695879597F90895990F0008550FAA0B71
S1133E10E0E8FEEF16161706E807F907C0F01216D9
S1133E201306E407F50798F0621B730B840B950BDC
S1133E3039F40A2661F0232B242B252B21F4089531
S1133E400A2609F4A140A6958FEF811D811D0895CE
S1133E5057FD9058440F551F59F05F3F71F0479537
S1133E60880F97FB991F61F09F3F79F0879508951C
S1133E70121613061406551FF2CF4695F1DF08C03B
S1133E80161617061806991FF1CF86957105610558
S1133E9008940895E894BB2766277727CB0197F900
S1133EA00895B2DF08F48FEF0895CF93DF93EC0108
S1133EB0FC0101900020E9F73197E81BF90BE0932E
S1133EC07916E13208F47DC018A20E94EA3180918B
S1133ED079168530E0F444E050E0481B510914168B
S1133EE0150674F480E090E020E02F5FFC01E658B2
S1133EF0F94E1082822F90E084179507B4F301C025
S1133F0020E01092761691E0920F20E02EC0EAE7AE
S1133F10F6E110821182128223E0F5CFFE01E40F54
S1133F20F51FA08130ED3A0F3A3050F4E82FF0E05D
S1133F30E658F94EB0E0A755BB4F8C91808313C06F
S1133F403FEB3A0F363050F4E82FF0E0E658F94EE4
S1133F50B0E0AE55BB4F8C91808305C0E82FF0E0F4
S1133F60E658F94E10822F5F9F5F8FEF890F422F23
S1133F7050E0FE0101900020E9F73197EC1BFD0BA6
S1133F804E175F0758F220917916253010F1E82F6B
S1133F90F0E0E658F94E1082E92FF0E0E658F94EC9
S1133FA01082E1E0E90FF0E0E658F94E10829E5FDE
S1133FB090937616109275161092781610927716C2
S1133FC008C00E94EA3180917916853008F483CFC5
S1133FD09ECFE0EAF6E1AAE7B6E18C9180831196E0
S1133FE08C911197818312968C91129782831396E8
S1133FF08C918383DF91CF91089585B5856085BDCC
S1134000089585B5887F85BD81B38F6081BB089590
S11340101F920F920FB60F9211240BB60F922F938B
S11340203F934F935F936F937F938F939F93AF933C
S1134030BF93EF93FF9380917616882369F12091C3
S1134040771630917816253F91E0390738F42F5FC1
S11340503F4F30937816209377161EC0109278162F
S113406010927716E09175162E2F30E090E00497A9
S11340702817390714F4EF5F01C0E0E0E0937516E8
S1134080F0E0E658F94EA0EAB6E124EA36E181917F
S11340908D93A217B307D9F78091A41690E00196E7
S11340A083709078992324F401978C6F9F6F019605
S11340B08093A4169927FC01E056F94E608160951F
S11340C08091A5169091A6160E945F2AFF91EF9108
S11340D0BF91AF919F918F917F916F915F914F911C
S11340E03F912F910F900BBE0F900FBE0F901F901A
S11340F018956530F1F4FA0180818F7390E0982F60
S113410088272181822B9093140280931302828149
S1134110F0E48F9FC0011124FA012381269526958E
S1134120822B909312028093110281E08093A71650
S11341300895643051F080E090E4909312028093EB
S11341401102909314028093130208950F931F9306
S113415009E710E220E034E244EF50E060E087E257
S11341600E94332D9093A9168093A81621E0892BE1
S113417009F020E0822F1F910F9108958091A716D6
S113418008958091A8169091A916009759F040E0DF
S113419060E070E00E94842D843031F41092A71600
S11341A080E0089582E0089583E008958091A81640
S11341B09091A916009739F064E00E94D02D8530C3
S11341C021F083E0089582E0089580E008956091ED
S11341D013027091140280E090E0D9DD20E030E019
S11341E048EC52E40E94D62F20E038EF4FE756E423
S11341F00C94432F0895609111027091120280E093
S113420090E0C5DD20E030E045E253E40E94D62F83
S113421020E038EF4FE756E40E94432F20E030E0DF
S113422040E252E40C94DC2E08950F931F93CF9335
S1134230DF931F921F92CDB7DEB78C0119822DC078
S1134240E091E116EC3250F481E08E0F8093E11698
S1134250F0E0ED5EF84E8A81808302C01092E11690
S11342608A818A30D1F44091E11650E0FA01EF5E80
S1134270F84E1082415051099E012F5F3F4F63E178
S113428077E18091E4169091E5160E94280B8981CC
S113429081110E9485041092E116BE016E5F7F4F6A
S11342A0C80115D6882361F20F900F90DF91CF914A
S11342B01F910F9108950F931F93CF93DF938C0158
S11342C0EB018091E4169091E5160E941D0AB80155
S11342D08AEA96E10E94CB31209779F0EAEAF6E186
S11342E001900020E9F7319780E290E09183808388
S11342F0BE018AEA96E10E94C031EAEAF6E1DF01F2
S11343000D900020E9F711978DE09AE011969C93A7
S11343108E9312961C9201900020E9F73197EA5A85
S1134320F641AE2F8AEA96E1AC016A2F8091E61637
S11343309091E71677D5811111C008E215E020E0CD
S113434030E04DE250E06DE677E18091E416909123
S1134350E5160E946C0B8DE697E102C080E090E0C8
S1134360DF91CF911F910F9108952F923F924F9219
S11343705F926F927F928F929F92AF92BF92CF92F1
S1134380DF92EF92FF920F931F93CF93DF935C0121
S1134390FC0101900020E9F731976F01C81AD90A8E
S11343A05C2C0F2EF2E88F2EF7E09F2EF02DE12CDF
S11343B0F12C4C2C3701F40101811281E8010990A0
S11343C00020E9F72197C01BD10B3C2EF9E0CF1652
S11343D0D10458F0F4012080FEE02F1206C0B80189
S11343E0C5010E949B31892B09F5442D351408F42D
S11343F04C2F50E0B801C5010E94D231892B49F4F9
S1134400F301EE0FFF1FE60DF71DEE57F84F208066
S11344100DC08FEFE81AF80AE3E08E0E911CF1E16B
S1134420EF16F10439F66894222424F8822DDF91E2
S1134430CF911F910F91FF90EF90DF90CF90BF909D
S1134440AF909F908F907F906F905F904F903F9030
S11344502F90089530DF89CF08958091E4169091CC
S1134460E5160C941D0A08958F929F92AF92CF92F5
S1134470EF920F931F93CF93C82F8B0141E060E01D
S113448070E088EC90E00E94E8099093E516809330
S1134490E4161093E3160093E2160F2EF5E18F2E27
S11344A0F1E29F2EF02D6894AA24A6F86894CC24F7
S11344B0C6F8E12C00E023E040E051EE60E070E05B
S11344C08C2FDED39093E7168093E616E7E0F1E0B5
S11344D0808180618083CF911F910F91EF90CF9065
S11344E0AF909F908F900895882331F0E8E0F1E039
S11344F080818F7E80830895E8E0F1E0808180618F
S11345008083089560E070E088E095E0D4DEEDE615
S1134510F7E101900020E9F73197ED56F74181E08A
S1134520759708F080E00895CF93DF93EC0160E085
S113453070E089E195E0BFDEEDE6F7E1019000204F
S1134540E9F7EE57F74139F46DE677E1CE010E94C1
S1134550CB3180E002C0188281E0DF91CF910895D1
S1134560FC0101900020E9F79F012151310928172E
S1134570390729F4BC0187E495E06CCF089589E0FC
S11345800895FC0101900020E9F79F0121513109B0
S11345902817390729F4BC0186E595E05BCF089517
S11345A089E00895FC0101900020E9F79F01215260
S11345B031092817390729F4BC0185E695E04ACF6B
S11345C0089589E0089560E070E084EA95E042CFC0
S11345D008950F931F93E82FF0E0EE0FFF1FE258AA
S11345E0F84F608171818DEA95E034DF811114C048
S11345F008E215E020E030E04DE250E06DE677E1BE
S11346008091E4169091E5160E946C0B882321F0AA
S11346108DE697E1AADE03C08DE697E1A6DE1F9141
S11346200F9108950F931F93CF93DF931F92CDB7EC
S1134630DEB7DB0111969C911197953108F0B4C057
S1134640992381F160E070E0272F30E0462F50E09D
S1134650FD01E40FF51F928192959F709A3010F03E
S1134660995C01C0905DF901E250F94E90832F5F8F
S11346703F4FFD01E40FF51F92819F70492F50E0D9
S11346804A30510514F0995C01C0905DF901E25083
S1134690F94E90837E5F6F5F11969C911197691715
S11346A098F201C070E0E72FF0E0E250F94E10827A
S11346B04C91811103C086EB95E002C088EB95E034
S11346C02EEF36E13F932F931F924F939F938F9337
S11346D08CEB95E09F938F9380E497E19F938F9366
S11346E00E94373260E070E080E497E1B3DE0FB6F9
S11346F0F894DEBF0FBECDBF811159C008E215E0AA
S113470020E030E04DE250E06DE677E18091E41680
S11347109091E5160E946C0B882309F447C08DE63E
S113472097E123DE8E3009F042C087E089838091CF
S1134730E2169091E316892BA9F1BE016F5F7F4FBA
S11347408DE697E168D18093E816E981F0E0E359BA
S1134750F84EDF010D900020E9F71197AE1BBF0B57
S1134760AA2391F0BB27CD0101979C0112F42F5F7E
S11347703F4F359527952093E916AF014F5F5F4F63
S113478064E18AEE96E173D101E010E020E030E0CC
S113479046E150E068EE76E18091E2169091E316EE
S11347A00E94690A8EE003C084E101C080E00F909A
S11347B0DF91CF911F910F910895813019F06CEC26
S11347C075E002C065EA76E080ED95E043CE089599
S11347D09F938F9381E096E09F938F9380E497E17A
S11347E09F938F930E94373260E070E080E497E1FA
S11347F031DE0F900F900F900F900F900F9008954F
S11348002F923F924F925F926F927F928F929F92DC
S1134810AF92BF92CF92DF92EF92FF920F931F93CA
S1134820CF93DF93CDB7DEB7A0970FB6F894DEBF72
S11348300FBECDBF6EE276E08AE396E03CDD95DD07
S11348408111A3C080E2ECE2F2E0DE011196019056
S11348500D928A95E1F79E012F5F3F4F6901E12C8C
S1134860F12C0F2EF6E4AF2EF6E0BF2EF02D00E46F
S113487017E10F2EFFE54F2EF6E05F2EF02D0F2EE1
S1134880F6E78F2EF6E09F2EF02D0F2EF0E96F2E17
S1134890F6E07F2EF02D3E2C2F2CFF92EF92BF924C
S11348A0AF921F930F930E94373260E070E0C8010B
S11348B002DD5BDD0F900F900F900F900F900F9023
S11348C0811163C032E03E15E8F4F60183818F93D1
S11348D082818F9381818F9380818F93FF92EF9256
S11348E05F924F921F930F930E94373260E070E003
S11348F0C801E1DC3ADD0FB6F894DEBF0FBECDBFD0
S1134900811143C02F923F929F928F921F930F93D6
S11349100E94373260E070E0C801CDDC26DD0F90E4
S11349200F900F900F900F900F9081112EC02F9227
S11349303F927F926F921F930F930E94373260E0F1
S113494070E0C801B8DC11DD0F900F900F900F904C
S11349500F900F90811119C03FEFE31AF30A84E01E
S1134960C80ED11C98E0E916F10409F094CF60E078
S113497070E088EA96E09FDCF8DC811106C060E014
S113498070E089EB96E097DCF0DCA0960FB6F89423
S1134990DEBF0FBECDBFDF91CF911F910F91FF906E
S11349A0EF90DF90CF90BF90AF909F908F907F90CB
S11349B06F905F904F903F902F900895EF92FF92E9
S11349C00F931F93CF93DF93EC018B017A0181E066
S11349D0F4DE81110DC0CE01D4DD811109C0C801FE
S11349E0E1DD811105C0C701BBDD811101C0EBDD33
S11349F0DF91CF911F910F91FF90EF90089590E078
S1134A00FC01EE0FFF1F8E0F9F1FFC01EE57F84FA6
S1134A10818192810895DC01009729F1FB012081B5
S1134A20FC0101900020E9F73197E81BF90B822F74
S1134A3090E0E817F907C8F080E008C0880F382F25
S1134A40330F330F830F8053890F2F5FFD01E20F64
S1134A50F11D908130ED390F3A3010F49111EECF01
S1134A60FB012083089580E0089580E008950F936A
S1134A701F93CF93DF93DC01EA012097E1F1FA0160
S1134A8001900020E9F73197E41BF50B329710F5FC
S1134A9032C08D01040F151F30E0AE01420F531FC9
S1134AA0FA019081913428F09753592F5295507FF1
S1134AB003C0592F5295507F2C0F3D1FF90191814E
S1134AC0913410F0975301C09053950FF8019083DF
S1134AD08F5F01C080E0282F220F482F50E0FE0195
S1134AE001900020E9F73197EC1BFD0B4E175F078F
S1134AF010F48613CECFDF91CF911F910F910895BB
S1134B0080919D17860F80939D179091A0179130E7
S1134B1079F028F09230A9F0933019F108956F3F9D
S1134B2009F048C010929D1781E08093A017089562
S1134B30663809F03FC010929C1782E08093A0175A
S1134B400895E0919C1781E08E0F80939C17F0E00C
S1134B50E656F84E6083823069F583E08093A017AF
S1134B60089590919C1721E0290F20939C1796306B
S1134B7009F581110EC0EAE9F7E1808190E0982FF0
S1134B8088272181820F911D9093A2178093A117EA
S1134B9004C01092A2171092A1171092A017E091CE
S1134BA09E17F0919F17309729F08091A11790914B
S1134BB0A217199508958F929F92AF92CF92EF9278
S1134BC00F930F2EF0E88F2EF5E29F2EF02D6894B0
S1134BD0AA24A4F86894CC24C4F8E12C00E023E0CF
S1134BE040E855E260E070E04BD09093A4178093C6
S1134BF0A3170F91EF90CF90AF909F908F9008954F
S1134C00CF93DF93CDB7DEB729970FB6F894DEBF05
S1134C100FBECDBF89E0ECE4F2E09E012F5F3F4F71
S1134C20D90101900D928A95E1F71092A217109282
S1134C30A1178091A3179091A417009731F0422FE8
S1134C40532F69E0EFD080E001C082E029960FB6CF
S1134C50F894DEBF0FBECDBFDF91CF9108952091B0
S1134C60A1173091A2172115310529F4FC011182F5
S1134C70108281E00895FC013183208380E008954F
S1134C802F923F924F925F926F927F928F929F9258
S1134C90AF92CF92EF92FF920F931F93CF93DF9334
S1134CA0CDB7DEB7F82E2A013B0188E090E00E94E0
S1134CB066308C018F2D90E0FC01EE0FFF1FEB5549
S1134CC0F84E118300830115110509F46EC0880F95
S1134CD0991FFC01EB5EFD4F80819181D8018D937A
S1134CE09C938C2D90E0880F991F880F991F0E9428
S1134CF066301C0186E090E00E9466307C014C2DF9
S1134D00B1010E94C02EF801F582E4828A2D90E060
S1134D10880F991F880F991F0E9466301C0186E036
S1134D2090E00E9466307C014A2DB1010E94C02EA1
S1134D30D8011396FC92EE92129717969C928E923B
S1134D401697FFB6F894ED91FC91119736978081F0
S1134D50826080838D909C90C301B20118D820E0BA
S1134D6030E040E051E40E94D62F9B01AC0160E0AA
S1134D7074E284E79BE40E94432F20E030E040E8A3
S1134D805FE30E94DC2E0E949B1EF4013297608335
S1134D90D801ED91FC911197359788E98083ED91C5
S1134DA0FC91349786E08083FFBEC801DF91CF91E8
S1134DB01F910F91FF90EF90CF90AF909F908F90A5
S1134DC07F906F905F904F903F902F900895CF9376
S1134DD0DF93DC01892B01F11296ED91FC9113977D
S1134DE0938182812581981B922384819817B1F045
S1134DF0838126952823C081D181C20FD11D688368
S1134E008F5F958189238383ED91FC913597808110
S1134E108062808380E003C081E001C082E0DF9192
S1134E20CF910895EF92FF920F931F93CF93DF9347
S1134E307C01009709F441C0DC011296ED91FC91CC
S1134E40139793818281981B858198238481891B80
S1134E508617A8F1662341F1842F952FDC01615058
S1134E60462F50E04F5F5F4F480F591FE701EA811B
S1134E70FB81938182812581981B922384819817D9
S1134E8079F08C91938126952923608171818B011E
S1134E90020F111DE80188839F5F85819823938306
S1134EA01196A417B50711F7D701ED91FC91359729
S1134EB080818062808380E003C081E001C082E061
S1134EC0DF91CF911F910F91FF90EF90089500977C
S1134ED0D1F0DC011496ED91FC91159793818281B8
S1134EE0981799F09281858186958923A081B18153
S1134EF0A80FB11D8C91DB018C939F5F8581982352
S1134F00928380E0089581E0089583E008951F92DC
S1134F100F920FB60F9211240BB60F922F933F935B
S1134F204F935F936F937F938F939F93AF93BF93AD
S1134F30CF93DF93EF93FF93A091A517B091A6179A
S1134F40109711F16091C6001496ED91FC9115979C
S1134F50938182812581981B92238481981761F023
S1134F60838126952823C081D181C20FD11D6883F6
S1134F708F5F9581892383831696ED91FC91179712
S1134F80309711F0CD011995FF91EF91DF91CF91F9
S1134F90BF91AF919F918F917F916F915F914F914D
S1134FA03F912F910F900BBE0F900FBE0F901F904B
S1134FB018951F920F920FB60F9211240BB60F92F1
S1134FC02F938F939F93AF93BF93EF93FF93E091AE
S1134FD0A517F091A6173097B9F00280F381E02D60
S1134FE0938182819817B1F092818581282F26952B
S1134FF02923A081B181A20FB11D2C919F5F892328
S113500082832093C6000BC0E1ECF0E080818F7DA9
S1135010808305C0E1ECF0E080818F7D8083FF9187
S1135020EF91BF91AF919F918F912F910F900BBEF4
S11350300F900FBE0F901F9018951F920F920FB6EE
S11350400F9211240BB60F922F933F934F935F93BC
S11350506F937F938F939F93AF93BF93CF93DF937C
S1135060EF93FF93A091A717B091A817109711F190
S11350706091CE001496ED91FC91159793818281F5
S11350802581981B92238481981761F0838126954A
S11350902823C081D181C20FD11D68838F5F958180
S11350A0892383831696ED91FC911797309711F01D
S11350B0CD011995FF91EF91DF91CF91BF91AF9100
S11350C09F918F917F916F915F914F913F912F911C
S11350D00F900BBE0F900FBE0F901F9018951F924C
S11350E00F920FB60F9211240BB60F922F938F933A
S11350F09F93AF93BF93EF93FF93E091A717F09122
S1135100A8173097B9F00280F381E02D9381828152
S11351109817B1F092818581282F26952923A081A3
S1135120B181A20FB11D2C919F5F892382832093AB
S1135130CE000BC0E9ECF0E080818F7D808305C058
S1135140E9ECF0E080818F7D8083FF91EF91BF9146
S1135150AF919F918F912F910F900BBE0F900FBE27
S11351600F901F9018951F920F920FB60F92112453
S11351700BB60F922F933F934F935F936F937F934D
S11351808F939F93AF93BF93CF93DF93EF93FF934B
S1135190A091A917B091AA17109711F16091D600A8
S11351A01496ED91FC911597938182812581981B2A
S11351B092238481981761F0838126952823C081E6
S11351C0D181C20FD11D68838F5F95818923838329
S11351D01696ED91FC911797309711F0CD01199522
S11351E0FF91EF91DF91CF91BF91AF919F918F91FB
S11351F07F916F915F914F913F912F910F900BBED3
S11352000F900FBE0F901F9018951F920F920FB61C
S11352100F9211240BB60F922F938F939F93AF93FA
S1135220BF93EF93FF93E091A917F091AA173097DA
S1135230B9F00280F381E02D938182819817B1F057
S113524092818581282F26952923A081B181A20FDF
S1135250B11D2C919F5F892382832093D6000BC0BC
S1135260E1EDF0E080818F7D808305C0E1EDF0E029
S113527080818F7D8083FF91EF91BF91AF919F914A
S11352808F912F910F900BBE0F900FBE0F901F9018
S113529018951F920F920FB60F9211240BB60F920E
S11352A02F933F934F935F936F937F938F939F932A
S11352B0AF93BF93CF93DF93EF93FF93A091AB177B
S11352C0B091AC17109711F1609136011496ED91DD
S11352D0FC911597938182812581981B9223848167
S11352E0981761F0838126952823C081D181C20F4C
S11352F0D11D68838F5F9581892383831696ED91F1
S1135300FC911797309711F0CD011995FF91EF910A
S1135310DF91CF91BF91AF919F918F917F916F91C9
S11353205F914F913F912F910F900BBE0F900FBE45
S11353300F901F9018951F920F920FB60F92112481
S11353400BB60F922F938F939F93AF93BF93EF93CB
S1135350FF93E091AB17F091AC173097B9F002804E
S1135360F381E02D938182819817B1F09281858138
S1135370282F26952923A081B181A20FB11D2C913C
S11353809F5F89238283209336010BC0E1E3F1E020
S113539080818F7D808305C0E1E3F1E080818F7D92
S11353A08083FF91EF91BF91AF919F918F912F9146
S11353B00F900BBE0F900FBE0F901F901895CF93B8
S11353C0DF931F92CDB7DEB7BE016F5F7F4F809131
S11353D0AD179091AE177BDD8111F6CF898190E0F6
S11353E00F90DF91CF910895682F8091AD17909120
S11353F0AE17EDDC80E090E008958F929F92AF921B
S1135400CF92EF920F93812C912C6894AA24A7F841
S11354106894CC24C7F8E12C00E023E040E051EE8E
S113542060E070E02DDC9093AE178093AD17E0EF51
S1135430F7E18DE192E091838083938382830F91DE
S1135440EF90CF90AF909F908F900895E091AF1719
S1135450F091B0173097F9F0A081B1811097D9F08D
S11354602381213069F44C9121E030E0028002C0B4
S1135470220F331F0A94E2F7209524232C930BC0A8
S11354804C9121E030E0028002C0220F331F0A94C5
S1135490E2F7242B2C939093B0178093AF170097C7
S11354A069F01092B1172CB52F732CBDFC01248127
S11354B02CBD85818DBD8CB580648CBD08951F93F2
S11354C0CF93DF93009709F46AC0162FEC01809103
S11354D0AF179091B017C817D90711F0CE01B6DFF6
S11354E08FB72FB7F8948091B117811131C081E043
S11354F08093B117A091AF17B091B017ED91FC91C3
S113550011973097F9F013968C911397813069F4C1
S1135510308181E090E012960C9002C0880F991FB0
S11355200A94E2F7832B80830DC0308181E090E000
S113553012960C9002C0880F991F0A94E2F7809586
S1135540832380838CB580688CBD1EBD80E025C01C
S1135550EE81FF813097E1F034818381428195812E
S1135560841B89233817B1F083814281841B8923EA
S1135570381791F0838196959823A081B181A90F62
S1135580B11D1C938F5F95818923838380E005C0BF
S113559082E003C081E001C080E02FBF01C083E04E
S11355A0DF91CF911F9108951F920F920FB60F9222
S11355B011240BB60F922F933F934F935F936F93E6
S11355C07F938F939F93AF93BF93CF93DF93EF9387
S11355D0FF936EB5A091AF17B091B0171896ED91E7
S11355E0FC9119973097A1F0838122819581821BC8
S11355F089232481821761F0838196959823C08141
S1135600D181C90FD11D68838F5F958189238383DD
S11356101696ED91FC911797309799F093818281BA
S1135620981779F092818581282F26952923A081C6
S1135630B181A20FB11D2C919F5F892382832EBD5E
S11356402DC08CB58F778CBD1092B117A091AF1778
S1135650B091B017ED91FC9111973097F9F0139632
S11356608C911397813071F4208181E090E012963F
S11356700C9002C0880F991F0A94E2F78095822348
S113568080830CC0208181E090E012960C9002C0CF
S1135690880F991F0A94E2F7822B80838091AF17B9
S11356A09091B017DC011A96ED91FC911B973097FD
S11356B009F01995FF91EF91DF91CF91BF91AF91CF
S11356C09F918F917F916F915F914F913F912F9116
S11356D00F900BBE0F900FBE0F901F90189590E087
S11356E0FC01EE0FFF1FE80FF91FEE0FFF1FEE5432
S11356F0F84E238121111FC09C01220F331FF90191
S1135700E80FF91FEE0FFF1FEE54F84EA081B18190
S11357104C91F901E80FF91FEE0FFF1FEE54F84EFC
S113572081E090E0028002C0880F991F0A94E2F79A
S1135730842B8C930895FC01EE0FFF1FDF01A80F4B
S1135740B91FAA0FBB1FAE54B84E0D90BC91A02D2B
S11357502C91E80FF91FEE0FFF1FEE54F84E81E075
S113576090E0028002C0880F991F0A94E2F78095A6
S113577082238C93089590E0FC01EE0FFF1FE80F45
S1135780F91FEE0FFF1FEE54F84E2381211120C0A4
S11357909C01220F331FF901E80FF91FEE0FFF1FC1
S11357A0EE54F84EA081B1814C91F901E80FF91F34
S11357B0EE0FFF1FEE54F84E81E090E0028002C02D
S11357C0880F991F0A94E2F7809584238C93089597
S11357D0FC01EE0FFF1FDF01A80FB91FAA0FBB1FAB
S11357E0AE54B84E0D90BC91A02D2C91E80FF91F2A
S11357F0EE0FFF1FEE54F84E81E090E0028002C0ED
S1135800880F991F0A94E2F7822B8C930895CC2475
S1135810C394D12C6894BB24B2F8C2EBD7E110E056
S11358208C81813081F018F1823061F5E881F98151
S11358302081C6010A8002C0880F991F0A94E2F7EA
S1135840822780831FC08D818F5F863010F48D8303
S113585019C01D82E881F9812081C6010A8002C035
S1135860880F991F0A94E2F7822780830BC00D8169
S1135870002329F0812F7FDF01500D8303C0BC82F8
S1135880812F2DDF1F5F2696143051F66CE070E0F7
S113589080E090E00E94E610C0CFEF92FF920F9359
S11358A01F93CF93DF93082F80E487B9C2EBD7E12E
S11358B00F2EF8E2EF2EF12CF02DF982E88286E02B
S11358C08A831B8214E01C8380E009DF80E887B9A7
S11358D0FF82EE8287E0888719861A8781E0FFDEDF
S11358E080E283BB84E390E09D878C8785E08E878C
S11358F01F86188B82E0F3DE80E18093010182E051
S113590091E09B8B8A8B1C8B1D8A1E8B83E0E7DEC8
S1135910E12CF12C20E030E040EC50E065EB77E046
S113592087E09CE20E94E00CDF91CF911F910F91E0
S1135930FF90EF900895CF93DF9390E0FC01EE0F7A
S1135940FF1FDF01A80FB91FAA0FBB1FAE54B84E2B
S1135950CD91DC911197488121E030E012960C90B2
S1135960129702C0220F331F0A94E2F724272883D8
S1135970FD0181E08483DF91CF910895CF93DF937C
S113598090E0FC01EE0FFF1FDF01A80FB91FAA0F63
S1135990BB1FAE54B84ECD91DC911197488121E0E4
S11359A030E012960C90129702C0220F331F0A9413
S11359B0E2F724272883FD0182E08483DF91CF91DD
S11359C00895282F30E0F901EE0FFF1FE20FF31FB7
S11359D0EE0FFF1FEE54F84E93E09483CCCE08955F
S11359E0282F30E0F901EE0FFF1FE20FF31FEE0F37
S11359F0FF1FEE54F84E94E0948371CE089590E026
S1135A00FC01EE0FFF1FDF01A80FB91FAA0FBB1F78
S1135A10AE54B84E26E015962C931597FD011482CA
S1135A20089590E0FC01EE0FFF1FDF01A80FB91FDE
S1135A30AA0FBB1FAE54B84E15961C921597FD01C4
S1135A40148208958091D81781110CC08CE0809342
S1135A50B8008FEF8093BB0084E08093BC0081E0AA
S1135A608093D8170895AF92BF92CF92DF92EF92AE
S1135A70FF920F931F93CF93DF93A82EB62E690145
S1135A807A0184E090E022D3EC01892B61F1A882B1
S1135A9081E0B81212C0C701B60120EA36E841E03D
S1135AA050E0EAD2DA01C9014097A109B109B695DB
S1135AB0A79597958795898311C0C701B60120E8FA
S1135AC03AE146E050E0D8D2DA01C9014097A10991
S1135AD0B109B695A7959795879589831B830A8302
S1135AE08C2F9D2F02C080E090E0DF91CF911F9119
S1135AF00F91FF90EF90DF90CF90BF90AF900895FB
S1135B008091BC0081700895FF920F931F93CF93EF
S1135B10DF930097D1F14A30D0F5F42E8B01EC01DC
S1135B20EFDF811136C08091CB179091CC17C81745
S1135B30D90741F087DF89818093B800D093CC17CF
S1135B40C093CB1781E08F0D8093CD178881880F88
S1135B508093CE17FF2089F0F801AFECB7E14FEF47
S1135B604F0D642F70E0CB010196B801680F791FC7
S1135B7081918D93E617F707D9F788EF80932B026D
S1135B8085EA8093BC0084E005C086E003C087E01A
S1135B9001C082E0DF91CF911F910F91FF90089592
S1135BA01F93CF93DF93009729F16B3028F5162FBD
S1135BB0EC01A6DF811122C08091CB179091CC1704
S1135BC0C817D90741F03EDF89818093B800D0938C
S1135BD0CC17C093CB171093CD178881880F8160A1
S1135BE08093CE1788EF80932B0285EA8093BC00C4
S1135BF085E005C086E003C087E001C082E0DF9154
S1135C00CF911F9108951F920F920FB60F921124F6
S1135C100BB60F922F933F934F935F936F937F93A2
S1135C208F939F93AF93BF93EF93FF93E091B9004A
S1135C308E2F90E0FC013897E135F10508F075C02E
S1135C408827E458FF4F8F4F39C21092CA17E0914A
S1135C50CA178091CD17E81770F481E08E0F8093F6
S1135C60CA17F0E0E253F84E80818093BB0085E8C8
S1135C708093BC0072C084E98093BC008091CB17F0
S1135C809091CC17DC011296ED91FC91139730970B
S1135C9009F463C020E040E050E064E019955DC081
S1135CA0E091CA1781E08E0F8093CA178091BB00E0
S1135CB0F0E0E253F84E80838091B900803411F40F
S1135CC01092CA172091CA1730E08091CD1790E046
S1135CD001972817390724F485EC8093BC003DC054
S1135CE085E88093BC0039C08091BB00E091CA175D
