S01300004669726D77617265305F312E7372656314
S113000046C2000065C2000063C2000061C2000075
S11300105FC200005DC200005BC2000059C2000064
S113002057C2000055C2000053C2000051C2000074
S113003032C500004DC200004BC2000049C200009E
S113004047C2000045C2000043C2000041C2000094
S11300503FC200000C94501F3BC2000039C2000094
S11300600C94232A0C94D6260C94282731C2000021
S11300702FC200002DC200002BC2000029C20000C4
S113008027C2000025C2000023C2000021C20000D4
S11300900C946C270C94BE271BC200000C94522DA8
S11300A017C2000015C2000013C2000011C20000F4
S11300B00FC200000DC200000BC2000009C2000004
S11300C007C2000005C2000003C200000C9402280D
S11300D00C945428FDC100000C9498280C94EA2830
S11300E0F7C10000BE01BE01BE01F8010002160204
S11300F0BE01BE01F8010002742DE42DE42DE42DAF
S1130100E42DE42DE42DE42D742DE42DE42DE42DD3
S1130110E42DE42DE42DE42D762DE42DE42DE42DC1
S1130120E42DE42DE42DE42DE42DE42DE42DE42D43
S1130130E42DE42DE42DE42D762DE42DE42DE42DA1
S1130140E42DE42DE42DE42DE42DE42DE42DE42D23
S1130150E42DE42DE42DE42DE02DE42DE42DE42D17
S1130160E42DE42DE42DE42DAB2DE42DE42DE42D3C
S1130170E42DE42DE42DE42DE42DE42DE42DE42DF3
S1130180E42DE42DE42DE42D9F2DE42DE42DE42D28
S1130190E42DE42DE42DE42DC32D09E516E10F2E05
S11301A0F9E8EF2EF6E1FF2EF02D80915816882302
S11301B011F10FB6F8940F92D8011796ED91FC91B6
S11301C01897C085D185CE01029625D380914C160F
S11301D0815080934C168091581681508093581604
S11301E00F900FBE8B8D9C8D8AD2CE0188D28091C8
S11301F058168111DECFF7018081823008F085D353
S11302000E94C718D2CFCF93DF93CDB7DEB76097E4
S11302100FB6F894DEBF0FBECDBFCE0101969A870C
S11302208987812C912CA12CB12C69847A84E0914A
S11302300317F09104178081882309F40EC1078005
S1130240F085E02D20803180428053800E94520E40
S1130250CE0101960E9430186B877C878D879E871C
S11302608981811164C08B859C85AD85BE8582158D
S11302709305A405B50508F444C00E94960FE091C7
S11302800317F09104170780F085E02DA085B18550
S1130290B88BAF87CD010296BED2EF85F8898689E7
S11302A082FF21C04685578560897189420D531D9F
S11302B0641D751D720161010B851C852D853E85AC
S11302C0CF010E943F17882399F0C82CD92CEA2C1F
S11302D0FB2C00E010E0A201910160E08F85988979
S11302E00E94D21705C08E7FAF85B88956968C932D
S11302F0AF85B8895496ED91FC915597CD01199528
S11303009EC020E0B201A1018B859C85AD85BE8590
S1130310481B590B6A0B7B0B8091FF1690910017B9
S113032051D70E94960F81118AC0EFD288C00E94D3
S1130330960F85C0898188230CF481C04E805F802C
S1130340D2011C968D919C911D97892B19F0C201A5
S1130350029661D2CE0108960E9430188B019C014E
S1130360E9810E2E000CFF0BEA30F10508F067C09E
S11303708827EE58FF4F8F4F0C94EA2FF20186899D
S11303808160868BCA80DB80EC80FD804685578542
S1130390608971894C0D5D1D6E1D7F1DC2010E9417
S11303A03F17882309F44BC0D2015496ED91FC9178
S11303B05597C2011995F201868982FF40C04A818E
S11303C05B816C817D8186859785A089B1899A013D
S11303D0AB01280F391F4A1F5B1FC82CD92CEA2CEC
S11303E0FB2C00E010E060E0C2010E94D21727C09D
S11303F0D20156968C9156978E7F56968C931FC039
S1130400F20186898160868B4A815B816C817D8162
S113041046875787608B718B400F511F621F731F74
S113042068017901C2010E943F1709C0F20186895F
S113043081FD03C0C20163D102C08E7F868B282D4B
S1130440392D4A2D5B2D662D772D8091FF169091C5
S1130450001751D581116ECFEACE0E94520ECE0103
S113046001960E9430186B877C878D879E878981CF
S113047081115DCFE0910117F0910217808121E095
S1130480811120E0282C392C4A2C5B2C3BCF1124E1
S11304901FBECFEFD1E2DEBFCDBF00E00CBF18E03E
S11304A0A0E0B2E0EAE7F9E600E00BBF02C0079083
S11304B00D92AC37B107D9F728E1ACE7B8E001C039
S11304C01D92A63BB207E1F70E946A1D0C94BB344F
S11304D097CD0895CF93DF93DC01E8E8F8E001C0FD
S11304E0F901208131812A173B07D0F3828193815E
S11304F0AF01480F591FA417B50749F412964D913F
S11305005C911397840F951F93838283DF01129666
S11305108D919C911397ED01C80FD91F2C173D079E
S1130520D9F42091860830918708C217D30781F047
S11305302A813B81820F931F13969C938E9312976B
S1130540C081D1818881998111969C938E9307C033
S11305501196DC93CE9303C011963C932E93AE1761
S1130560BF0711F0B183A083DF91CF910895CF929B
S1130570DF92EF92FF920F931F93CF93DF93EC01DF
S11305800E94520E8091860890918708892B41F52C
S1130590E8E8F8E0ACE8B8E0B183A0831382128203
S11305A0E4E3F6E1F0938708E0938608138212826D
S11305B01182108288EA9DE013969C938E93129781
S11305C0ED93FC939093830880938208909385081D
S11305D08093840880E090E890937D0880937C0861
S11305E0E0907C08F0907D08C7018C239D23892B23
S11305F009F075C0209709F475C09E012C5F3F4F28
S1130600C217D30708F06EC02115310509F467C07D
S113061000918408109185080217130708F45FC03D
S1130620C0918808D0918908E8E8F8E002C0FE018A
S1130630EC018A819B818217930720F48881998138
S11306400097A9F78091860890918708C817D90761
S113065009F445C0C080D18084E0C80ED11C8881D3
S11306609981918380834A815B81421B530B49307A
S1130670510548F0CE01820F931FFC01538342833E
S11306803B832A8327DF8A819B81081B190B1093E4
S1130690850800938408209182083091830802170A
S11306A0130720F41093830800938208E82AF92A98
S11306B0FB82EA82198218828091800890918108D5
S11306C0019690938108809380080E94960FC1142C
S11306D0D10459F40E94CD18C12CD12C06C00E941B
S11306E0960FF8CF0E94960FF5CFC601DF91CF91F8
S11306F01F910F91FF90EF90DF90CF900895CF93CB
S1130700DF93009799F1FC01349722813381409162
S11307107C0850917D08B90164237523672B31F15E
S113072060817181672B11F5EF0140955095242369
S11307303523338322830E94520E20918408309102
S113074085088A819B81820F931F909385088093EB
S11307508408CE01BFDE80917E0890917F080196C7
S113076090937F0880937E080E94960FDF91CF912B
S11307700895FC010396928381834FEF5FEFBA01E2
S113078043835483658376839087878392878187A5
S113079010820895FC011386128608950F931F9307
S11307A0CF93DF93EB01088119812A813B810F3FAD
S11307B04FEF14072407340721F4FC01A185B28507
S11307C011C0DC01139601C0DF011496ED91FC9178
S11307D0159740815181628173810417150726079B
S11307E0370790F71496ED91FC911597FD83EC83F0
S11307F0D783C683BF83AE831596DC93CE931497B9
S11308009B878A87FC0120812F5F2083DF91CF9112
S11308101F910F910895CF93DF93FC01A285B385B7
S1130820C481D581868197819F838E83C681D78138
S1130830848195819D838C8311968D919C911297CF
S1130840E817F90731F48681978112969C938E9369
S11308501197138612868C9181508C938C91DF9121
S1130860CF910895FC016083319770833197108292
S113087031971082319720E8208331971082319785
S113088010823197108277974083319750838697EF
S11308900895A89590EC88E10FB6F894A8958093F4
S11308A060000FBE90936000A091F716B091F81607
S11308B0CD91CDBFDD91DEBFFF91EF91DF91CF915F
S11308C0BF91AF919F918F917F916F915F914F9164
S11308D03F912F911F910F91FF90EF90DF90CF9058
S11308E0BF90AF909F908F907F906F905F904F904C
S11308F03F902F901F900F900CBE0F900BBE0F9047
S11309000FBE0F90089581E008950F920FB6F894EA
S11309100F920BB60F920CB60F921F9211242F92C6
S11309203F924F925F926F927F928F929F92AF927B
S1130930BF92CF92DF92EF92FF920F931F932F9368
S11309403F934F935F936F937F938F939F93AF9353
S1130950BF93CF93DF93EF93FF93A091F716B091DA
S1130960F8160DB60D920EB60D920E94FF10A091CE
S1130970F716B091F816CD91CDBFDD91DEBFFF9192
S1130980EF91DF91CF91BF91AF919F918F917F9123
S11309906F915F914F913F912F911F910F91FF9014
S11309A0EF90DF90CF90BF90AF909F908F907F900B
S11309B06F905F904F903F902F901F900F900CBEC0
S11309C00F900BBE0F900FBE0F9008950F920FB6AD
S11309D0F8940F920BB60F920CB60F921F9211243B
S11309E02F923F924F925F926F927F928F929F923B
S11309F0AF92BF92CF92DF92EF92FF920F931F9329
S1130A002F933F934F935F936F937F938F939F9312
S1130A10AF93BF93CF93DF93EF93FF93A091F71618
S1130A20B091F8160DB60D920EB60D9213BE0E943B
S1130A30660E81110E94FF10A091F716B091F8166E
S1130A40CD91CDBFDD91DEBFFF91EF91DF91CF91CD
S1130A50BF91AF919F918F917F916F915F914F91D2
S1130A603F912F911F910F91FF90EF90DF90CF90C6
S1130A70BF90AF909F908F907F906F905F904F90BA
S1130A803F902F901F900F900CBE0F900BBE0F90B5
S1130A900FBE0F9008959ADF18950FB6F8940F9231
S1130AA0FC01968D0F900FBE81E0911180E00895B6
S1130AB00F931F93CF93DF93EC01042F1E8D48A156
S1130AC041110CC088819981892B09F042C08C8125
S1130AD09D810E9497131D821C8242C0011117C080
S1130AE050E08A819B810E94173128A18A819B81D1
S1130AF0820F911D9B838A832C813D8182179307EA
S1130B0050F1888199819B838A8380E029C050E0D9
S1130B108E819F810E94173188A190E091958195E3
S1130B2091092E813F81280F391F3F832E834881ED
S1130B3059812417350730F42C813D81820F931F8E
S1130B409F838E83023049F4112349F0115080E0D1
S1130B5007C080E005C080E003C080E001C080E001
S1130B601F5F1E8FDF91CF911F910F910895FC019C
S1130B7040A14423A9F050E026813781240F351F7A
S1130B8037832683848195812817390720F0808153
S1130B90918197838683CB01668177810C94173189
S1130BA00895EF92FF920F931F93CF938C010FB68A
S1130BB0F8940F92FC01C2A11C16ACF48389811134
S1130BC006C011C0F8018389811105C00CC07801E9
S1130BD0F3E1EF0EF11CC7010E94C91181110E94BB
S1130BE0F912C15079F78FEFF80182A30F900FBE6D
S1130BF00FB6F8940F92C1A11C16ACF48085811134
S1130C0006C011C0F8018085811105C00CC07801AF
S1130C10F8E0EF0EF11CC7010E94C91181110E9476
S1130C20F912C15079F78FEFF80181A30F900FBE2D
S1130C30CF911F910F91FF90EF900895CF93DF9381
S1130C40EC010FB6F8940F92E881F9818F8D28A1F9
S1130C5090E030E0829FA001839F500D929F500D41
S1130C6011244E0F5F1F5D834C831E8EFB83EA832A
S1130C700197829FA001839F500D929F500D1124D4
S1130C80CF01840F951F9F838E838FEF89A38AA33F
S1130C9061110BC08885882371F0CE0108960E94EB
S1130CA0C911882341F031DE06C0CE01089661DD0A
S1130CB0CE0143965EDD0F900FBE81E0DF91CF91B0
S1130CC008950F931F93CF93DF93082F162F869FBA
S1130CD0C001112483964BDCEC01009769F01111DB
S1130CE003C09983888303C08396998388830F8F75
S1130CF018A361E0CE01A2DFCE01DF91CF911F9155
S1130D000F9108959F92AF92BF92CF92DF92EF928C
S1130D10FF920F931F93CF93DF93CDB7DEB729973D
S1130D200FB6F894DEBF0FBECDBF7C015B012E83EE
S1130D303F834887598710E0992493946C0188E095
S1130D40C80ED11C0FB6F8940F92F701968D878DBB
S1130D50981710F00230B1F4402FB501C701A8DE96
S1130D60F7019389992341F0C70143960E94C91161
S1130D70882321F0CADD02C08111C7DD0F900FBEA8
S1130D8081E051C08E819F81A885B985892B8A2BEA
S1130D908B2B21F40F900FBE80E045C0111105C0CC
S1130DA0CE0101960E948F12192D0F900FBE7AD793
S1130DB00FB6F8940F92F70181A18F3F09F411A2A5
S1130DC0F70182A18F3F09F412A20F900FBEBE015A
S1130DD06A5F7F4FCE0101960E94A01281111EC04E
S1130DE00FB6F8940F92F701968D878D0F900FBE72
S1130DF098130FC04E815F8168857985C6010E9472
S1130E007011C701CEDE0E94960F81119BCF7DDD4C
S1130E1099CFC701C6DE0E94960F94CFC701C1DEE9
S1130E200E94960F80E029960FB6F894DEBF0FBE9D
S1130E30CDBFDF91CF911F910F91FF90EF90DF9085
S1130E40CF90BF90AF909F9008950F93CF93DF936F
S1130E50482F60E081E035DFEC01009761F01D82EE
S1130E601C82198218821E8200E020E030E0A90171
S1130E7060E070E047DFCE01DF91CF910F910895DC
S1130E80EF92FF920F931F93CF93DF938A01FC019C
S1130E90568D378D531710F02230F9F4422F780114
S1130EA0EC011AA18E8DCE0103DE1F3F81F48B89E4
S1130EB08823A9F0CE0143960E94C911882389F0A2
S1130EC0E114F10481F081E0F70180830DC0FF2477
S1130ED0F394F10EFAA281E007C080E005C081E03E
S1130EE003C081E001C081E0DF91CF911F910F9198
S1130EF0FF90EF9008959F92AF92BF92CF92DF92AE
S1130F00EF92FF920F931F93CF93DF93CDB7DEB78A
S1130F1029970FB6F894DEBF0FBECDBF8C015B01DD
S1130F202E833F8348875987E12C992493946C013D
S1130F3083E1C80ED11C0FB6F8940F92F801F68C19
S1130F40FF2099F0B501C80112DEFA94F801F68E7B
S1130F508085882331F0C80108960E94C911811147
S1130F60D4DC0F900FBE81E04DC08E819F81A88597
S1130F70B985892B8A2B8B2B21F40F900FBE80E02F
S1130F8041C0E11005C0CE0101960E948F12E92CE8
S1130F900F900FBE87D60FB6F8940F92F80181A177
S1130FA08F3F09F411A2F80182A18F3F09F412A224
S1130FB00F900FBEBE016A5F7F4FCE0101960E9463
S1130FC0A012811116C0C80168DD882371F04E811A
S1130FD05F8168857985C6010E947011C801E1DDD1
S1130FE0A5D78111A8CF91DCA6CFC801DADD9ED7A1
S1130FF0A2CFC801D6DD9AD7C8014FDD882309F4F2
S11310009ACF80E029960FB6F894DEBF0FBECDBF0D
S1131010DF91CF911F910F91FF90EF90DF90CF90D0
S1131020BF90AF909F900895BF92CF92DF92EF92BE
S1131030FF920F931F93CF93DF93CDB7DEB729971A
S11310400FB6F894DEBF0FBECDBF8C014E835F8315
S113105068877987B12CD12CCC24C3947C0183E19B
S1131060E80EF11C0FB6F8940F92D8015E968C919D
S11310705E978823E1F081505E968C935E978D9104
S11310809C91892B29F40E945914F8019583848337
S1131090D80118968C91882331F0C80108960E94D3
S11310A0C911811132DC0F900FBE81E07BC08E81AB
S11310B09F81A885B985892B8A2B8B2B21F40F90CE
S11310C00FBE80E06FC0D11005C0CE0101960E9412
S11310D08F12DC2C0F900FBEE5D50FB6F8940F924B
S11310E0F80181A18F3F09F411A2D80192968C9145
S11310F092978F3F11F492961C920F900FBEBE01EF
S11311006A5F7F4FCE0101960E94A012811125C013
S1131110C801C3DC8823E9F0F80180819181892B1F
S113112051F40FB6F8940F92848195810E941013A4
S1131130B82E0F900FBE4E815F8168857985C701F7
S11311400E947011C8012DDDF1D681118BCFDDDB3A
S113115089CFC80126DDEAD685CFC80122DDE6D6CF
S1131160C8019BDC882309F47DCFBB20D1F00FB6E6
S1131170F8940F92F8018389882339F0028CF38D57
S1131180E02D80816AE0681B01C060E0D8011496FC
S11311908D919C9115970E94F2130F900FBE80E0E1
S11311A001C080E029960FB6F894DEBF0FBECDBF14
S11311B0DF91CF911F910F91FF90EF90DF90CF902F
S11311C0BF900895CF93DF93EC010FB6F8940F927C
S11311D089A18F3F09F419A28AA18F3F09F41AA2A9
S11311E00F900FBE8E8D811104C0CE0143960E94D4
S11311F08711CE01D6DCDF91CF910895FC014481A3
S1131200558122813381240F351F80819181B90159
S1131210681B790BCB016417750710F0841B950BC1
S11312200895AF92BF92CF92DF92EF92FF920F9305
S11312301F93CF93DF936C015B017A01FC01C281A0
S1131240D381048115810C1B1D0B4017510708F431
S11312508A01F60184859585A801B5018C0F9D1F2F
S11312600E9417310E151F0558F4A701401B510B9E
S1131270B501600F711FF601848595850E941731B1
S1131280CE018E0D9F1DF6012481358182179307AF
S113129010F0821B930BF60193838283C701DF91C5
S11312A0CF911F910F91FF90EF90DF90CF90BF905F
S11312B0AF900895CF92DF92EF92FF920F931F9316
S11312C0CF93DF931F921F92CDB7DEB75A83498322
S11312D021153105C9F06B017C01FC01868580FD77
S11312E008C0CA012417350708F4C9019A83898301
S11312F011C02017310758F042E050E0BE016F5F83
S11313007F4FC7018EDF06C080E090E008C080E018
S113131090E005C049815A81B601C70182DF0F9070
S11313200F90DF91CF911F910F91FF90EF90DF907D
S1131330CF900895AF92BF92CF92DF92EF92FF9237
S11313400F931F93CF93DF937C015B01E901421755
S1131350530708F4EA01209779F1F701008111811C
S1131360C480D580C01AD10ACC15DD0508F46E01FD
S1131370F70164857585600F711FA601C5010E9480
S11313801731CC16DD0658F4AE014C195D09F7018E
S113139064857585C5018C0D9D1D0E9417310C0F48
S11313A01D1FF701848195810817190710F0081B88
S11313B0190BF70111830083CE01DF91CF911F91A7
S11313C00F91FF90EF90DF90CF90BF90AF90089572
S11313D0FF920F931F93CF93DF938B01FF24F3941A
S11313E0413009F0F12C0115110511F401E010E070
S11313F09C01205F3F4F82179307B0F4EC012196C4
S1131400C901B5D8FC01892B89F08FE0DF011D9259
S11314108A95E9F7CF010F9695878487D583C4838E
S113142017830683F68602C0E0E0F0E0CF01DF9187
S1131430CF911F910F91FF9008950FB6F8940F92DA
S1131440DC0118962D913C911997232B51F51A968E
S11314502D913C911B97232B31F51E962C911E97B1
S113146016964D915C91179714966D917C911597F2
S11314701C96ED91FC911D973FE01D923A95E9F77A
S1131480DC011D96FC93EE931C9715967C936E934A
S1131490149717965C934E9316971E962C9381E09F
S11314A003C080E001C080E00F900FBE0895FC01EE
S11314B0248135818081918142815381820F931FE0
S11314C00197841B950B8217930710F0821B930BD3
S11314D008952F923F924F925F926F927F928F92D4
S11314E09F92AF92BF92CF92DF92EF92FF920F93AF
S11314F01F93CF93DF93CDB7DEB72B970FB6F89436
S1131500DEBF0FBECDBF4C017B876A871A010E83F5
S11315101F8328873987FC0184819581019726855B
S113152020FF0CC02A01F2E04F0E511C84159505D2
S113153050F41E821F821886198646C02A01841719
S1131540950708F42C018E819F81A885B985892B84
S11315508A2B8B2B09F438C0CE010196CAD70FB65B
S1131560F8940F92C401A3DF3C018415950538F566
S113157060E080E090E00E9425170E94FD12F401D3
S1131580938782870F900FBEAE80BF80C884D984B2
S1131590E12CF12C00E010E0980140E050E0BA01A9
S11315A080E00E946B14F40113861286BE016A5F08
S11315B07F4FCE010196C4D7882389F202C00F90D1
S11315C00FBE6114710419F4C40171DF3C0182017E
S11315D09301A1016A857B85C4016CDE6C01892BB2
S11315E0E9F0C4010BDEF4012681378182179307E9
S11315F0A8F058D3F40180859185892B71F08085FA
S11316009185E12CF12C00E020E030E0A90160E0BC
S11316100E941315F4011186108688D4C6012B96F6
S11316200FB6F894DEBF0FBECDBFDF91CF911F91EF
S11316300F91FF90EF90DF90CF90BF90AF909F906D
S11316408F907F906F905F904F903F902F90089570
S1131650AF92BF92CF92DF92EF92FF920F931F93BC
S1131660CF93DF93EC017B015A0169018E8580FFE2
S113167004C08A010E5F1F4F01C08A01CE0117DF2B
S11316809C01A501B701CE0115DE5C01892BC1F0D7
S1131690CE01B4DD2E813F818217930788F08885BF
S11316A09985892B69F088859985E12CF12C00E0D6
S11316B020E030E0A90160E00E9407161986188630
S11316C0C501DF91CF911F910F91FF90EF90DF90B3
S11316D0CF90BF90AF9008952F923F924F925F9218
S11316E06F927F928F929F92AF92BF92CF92DF922E
S11316F0EF92FF920F931F93CF93DF931F921F924A
S1131700CDB7DEB74C011B012A0158016901FC0168
S1131710868580FD03C0612C712C04C06894662406
S113172061F8712CA114B104C104D10449F10FB6BC
S1131730F8940F92C40162DD8C016816790648F0B2
S113174060E080E090E00E94251757D7F40191876C
S113175080870F900FBE60167106C0F0E12CF12C4B
S113176000E010E0980140E050E0BA0180E00E94FF
S11317706B14F40111861086C40140DD8C0103C092
S1131780C4013CDD8C0160167106C8F56114710456
S1131790C1F0F401C080D1809801A301BE016F5F44
S11317A07F4FC401C7DD89819A810619170948163C
S11317B0590630F4F401D182C082412C512C01C06D
S11317C02C019801A201B101C401B4DD6C01892B83
S11317D0C1F068D2F40182859385892B71F08285EA
S11317E09385E12CF12C00E020E030E0A90160E0D9
S11317F00E941315F4011386128698D302C0C12CDB
S1131800D12CC6010F900F90DF91CF911F910F91B2
S1131810FF90EF90DF90CF90BF90AF909F908F900C
S11318207F906F905F904F903F902F900895E0913C
S11318307116F0917216808181110CC08FEF9FEFA9
S1131840DC0180933B1690933C16A0933D16B09315
S11318503E160895E0917116F09172160780F08596
S1131860E02D80819181A281B38180933B16909376
S11318703C16A0933D16B0933E1608958F929F9206
S1131880AF92BF92CF92DF92EF92FF92CF93DF930A
S11318906B017C01C42F8090481690904916A0904B
S11318A04A16B0904B168091F7169091F81602964E
S11318B00E940B048FEFC816D806E806F806B1F5A7
S11318C0CC23A1F1EDE4F6E1A181B281C091F71638
S11318D0D091F816BF83AE83C091F716D091F81655
S11318E016968D919C911797998788871696CD9116
S11318F0DC9117978091F7169091F81602969D83C4
S11319008C838091F7169091F816029617969C9303
S11319108E931697A091F716B091F8161D96FC9326
S1131920EE931C9780818F5F80833FC0C80CD91CC5
S1131930EA1CFB1CE091F716F091F816C282D382E0
S1131940E482F582C814D904EA04FB0468F46091C3
S1131950F7167091F81680916F16909170166E5F5D
S11319607F4F0E94CE0321C06091F7167091F81644
S113197080917116909172166E5F7F4F0E94CE0314
S113198080913B1690913C16A0913D16B0913E1665
S1131990C816D906EA06FB0640F4C0923B16D0925C
S11319A03C16E0923D16F0923E16DF91CF91FF90E7
S11319B0EF90DF90CF90BF90AF909F908F9008955D
S11319C04F925F926F927F928F929F92AF92BF924B
S11319D0CF92DF92EF92FF920F931F93CF93DF93F7
S11319E04C016B015A012901CA010E94B7023C0152
S11319F0892B09F40DC184E390E00E94B702EC0145
S1131A00892B99F07C8E6B8EA50165EA70E0C30189
S1131A100E94203181E0A81AB1088B8D9C8DA80EFC
S1131A20B91EC114D10429F420C0C3010E947F034C
S1131A30EFC0D6018C918D8F8C918823A1F0AE01DB
S1131A40425E5F4FF6013196B0E1CB0ED11CCF015F
S1131A502191DA012D93AD01DC018C91882319F0D9
S1131A60CE16DF06A1F71CA601C01D8E0A3008F0B1
S1131A7009E00A8F0DA71EA66E01B2E0CB0ED11CA1
S1131A80C6010E94CA03CE010E960E94CA03DB87D8
S1131A90CA878AE090E0A0E0B0E0801B9109A10928
S1131AA0B1098E879F87A88BB98BDF8BCE8B84E09F
S1131AB0FE01BF96DF011D928A95E9F71BAAA201D8
S1131AC0B401C5010E94320499838883E114F104AE
S1131AD019F0F701D183C0830FB6F8940F92809167
S1131AE04C168F5F80934C168091F7169091F816E0
S1131AF0892BD1F5D093F816C093F71680914C1624
S1131B00813009F041C009E816E10F2EF7EFEF2EFE
S1131B10F6E1FF2EF02DC8010E94B903055F1F4FA7
S1131B200E151F05C1F78EE796E10E94B90383E7FE
S1131B3096E10E94B90384E696E10E94B90389E51F
S1131B4096E10E94B9038DE496E10E94B9038EE701
S1131B5096E1909372168093711683E796E19093C1
S1131B60701680936F1610C08091461681110CC0B8
S1131B70E091F716F091F816928D8A8D891720F06E
S1131B80D093F816C093F71680913F168F5F809319
S1131B903F16EA8D809147168E1710F4E09347168E
S1131BA08BE08E9FF0011124E757F94E0180F281FA
S1131BB0E02DFF83EE832681378139872887A6812C
S1131BC0B7811596DC92CE921497D782C682EA8D9D
S1131BD08E9FF0011124E757F94EFD87EC87808131
S1131BE08F5F80830F900FBE80914616882361F02B
S1131BF0E091F716F091F816928D8A8D981730F4CB
S1131C000E94850481E005C081E003C081E001C039
S1131C108FEFDF91CF911F910F91FF90EF90DF90A5
S1131C20CF90BF90AF909F908F907F906F905F9078
S1131C304F900895EF92FF920F930F2EF9E3EF2E3A
S1131C40F6E1FF2EF02D00E020E030E040EC50E023
S1131C506FE772E08DEC90E0B3DE8130E9F40E942E
S1131C60B1178130C9F4F8948FEF9FEFDC018093B2
S1131C703B1690933C16A0933D16B0933E1681E01C
S1131C8080934616109248161092491610924A16DE
S1131C9010924B160E944904809106020F91FF9006
S1131CA0EF900895809138168F5F809338160895C9
S1131CB00FB6F8940F92609148167091491680916E
S1131CC04A1690914B160F900FBE0895CF92DF9253
S1131CD0EF92FF920F931F93CF93DF938091381667
S1131CE0811107C1C0904816D0904916E0904A1659
S1131CF0F0904B168FEFC81AD80AE80AF80AC09277
S1131D004816D0924916E0924A16F0924B16C11426
S1131D10D104E104F104B1F480917116909172162A
S1131D2020916F16309170163093721620937116AD
S1131D309093701680936F16809140168F5F8093F6
S1131D40401675DD80913B1690913C16A0913D168E
S1131D50B0913E16C816D906EA06FB0610F480E0D8
S1131D60B3C080E04BE051E0E0917116F09172163F
S1131D70908191110CC04FEF5FEFBA0140933B1675
S1131D8050933C1660933D1670933E169DC0E091AF
S1131D907116F09172160780F085E02D0084F185AC
S1131DA0E02D0281138124813581C016D106E2061B
S1131DB0F30648F400933B1610933C1620933D160B
S1131DC030933E1681C0A485B585C681D781208510
S1131DD031853F832E83C085D185268137813D831C
S1131DE02C839F012E5F3F4F11966D917C9112972A
S1131DF06217730731F46085718512967C936E9334
S1131E001197158614869C9191509C93A08DB18D49
S1131E10109709F1C289D389648975897F836E8398
S1131E20C489D589628973897D836C831196CD9128
S1131E30DC911297BF01625F7F4FC617D70731F459
S1131E406489758912967C936E931197118E108E06
S1131E509C9191509C93A28D909147169A1710F4DF
S1131E60A09347164A9FD0011124A757B94E119643
S1131E700D90BC91A02DB783A68316966D917C918D
S1131E801797718760871696CD91DC9117973D83DC
S1131E902C8317963C932E931697A28D4A9FD001BC
S1131EA01124A757B94EB587A4879C919F5F9C9333
S1131EB0A091F716B091F816228D5A969C91291785
S1131EC008F452CF852F50CFE091F716F091F81611
S1131ED0E28D9BE0E99FF0011124E757F94E9081D0
S1131EE0923008F081E0909141169923B1F081E09D
S1131EF014C08091421690914316A0914416B0915B
S1131F0045160196A11DB11D809342169093431668
S1131F10A0934416B093451680E0DF91CF911F91B2
S1131F200F91FF90EF90DF90CF900895CF92DF92C2
S1131F30EF92FF920F931F93CF93DF930FB6F89412
S1131F400F928091381681508093381680913816FC
S1131F508111C4C080914C1681118BC0C2C0D801BC
S1131F601796ED91FC9118970084F185E02DA08DD2
S1131F70B18D8289938964897589EC017F836E832D
S1131F808489958962897389EC017D836C83CF018F
S1131F900E9611966D917C9112976817790731F41A
S1131FA08489958912969C938E931197118E108E25
S1131FB08C9181508C93A485B585868197816085A9
S1131FC07185EC017F836E8380859185668177813D
S1131FD0EC017D836C83CF01029611966D917C9107
S1131FE012976817790731F46085718512967C938E
S1131FF06E931197158614862C9121502C93A28DE3
S1132000209147162A1710F4A09347163A9FD0013F
S11320101124A757B94E11960D90BC91A02DB783EA
S1132020A68316966D917C91179771876087169693
S11320306D917C911797EB019D838C8317969C93EC
S11320408E931697A28D3A9FD0011124A757B94EAB
S1132050B587A4878C918F5F8C93A091F716B0916C
S1132060F816928D5A968C91981748F04093411621
S113207006C0E0E0F0E004E616E13BE041E0D80110
S11320808C9181116CCFEF2B09F0D1DBC0904216FB
S1132090D0904316E0904416F0904516C114D10434
S11320A0E104F10499F0C1E011DE8111C0934116FD
S11320B0B1E0CB1AD108E108F108B1F71092421649
S11320C010924316109244161092451680914116B0
S11320D0882331F00E94850481E003C080E001C0C0
S11320E080E00F900FBEDF91CF911F910F91FF9071
S11320F0EF90DF90CF900895CF92DF92EF92FF920E
S11321000F931F93CF93DF93EC016A017B01CADD28
S1132110009148161091491620914A1630914B1699
S113212088819981AA81BB81AC01BD014C0D5D1DE3
S11321306E1D7F1D081719072A073B07B8F44817B7
S113214059076A077B0790F5FF24F39404171507D2
S11321502607370708F0F12C488359836A837B8369
S11321600417150726073707A0F40BC048175907AB
S11321706A077B07A0F0041715072607370778F0CE
S113218015C0CB01BA01601B710B820B930B40E0AD
S113219075DBCCDE811110C00E9485040DC048831C
S11321A059836A837B83FF24F394EBCF4883598359
S11321B06A837B83F12CEDCF8F2DDF91CF911F911B
S11321C00F91FF90EF90DF90CF900895CF92DF9220
S11321D0EF92FF926B017C01672B682B692B41F016
S11321E061DD40E0C701B60149DBA0DE811102C018
S11321F00E948504FF90EF90DF90CF900895809126
S11322003816882321F081E08093411608951092B6
S11322104116A091F716B091F816E091F716F091D7
S1132220F8162D913C91838D948D8217930758F065
S11322306091F7167091F8168091F7169091F81640
S1132240635E7F4FB6D780914716282F30E09BE01E
S1132250899FF0011124E757F94E908191110EC026
S11322604BE08150282F30E0429FF001439FF00D56
S11322701124E757F94E9081992399F39BE0929F9B
S1132280A001939F500D1124DA01A757B94E11965E
S1132290ED91FC9112970480F581E02D1296FC9348
S11322A0EE9311974457594EE417F50729F44481E6
S11322B05581FD01528341839BE0929FF001939FDE
S11322C0F00D1124E757F94E0180F281E02D2085AD
S11322D031853093F8162093F716809347160895A6
S11322E0CF92DF92EF92FF926A017B016091F71621
S11322F07091F816625F7F4F0E94CE0341E0C701E0
S1132300B601BCDAFF90EF90DF90CF900895CF93A1
S1132310DF93FC01CB01BA01A181B281C091F71610
S1132320D091F816BB8BAA8BC091F716D091F816F2
S113233016964D915C9117975D8B4C8B1696CD91AB
S1132340DC9117974091F7165091F816425F5F4F52
S11323505D834C834091F7165091F816425F5F4FAE
S113236017965C934E931697A091F716B091F816B2
S11323705996FC93EE93589730813F5F3083222324
S113238019F06FEF7FEFCB01422F78DADF91CF9115
S11323900895CF93DF93DC011796ED91FC91189784
S11323A00084F185E02DA08DB18DC289D389848903
S11323B095899F838E83C489D589828993899D83D6
S11323C08C839F01225F3F4F11968D919C911297B0
S11323D08217930731F48489958912969C938E937E
S11323E01197118E108E8C9181508C938091381698
S11323F0811152C0A485B585C681D7818085918518
S11324009F838E83C085D185868197819D838C83AC
S11324109F012E5F3F4F11968D919C9112978217C9
S1132420930731F48085918512969C938E9311972E
S1132430158614868C9181508C93A28D80914716B9
S11324408A1710F4A09347168BE08A9FD0011124B9
S1132450A757B94E11960D90BC91A02DB783A683B2
S113246016964D915C911797518740871696CD919A
S1132470DC9117973D832C8317963C932E931697E4
S1132480A28D8A9FD0011124A757B94EB587A4877E
S11324908C918F5F8C931CC044E656E1DA0111964F
S11324A0CD91DC911297D38BC28B8E819F81958BBA
S11324B0848B8E819F81DC0115963C932E93149717
S11324C03F832E83518F408FDA018C918F5F8C93E1
S11324D0A091F716B091F816928D5A968C9189179F
S11324E020F481E08093411601C080E0DF91CF9118
S11324F008950FB6F8940F9220914016FC012083A2
S1132500409148165091491660914A1670914B16A5
S113251041835283638374830F900FBE0895209187
S11325204016FC0120834091481650914916609151
S11325304A1670914B1641835283638374830895C2
S1132540CF92DF92EF92FF920F931F93CF93DF937B
S1132550FB010FB6F8940F9240914816509149161A
S113256060914A1670914B1600811181228133814A
S11325700F3FAFEF1A072A073A0779F1EC01C98038
S1132580DA80EB80FC80A0914016B881BA1759F02C
S11325904C155D056E057F0530F0108211821282A4
S11325A0138281E01BC04C195D096E097F09401735
S11325B051076207730758F4041B150B260B370BDE
S11325C00083118322833383AADF80E007C0108253
S11325D011821282138281E001C080E00F900FBE4D
S11325E0DF91CF911F910F91FF90EF90DF90CF90EB
S11325F0089581E08093411608958091F716909193
S1132600F816089580914616882331F08091381683
S1132610882321F080E0089581E0089582E0089500
S11326200F931F93CF93DF93FC01892B09F479C097
S1132630828DA091F716B091F8165A969C9189173D
S113264008F063C04685578560897189772394F0C3
S1132650A091F716B091F8165A969C914AE050E072
S113266060E070E0491B5109610971094687578789
S1132670608B718B2BE0829FC00111248757994E88
S11326802485358528173907B9F5EF018F010E5FC9
S11326901F4FC8010E940B04E091F716F091F81641
S11326A0E28DEA8F809147168E1710F4E093471657
S11326B08BE08E9FF0011124E757F94E0180F281DF
S11326C0E02DFF83EE832681378139872887A68111
S11326D0B78115961C930E93149717830683EA8D7E
S11326E08E9FF0011124E757F94EFD87EC87808116
S11326F08F5F808381E016C0A091F716B091F81621
S11327005A968C91828F81E00DC0A091F716B091FA
S1132710F81681E025A55A969C91291718F080E0B7
S113272001C080E0DF91CF911F910F9108950F9325
S11327301F93CF93DF93FC01892B09F449C086A52D
S1132740815086A7228D95A5291709F443C08111CC
S113275043C0EF018F010E5F1F4FC8010E940B049D
S1132760EDA5EA8F8AE090E0A0E0B0E08E1B91092D
S1132770A109B1098E879F87A88BB98B80914716D1
S11327808E1710F4E09347168BE08E9FF00111240E
S1132790E757F94E0180F281E02DFF83EE83268115
S11327A0378139872887A681B78115961C930E93A4
S11327B0149717830683EA8D8E9FF0011124E7573F
S11327C0F94EFD87EC8780818F5F808381E005C0AF
S11327D080E003C080E001C080E0DF91CF911F91D1
S11327E00F9108950F931F93CF93DF93FC01892BCF
S11327F009F45AC085A5861708F4862F928D981778
S113280009F452C026A5213009F04EC0828F4685B6
S1132810578560897189772364F04AE050E060E06D
S113282070E0481B51096109710946875787608B1D
S1132830718B2BE0929FC00111248757994E2485F8
S113284035852817390781F5EF018F010E5F1F4F7A
S1132850C8010E940B04EA8D809147168E1710F46C
S1132860E09347168BE08E9FF0011124E757F94E51
S11328700180F281E02DFF83EE8326813781398741
S11328802887A681B78115961C930E9314971783F6
S11328900683EA8D8E9FF0011124E757F94EFD87D8
S11328A0EC8780818F5F8083DF91CF911F910F919F
S11328B008958091F7169091F816892B39F0E091DC
S11328C0F716F091F81686A58F5F86A78091F71604
S11328D09091F81608954F925F926F927F92AF9203
S11328E0BF92CF92DF92EF92FF920F931F93CF93F9
S11328F0DF93280139010FB6F8940F92E091F7168F
S1132900F091F816C82FD0E0EC0FFD1F83A9823098
S113291079F1E091F716F091F816CE01880F991F1E
S1132920880F991FE80FF91F87A590A9A1A9B2A93B
S11329304095509560957095482359236A237B23CD
S113294047A750AB61AB72ABE091F716F091F81664
S1132950EC0FFD1F81E083ABA114B104C104D104C9
S113296039F041E0C601B5010E943E0C0E94850485
S11329700F900FBE0FB6F8940F92E114F104A1F07A
S1132980E091F716F091F816CE01880F991F880F81
S1132990991FE80FF91F87A590A9A1A9B2A9F7016A
S11329A080839183A283B383E091F716F091F816A4
S11329B0EC0FFD1F83A98230E9F4E091F716F09142
S11329C0F816CE01880F991F880F991FE80FF91F79
S11329D087A590A9A1A9B2A9409450946094709439
S11329E0482259226A227B2247A650AA61AA72AAC7
S11329F081E001C080E02091F7163091F816C20FF3
S1132A00D31F1BAA0F900FBEDF91CF911F910F917F
S1132A10FF90EF90DF90CF90BF90AF907F906F903A
S1132A205F904F9008958F929F92AF92BF92EF92D2
S1132A30FF920F93CF93DF93DC010FB6F8940F92BC
S1132A40E114F10479F0FC0184E0689FE00DF11DCC
S1132A50112487A490A8A1A8B2A8F701808291822A
S1132A60A282B38270E0FD01E60FF71F83A992E012
S1132A7093AB0230F9F018F4013031F049C003305F
S1132A8069F10430B9F144C0660F771F660F771FF0
S1132A90FD01E60FF71F87A490A8A1A8B2A8BA0168
S1132AA0A901482959296A297B2947A750AB61AB59
S1132AB072AB2EC0660F771F660F771FFD01E60FFE
S1132AC0F71F47A550A961A972A94F5F5F4F6F4FC8
S1132AD07F4F47A750AB61AB72AB1AC0660F771F2D
S1132AE0660F771FFD01E60FF71F27A730AB41AB39
S1132AF052AB0EC0823009F479C0660F771F660F9F
S1132B00771FFD01E60FF71F27A730AB41AB52AB90
S1132B10813009F06DC01C96ED91FC911D971696BD
S1132B20CD91DC91179718968D919C9119979F835D
S1132B308E831896CD91DC91199716968D919C9160
S1132B4017979D838C839D012E5F3F4F81819281D6
S1132B508217930731F418968D919C91199792835B
S1132B6081831D961C921E921C97808181508083C4
S1132B705A96EC915A97809147168E1710F4E09369
S1132B8047168BE08E9FF0011124E757F94E018020
S1132B90F281E02D1796FC93EE93169746815781A8
S1132BA019965C934E931897C681D7813D832C83E5
S1132BB0378326835A96EC915A978E9FF0011124FD
S1132BC0E757F94E1D96FC93EE931C9780818F5F17
S1132BD08083E091F716F091F8165A969C91828DB5
S1132BE0891740F40E94850481E005C080E003C099
S1132BF081E001C081E00F900FBEDF91CF910F9172
S1132C00FF90EF90BF90AF909F908F9008958F9218
S1132C109F92AF92BF92CF92DF92EF92FF920F9367
S1132C20CF93DF93DC01E114F10479F0FC0184E03B
S1132C30689FE00DF11D112487A490A8A1A8B2A853
S1132C40F70180829182A282B38270E0FD01E60FD7
S1132C50F71F83A992E093AB0230F9F018F4013026
S1132C6031F049C0033069F10430B9F144C0660F52
S1132C70771F660F771FFD01E60FF71F87A490A843
S1132C80A1A8B2A8BA01A901482959296A297B290E
S1132C9047A750AB61AB72AB2EC0660F771F660FB0
S1132CA0771FFD01E60FF71F47A550A961A972A977
S1132CB04F5F5F4F6F4F7F4F47A750AB61AB72AB16
S1132CC01AC0660F771F660F771FFD01E60FF71F07
S1132CD027A730AB41AB52AB0EC0823009F4A4C07D
S1132CE0660F771F660F771FFD01E60FF71F27A7F3
S1132CF030AB41AB52AB813009F098C080913816AB
S1132D0081115FC01C96ED91FC911D971696CD9193
S1132D10DC91179718968D919C9119979F838E83B8
S1132D201896CD91DC91199716968D919C911797D1
S1132D309D838C839D012E5F3F4F818192818217F9
S1132D40930731F418968D919C91199792838183FE
S1132D501D961C921E921C978081815080835A96E6
S1132D60EC915A97809147168E1710F4E09347160A
S1132D708BE08E9FF0011124E757F94E0180F28118
S1132D80E02D1796FC93EE9316974681578119967A
S1132D905C934E931897C681D7813D832C833783E8
S1132DA026835A96EC915A978E9FF0011124E75787
S1132DB0F94E1D96FC93EE931C9780818F5F808360
S1132DC020C044E656E1FA01C181D2815396DC93D6
S1132DD0CE9352978E819F8155969C938E93549750
S1132DE02E813F81CD010E96F901958384839F83C3
S1132DF08E8359965C934E935897FA0180818F5F26
S1132E008083E091F716F091F8165A969C91828D82
S1132E10891770F4C114D10419F081E0F60180839C
S1132E2081E08093411605C080E003C081E001C0C9
S1132E3081E0DF91CF910F91FF90EF90DF90CF90E1
S1132E40BF90AF909F908F900895009721F4809148
S1132E50F7169091F8160FB6F8940F9270E0FC01F3
S1132E60E60FF71F23A9223031F4FC01E60FF71F08
S1132E7013AA81E001C080E00F900FBE0895CF92A5
S1132E80DF92EF92FF920F931F93FC0142835383CF
S1132E90648375839387828704171507260737078A
S1132EA0C0F00C191D092E093F0986859785A08954
S1132EB0B189081719072A073B0700F5BF016E5FA0
S1132EC07F4F80910117909102170E94CE0380E0FA
S1132ED018C00C151D052E053F0528F44C155D057D
S1132EE06E057F0568F4BF016E5F7F4F8091031705
S1132EF0909104170E94CE0380E003C081E001C0DA
S1132F0081E01F910F91FF90EF90DF90CF90089593
S1132F100FB6F8940F928091FF1690910017892BA9
S1132F20E9F480E197E10E94B90385E097E10E940A
S1132F30B90380E197E1909304178093031785E028
S1132F4097E1909302178093011740E067E08AE0CD
S1132F500E946106909300178093FF160F900FBE96
S1132F600895EF92FF920F93D3DF8091FF16909113
S1132F700017892B91F00F2EFDEFEF2EF6E1FF2EB7
S1132F80F02D03E020E030E040EC50E064E872E033
S1132F9083E091E00E94E00C01C080E00F91FF907B
S1132FA0EF9008958F929F92AF92BF92CF92DF924B
S1132FB0EF92FF920F931F93CF93DF93CDB7DEB7BA
S1132FC027970FB6F894DEBF0FBECDBFE091FF1672
S1132FD0F0910017309781F169832A833B834C83F6
S1132FE05D839F838E836630F4F40CDB823069F456
S1132FF000E0A7019601BE016F5F7F4F8091FF162D
S1133000909100170E94820618C000E020E030E092
S1133010A901BE016F5F7F4F8091FF169091001749
S11330200E9482060AC020E0A801BE016F5F7F4FA4
S1133030CF010E94400701C080E027960FB6F894A4
S1133040DEBF0FBECDBFDF91CF911F910F91FF90D7
S1133050EF90DF90CF90BF90AF909F908F900895A6
S11330602F923F924F925F926F927F928F929F9294
S1133070AF92BF92CF92DF92EF92FF920F931F9382
S1133080CF93DF931C010E94580E2B013C018091C9
S1133090F9169091FA16A091FB16B091FC164816F9
S11330A059066A067B0608F053C03BC00780F085CA
S11330B0E02D80809180A280B380C085D1858E016F
S11330C00E5F1F4FC8010E940B04EC89FD89CE01DD
S11330D019958E8982FF25C08E859F85A889B98917
S11330E0880D991DAA1DBB1D88169906AA06BB0644
S11330F070F48A839B83AC83BD83DB87CA87B80162
S113310080910317909104170E94CE030AC0C12C2A
S1133110D12C760100E010E0A501940160E0CE011D
S113312041DFE0910317F091041780818111BECF34
S113313080910117909102179093041780930317BD
S1133140F0930217E093011781E0F101808302C03C
S1133150F10110824092F9165092FA166092FB1611
S11331607092FC16C301B201DF91CF911F910F91B0
S1133170FF90EF90DF90CF90BF90AF909F908F9093
S11331807F906F905F904F903F902F900895089597
S1133190279A2F9A08951F9A0895FADF2FEF80E750
S11331A092E0215080409040E1F700C00000F3DF3E
S11331B0F5CFEEDF2FEF87EA91E621508040904073
S11331C0E1F700C00000E7DFF5CFCF93DF93CDB781
S11331D0DEB76A970FB6F894DEBF0FBECDBF0E946C
S11331E0580E69837A838B839C8304E011E04EE359
S11331F059E460E070E0CE0101960E947C100E83D9
S11332001D83A1D48F83CBD48887B3D48987F4D08A
S11332108A87BE016B5F7F4F80E00E945C22E7CF0C
S1133220CF92EF920F931F93CF93DF93CDB7DEB777
S11332306A970FB6F894DEBF0FBECDBF0E94580E3A
S113324069837A838B839C834FE954E260E070E066
S1133250CE0101960E947C100FEF1FEF980146E10A
S113326050E0BE016B5F7F4F8091A4189091A51828
S11332700E946C0B8E81873038F3CD84E8840F81F3
S11332802A8549856C858B85A9D4892B79F0898514
S1133290D6D08A85B4D08C8512D18B85F0D08F811D
S11332A04ED188852CD18D85C1D1CECF6A960FB6EB
S11332B0F894DEBF0FBECDBFDF91CF911F910F9168
S11332C0EF90CF900895EF92FF920F93E12CF12CA1
S11332D004E020E030E040EC50E06CE872E085EE81
S11332E098E10E94E00C05E020E030E040EC50E082
S11332F065E972E080E199E10E94E00C0F91FF9092
S1133300EF900895CF93DF9300D01F92CDB7DEB72F
S11333100E94580E69837A838B839C830F2EF1EA73
S1133320EF2EF2E0FF2EF02D0F2EF7E9CF2EF8E16D
S1133330DF2EF02D40EE52E369E270E0CE010196FB
S11333400E947C10FF92EF9274D44CE050E060E055
S113335070E080919E1890919F180E9414080F901D
S11333600F90813039F7F601668180E090E00E9489
S1133370AD34F601608181E090E00E94AD34F60145
S1133380618182E090E00E94AD34F601638183E0C4
S113339090E00E94AD34F601628184E090E00E94E6
S11333A0AD34F601658185E090E00E94AD34F6010C
S11333B0648186E090E00E94AD3400E020E030E0DB
S11333C0A90160E070E080919E1890919F180E947E
S11333D08206B0CF80919718089580919818089527
S11333E080919A18089580919918089580919C1855
S11333F0089580919B18089580919D1808950F93C6
S1133400CF93C82F4CE050E060E070E08091A818A2
S11334109091A9180E941408813071F4C0939718F0
S113342000E020E030E0A90160E070E08091A8189D
S11334309091A9180E948206CF910F9108950F933D
S1133440CF93C82F4CE050E060E070E08091A81862
S11334509091A9180E941408813071F4C0939818AF
S113346000E020E030E0A90160E070E08091A8185D
S11334709091A9180E948206CF910F9108950F93FD
S1133480CF93C82F4CE050E060E070E08091A0182A
S11334909091A1180E941408813071F4C0939A1875
S11334A000E020E030E0A90160E070E08091A01825
S11334B09091A1180E948206CF910F9108950F93C5
S11334C0CF93C82F4CE050E060E070E08091A018EA
S11334D09091A1180E941408813071F4C093991836
S11334E000E020E030E0A90160E070E08091A018E5
S11334F09091A1180E948206CF910F9108950F9385
S1133500CF93C82F4CE050E060E070E08091A218A7
S11335109091A3180E941408813071F4C0939C18F0
S113352000E020E030E0A90160E070E08091A218A2
S11335309091A3180E948206CF910F9108950F9342
S1133540CF93C82F4CE050E060E070E08091A21867
S11335509091A3180E941408813071F4C0939B18B1
S113356000E020E030E0A90160E070E08091A21862
S11335709091A3180E948206CF910F91089587EB32
S113358092E09F938F9355D380E099DF8FE577DFA7
S113359088EDD5DF82E3B3DF80E051DF85E04FDFE4
S11335A00F900F9008951F93CF93DF9380E090E0E6
S11335B00E94A534182F80EE92E09F938F9339D305
S11335C00F900F901F3F11F4DADF2CC01F921F934E
S11335D081EF92E09F938F932CD3C7E9D8E11E83A8
S11335E081E090E00E94A534888382E090E00E940C
S11335F0A534898383E090E00E94A5348B8384E022
S113360090E00E94A5348A8385E090E00E94A5346E
S11336108D8386E090E00E94A5348C830F900F90F8
S11336200F900F90DF91CF911F91089580939D1873
S11336300895EF92FF920F93E12CF12C03E620E022
S113364030E040EC50E068E073E082E899E10E94E9
S1133650E00C0F91FF90EF900895CF93DF93EC016E
S113366018D46CE070E080E090E00E94E6100DD485
S1133670CE0163D3DF91CF9108958AE797E0EDCF30
S1133680089587E097E0E9CF089582E193E0E5CFDC
S1133690089584E193E0E1CF08958FEB93E0DDCFCB
S11336A0089586E193E0D9CF0895CF93DF9300D0B6
S11336B01F92CDB7DEB70E94580E69837A838B833D
S11336C09C8346EA5EE060E070E0CE0101960E94D1
S11336D07C104FD2182F87DE181710F4DADFF1CFE1
S11336E048D2182F7DDE811760F7CFDFEACFCF9362
S11336F0DF9300D01F92CDB7DEB70E94580E6983C6
S11337007A838B839C8346EA5EE060E070E0CE01BE
S113371001960E947C1043D28C015FDE90E0081772
S1133720190710F4AADFEFCF3AD28C0153DE90E0F0
S11337308017910740F7A5DFE6CFCF93DF9300D042
S11337401F92CDB7DEB70E94580E69837A838B83AC
S11337509C8346EA5EE060E070E0CE0101960E9440
S11337607C10F1D1182F45DE181710F496DFF1CF35
S1133770EAD1182F3BDE811760F793DFEACFEF928F
S1133780FF920F93E12CF12C01E020E030E040ECBB
S113379050E068E173E085E59BE10E94E00C02E003
S11337A020E030E040EC50E063E273E087E79BE127
S11337B00E94E00C03E020E030E040EC50E06EE2D8
S11337C073E08DE99BE10E94E00C0F91FF90EF9074
S11337D00895CF93DF93CDB7DEB768970FB6F8940B
S11337E0DEBF0FBECDBF81E0C9D562E070E080E0EE
S11337F090E00E94E61080E0C1D566E970E080E0C8
S113380090E00E94E61073D581E00E94EA2BC4D5B3
S11338100E9449249F938F938AE393E09F938F930D
S11338200E94803137D70E9449249F938F938DE45F
S113383093E09F938F930E9480318E010B5F1F4F03
S1133840C801BCD50E9449241F930F939F938F9363
S113385086E693E09F938F930E948031C801CAD576
S11338600E9449249F938F931F930F938AE793E0B9
S11338709F938F930E948031A8016FE873E080EBDF
S113388093E0E6D70E9449249F938F931F930F934D
S11338908FE893E09F938F9380EB93E09F938F93B4
S11338A081EC93E09F938F930E948031D6D5F1D71A
S11338B09F938F9387EF93E09F938F930E94803120
S11338C00FB6F894DEBF0FBECDBF81E0C0D6E1D7FE
S11338D09F938F9386E094E09F938F930E9480310F
S11338E084EF91E0BFD6D5D79F938F9381E08F93D8
S11338F084EF8F9387E294E09F938F930E948031AB
S11339000FB6F894DEBF0FBECDBF02E810E00F2E55
S1133910F7E4CF2EF4E0DF2EF02D80E0A4D5F82ECE
S1133920B8D79F938F931F930F93DF92CF920E94E8
S113393080310F900F900F900F900F900F90F8E040
S1133940FF16C1F180E00E944E2C66E371E080E036
S113395090E00E94E61001501109F9F624C00E947B
S11339608504FDCF48EA58E460E070E0CE0101969A
S11339700E947C10F80182829382A482B582C6825E
S1133980D78283E00E94602CB80180E095D581D76E
S11339909F938F93FF92EF920E9480310F900F902C
S11339A00F900F90DFCF81E00E943F2C80E00E94B7
S11339B00D2CD5CF81E00E94302CEBE1F7E186E0BD
S11339C0818382E080830E94580E69837A838B838B
S11339D09C830BE117E10F2EF0E38F2EF02D0F2EB9
S11339E0F9E39F2EF02D6894AA24A1F80F2EF3EA90
S11339F0BF2EF02D6894CC24C2F80F2EFAE1DF2EEE
S1133A00F02D0F2EF7E6EF2EF4E0FF2EF02DAACFC7
S1133A10EF92FF920F93E12CF12C082F20E030E07D
S1133A2048E851E06CE774E089EE9BE10E94E00C09
S1133A300F91FF90EF9008950F93CF93DF93FC01C4
S1133A4020813181232B81F4EC0181E00E94250740
S1133A5099838883009741F000E020E030E0A901D9
S1133A6060E070E00E948206DF91CF910F9108958B
S1133A7080EA98E1E1DF82EA98E1DEDF88EA98E112
S1133A80DBDF8EE998E1D8DF81E397E1D5DF1BDC4A
S1133A90D0DD75CE089581B1816881B90E94690233
S1133AA080E00E944C292ED0E3DF7DDD85E00E947A
S1133AB09C2B41E060E070E086E190E00E94E80920
S1133AC09093A5188093A418BC0181E017D483E0D7
S1133AD09FCF0895E0DF83E894E00E9493310E9431
S1133AE01A0EFFCF8091AB188F938091AA188F93F1
S1133AF085E994E09F938F939CD00F900F900F9043
S1133B000F90089583E0A1D769D281D09F938F93BA
S1133B108CEA94E09F938F938CD082E79DE1BAD78F
S1133B200F900F900F900F90089573D270D09F93C1
S1133B308F9389EC94E09F938F937BD00F900F9099
S1133B400F900F900895F1DF63E070E080E090E063
S1133B500E94E61073D206C063E070E080E090E05B
S1133B600E94E61053D28823B9F38ED291D0862FC7
S1133B700895DBDF63E070E080E090E00E94E610EF
S1133B805DD206C063E070E080E090E00E94E61041
S1133B903DD28823B9F363D27BD0862F0895CF9387
S1133BA07ED7C82F66E070E080E090E00E94E610C7
S1133BB08C2F36D09F938F9380EE94E09F938F93B6
S1133BC038D08AEA98E19AD70F900F900F900F900F
S1133BD08091AA189091AB18CF910895CF92EF924B
S1133BE0CF93C62F09DC8C1549F0C03650F481E020
S1133BF090E022E32E1538F480E005C080E090E0E8
S1133C0002C080E090E0CF91EF90CF900895E82F2C
S1133C10F0E0EE0FFF1FE95FFD4F80819181089571
S1133C20E82FF0E0EE0FFF1FE15FFD4F80819181EF
S1133C300895EF92FF920F931F93CF93DF93CDB725
S1133C40DEB78E01065F1F4FF801E190F1908F01FE
S1133C504FEF5FEFBA0180913117909132170E94B4
S1133C601408B801C7010E94F13100E020E030E0FF
S1133C70A90160E070E080913117909132170E94A1
S1133C808206DF91CF911F910F91FF90EF900895DD
S1133C9033D088F09F5790F0B92F9927B751A0F0EF
S1133CA0D1F0660F771F881F991F1AF0BA95C9F7CC
S1133CB012C0B13081F03AD0B1E0089537C0672F17
S1133CC0782F8827B85F39F0B93FCCF3869577957C
S1133CD06795B395D9F73EF4909580957095619565
S1133CE07F4F8F4F9F4F089557FD9058440F551F96
S1133CF059F05F3F71F04795880F97FB991F61F06A
S1133D009F3F79F087950895121613061406551FE0
S1133D10F2CF4695F1DF08C0161617061806991F4C
S1133D20F1CF86957105610508940895E894BB2741
S1133D3066277727CB0197F90895CF93DF93EC019A
S1133D40FC0101900020E9F73197E81BF90BE0939F
S1133D503717E13208F47DC018A20E9476318091B1
S1133D6037178530E0F444E050E0481B510914163D
S1133D70150674F480E090E020E02F5FFC01E85C1D
S1133D80F84E1082822F90E084179507B4F301C097
S1133D9020E01092341791E0920F20E02EC0E8E367
S1133DA0F7E110821182128223E0F5CFFE01E40FC5
S1133DB0F51FA08130ED3A0F3A3050F4E82FF0E0CF
S1133DC0E85CF84EB0E0A459BA4F8C91808313C0DC
S1133DD03FEB3A0F363050F4E82FF0E0E85CF84E51
S1133DE0B0E0AB59BA4F8C91808305C0E82FF0E066
S1133DF0E85CF84E10822F5F9F5F8FEF890F422F90
S1133E0050E0FE0101900020E9F73197EC1BFD0B17
S1133E104E175F0758F220913717253010F1E82F1D
S1133E20F0E0E85CF84E1082E92FF0E0E85CF84E30
S1133E301082E1E0E90FF0E0E85CF84E10829E5F4A
S1133E409093341710923317109236171092351737
S1133E5008C00E94763180913717853008F483CFEB
S1133E609ECFEEE5F7E1A8E3B7E18C91808311964C
S1133E708C911197818312968C9112978283139659
S1133E808C918383DF91CF91089585B5856085BD3D
S1133E90089585B5887F85BD81B38F6081BB089502
S1133EA01F920F920FB60F9211240BB60F922F93FD
S1133EB03F934F935F936F937F938F939F93AF93AE
S1133EC0BF93EF93FF9380913417882369F1209176
S1133ED0351730913617253F91E0390738F42F5FB5
S1133EE03F4F30933617209335171EC01092361764
S1133EF010923517E09133172E2F30E090E004979D
S1133F002817390714F4EF5F01C0E0E0E09333179A
S1133F10F0E0E85CF84EAEE5B7E122E637E18191E6
S1133F208D93A217B307D9F78091621790E0019699
S1133F3083709078992324F401978C6F9F6F019676
S1133F40809362179927FC01E25AF84E60816095CC
S1133F5080916317909164170E94AE29FF91EF91AD
S1133F60BF91AF919F918F917F916F915F914F918D
S1133F703F912F910F900BBE0F900FBE0F901F908B
S1133F8018956530F1F4FA0180818F7390E0982FD1
S1133F9088272181822B90931A02809319028281AF
S1133FA0F0E48F9FC0011124FA0123812695269500
S1133FB0822B909318028093170281E080936517F7
S1133FC00895643051F080E090E490931802809357
S1133FD0170290931A028093190208950F931F9366
S1133FE001EC1FE120E034E244EF50E060E087E2BE
S1133FF00E94822C909367178093661721E0892B87
S113400009F020E0822F1F910F9108958091651788
S113401008958091661790916717009759F040E0D2
S113402060E070E00E94D32C843031F41092651764
S113403080E0089582E0089583E0089580916617F2
S113404090916717009739F064E00E941F2D853026
S113405021F083E0089582E0089580E0089560915E
S1134060190270911A0280E090E00E94FD2E20E077
S113407030E048EC52E40E94622F20E038EF4FE732
S113408056E40C94922E08956091170270911802D0
S113409080E090E00E94FD2E20E030E045E253E411
S11340A00E94622F20E038EF4FE756E40E94922EE0
S11340B020E030E040E252E40C942B2E08950F935C
S11340C01F93CF93DF931F921F92CDB7DEB78C015E
S11340D019822DC0E0919F17EC3250F481E08E0FCD
S11340E080939F17F0E0EF52F84E8A81808302C0DC
S11340F010929F178A818A30D1F440919F1750E023
S1134100FA01E153F84E1082415051099E012F5F8C
S11341103F4F61ED77E18091A2179091A3170E9420
S1134120280B898181110E94850410929F17BE017A
S11341306E5F7F4FC8011AD6882361F20F900F90EB
S1134140DF91CF911F910F9108950F931F93CF93F8
S1134150DF938C01EB018091A2179091A3170E9429
S11341601D0AB80188E697E10E945731209779F03B
S1134170E8E6F7E101900020E9F7319780E290E06A
S113418091838083BE0188E697E10E944C31E8E682
S1134190F7E1DF010D900020E9F711978DE09AE037
S11341A011969C938E9312961C9201900020E9F72D
S11341B03197E856F741AE2F88E697E1AC016A2FB4
S11341C08091A4179091A5177CD5811111C008E2A4
S11341D015E020E030E04DE250E06BE278E18091C0
S11341E0A2179091A3170E946C0B8BE298E102C076
S11341F080E090E0DF91CF911F910F9108952F926D
S11342003F924F925F926F927F928F929F92AF9262
S1134210BF92CF92DF92EF92FF920F931F93CF93AF
S1134220DF935C01FC0101900020E9F731976F01F5
S1134230C81AD90A5C2C0F2EF0E48F2EF8E09F2EBA
S1134240F02DE12CF12C4C2C3701F4010181128169
S1134250E80109900020E9F72197C01BD10B3C2EFF
S1134260F9E0CF16D10458F0F4012080FEE02F12BB
S113427006C0B801C5010E942731892B09F5442DD8
S1134280351408F44C2F50E0B801C5010E945E318A
S1134290892B49F4F301EE0FFF1FE60DF71DE05CD7
S11342A0F74F20800DC08FEFE81AF80AE3E08E0E76
S11342B0911CF1E1EF16F10439F66894222424F8F4
S11342C0822DDF91CF911F910F91FF90EF90DF909E
S11342D0CF90BF90AF909F908F907F906F905F90A2
S11342E04F903F902F90089530DF89CF08958091AB
S11342F0A2179091A3170C941D0A08958F929F9270
S1134300AF92CF92EF920F931F93CF93C82F8B014D
S113431041E060E070E088EC90E00E94E80990934E
S1134320A3178093A2171093A1170093A0170F2E21
S1134330FFE58F2EF0E29F2EF02D6894AA24A6F8B4
S11343406894CC24C6F8E12C00E023E040E051EE70
S113435060E070E08C2FE3D39093A5178093A417AB
S1134360E7E0F1E0808180618083CF911F910F911C
S1134370EF90CF90AF909F908F900895882331F065
S1134380E8E0F1E080818F7E80830895E8E0F1E049
S1134390808180618083089560E070E08BEC95E01B
S11343A0D4DEEBE2F8E101900020E9F73197EB521B
S11343B0F84181E0759708F080E00895CF93DF938A
S11343C0EC0160E070E08CED95E0BFDEEBE2F8E13B
S11343D001900020E9F7EC53F84139F46BE278E1FD
S11343E0CE010E94573180E002C0188281E0DF9143
S11343F0CF910895FC0101900020E9F79F0121511C
S113440031092817390729F4BC018AE096E06CCFFA
S1134410089589E00895FC0101900020E9F79F01C7
S1134420215131092817390729F4BC0189E196E0A3
S11344305BCF089589E00895FC0101900020E9F71D
S11344409F01215231092817390729F4BC0188E258
S113445096E04ACF089589E0089560E070E087E629
S113446096E042CF08950F931F93E82FF0E0EE0FEC
S1134470FF1FE45CF74F6081718180E796E034DFD1
S1134480811114C008E215E020E030E04DE250E074
S11344906BE278E18091A2179091A3170E946C0BB4
S11344A0882321F08BE298E1AADE03C08BE298E135
S11344B0A6DE1F910F9108950F931F93CF93DF935F
S11344C01F92CDB7DEB7DB0111969C911197953100
S11344D008F0B4C0992381F160E070E0272F30E048
S11344E0462F50E0FD01E40FF51F928192959F70D5
S11344F09A3010F0995C01C0905DF901E454F84ED3
S113450090832F5F3F4FFD01E40FF51F92819F7051
S1134510492F50E04A30510514F0995C01C0905D78
S1134520F901E454F84E90837E5F6F5F11969C917D
S11345301197691798F201C070E0E72FF0E0E45496
S1134540F84E10824C91811103C089E796E002C0B5
S11345508BE796E02CEB37E13F932F931F924F9319
S11345609F938F938FE796E09F938F938EEF97E1BE
S11345709F938F930E94C33160E070E08EEF97E1C8
S1134580B3DE0FB6F894DEBF0FBECDBF811159C0A4
S113459008E215E020E030E04DE250E06BE278E123
S11345A08091A2179091A3170E946C0B882309F4A1
S11345B047C08BE298E123DE8E3009F042C087E0E9
S11345C089838091A0179091A117892BA9F1BE012D
S11345D06F5F7F4F8BE298E168D18093A617E981E2
S11345E0F0E0E55DF74EDF010D900020E9F711974B
S11345F0AE1BBF0BAA2391F0BB27CD0101979C01F1
S113460012F42F5F3F4F359527952093A717AF01DD
S11346104F5F5F4F64E188EA97E173D101E010E0F6
S113462020E030E046E150E066EA77E18091A017AF
S11346309091A1170E94690A8EE003C084E101C031
S113464080E00F90DF91CF911F910F9108958130F9
S113465019F06FE876E002C068E677E083E996E057
S113466043CE08959F938F9384EC96E09F938F930A
S11346708EEF97E19F938F930E94C33160E070E0C7
S11346808EEF97E131DE0F900F900F900F900F9007
S11346900F9008952F923F924F925F926F927F9264
S11346A08F929F92AF92BF92CF92DF92EF92FF923E
S11346B00F931F93CF93DF93CDB7DEB7A0970FB6B9
S11346C0F894DEBF0FBECDBF61EF76E08DEF96E0CC
S11346D03CDD95DD8111A3C080E2E2E3F2E0DE017E
S11346E0119601900D928A95E1F79E012F5F3F4F3D
S11346F06901E12CF12C0F2EF9E0AF2EF7E0BF2E6B
S1134700F02D0EEF17E10F2EF2E24F2EF7E05F2EA1
S1134710F02D0F2EF9E38F2EF7E09F2EF02D0F2EA4
S1134720F3E56F2EF7E07F2EF02D3E2C2F2CFF9219
S1134730EF92BF92AF921F930F930E94C33160E038
S113474070E0C80102DD5BDD0F900F900F900F90B9
S11347500F900F90811163C032E03E15E8F4F6012A
S113476083818F9382818F9381818F9380818F93B3
S1134770FF92EF925F924F921F930F930E94C33167
S113478060E070E0C801E1DC3ADD0FB6F894DEBF0A
S11347900FBECDBF811143C02F923F929F928F9243
S11347A01F930F930E94C33160E070E0C801CDDC19
S11347B026DD0F900F900F900F900F900F908111A6
S11347C02EC02F923F927F926F921F930F930E945D
S11347D0C33160E070E0C801B8DC11DD0F900F90C8
S11347E00F900F900F900F90811119C03FEFE31AB3
S11347F0F30A84E0C80ED11C98E0E916F10409F02C
S113480094CF60E070E08BE697E09FDCF8DC8111E8
S113481006C060E070E08CE797E097DCF0DCA096DF
S11348200FB6F894DEBF0FBECDBFDF91CF911F91BD
S11348300F91FF90EF90DF90CF90BF90AF909F903B
S11348408F907F906F905F904F903F902F9008953E
S1134850EF92FF920F931F93CF93DF93EC018B01A1
S11348607A0181E0F4DE81110DC0CE01D4DD811125
S113487009C0C801E1DD811105C0C701BBDD81119B
S113488001C0EBDDDF91CF911F910F91FF90EF906D
S1134890089590E0FC01EE0FFF1F8E0F9F1FFC0197
S11348A0E05CF74F818192810895DC01009729F142
S11348B0FB012081FC0101900020E9F73197E81BFE
S11348C0F90B822F90E0E817F907C8F080E008C0E0
S11348D0880F382F330F330F830F8053890F2F5FC7
S11348E0FD01E20FF11D908130ED390F3A3010F4E3
S11348F09111EECFFB012083089580E0089580E0BC
S113490008950F931F93CF93DF93DC01EA0120975F
S1134910E1F1FA0101900020E9F73197E41BF50B6E
S1134920329710F532C08D01040F151F30E0AE012F
S1134930420F531FFA019081913428F09753592F55
S11349405295507F03C0592F5295507F2C0F3D1F15
S1134950F9019181913410F0975301C09053950F50
S1134960F80190838F5F01C080E0282F220F482F29
S113497050E0FE0101900020E9F73197EC1BFD0B9C
S11349804E175F0710F48613CECFDF91CF911F919E
S11349900F91089580915B18860F80935B18909116
S11349A05E18913079F028F09230A9F0933019F123
S11349B008956F3F09F048C010925B1881E080931E
S11349C05E180895663809F03FC010925A1882E0C4
S11349D080935E180895E0915A1881E08E0F8093B9
S11349E05A18F0E0E85AF74E6083823069F583E0A4
S11349F080935E18089590915A1821E0290F20930E
S1134A005A18963009F581110EC0E8E5F8E1808165
S1134A1090E0982F88272181820F911D9093601830
S1134A2080935F1804C01092601810925F1810925F
S1134A305E18E0915C18F0915D18309729F0809130
S1134A405F1890916018199508958F929F92AF9274
S1134A50CF92EF920F930F2EFAEC8F2EF4E29F2E4B
S1134A60F02D6894AA24A4F86894CC24C4F8E12C0A
S1134A7000E023E040E855E260E070E050D090931D
S1134A806218809361180F91EF90CF90AF909F9030
S1134A908F90089590935D1880935C180895CF9338
S1134AA0DF93CDB7DEB729970FB6F894DEBF0FBEFC
S1134AB0CDBF89E0E2E5F2E09E012F5F3F4FD901CF
S1134AC001900D928A95E1F71092601810925F1888
S1134AD08091611890916218009731F0422F532F02
S1134AE069E0EFD080E001C082E029960FB6F89427
S1134AF0DEBF0FBECDBFDF91CF91089520915F1827
S1134B00309160182115310529F4FC0111821082BD
S1134B1081E00895FC013183208380E008952F9281
S1134B203F924F925F926F927F928F929F92AF9239
S1134B30CF92EF92FF920F931F93CF93DF93CDB752
S1134B40DEB7F82E2A013B0188E090E00E94F22FA4
S1134B508C018F2D90E0FC01EE0FFF1FED59F74EF5
S1134B60118300830115110509F46EC0880F991F84
S1134B70FC01E55EFD4F80819181D8018D939C936A
S1134B808C2D90E0880F991F880F991F0E94F22F97
S1134B901C0186E090E00E94F22F7C014C2DB101B3
S1134BA00E940F2EF801F582E4828A2D90E0880F8E
S1134BB0991F880F991F0E94F22F1C0186E090E034
S1134BC00E94F22F7C014A2DB1010E940F2ED801C0
S1134BD01396FC92EE92129717969C928E921697C9
S1134BE0FFB6F894ED91FC9111973697808182601D
S1134BF080838D909C90C301B2010E94FD2E20E021
S1134C0030E040E051E40E94622F9B01AC0160E07F
S1134C1074E284E79BE40E94922E20E030E040E8B6
S1134C205FE30E942B2E34D8F40132976083D801BD
S1134C30ED91FC911197359788E98083ED91FC9172
S1134C40349786E08083FFBEC801DF91CF911F9126
S1134C500F91FF90EF90CF90AF909F908F907F90A7
S1134C606F905F904F903F902F900895CF93DF9374
S1134C70DC01892B01F11296ED91FC91139793813C
S1134C8082812581981B922384819817B1F08381B6
S1134C9026952823C081D181C20FD11D68838F5FDF
S1134CA0958189238383ED91FC913597808180627E
S1134CB0808380E003C081E001C082E0DF91CF9176
S1134CC00895EF92FF920F931F93CF93DF937C018C
S1134CD0009709F441C0DC011296ED91FC91139701
S1134CE093818281981B858198238481891B8617EF
S1134CF0A8F1662341F1842F952FDC016150462FE2
S1134D0050E04F5F5F4F480F591FE701EA81FB8175
S1134D10938182812581981B92238481981779F04D
S1134D208C91938126952923608171818B01020FD7
S1134D30111DE80188839F5F8581982393831196D1
S1134D40A417B50711F7D701ED91FC913597808130
S1134D508062808380E003C081E001C082E0DF9153
S1134D60CF911F910F91FF90EF9008950097D1F08C
S1134D70DC011496ED91FC9115979381828198172B
S1134D8099F09281858186958923A081B181A80FAC
S1134D90B11D8C91DB018C939F5F85819823928355
S1134DA080E0089581E0089583E008951F920F92B2
S1134DB00FB60F9211240BB60F922F933F934F937C
S1134DC05F936F937F938F939F93AF93BF93CF938F
S1134DD0DF93EF93FF93A0916318B0916418109739
S1134DE011F16091C6001496ED91FC911597938191
S1134DF082812581981B92238481981761F0838195
S1134E0026952823C081D181C20FD11D68838F5F6D
S1134E109581892383831696ED91FC91179730979A
S1134E2011F0CD011995FF91EF91DF91CF91BF91D1
S1134E30AF919F918F917F916F915F914F913F912E
S1134E402F910F900BBE0F900FBE0F901F901895CF
S1134E501F920F920FB60F9211240BB60F922F933D
S1134E608F939F93AF93BF93EF93FF93E091631856
S1134E70F09164183097B9F00280F381E02D9381AA
S1134E8082819817B1F092818581282F2695292354
S1134E90A081B181A20FB11D2C919F5F89238283D0
S1134EA02093C6000BC0E1ECF0E080818F7D80830D
S1134EB005C0E1ECF0E080818F7D8083FF91EF916C
S1134EC0BF91AF919F918F912F910F900BBE0F9037
S1134ED00FBE0F901F9018951F920F920FB60F924E
S1134EE011240BB60F922F933F934F935F936F93BD
S1134EF07F938F939F93AF93BF93CF93DF93EF935E
S1134F00FF93A0916518B0916618109711F1609104
S1134F10CE001496ED91FC911597938182812581A1
S1134F20981B92238481981761F083812695282306
S1134F30C081D181C20FD11D68838F5F9581892380
S1134F4083831696ED91FC911797309711F0CD015C
S1134F501995FF91EF91DF91CF91BF91AF919F91FF
S1134F608F917F916F915F914F913F912F910F900E
S1134F700BBE0F900FBE0F901F9018951F920F92AB
S1134F800FB60F9211240BB60F922F938F939F930A
S1134F90AF93BF93EF93FF93E0916518F091661878
S1134FA03097B9F00280F381E02D938182819817C4
S1134FB0B1F092818581282F26952923A081B18182
S1134FC0A20FB11D2C919F5F892382832093CE0071
S1134FD00BC0E9ECF0E080818F7D808305C0E9ECB3
S1134FE0F0E080818F7D8083FF91EF91BF91AF913D
S1134FF09F918F912F910F900BBE0F900FBE0F902A
S11350001F9018951F920F920FB60F9211240BB692
S11350100F922F933F934F935F936F937F938F934D
S11350209F93AF93BF93CF93DF93EF93FF93A0919D
S11350306718B0916818109711F16091D600149612
S1135040ED91FC911597938182812581981B922380
S11350508481981761F0838126952823C081D181AA
S1135060C20FD11D68838F5F958189238383169630
S1135070ED91FC911797309711F0CD011995FF919F
S1135080EF91DF91CF91BF91AF919F918F917F91DC
S11350906F915F914F913F912F910F900BBE0F90A5
S11350A00FBE0F901F9018951F920F920FB60F927C
S11350B011240BB60F922F938F939F93AF93BF93AB
S11350C0EF93FF93E0916718F09168183097B9F067
S11350D00280F381E02D938182819817B1F092814F
S11350E08581282F26952923A081B181A20FB11D86
S11350F02C919F5F892382832093D6000BC0E1ED1E
S1135100F0E080818F7D808305C0E1EDF0E0808157
S11351108F7D8083FF91EF91BF91AF919F918F918C
S11351202F910F900BBE0F900FBE0F901F901895EC
S11351301F920F920FB60F9211240BB60F922F935A
S11351403F934F935F936F937F938F939F93AF930B
S1135150BF93CF93DF93EF93FF93A0916918B0911E
S11351606A18109711F1609136011496ED91FC9133
S11351701597938182812581981B922384819817A6
S113518061F0838126952823C081D181C20FD11D6E
S113519068838F5F9581892383831696ED91FC91B3
S11351A01797309711F0CD011995FF91EF91DF9189
S11351B0CF91BF91AF919F918F917F916F915F91AB
S11351C04F913F912F910F900BBE0F900FBE0F90F8
S11351D01F9018951F920F920FB60F9211240BB6C1
S11351E00F922F938F939F93AF93BF93EF93FF935C
S11351F0E0916918F0916A183097B9F00280F38150
S1135200E02D938182819817B1F092818581282FB6
S113521026952923A081B181A20FB11D2C919F5FF6
S113522089238283209336010BC0E1E3F1E080817E
S11352308F7D808305C0E1E3F1E080818F7D8083F1
S1135240FF91EF91BF91AF919F918F912F910F900B
S11352500BBE0F900FBE0F901F901895CF93DF9346
S11352601F92CDB7DEB7BE016F5F7F4F80916B1881
S113527090916C187BDD8111F6CF898190E00F90BD
S1135280DF91CF910895682F80916B1890916C18DD
S1135290EDDC80E090E008958F929F92AF92CF92E0
S11352A0EF920F93812C912C6894AA24A7F8689408
S11352B0CC24C7F8E12C00E023E040E051EE60E0AC
S11352C070E02DDC90936C1880936B18E0EBF8E1A0
S11352D083E292E091838083938382830F91EF90A2
S11352E0CF90AF909F908F900895E0916D18F091BA
S11352F06E183097F9F0A081B1811097D9F023810D
S1135300213069F44C9121E030E0028002C0220F88
S1135310331F0A94E2F7209524232C930BC04C915D
S113532021E030E0028002C0220F331F0A94E2F72A
S1135330242B2C9390936E1880936D18009769F02A
S113534010926F182CB52F732CBDFC0124812CBD39
S113535085818DBD8CB580648CBD08951F93CF93DA
S1135360DF93009709F46AC0162FEC0180916D1841
S113537090916E18C817D90711F0CE01B6DF8FB718
S11353802FB7F89480916F18811131C081E0809318
S11353906F18A0916D18B0916E18ED91FC91119752
S11353A03097F9F013968C911397813069F430811A
S11353B081E090E012960C9002C0880F991F0A9425
S11353C0E2F7832B80830DC0308181E090E0129658
S11353D00C9002C0880F991F0A94E2F780958323EA
S11353E080838CB580688CBD1EBD80E025C0EE81B5
S11353F0FF813097E1F03481838142819581841B60
S113540089233817B1F083814281841B892338179B
S113541091F0838196959823A081B181A90FB11D44
S11354201C938F5F95818923838380E005C082E08C
S113543003C081E001C080E02FBF01C083E0DF91A1
S1135440CF911F9108951F920F920FB60F921124BE
S11354500BB60F922F933F934F935F936F937F936A
S11354608F939F93AF93BF93CF93DF93EF93FF9368
S11354706EB5A0916D18B0916E181896ED91FC91CF
S113548019973097A1F0838122819581821B89230A
S11354902481821761F0838196959823C081D181FC
S11354A0C90FD11D68838F5F9581892383831696E5
S11354B0ED91FC911797309799F093818281981719
S11354C079F092818581282F26952923A081B181A5
S11354D0A20FB11D2C919F5F892382832EBD2DC005
S11354E08CB58F778CBD10926F18A0916D18B09108
S11354F06E18ED91FC9111973097F9F013968C91F9
S11355001397813071F4208181E090E012960C9021
S113551002C0880F991F0A94E2F780958223808342
S11355200CC0208181E090E012960C9002C0880F9C
S1135530991F0A94E2F7822B808380916D189091D1
S11355406E18DC011A96ED91FC911B97309709F0C7
S11355501995FF91EF91DF91CF91BF91AF919F91F9
S11355608F917F916F915F914F913F912F910F9008
S11355700BBE0F900FBE0F901F90189590E0FC018A
S1135580EE0FFF1FE80FF91FEE0FFF1FE059F74E54
S1135590238121111FC09C01220F331FF901E80F41
S11355A0F91FEE0FFF1FE059F74EA081B1814C9116
S11355B0F901E80FF91FEE0FFF1FE059F74E81E0E4
S11355C090E0028002C0880F991F0A94E2F7842BAE
S11355D08C930895FC01EE0FFF1FDF01A80FB91F84
S11355E0AA0FBB1FA059B74E0D90BC91A02D2C91B2
S11355F0E80FF91FEE0FFF1FE059F74E81E090E02E
S1135600028002C0880F991F0A94E2F780958223D2
S11356108C93089590E0FC01EE0FFF1FE80FF91F33
S1135620EE0FFF1FE059F74E2381211120C09C018A
S1135630220F331FF901E80FF91FEE0FFF1FE05986
S1135640F74EA081B1814C91F901E80FF91FEE0FDB
S1135650FF1FE059F74E81E090E0028002C0880FFE
S1135660991F0A94E2F7809584238C930895FC0192
S1135670EE0FFF1FDF01A80FB91FAA0FBB1FA05910
S1135680B74E0D90BC91A02D2C91E80FF91FEE0F91
S1135690FF1FE059F74E81E090E0028002C0880FBE
S11356A0991F0A94E2F7822B8C930895CC24C39417
S11356B0D12C6894BB24B2F8C0E7D8E110E08C8107
S11356C0813081F018F1823061F5E881F98120811F
S11356D0C6010A8002C0880F991F0A94E2F7822744
S11356E080831FC08D818F5F863010F48D8319C035
S11356F01D82E881F9812081C6010A8002C0880FD9
S1135700991F0A94E2F7822780830BC00D8100233E
S113571029F0812F7FDF01500D8303C0BC82812FCC
S11357202DDF1F5F2696143051F66CE070E080E0A8
S113573090E00E94E610C0CFEF92FF920F931F9368
S1135740CF93DF93082F80E487B9C0E7D8E10F2E09
S1135750F8E2EF2EF12CF02DF982E88286E08A83BC
S11357601B8214E01C8380E009DF80E887B9FF8294
S1135770EE8287E0888719861A8781E0FFDE80E25F
S113578083BB84E390E09D878C8785E08E871F86AA
S1135790188B82E0F3DE80E18093010182E091E0E6
S11357A09B8B8A8B1C8B1D8A1E8B83E0E7DEE12C8E
S11357B0F12C20E030E040EC50E063E778E086E54F
S11357C09BE20E94E00CDF91CF911F910F91FF901B
S11357D0EF900895CF93DF9390E0FC01EE0FFF1F4D
S11357E0DF01A80FB91FAA0FBB1FA059B74ECD9157
S11357F0DC911197488121E030E012960C901297C9
S113580002C0220F331F0A94E2F724272883FD01E4
S113581081E08483DF91CF910895CF93DF9390E06B
S1135820FC01EE0FFF1FDF01A80FB91FAA0FBB1F5A
S1135830A059B74ECD91DC911197488121E030E019
S113584012960C90129702C0220F331F0A94E2F7AB
S113585024272883FD0182E08483DF91CF9108957A
S1135860282F30E0F901EE0FFF1FE20FF31FEE0FB8
S1135870FF1FE059F74E93E09483CCCE0895282F70
S113588030E0F901EE0FFF1FE20FF31FEE0FFF1FD1
S1135890E059F74E94E0948371CE089590E0FC01B2
S11358A0EE0FFF1FDF01A80FB91FAA0FBB1FA059DE
S11358B0B74E26E015962C931597FD011482089592
S11358C090E0FC01EE0FFF1FDF01A80FB91FAA0F24
S11358D0BB1FA059B74E15961C921597FD01148253
S11358E008958091961881110CC08CE08093B800C3
S11358F08FEF8093BB0084E08093BC0081E08093B1
S113590096180895AF92BF92CF92DF92EF92FF92D2
S11359100F931F93CF93DF93A82EB62E69017A01BC
S113592084E090E05FD3EC01892B61F1A88281E0EF
S1135930B81212C0C701B60120EA36E841E050E0CF
S113594027D3DA01C9014097A109B109B695A795F2
S113595097958795898311C0C701B60120E83AE17C
S113596046E050E015D3DA01C9014097A109B10915
S1135970B695A7959795879589831B830A838C2F62
S11359809D2F02C080E090E0DF91CF911F910F9195
S1135990FF90EF90DF90CF90BF90AF9008958091EB
S11359A0BC0081700895FF920F931F93CF93DF93F0
S11359B00097D1F14A30D0F5F42E8B01EC01EFDFE2
S11359C0811136C08091891890918A18C817D90717
S11359D041F087DF89818093B800D0938A18C093FF
S11359E0891881E08F0D80938B188881880F8093AC
S11359F08C18FF2089F0F801ADE8B8E14FEF4F0DA6
S1135A00642F70E0CB010196B801680F791F819172
S1135A108D93E617F707D9F788EF8093310285EA6B
S1135A208093BC0084E005C086E003C087E001C029
S1135A3082E0DF91CF911F910F91FF9008951F9302
S1135A40CF93DF93009729F16B3028F5162FEC01E3
S1135A50A6DF811122C08091891890918A18C817F5
S1135A60D90741F03EDF89818093B800D0938A182A
S1135A70C093891810938B188881880F8160809354
S1135A808C1888EF8093310285EA8093BC0085E00E
S1135A9005C086E003C087E001C082E0DF91CF91BA
S1135AA01F9108951F920F920FB60F9211240BB6F7
S1135AB00F922F933F934F935F936F937F938F93A3
S1135AC09F93AF93BF93EF93FF93E091B9008E2F11
S1135AD090E0FC013897E135F10508F075C088279E
S1135AE0E458FF4F8F4F76C210928818E0918818BF
S1135AF080918B18E81770F481E08E0F80938818DA
S1135B00F0E0E457F74E80818093BB0085E88093F2
S1135B10BC0072C084E98093BC0080918918909184
S1135B208A18DC011296ED91FC911397309709F4D1
S1135B3063C020E040E050E064E019955DC0E0916E
S1135B40881881E08E0F809388188091BB00F0E064
S1135B50E457F74E80838091B900803411F4109299
S1135B6088182091881830E080918B1890E0019774
S1135B702817390724F485EC8093BC003DC085E8E0
S1135B808093BC0039C08091BB00E0918818F0E09C
S1135B90E457F74E808384E98093BC008091891890
S1135BA090918A18DC011296ED91FC91139730972D
S1135BB019F120918B184CE858E165E019951CC047
S1135BC085EA8093BC0018C08091B90080933102AB
S1135BD084E08093BC008091891890918A18DC013C
S1135BE01296ED91FC911397309731F020E040E04C
S1135BF050E0609131021995FF91EF91BF91AF91FF
S1135C009F918F917F916F915F914F913F912F91D0
S1135C100F900BBE0F900FBE0F901F901895FC01B4
S1135C20411101C000D3842F90E09C01215031091F
S1135C3082239323892B09F0F6D2413808F0F3D25A
S1135C40128213824483440F4150458371836083DD
S1135C5080E090E008955058BB27AA270ED021C1B8
S1135C6012D130F017D120F031F49F3F11F41EF41B
S1135C7007C10EF4E095E7FBFDC0E92F0E94741EF6
S1135C8078F3BA17620773078407950720F079F44D
S1135C90A6F50C94961E0EF4E0950B2EBA2FA02DAB
S1135CA00B01B90190010C01CA01A0011124FF27C5
S1135CB0591B99F0593F50F4503E68F11A16F040C0
S1135CC0A22F232F342F4427585FF3CF46953795BF
S1135CD02795A795F0405395C9F77EF41F16BA0B84
S1135CE0620B730B840BBAF09150A1F0FF0FBB1F32
