S01300004669726D77617265305F312E7372656314
S113000046C2000065C2000063C2000061C2000075
S11300105FC200005DC200005BC2000059C2000064
S113002057C2000055C2000053C2000051C2000074
S113003032C500004DC200004BC2000049C200009E
S113004047C2000045C2000043C2000041C2000094
S11300503FC200003DC200003BC2000039C20000A4
S113006037C200000C9475210C94C72131C20000E2
S11300702FC200002DC200002BC2000029C20000C4
S113008027C2000025C2000023C2000021C20000D4
S11300900C940B220C945D221BC200000C94A82625
S11300A017C2000015C2000013C2000011C20000F4
S11300B00FC200000DC200000BC2000009C2000004
S11300C007C2000005C2000003C200000C94A12274
S11300D00C94F322FDC100000C9437230C94892363
S11300E0F7C10000BE01BE01BE01F8010002160204
S11300F0BE01BE01F8010002CA263A273A273A2770
S11301003A273A273A273A27CA263A273A273A2754
S11301103A273A273A273A27CC263A273A273A2742
S11301203A273A273A273A273A273A273A273A27C3
S11301303A273A273A273A27CC263A273A273A2722
S11301403A273A273A273A273A273A273A273A27A3
S11301503A273A273A273A2736273A273A273A2797
S11301603A273A273A273A2701273A273A273A27BC
S11301703A273A273A273A273A273A273A273A2773
S11301803A273A273A273A27F5263A273A273A27A9
S11301903A273A273A273A27192709E615E10F2E75
S11301A0F9E9EF2EF5E1FF2EF02D809168158823F3
S11301B011F10FB6F8940F92D8011796ED91FC91B6
S11301C01897C085D185CE01029625D380915C1500
S11301D0815080935C1580916815815080936815D7
S11301E00F900FBE8B8D9C8D8AD2CE0188D28091C8
S11301F068158111DECFF7018081823008F085D344
S11302000E94F316D2CFCF93DF93CDB7DEB76097BA
S11302100FB6F894DEBF0FBECDBFCE0101969A870C
S11302208987812C912CA12CB12C69847A84E0914A
S11302301316F09114168081882309F40EC10780E7
S1130240F085E02D20803180428053800E947F0D14
S1130250CE0101960E945C166B877C878D879E87F2
S11302608981811164C08B859C85AD85BE8582158D
S11302709305A405B50508F444C00E94C30EE0919B
S11302801316F09114160780F085E02DA085B18532
S1130290B88BAF87CD010296BED2EF85F8898689E7
S11302A082FF21C04685578560897189420D531D9F
S11302B0641D751D720161010B851C852D853E85AC
S11302C0CF010E946B15882399F0C82CD92CEA2CF5
S11302D0FB2C00E010E0A201910160E08F85988979
S11302E00E94FE1505C08E7FAF85B88956968C9303
S11302F0AF85B8895496ED91FC915597CD01199528
S11303009EC020E0B201A1018B859C85AD85BE8590
S1130310481B590B6A0B7B0B80910F16909110169A
S113032080D60E94C30E81118AC0EFD288C00E9479
S1130330C30E85C0898188230CF481C04E805F8000
S1130340D2011C968D919C911D97892B19F0C201A5
S1130350029661D2CE0108960E945C168B019C0124
S1130360E9810E2E000CFF0BEA30F10508F067C09E
S11303708827EE58FF4F8F4F0C940329F20186898A
S11303808160868BCA80DB80EC80FD804685578542
S1130390608971894C0D5D1D6E1D7F1DC2010E9417
S11303A06B15882309F44BC0D2015496ED91FC914E
S11303B05597C2011995F201868982FF40C04A818E
S11303C05B816C817D8186859785A089B1899A013D
S11303D0AB01280F391F4A1F5B1FC82CD92CEA2CEC
S11303E0FB2C00E010E060E0C2010E94FE1527C073
S11303F0D20156968C9156978E7F56968C931FC039
S1130400F20186898160868B4A815B816C817D8162
S113041046875787608B718B400F511F621F731F74
S113042068017901C2010E946B1509C0F201868935
S113043081FD03C0C20163D102C08E7F868B282D4B
S1130440392D4A2D5B2D662D772D80910F169091B5
S113045010164ED581116ECFEACE0E947F0DCE01CB
S113046001960E945C166B877C878D879E878981A5
S113047081115DCFE0911116F0911216808121E077
S1130480811120E0282C392C4A2C5B2C3BCF1124E1
S11304901FBECFEFD1E2DEBFCDBF00E00CBF17E03F
S11304A0A0E0B2E0EEE5FBE500E00BBF02C0079080
S11304B00D92AC38B107D9F727E1ACE8B7E001C039
S11304C01D92AA39B207E1F70E943D180C94AD2D94
S11304D097CD0895CF93DF93DC01E8E9F7E001C0FD
S11304E0F901208131812A173B07D0F3828193815E
S11304F0AF01480F591FA417B50749F412964D913F
S11305005C911397840F951F93838283DF01129666
S11305108D919C911397ED01C80FD91F2C173D079E
S1130520D9F42091960730919707C217D30781F029
S11305302A813B81820F931F13969C938E9312976B
S1130540C081D1818881998111969C938E9307C033
S11305501196DC93CE9303C011963C932E93AE1761
S1130560BF0711F0B183A083DF91CF910895CF929B
S1130570DF92EF92FF920F931F93CF93DF93EC01DF
S11305800E947F0D8091960790919707892B41F5E2
S1130590E8E9F7E0ACE9B7E0B183A0831382128203
S11305A0E4E4F5E1F0939707E0939607138212824F
S11305B01182108288EA9DE013969C938E93129781
S11305C0ED93FC93909393078093920790939507F0
S11305D08093940780E090E890938D0780938C0734
S11305E0E0908C07F0908D07C7018C239D23892B05
S11305F009F075C0209709F475C09E012C5F3F4F28
S1130600C217D30708F06EC02115310509F467C07D
S113061000919407109195070217130708F45FC01F
S1130620C0919807D0919907E8E9F7E002C0FE016C
S1130630EC018A819B818217930720F48881998138
S11306400097A9F78091960790919707C817D90743
S113065009F445C0C080D18084E0C80ED11C8881D3
S11306609981918380834A815B81421B530B49307A
S1130670510548F0CE01820F931FFC01538342833E
S11306803B832A8327DF8A819B81081B190B1093E4
S113069095070093940720919207309193070217CE
S11306A0130720F41093930700939207E82AF92A7A
S11306B0FB82EA82198218828091900790919107B7
S11306C0019690939107809390070E94C30EC114E2
S11306D0D10459F40E94F916C12CD12C06C00E94F1
S11306E0C30EF8CF0E94C30EF5CFC601DF91CF91A0
S11306F01F910F91FF90EF90DF90CF900895CF93CB
S1130700DF93009799F1FC01349722813381409162
S11307108C0750918D07B90164237523672B31F140
S113072060817181672B11F5EF0140955095242369
S11307303523338322830E947F0D209194073091C7
S113074095078A819B81820F931F909395078093CD
S11307509407CE01BFDE80918E0790918F0701969A
S113076090938F0780938E070E94C30EDF91CF91E1
S11307700895FC010396928381834FEF5FEFBA01E2
S113078043835483658376839087878392878187A5
S113079010820895FC011386128608950F931F9307
S11307A0CF93DF93EB01088119812A813B810F3FAD
S11307B04FEF14072407340721F4FC01A185B28507
S11307C011C0DC01139601C0DF011496ED91FC9178
S11307D0159740815181628173810417150726079B
S11307E0370790F71496ED91FC911597FD83EC83F0
S11307F0D783C683BF83AE831596DC93CE931497B9
S11308009B878A87FC0120812F5F2083DF91CF9112
S11308101F910F910895CF93DF93FC01A285B385B7
S1130820C481D581868197819F838E83C681D78138
S1130830848195819D838C8311968D919C911297CF
S1130840E817F90731F48681978112969C938E9369
S11308501197138612868C9181508C938C91DF9121
S1130860CF910895FC016083319770833197108292
S113087031971082319720E8208331971082319785
S113088010823197108277974083319750838697EF
S11308900895A89590EC88E10FB6F894A8958093F4
S11308A060000FBE90936000A0910716B0910816E7
S11308B0CD91CDBFDD91DEBFFF91EF91DF91CF915F
S11308C0BF91AF919F918F917F916F915F914F9164
S11308D03F912F911F910F91FF90EF90DF90CF9058
S11308E0BF90AF909F908F907F906F905F904F904C
S11308F03F902F901F900F900CBE0F900BBE0F9047
S11309000FBE0F90089581E008950F920FB6F894EA
S11309100F920BB60F920CB60F921F9211242F92C6
S11309203F924F925F926F927F928F929F92AF927B
S1130930BF92CF92DF92EF92FF920F931F932F9368
S11309403F934F935F936F937F938F939F93AF9353
S1130950BF93CF93DF93EF93FF93A0910716B091CA
S113096008160DB60D920EB60D920E942C10A09191
S11309700716B0910816CD91CDBFDD91DEBFFF9172
S1130980EF91DF91CF91BF91AF919F918F917F9123
S11309906F915F914F913F912F911F910F91FF9014
S11309A0EF90DF90CF90BF90AF909F908F907F900B
S11309B06F905F904F903F902F901F900F900CBEC0
S11309C00F900BBE0F900FBE0F9008950F920FB6AD
S11309D0F8940F920BB60F920CB60F921F9211243B
S11309E02F923F924F925F926F927F928F929F923B
S11309F0AF92BF92CF92DF92EF92FF920F931F9329
S1130A002F933F934F935F936F937F938F939F9312
S1130A10AF93BF93CF93DF93EF93FF93A091071608
S1130A20B09108160DB60D920EB60D9213BE0E942B
S1130A30930D81110E942C10A0910716B0910816F5
S1130A40CD91CDBFDD91DEBFFF91EF91DF91CF91CD
S1130A50BF91AF919F918F917F916F915F914F91D2
S1130A603F912F911F910F91FF90EF90DF90CF90C6
S1130A70BF90AF909F908F907F906F905F904F90BA
S1130A803F902F901F900F900CBE0F900BBE0F90B5
S1130A900FBE0F9008959ADF18950FB6F8940F9231
S1130AA0FC01968D0F900FBE81E0911180E00895B6
S1130AB00F931F93CF93DF93EC01042F1E8D48A156
S1130AC041110CC088819981892B09F042C08C8125
S1130AD09D810E943D121D821C8242C0011117C0DB
S1130AE050E08A819B810E94302A28A18A819B81BF
S1130AF0820F911D9B838A832C813D8182179307EA
S1130B0050F1888199819B838A8380E029C050E0D9
S1130B108E819F810E94302A88A190E091958195D1
S1130B2091092E813F81280F391F3F832E834881ED
S1130B3059812417350730F42C813D81820F931F8E
S1130B409F838E83023049F4112349F0115080E0D1
S1130B5007C080E005C080E003C080E001C080E001
S1130B601F5F1E8FDF91CF911F910F910895FC019C
S1130B7040A14423A9F050E026813781240F351F7A
S1130B8037832683848195812817390720F0808153
S1130B90918197838683CB01668177810C94302A77
S1130BA00895EF92FF920F931F93CF938C010FB68A
S1130BB0F8940F92FC01C2A11C16ACF48389811134
S1130BC006C011C0F8018389811105C00CC07801E9
S1130BD0F3E1EF0EF11CC7010E94F61081110E948F
S1130BE02612C15079F78FEFF80182A30F900FBE40
S1130BF00FB6F8940F92C1A11C16ACF48085811134
S1130C0006C011C0F8018085811105C00CC07801AF
S1130C10F8E0EF0EF11CC7010E94F61081110E944A
S1130C202612C15079F78FEFF80181A30F900FBE00
S1130C30CF911F910F91FF90EF900895CF93DF9381
S1130C40EC010FB6F8940F92E881F9818F8D28A1F9
S1130C5090E030E0829FA001839F500D929F500D41
S1130C6011244E0F5F1F5D834C831E8EFB83EA832A
S1130C700197829FA001839F500D929F500D1124D4
S1130C80CF01840F951F9F838E838FEF89A38AA33F
S1130C9061110BC08885882371F0CE0108960E94EB
S1130CA0F610882341F031DE06C0CE01089661DDDE
S1130CB0CE0143965EDD0F900FBE81E0DF91CF91B0
S1130CC008950F931F93CF93DF93082F162F869FBA
S1130CD0C001112483964BDCEC01009769F01111DB
S1130CE003C09983888303C08396998388830F8F75
S1130CF018A361E0CE01A2DFCE01DF91CF911F9155
S1130D000F9108959F92AF92BF92CF92DF92EF928C
S1130D10FF920F931F93CF93DF93CDB7DEB729973D
S1130D200FB6F894DEBF0FBECDBF7C015B012E83EE
S1130D303F834887598710E0992493946C0188E095
S1130D40C80ED11C0FB6F8940F92F701968D878DBB
S1130D50981710F00230B1F4402FB501C701A8DE96
S1130D60F7019389992341F0C70143960E94F61035
S1130D70882321F0CADD02C08111C7DD0F900FBEA8
S1130D8081E04EC08E819F81A885B985892B8A2BED
S1130D908B2B21F40F900FBE80E042C0111105C0CF
S1130DA0CE0101960E94BC11192D0F900FBEA7D63B
S1130DB00FB6F8940F92F70181A18F3F09F411A2A5
S1130DC0F70182A18F3F09F412A20F900FBEBE015A
S1130DD06A5F7F4FCE0101960E94CD1181111CC024
S1130DE00FB6F8940F92F701968D878D0F900FBE72
S1130DF098130EC04E815F8168857985C6010E9473
S1130E009D10C701CEDEBFD781119CCF7EDD9ACF66
S1130E10C701C7DEB8D796CFC701C3DEB4D780E019
S1130E2029960FB6F894DEBF0FBECDBFDF91CF91E8
S1130E301F910F91FF90EF90DF90CF90BF90AF90F4
S1130E409F9008950F93CF93DF93482F60E081E044
S1130E5038DFEC01009761F01D821C821982188230
S1130E601E8200E020E030E0A90160E070E04ADF8B
S1130E70CE01DF91CF910F910895EF92FF920F93DE
S1130E801F93CF93DF938A01FC01568D378D53173F
S1130E9010F02230F9F4422F7801EC011AA18E8D62
S1130EA0CE0106DE1F3F81F48B898823A9F0CE0191
S1130EB043960E94F610882389F0E114F10481F02E
S1130EC081E0F70180830DC0FF24F394F10EFAA2B0
S1130ED081E007C080E005C081E003C081E001C07B
S1130EE081E0DF91CF911F910F91FF90EF900895D2
S1130EF09F92AF92BF92CF92DF92EF92FF920F93A5
S1130F001F93CF93DF93CDB7DEB729970FB6F8942D
S1130F10DEBF0FBECDBF8C015B012E833F834887AC
S1130F205987E12C992493946C0183E1C80ED11C58
S1130F300FB6F8940F92F801F68CFF2099F0B501E2
S1130F40C80115DEFA94F801F68E8085882331F005
S1130F50C80108960E94F6108111D7DC0F900FBECD
S1130F6081E04DC08E819F81A885B985892B8A2B0C
S1130F708B2B21F40F900FBE80E041C0E11005C01F
S1130F80CE0101960E94BC11E92C0F900FBEB7D57B
S1130F900FB6F8940F92F80181A18F3F09F411A2C2
S1130FA0F80182A18F3F09F412A20F900FBEBE0177
S1130FB06A5F7F4FCE0101960E94CD11811116C048
S1130FC0C8016BDD882371F04E815F816885798566
S1130FD0C6010E949D10C801E4DDD5D68111A8CFB9
S1130FE094DCA6CFC801DDDDCED6A2CFC801D9DD01
S1130FF0CAD6C80152DD882309F49ACF80E0299625
S11310000FB6F894DEBF0FBECDBFDF91CF911F9115
S11310100F91FF90EF90DF90CF90BF90AF909F9093
S11310200895CF93DF93EC010FB6F8940F9289A142
S11310308F3F09F419A28AA18F3F09F41AA20F90D5
S11310400FBE8E8D811104C0CE0143960E94B41050
S1131050CE01A7DDDF91CF910895FC014481558134
S113106022813381240F351F80819181B901681B4E
S1131070790BCB016417750710F0841B950B089549
S1131080AF92BF92CF92DF92EF92FF920F931F9392
S1131090CF93DF936C015B017A01FC01C281D381A0
S11310A0048115810C1B1D0B4017510708F48A019C
S11310B0F60184859585A801B5018C0F9D1F0E94BA
S11310C0302A0E151F0558F4A701401B510BB5011A
S11310D0600F711FF601848595850E94302ACE0128
S11310E08E0D9F1DF601248135818217930710F020
S11310F0821B930BF60193838283C701DF91CF9107
S11311001F910F91FF90EF90DF90CF90BF90AF9021
S11311100895CF92DF92EF92FF920F931F93CF9394
S1131120DF931F921F92CDB7DEB75A8349832115EF
S11311303105C9F06B017C01FC01868580FD08C086
S1131140CA012417350708F4C9019A83898311C099
S11311502017310758F042E050E0BE016F5F7F4F27
S1131160C7018EDF06C080E090E008C080E090E018
S113117005C049815A81B601C70182DF0F900F90E3
S1131180DF91CF911F910F91FF90EF90DF90CF905F
S11311900895AF92BF92CF92DF92EF92FF920F9396
S11311A01F93CF93DF937C015B01E901421753073F
S11311B008F4EA01209779F1F70100811181C480D4
S11311C0D580C01AD10ACC15DD0508F46E01F701EB
S11311D064857585600F711FA601C5010E94302AC0
S11311E0CC16DD0658F4AE014C195D09F70164858F
S11311F07585C5018C0D9D1D0E94302A0C0F1D1F85
S1131200F701848195810817190710F0081B190B41
S1131210F70111830083CE01DF91CF911F910F91CC
S1131220FF90EF90DF90CF90BF90AF900895FF9222
S11312300F931F93CF93DF938B01FF24F3944130DB
S113124009F0F12C0115110511F401E010E09C01E5
S1131250205F3F4F82179307B0F4EC012196C90138
S113126086D9FC01892B89F08FE0DF011D928A95D4
S1131270E9F7CF010F9695878487D583C4831783B5
S11312800683F68602C0E0E0F0E0CF01DF91CF9163
S11312901F910F91FF9008950FB6F8940F92DC01FF
S11312A018962D913C911997232B51F51A962D914F
S11312B03C911B97232B31F51E962C911E97169665
S11312C04D915C91179714966D917C9115971C968E
S11312D0ED91FC911D973FE01D923A95E9F7DC01F1
S11312E01D96FC93EE931C9715967C936E9314971E
S11312F017965C934E9316971E962C9381E003C029
S113130080E001C080E00F900FBE0895FC012481AD
S113131035818081918142815381820F931F01978E
S1131320841B950B8217930710F0821B930B08956F
S11313302F923F924F925F926F927F928F929F92E1
S1131340AF92BF92CF92DF92EF92FF920F931F93CF
S1131350CF93DF93CDB7DEB72B970FB6F894DEBFEC
S11313600FBECDBF4C017B876A871A010E831F8392
S113137028873987FC01848195810197268520FF80
S11313800CC02A01F2E04F0E511C8415950550F44F
S11313901E821F821886198646C02A018417950763
S11313A008F42C018E819F81A885B985892B8A2B0D
S11313B08B2B09F438C0CE010196C8D70FB6F89428
S11313C00F92C401A3DF3C018415950538F560E054
S11313D080E090E00E9451150E942A12F401938744
S11313E082870F900FBEAE80BF80C884D984E12C61
S11313F0F12C00E010E0980140E050E0BA0180E0F8
S11314000E949812F40113861286BE016A5F7F4F10
S1131410CE010196C2D7882389F202C00F900FBE75
S11314206114710419F4C40171DF3C018201930158
S1131430A1016A857B85C4016CDE6C01892BE9F00E
S1131440C4010BDEF4012681378182179307A8F0CB
S113145056D3F40180859185892B71F0808591851F
S1131460E12CF12C00E020E030E0A90160E00E94D2
S11314703F13F4011186108686D4C6012B960FB64D
S1131480F894DEBF0FBECDBFDF91CF911F910F91B6
S1131490FF90EF90DF90CF90BF90AF909F908F9090
S11314A07F906F905F904F903F902F900895AF92F0
S11314B0BF92CF92DF92EF92FF920F931F93CF933D
S11314C0DF93EC017B015A0169018E8580FF04C022
S11314D08A010E5F1F4F01C08A01CE0117DF9C01F4
S11314E0A501B701CE0115DE5C01892BC1F0CE0147
S11314F0B4DD2E813F818217930788F08885998512
S1131500892B69F088859985E12CF12C00E020E095
S113151030E0A90160E00E94331419861886C501E1
S1131520DF91CF911F910F91FF90EF90DF90CF90BB
S1131530BF90AF9008952F923F924F925F926F9217
S11315407F928F929F92AF92BF92CF92DF92EF924F
S1131550FF920F931F93CF93DF931F921F92CDB7E8
S1131560DEB74C011B012A0158016901FC01868583
S113157080FD03C0612C712C04C06894662461F85A
S1131580712CA114B104C104D10441F10FB6F89433
S11315900F92C40162DD8C016816790648F060E0A0
S11315A080E090E00E94511555D7F401918780871F
S11315B00F900FBE60167106B8F0E12CF12C00E01C
S11315C010E0980140E050E0BA0180E0B1D7F401A6
S11315D011861086C40141DD8C0103C0C4013DDDC8
S11315E08C0160167106C8F561147104C1F0F40130
S11315F0C080D1809801A301BE016F5F7F4FC401F9
S1131600C8DD89819A81061917094816590630F4EC
S1131610F401D182C082412C512C01C02C019801CB
S1131620A201B101C401B5DD6C01892BC1F067D2FF
S1131630F40182859385892B71F082859385E12C51
S1131640F12C00E020E030E0A90160E00E943F13AB
S1131650F4011386128697D302C0C12CD12CC60183
S11316600F900F90DF91CF911F910F91FF90EF900A
S1131670DF90CF90BF90AF909F908F907F906F90AE
S11316805F904F903F902F900895E0918115F091D5
S11316908215808181110CC08FEF9FEFDC01809354
S11316A04B1590934C15A0934D15B0934E1508957A
S11316B0E0918115F09182150780F085E02D8081FD
S11316C09181A281B38180934B1590934C15A09383
S11316D04D15B0934E1508958F929F92AF92BF927D
S11316E0CF92DF92EF92FF92CF93DF936B017C0155
S11316F0C42F8090581590905915A0905A15B09009
S11317005B158091071690910816029684D88FEF86
S1131710C816D806E806F806B1F5CC23A1F1EDE524
S1131720F5E1A181B281C0910716D0910816BF835B
S1131730AE83C0910716D091081616968D919C9190
S11317401797998788871696CD91DC911797809182
S113175007169091081602969D838C838091071634
S113176090910816029617969C938E931697A091C3
S11317700716B09108161D96FC93EE931C97808172
S11317808F5F80833FC0C80CD91CEA1CFB1CE0910E
S11317900716F0910816C282D382E482F582C81437
S11317A0D904EA04FB0468F46091071670910816E2
S11317B080917F15909180156E5F7F4F0E94CE03BC
S11317C021C060910716709108168091811590913F
S11317D082156E5F7F4F0E94CE0380914B159091CE
S11317E04C15A0914D15B0914E15C816D906EA06B0
S11317F0FB0640F4C0924B15D0924C15E0924D1567
S1131800F0924E15DF91CF91FF90EF90DF90CF9043
S1131810BF90AF909F908F9008954F925F926F9278
S11318207F928F929F92AF92BF92CF92DF92EF926C
S1131830FF920F931F93CF93DF934C016B015A01D7
S11318402901CA010E94B7023C01892B09F40DC188
S113185084E390E00E94B702EC01892B99F07C8E1E
S11318606B8EA50165EA70E0C3010E94392A81E00C
S1131870A81AB1088B8D9C8DA80EB91EC114D10471
S113188029F420C0C3010E947F03EFC0D6018C91CC
S11318908D8F8C918823A1F0AE01425E5F4FF601DB
S11318A03196B0E1CB0ED11CCF012191DA012D93F9
S11318B0AD01DC018C91882319F0CE16DF06A1F767
S11318C01CA601C01D8E0A3008F009E00A8F0DA77E
S11318D01EA66E01B2E0CB0ED11CC6010E94CA0343
S11318E0CE010E960E94CA03DB87CA878AE090E085
S11318F0A0E0B0E0801B9109A109B1098E879F8700
S1131900A88BB98BDF8BCE8B84E0FE01BF96DF0101
S11319101D928A95E9F71BAAA201B401C5010E9490
S1131920320499838883E114F10419F0F701D18317
S1131930C0830FB6F8940F9280915C158F5F8093EB
S11319405C158091071690910816892BD1F5D093D8
S11319500816C093071680915C15813009F041C0C8
S113196009E915E10F2EF7E0EF2EF6E1FF2EF02D39
S1131970C8010E94B903055F1F4F0E151F05C1F76B
S11319808EE895E10E94B90383E895E10E94B903CA
S113199084E795E10E94B90389E695E10E94B903C1
S11319A08DE595E10E94B9038EE895E19093821547
S11319B08093811583E895E19093801580937F153A
S11319C010C08091561581110CC0E0910716F0915A
S11319D00816928D8A8D891720F0D0930816C0932B
S11319E0071680914F158F5F80934F15EA8D809174
S11319F057158E1710F4E09357158BE08E9FF00166
S1131A001124E756FA4E0180F281E02DFF83EE8324
S1131A102681378139872887A681B7811596DC927C
S1131A20CE921497D782C682EA8D8E9FF00111243C
S1131A30E756FA4EFD87EC8780818F5F80830F9095
S1131A400FBE80915615882361F0E0910716F0913E
S1131A500816928D8A8D981730F40E94850481E0CF
S1131A6005C081E003C081E001C08FEFDF91CF9119
S1131A701F910F91FF90EF90DF90CF90BF90AF90A8
S1131A809F908F907F906F905F904F900895EF920A
S1131A90FF920F930F2EF9E4EF2EF5E1FF2EF02DB8
S1131AA000E020E030E040EC50E06FE672E08DECC6
S1131AB090E0B3DE8130E9F40E94DD158130C9F491
S1131AC0F8948FEF9FEFDC0180934B1590934C15A6
S1131AD0A0934D15B0934E1581E080935615109246
S1131AE058151092591510925A1510925B150E94B0
S1131AF04904809106020F91FF90EF900895809120
S1131B0048158F5F8093481508950FB6F8940F9287
S1131B10609158157091591580915A1590915B15E3
S1131B200F900FBE0895CF92DF92EF92FF920F9322
S1131B301F93CF93DF9380914815811107C1C09003
S1131B405815D0905915E0905A15F0905B158FEF09
S1131B50C81AD80AE80AF80AC0925815D09259153A
S1131B60E0925A15F0925B15C114D104E104F1041A
S1131B70B1F4809181159091821520917F15309157
S1131B80801530938215209381159093801580934E
S1131B907F15809150158F5F8093501576DD80916D
S1131BA04B1590914C15A0914D15B0914E15C8163A
S1131BB0D906EA06FB0610F480E0B3C080E04BE0EF
S1131BC051E0E0918115F0918215908191110CC042
S1131BD04FEF5FEFBA0140934B1550934C15609350
S1131BE04D1570934E159DC0E0918115F0918215AD
S1131BF00780F085E02D0084F185E02D02811381BA
S1131C0024813581C016D106E206F30648F4009318
S1131C104B1510934C1520934D1530934E1581C0E0
S1131C20A485B585C681D781208531853F832E83E0
S1131C30C085D185268137813D832C839F012E5F0A
S1131C403F4F11966D917C9112976217730731F48F
S1131C506085718512967C936E9311971586148610
S1131C609C9191509C93A08DB18D109709F1C289DC
S1131C70D389648975897F836E83C489D589628990
S1131C8073897D836C831196CD91DC911297BF018A
S1131C90625F7F4FC617D70731F46489758912963E
S1131CA07C936E931197118E108E9C9191509C93FE
S1131CB0A28D909157159A1710F4A09357154A9F27
S1131CC0D0011124A756BA4E11960D90BC91A02DA7
S1131CD0B783A68316966D917C9117977187608759
S1131CE01696CD91DC9117973D832C8317963C93E0
S1131CF02E931697A28D4A9FD0011124A756BA4E4F
S1131D00B587A4879C919F5F9C93A0910716B0917F
S1131D100816228D5A969C91291708F452CF852FC4
S1131D2050CFE0910716F0910816E28D9BE0E99FF1
S1131D30F0011124E756FA4E9081923008F081E0C8
S1131D40909151159923B1F081E014C080915215FE
S1131D5090915315A0915415B09155150196A11D5C
S1131D60B11D8093521590935315A0935415B093BD
S1131D70551580E0DF91CF911F910F91FF90EF9067
S1131D80DF90CF900895CF92DF92EF92FF920F935E
S1131D901F93CF93DF930FB6F8940F928091481559
S1131DA0815080934815809148158111C4C0809159
S1131DB05C1581118BC0C2C0D8011796ED91FC91BE
S1131DC018970084F185E02DA08DB18D82899389C7
S1131DD064897589EC017F836E838489958962891E
S1131DE07389EC017D836C83CF010E9611966D91FE
S1131DF07C9112976817790731F484899589129632
S1131E009C938E931197118E108E8C9181508C938C
S1131E10A485B5858681978160857185EC017F8372
S1131E206E838085918566817781EC017D836C83E7
S1131E30CF01029611966D917C91129768177907DC
S1131E4031F46085718512967C936E931197158693
S1131E5014862C9121502C93A28D209157152A176A
S1131E6010F4A09357153A9FD0011124A756BA4EE7
S1131E7011960D90BC91A02DB783A68316966D91F3
S1131E807C9117977187608716966D917C9117974F
S1131E90EB019D838C8317969C938E931697A28D4A
S1131EA03A9FD0011124A756BA4EB587A4878C91C6
S1131EB08F5F8C93A0910716B0910816928D5A9655
S1131EC08C91981748F04093511506C0E0E0F0E07B
S1131ED004E715E13BE041E0D8018C9181116CCF1E
S1131EE0EF2B09F0D2DBC0905215D0905315E0903F
S1131EF05415F0905515C114D104E104F10499F07E
S1131F00C1E011DE8111C0935115B1E0CB1AD108A3
S1131F10E108F108B1F7109252151092531510927E
S1131F2054151092551580915115882331F00E9453
S1131F30850481E003C080E001C080E00F900FBE03
S1131F40DF91CF911F910F91FF90EF90DF90CF9091
S1131F500895CF92DF92EF92FF920F931F93CF9346
S1131F60DF93EC016A017B01CADD009158151091E1
S1131F70591520915A1530915B1588819981AA8150
S1131F80BB81AC01BD014C0D5D1D6E1D7F1D08178D
S1131F9019072A073B07B8F4481759076A077B074C
S1131FA090F5FF24F394041715072607370708F064
S1131FB0F12C488359836A837B830417150726070A
S1131FC03707A0F40BC0481759076A077B07A0F02E
S1131FD0041715072607370778F015C0CB01BA0197
S1131FE0601B710B820B930B40E076DBCCDE81111E
S1131FF010C00E9485040DC0488359836A837B8383
S1132000FF24F394EBCF488359836A837B83F12CB9
S1132010EDCF8F2DDF91CF911F910F91FF90EF9016
S1132020DF90CF900895CF92DF92EF92FF926B01F1
S11320307C01672B682B692B41F061DD40E0C7010F
S1132040B6014ADBA0DE811102C00E948504FF9024
S1132050EF90DF90CF90089580914815882321F068
S113206081E080935115089510925115A09107169F
S1132070B0910816E0910716F09108162D913C9145
S1132080838D948D8217930758F060910716709191
S113209008168091071690910816635E7F4FB5D697
S11320A080915715282F30E09BE0899FF00111247F
S11320B0E756FA4E908191110EC04BE08150282FC3
S11320C030E0429FF001439FF00D1124E756FA4E91
S11320D09081992399F39BE0929FA001939F500DC7
S11320E01124DA01A756BA4E1196ED91FC9112977C
S11320F00480F581E02D1296FC93EE9311974456DB
S11321005A4EE417F50729F444815581FD015283A1
S113211041839BE0929FF001939FF00D1124E756B9
S1132120FA4E0180F281E02D208531853093081626
S113213020930716809357150895CF92DF92EF925C
S1132140FF926A017B016091071670910816625F25
S11321507F4F0E94CE0341E0C701B601BDDAFF9074
S1132160EF90DF90CF900895CF93DF93FC01CB01E4
S1132170BA01A181B281C0910716D0910816BB8B18
S1132180AA8BC0910716D091081616964D915C91B2
S113219017975D8B4C8B1696CD91DC9117974091D8
S11321A0071650910816425F5F4F5D834C83409140
S11321B0071650910816425F5F4F17965C934E9333
S11321C01697A0910716B09108165996FC93EE93B2
S11321D0589730813F5F3083222319F06FEF7FEFF0
S11321E0CB01422F79DADF91CF910895CF93DF931A
S11321F0DC011796ED91FC9118970084F185E02D90
S1132200A08DB18DC289D389848995899F838E835A
S1132210C489D589828993899D838C839F01225F98
S11322203F4F11968D919C9112978217930731F429
S11322308489958912969C938E931197118E108E92
S11322408C9181508C9380914815811152C0A48542
S1132250B585C681D781808591859F838E83C0850E
S1132260D185868197819D838C839F012E5F3F4F0B
S113227011968D919C9112978217930731F4808562
S1132280918512969C938E931197158614868C9142
S113229081508C93A28D809157158A1710F4A093C6
S11322A057158BE08A9FD0011124A756BA4E119678
S11322B00D90BC91A02DB783A68316964D915C9189
S11322C01797518740871696CD91DC9117973D83D8
S11322D02C8317963C932E931697A28D8A9FD00138
S11322E01124A756BA4EB587A4878C918F5F8C931F
S11322F01CC044E755E1DA011196CD91DC911297A7
S1132300D38BC28B8E819F81958B848B8E819F8191
S1132310DC0115963C932E9314973F832E83518FA3
S1132320408FDA018C918F5F8C93A0910716B09146
S11323300816928D5A968C91891720F481E0809327
S1132340511501C080E0DF91CF9108950FB6F89444
S11323500F9220915015FC01208340915815509103
S1132360591560915A1570915B15418352836383AB
S113237074830F900FBE089520915015FC012083A3
S1132380409158155091591560915A1570915B15EB
S113239041835283638374830895CF92DF92EF92D3
S11323A0FF920F931F93CF93DF93FB010FB6F89423
S11323B00F92409158155091591560915A1570918A
S11323C05B1500811181228133810F3FAFEF1A0722
S11323D02A073A0779F1EC01C980DA80EB80FC80A6
S11323E0A0915015B881BA1759F04C155D056E05CA
S11323F07F0530F0108211821282138281E01BC0AB
S11324004C195D096E097F0940175107620773076C
S113241058F4041B150B260B370B008311832283FE
S11324203383AADF80E007C01082118212821382F4
S113243081E001C080E00F900FBEDF91CF911F912A
S11324400F91FF90EF90DF90CF90089581E08093FB
S1132450511508958091071690910816089580915A
S11324605615882331F080914815882321F080E0A7
S1132470089581E0089582E008950F931F93CF9308
S1132480DF93FC01892B09F449C086A5815086A7F6
S1132490228D95A5291709F443C0811143C0EF018A
S11324A08F010E5F1F4FC8010E940B04EDA5EA8F38
S11324B08AE090E0A0E0B0E08E1B9109A109B10987
S11324C08E879F87A88BB98B809157158E1710F430
S11324D0E09357158BE08E9FF0011124E756FA4ED6
S11324E00180F281E02DFF83EE83268137813987D5
S11324F02887A681B78115961C930E93149717838A
S11325000683EA8D8E9FF0011124E756FA4EFD876B
S1132510EC8780818F5F808381E005C080E003C009
S113252080E001C080E0DF91CF911F910F91089569
S11325304F925F926F927F92AF92BF92CF92DF924F
S1132540EF92FF920F931F93CF93DF9328013901EA
S11325500FB6F8940F92E0910716F0910816C82F61
S1132560D0E0EC0FFD1F83A9823071F1E0910716D2
S1132570F0910816CE01880F991F880F991FE80F54
S1132580F91F87A590A9A1A9B2A940955095609576
S11325907095482359236A237B2347A750AB61AB2B
S11325A072ABE0910716F0910816EC0FFD1F81E065
S11325B083ABA114B104C104D10431F041E0C601DC
S11325C0B5018AD80E9485040F900FBE0FB6F89407
S11325D00F92E114F104A1F0E0910716F0910816AE
S11325E0CE01880F991F880F991FE80FF91F87A53F
S11325F090A9A1A9B2A9F70180839183A283B3838F
S1132600E0910716F0910816EC0FFD1F83A98230A4
S1132610E9F4E0910716F0910816CE01880F991F8E
S1132620880F991FE80FF91F87A590A9A1A9B2A93E
S11326304094509460947094482259226A227B22D8
S113264047A650AA61AA72AA81E001C080E0209145
S1132650071630910816C20FD31F1BAA0F900FBE86
S1132660DF91CF911F910F91FF90EF90DF90CF906A
S1132670BF90AF907F906F905F904F9008958F922E
S11326809F92AF92BF92EF92FF920F93CF93DF93FB
S1132690DC010FB6F8940F92E114F10479F0FC0117
S11326A084E0689FE00DF11D112487A490A8A1A8DF
S11326B0B2A8F70180829182A282B38270E0FD0108
S11326C0E60FF71F83A992E093AB0230F9F018F4F8
S11326D0013031F049C0033069F10430B9F144C02C
S11326E0660F771F660F771FFD01E60FF71F87A49C
S11326F090A8A1A8B2A8BA01A901482959296A2910
S11327007B2947A750AB61AB72AB2EC0660F771F16
S1132710660F771FFD01E60FF71F47A550A961A9B2
S113272072A94F5F5F4F6F4F7F4F47A750AB61ABAD
S113273072AB1AC0660F771F660F771FFD01E60F95
S1132740F71F27A730AB41AB52AB0EC0823009F460
S113275079C0660F771F660F771FFD01E60FF71F1D
S113276027A730AB41AB52AB813009F06DC01C964A
S1132770ED91FC911D971696CD91DC9117971896C3
S11327808D919C9119979F838E831896CD91DC919E
S1132790199716968D919C9117979D838C839D0113
S11327A02E5F3F4F818192818217930731F41896EF
S11327B08D919C911997928381831D961C921E92F0
S11327C01C978081815080835A96EC915A9780910E
S11327D057158E1710F4E09357158BE08E9FF00178
S11327E01124E756FA4E0180F281E02D1796FC93EE
S11327F0EE9316974681578119965C934E931897DA
S1132800C681D7813D832C83378326835A96EC91E6
S11328105A978E9FF0011124E756FA4E1D96FC93A9
S1132820EE931C9780818F5F8083E0910716F0916F
S113283008165A969C91828D891740F40E9485044B
S113284081E005C080E003C081E001C081E00F9019
S11328500FBEDF91CF910F91FF90EF90BF90AF909B
S11328609F908F9008958F929F92AF92BF92CF9234
S1132870DF92EF92FF920F93CF93DF93DC01E11489
S1132880F10479F0FC0184E0689FE00DF11D11244E
S113289087A490A8A1A8B2A8F70180829182A282FD
S11328A0B38270E0FD01E60FF71F83A992E093ABBA
S11328B00230F9F018F4013031F049C0033069F105
S11328C00430B9F144C0660F771F660F771FFD010E
S11328D0E60FF71F87A490A8A1A8B2A8BA01A9017E
S11328E0482959296A297B2947A750AB61AB72ABA8
S11328F02EC0660F771F660F771FFD01E60FF71FC7
S113290047A550A961A972A94F5F5F4F6F4F7F4FD1
S113291047A750AB61AB72AB1AC0660F771F660F47
S1132920771FFD01E60FF71F27A730AB41AB52AB72
S11329300EC0823009F4A4C0660F771F660F771F9C
S1132940FD01E60FF71F27A730AB41AB52AB813037
S113295009F098C08091481581115FC01C96ED91D3
S1132960FC911D971696CD91DC91179718968D9131
S11329709C9119979F838E831896CD91DC9119971A
S113298016968D919C9117979D838C839D012E5F44
S11329903F4F818192818217930731F418968D916C
S11329A09C911997928381831D961C921E921C9769
S11329B08081815080835A96EC915A978091571563
S11329C08E1710F4E09357158BE08E9FF0011124BD
S11329D0E756FA4E0180F281E02D1796FC93EE93B0
S11329E016974681578119965C934E931897C68122
S11329F0D7813D832C83378326835A96EC915A974B
S1132A008E9FF0011124E756FA4E1D96FC93EE9327
S1132A101C9780818F5F808320C044E755E1FA01D1
S1132A20C181D2815396DC93CE9352978E819F813C
S1132A3055969C938E9354972E813F81CD010E968B
S1132A40F901958384839F838E8359965C934E9377
S1132A505897FA0180818F5F8083E0910716F09187
S1132A6008165A969C91828D891770F4C114D1046A
S1132A7019F081E0F601808381E08093511505C04F
S1132A8080E003C081E001C081E0DF91CF910F912C
S1132A90FF90EF90DF90CF90BF90AF909F908F907A
S1132AA00895009721F480910716909108160FB6A7
S1132AB0F8940F9270E0FC01E60FF71F23A922306F
S1132AC031F4FC01E60FF71F13AA81E001C080E096
S1132AD00F900FBE0895CF92DF92EF92FF920F9363
S1132AE01F93FC0142835383648375839387828796
S1132AF00417150726073707C0F00C191D092E09FE
S1132B003F0986859785A089B189081719072A077F
S1132B103B0700F5BF016E5F7F4F809111169091C6
S1132B2012160E94CE0380E018C00C151D052E0558
S1132B303F0528F44C155D056E057F0568F4BF015B
S1132B406E5F7F4F80911316909114160E94CE03EE
S1132B5080E003C081E001C081E01F910F91FF90EC
S1132B60EF90DF90CF9008950FB6F8940F92809174
S1132B700F1690911016892BE9F480E296E10E94D9
S1132B80B90385E196E10E94B90380E296E190934E
S1132B9014168093131685E196E190931216809390
S1132BA0111640E067E08AE00E94610690931016D7
S1132BB080930F160F900FBE0895EF92FF920F931C
S1132BC0D3DF80910F1690911016892B91F00F2E60
S1132BD0FDE0EF2EF6E1FF2EF02D03E020E030E0E3
S1132BE040EC50E064E772E083E091E00E940D0C59
S1132BF001C080E00F91FF90EF9008958F929F9213
S1132C00AF92BF92CF92DF92EF92FF920F931F93F6
S1132C10CF93DF93CDB7DEB727970FB6F894DEBF17
S1132C200FBECDBFE0910F16F0911016309781F1D1
S1132C3069832A833B834C835D839F838E836630C1
S1132C40F4F40DDC823069F400E0A7019601BE01C2
S1132C506F5F7F4F80910F16909110160E9482062D
S1132C6018C000E020E030E0A901BE016F5F7F4F93
S1132C7080910F16909110160E9482060AC020E0DF
S1132C80A801BE016F5F7F4FCF010E943D0701C0C5
S1132C9080E027960FB6F894DEBF0FBECDBFDF915C
S1132CA0CF911F910F91FF90EF90DF90CF90BF9045
S1132CB0AF909F908F9008952F923F924F925F9282
S1132CC06F927F928F929F92AF92BF92CF92DF9238
S1132CD0EF92FF920F931F93CF93DF931C010E94F7
S1132CE0850D2B013C018091091690910A16A09143
S1132CF00B16B0910C16481659066A067B0608F0A6
S1132D0053C03BC00780F085E02D80809180A28075
S1132D10B380C085D1858E010E5F1F4FC8010E940C
S1132D200B04EC89FD89CE0119958E8982FF25C09B
S1132D308E859F85A889B989880D991DAA1DBB1DFB
S1132D4088169906AA06BB0670F48A839B83AC8313
S1132D50BD83DB87CA87B80180911316909114163E
S1132D600E94CE030AC0C12CD12C760100E010E0F1
S1132D70A501940160E0CE0141DFE0911316F091CA
S1132D80141680818111BECF809111169091121674
S1132D909093141680931316F0931216E093111661
S1132DA081E0F101808302C0F10110824092091692
S1132DB050920A1660920B1670920C16C301B2015F
S1132DC0DF91CF911F910F91FF90EF90DF90CF9003
S1132DD0BF90AF909F908F907F906F905F904F9037
S1132DE03F902F9008950895279A2F9A08951F9A37
S1132DF00895FADF2FEF80E792E021508040904061
S1132E00E1F700C00000F3DFF5CFEEDF2FEF87EA34
S1132E1091E6215080409040E1F700C00000E7DFD8
S1132E20F5CFCF93DF93CDB7DEB76A970FB6F8949B
S1132E30DEBF0FBECDBF0E94850D69837A838B836D
S1132E409C830F2EF3E0EF2EF02DFF24F3944EE33A
S1132E5059E460E070E0CE0101967BD88CE792E003
S1132E600E94A22AEE82FD828CE090E00E94B702CA
S1132E708C0119D1F80160817181828193819BD287
S1132E806F83F801648175818681978194D2688704
S1132E90F80160857185828593858DD26987BE012D
S1132EA06B5F7F4F80E0B2D5C8010E947F03CFCF14
S1132EB0CF93DF93CDB7DEB76A970FB6F894DEBF32
S1132EC00FBECDBF0E94850D69837A838B839C835B
S1132ED081E0FED462E070E080E090E0A4D880E07D
S1132EE0F7D466E970E080E090E09DD8AAD40F2E74
S1132EF0FDE8CF2EF2E0DF2EF02D0F2EF0E8EF2EBE
S1132F00F7E1FF2EF02D0F2EFEEBAF2EF2E0BF2ED9
S1132F10F02D4EE359E460E070E0CE01019619D83B
S1132F200FEF1FEF980146E150E0BE016B5F7F4F4A
S1132F3080917617909177170E949B0A8E811F9239
S1132F408F938D811F928F93DF92CF920E948F2A4D
S1132F500F900F900F900F900F900F908E818330F1
S1132F60C0F28F8190E0F70193838283888590E09B
S1132F7091838083898590E0938782878A8590E016
S1132F80918780878B8590E0978386838C8590E0FA
S1132F90958384838D8590E09587848780918F17AE
S1132FA08F9380918E178F93809173178F93809155
S1132FB072178F93BF92AF920E948F2A0F900F9037
S1132FC00F900F900F900F90A4CFEF92FF920F935A
S1132FD080917C1790917D17892B89F481E00E9460
S1132FE0220790937D1780937C17009741F000E0AF
S1132FF020E030E0A90160E070E00E948206E12C4C
S1133000F12C03E020E030E040EC50E065EF72E0AA
S113301081E197E10E940D0C04E020E030E040ECF7
S113302050E06EEF72E088E597E10E940D0C0F917D
S1133030FF90EF9008957ED283E0B1C7089581B1E7
S1133040816881B90E94690280E00E94EB23F3DF6A
S1133050BCDF85E00E94F22441E060E070E08CE295
S113306090E00E9417099093771780937617BC011C
S113307081E0EED383E08BC10895E1DF8AE093E041
S11330800E94A22A0E94470DFFCF6FD21F928F93F6
S11330908CE193E09F938F930E948F2A0F900F905F
S11330A00F900F9008950F931F93CF93DF931F9268
S11330B01F92CDB7DEB78C01E8DF2FEF8DEE92E0E3
S11330C0215080409040E1F700C0000063D21F927D
S11330D08F9388E393E09F938F930E948F2A0F909E
S11330E00F900F900F9009C0EFEFFDEE22E0E1503A
S11330F0F0402040E1F700C0000034D28823A1F35F
S11331005AD2F801608371838283938368D2F80171
S1133110648375838683978367D71F928F9384E52F
S113312093E09F938F930E948F2ACE0101968BD7B1
S113313069817A8180E090E06AD1F80160877187C3
S1133140828793870F900F900F900F900F900F909E
S1133150DF91CF911F910F910895CF93DF93CDB756
S1133160DEB768970FB6F894DEBF0FBECDBF81E01F
S1133170AFD362E070E080E090E00E94131080E042
S1133180A7D366E970E080E090E00E94131059D361
S113319081E00E944025AAD326D69F938F938FE681
S11331A093E09F938F930E948F2A1ED51CD69F93E2
S11331B08F9382E893E09F938F930E948F2A8E01CE
S11331C00B5F1F4FC801A4D30ED61F930F939F9379
S11331D08F938BE993E09F938F930E948F2AC8016A
S11331E0B3D301D69F938F931F930F938FEA93E0EA
S11331F09F938F930E948F2AA80164EC73E085EE5D
S113320093E0D0D5F0D59F938F931F930F9384ECC5
S113321093E09F938F9385EE93E09F938F9386EF34
S113322093E09F938F930E948F2AC1D3DCD59F9301
S11332308F938CE294E09F938F930E948F2A0FB612
S1133240F894DEBF0FBECDBF81E0ABD4CCD59F9345
S11332508F938BE394E09F938F930E948F2A84EF44
S113326091E0AAD4C0D59F938F9381E08F9384EF8C
S11332708F938CE594E09F938F930E948F2A0FB6CF
S1133280F894DEBF0FBECDBF0AE010E00F2EFCE7BE
S1133290EF2EF4E0FF2EF02D80E08FD3D82EA3D5AF
S11332A09F938F931F930F93FF92EF920E948F2A05
S11332B00F900F900F900F900F900F90F8E0DF1683
S11332C0C1F180E00E94A42566E371E080E090E013
S11332D00E94131001501109F9F624C00E948504BC
S11332E0FDCF48EA58E460E070E0CE0101960E9408
S11332F0A90FF80182829382A482B582C682D78202
S113330083E00E94B625B80180E080D36CD59F93FA
S11333108F93FF92EF920E948F2A0F900F900F903D
S11333200F90DFCF81E00E94952580E00E94632505
S1133330D5CF81E00E948625EBE2F6E186E0818329
S113334082E080830E94850D69837A838B839C83CA
S11333500BE216E10F2EF0E38F2EF02D0F2EF9E382
S11333609F2EF02D6894AA24A1F80F2EF3EABF2E05
S1133370F02D6894CC24C2F80F2EFAE1DF2EF02D44
S11333800F2EFCE9EF2EF4E0FF2EF02DAACFEF92E2
S1133390FF920F93E12CF12C082F20E030E048E855
S11333A051E061EB74E08DEA98E10E940D0C0F91FD
S11333B0FF90EF90089570D088F09F5790F0B92F48
S11333C09927B751A0F0D1F0660F771F881F991F76
S11333D01AF0BA95C9F712C0B13081F077D0B1E0D4
S11333E0089574C0672F782F8827B85F39F0B93FE4
S11333F0CCF3869577956795B395D9F73EF4909578
S11334008095709561957F4F8F4F9F4F0895E894F5
S113341009C097FB3EF490958095709561957F4F18
S11334208F4F9F4F9923A9F0F92F96E9BB279395C6
S1133430F695879577956795B795F111F8CFFAF4D6
S1133440BB0F11F460FF1BC06F5F7F4F8F4F9F4F07
S113345016C0882311F096E911C0772321F09EE865
S1133460872F762F05C0662371F096E8862F70E0CB
S113347060E02AF09A95660F771F881FDAF7880FA5
S11334809695879597F9089557FD9058440F551FC1
S113349059F05F3F71F04795880F97FB991F61F0D2
S11334A09F3F79F087950895121613061406551F49
S11334B0F2CF4695F1DF08C0161617061806991FB5
S11334C0F1CF86957105610508940895E894BB27AA
S11334D066277727CB0197F908956530F1F4FA014F
S11334E080818F7390E0982F88272181822B90937D
S11334F00A02809309028281F0E48F9FC0011124A3
S1133500FA01238126952695822B909308028093B5
S1133510070281E0809341160895643051F080E001
S113352090E4909308028093070290930A02809398
S1133530090208950F931F930DE61AE120E034E287
S113354044EF50E060E087E20E94D8259093431650
S11335508093421621E0892B09F020E0822F1F91ED
S11335600F9108958091411608958091421690918B
S11335704316009759F040E060E070E00E9429266D
S1133580843031F41092411680E0089582E0089569
S113359083E008958091421690914316009739F084
S11335A064E00E947526853021F083E0089582E06E
S11335B0089580E008956091090270910A0280E004
S11335C090E025DF20E030E048EC52E40E947B28C4
S11335D020E038EF4FE756E40C94E8270895609113
S11335E007027091080280E090E011DF20E030E0F3
S11335F045E253E40E947B2820E038EF4FE756E48D
S11336000E94E82720E030E040E252E40C94812755
S113361008950F931F93CF93DF931F921F92CDB7FB
S1133620DEB78C0119822DC0E0917B16EC3250F488
S113363081E08E0F80937B16F0E0E355F94E8A818A
S1133640808302C010927B168A818A30D1F4409123
S11336507B1650E0FA01E555F94E108241505109AC
S11336609E012F5F3F4F6DEA76E180917E16909127
S11336707F160E94570A898181110E948504109245
S11336807B16BE016E5F7F4FC8010FD6882361F29F
S11336900F900F90DF91CF911F910F9108950F9389
S11336A01F93CF93DF938C01EB0180917E16909151
S11336B07F160E944C09B80184E496E10E94702AA6
S11336C0209779F0E4E4F6E101900020E9F73197DE
S11336D080E290E091838083BE0184E496E10E94BD
S11336E0652AE4E4F6E1DF010D900020E9F7119783
S11336F08DE09AE011969C938E9312961C92019001
S11337000020E9F73197E454F641AE2F84E496E1C2
S1133710AC016A2F809180169091811671D5811128
S113372011C008E215E020E030E04DE250E067E02F
S113373077E180917E1690917F160E949B0A87E024
S113374097E102C080E090E0DF91CF911F910F914B
S113375008952F923F924F925F926F927F928F9231
S11337609F92AF92BF92CF92DF92EF92FF920F930C
S11337701F93CF93DF935C01FC0101900020E9F7D4
S113378031976F01C81AD90A5C2C0F2EF1E58F2EE0
S1133790F7E09F2EF02DE12CF12C4C2C3701F40195
S11337A001811281E80109900020E9F72197C01BEB
S11337B0D10B3C2EF9E0CF16D10458F0F40120804F
S11337C0FEE02F1206C0B801C5010E94402A892BD1
S11337D009F5442D351408F44C2F50E0B801C50107
S11337E00E94772A892B49F4F301EE0FFF1FE60D9F
S11337F0F71DEF5AF84F20800DC08FEFE81AF80A32
S1133800E3E08E0E911CF1E1EF16F10439F66894B1
S1133810222424F8822DDF91CF911F910F91FF90E4
S1133820EF90DF90CF90BF90AF909F908F907F905C
S11338306F905F904F903F902F90089530DF89CF25
S1133840089580917E1690917F160C944C090895EA
S11338508F929F92AF92CF92EF920F931F93CF9339
S1133860C82F8B0141E060E070E088EC90E00E949A
S1133870170990937F1680937E1610937D160093FC
S11338807C160F2EF9E08F2EFBE19F2EF02D68940D
S1133890AA24A6F86894CC24C6F8E12C00E023E01E
S11338A040E051EE60E070E08C2FDED390938116FF
S11338B080938016E7E0F1E0808180618083CF917E
S11338C01F910F91EF90CF90AF909F908F9008959C
S11338D0882331F0E8E0F1E080818F7E80830895D1
S11338E0E8E0F1E0808180618083089560E070E029
S11338F087ED94E0D4DEE7E0F7E101900020E9F7FA
S11339003197E750F74181E0759708F080E008951A
S1133910CF93DF93EC0160E070E088EE94E0BFDECB
S1133920E7E0F7E101900020E9F7E851F74139F4C5
S113393067E077E1CE010E94702A80E002C018821D
S113394081E0DF91CF910895FC0101900020E9F717
S11339509F01215131092817390729F4BC0186E157
S113396095E06CCF089589E00895FC010190002052
S1133970E9F79F01215131092817390729F4BC01BE
S113398085E295E05BCF089589E00895FC010190FC
S11339900020E9F79F01215231092817390729F43A
S11339A0BC0184E395E04ACF089589E0089560E07E
S11339B070E083E795E042CF08950F931F93E82FBB
S11339C0F0E0EE0FFF1FE35BF84F608171818CE73D
S11339D095E034DF811114C008E215E020E030E006
S11339E04DE250E067E077E180917E1690917F167A
S11339F00E949B0A882321F087E097E1AADE03C096
S1133A0087E097E1A6DE1F910F9108950F931F930E
S1133A10CF93DF931F92CDB7DEB7DB0111969C9154
S1133A201197953108F0B4C0992381F160E070E0FA
S1133A30272F30E0462F50E0FD01E40FF51F92815F
S1133A4092959F709A3010F0995C01C0905DF901D5
S1133A50E856F94E90832F5F3F4FFD01E40FF51FA9
S1133A6092819F70492F50E04A30510514F0995CBF
S1133A7001C0905DF901E856F94E90837E5F6F5F57
S1133A8011969C911197691798F201C070E0E72F85
S1133A90F0E0E856F94E10824C91811103C085E89C
S1133AA095E002C087E895E028E936E13F932F933B
S1133AB01F924F939F938F938BE895E09F938F93DF
S1133AC08AED96E19F938F930E94D22A60E070E082
S1133AD08AED96E1B3DE0FB6F894DEBF0FBECDBF1C
S1133AE0811159C008E215E020E030E04DE250E0D9
S1133AF067E077E180917E1690917F160E949B0A81
S1133B00882309F447C087E097E123DE8E3009F06B
S1133B1042C087E0898380917C1690917D16892B21
S1133B20A9F1BE016F5F7F4F87E097E168D1809371
S1133B308216E981F0E0E95FF84EDF010D90002084
S1133B40E9F71197AE1BBF0BAA2391F0BB27CD0158
S1133B5001979C0112F42F5F3F4F359527952093D1
S1133B608316AF014F5F5F4F64E184E896E173D140
S1133B7001E010E020E030E046E150E062E876E168
S1133B8080917C1690917D160E9498098EE003C066
S1133B9084E101C080E00F90DF91CF911F910F91DC
S1133BA00895813019F06BE975E002C064E776E0AE
S1133BB08FE995E043CE08959F938F9380ED95E030
S1133BC09F938F938AED96E19F938F930E94D22ABD
S1133BD060E070E08AED96E131DE0F900F900F9077
S1133BE00F900F900F9008952F923F924F925F92F3
S1133BF06F927F928F929F92AF92BF92CF92DF92F9
S1133C00EF92FF920F931F93CF93DF93CDB7DEB75D
S1133C10A0970FB6F894DEBF0FBECDBF6DEF75E071
S1133C2089E096E03CDD95DD8111A3C080E2E2E20B
S1133C30F2E0DE01119601900D928A95E1F79E0162
S1133C402F5F3F4F6901E12CF12C0F2EF5E1AF2ED0
S1133C50F6E0BF2EF02D0AED16E10F2EFEE24F2EF8
S1133C60F6E05F2EF02D0F2EF5E48F2EF6E09F2E5A
S1133C70F02D0F2EFFE56F2EF6E07F2EF02D3E2C5B
S1133C802F2CFF92EF92BF92AF921F930F930E943B
S1133C90D22A60E070E0C80102DD5BDD0F900F9076
S1133CA00F900F900F900F90811163C032E03E157A
S1133CB0E8F4F60183818F9382818F9381818F93BE
S1133CC080818F93FF92EF925F924F921F930F9395
S1133CD00E94D22A60E070E0C801E1DC3ADD0FB650
S1133CE0F894DEBF0FBECDBF811143C02F923F9227
S1133CF09F928F921F930F930E94D22A60E070E0EC
S1133D00C801CDDC26DD0F900F900F900F900F901F
S1133D100F9081112EC02F923F927F926F921F932A
S1133D200F930E94D22A60E070E0C801B8DC11DD74
S1133D300F900F900F900F900F900F90811119C05A
S1133D403FEFE31AF30A84E0C80ED11C98E0E916A9
S1133D50F10409F094CF60E070E087E796E09FDC1F
S1133D60F8DC811106C060E070E088E896E097DC3A
S1133D70F0DCA0960FB6F894DEBF0FBECDBFDF9186
S1133D80CF911F910F91FF90EF90DF90CF90BF9054
S1133D90AF909F908F907F906F905F904F903F90E7
S1133DA02F900895EF92FF920F931F93CF93DF9379
S1133DB0EC018B017A0181E0F4DE81110DC0CE01AA
S1133DC0D4DD811109C0C801E1DD811105C0C7013D
S1133DD0BBDD811101C0EBDDDF91CF911F910F910C
S1133DE0FF90EF90089590E0FC01EE0FFF1F8E0FFF
S1133DF09F1FFC01EF5AF84F818192810895DC01E5
S1133E00009729F1FB012081FC0101900020E9F7D2
S1133E103197E81BF90B822F90E0E817F907C8F0F7
S1133E2080E008C0880F382F330F330F830F80537F
S1133E30890F2F5FFD01E20FF11D908130ED390FE5
S1133E403A3010F49111EECFFB012083089580E005
S1133E50089580E008950F931F93CF93DF93DC01BF
S1133E60EA012097E1F1FA0101900020E9F7319786
S1133E70E41BF50B329710F532C08D01040F151FAA
S1133E8030E0AE01420F531FFA019081913428F0C3
S1133E909753592F5295507F03C0592F5295507FF5
S1133EA02C0F3D1FF9019181913410F0975301C0FB
S1133EB09053950FF80190838F5F01C080E0282F05
S1133EC0220F482F50E0FE0101900020E9F73197BE
S1133ED0EC1BFD0B4E175F0710F48613CECFDF915A
S1133EE0CF911F910F91089580913717860F80937A
S1133EF0371790913A17913079F028F09230A9F061
S1133F00933019F108956F3F09F048C010923717A4
S1133F1081E080933A170895663809F03FC0109203
S1133F20361782E080933A170895E091361781E0BE
S1133F308E0F80933617F0E0EC5CF84E608382308D
S1133F4069F583E080933A1708959091361721E03C
S1133F50290F20933617963009F581110EC0E4E33A
S1133F60F7E1808190E0982F88272181820F911DAD
S1133F7090933C1780933B1704C010923C17109207
S1133F803B1710923A17E0913817F0913917309790
S1133F9029F080913B1790913C17199508958F92C1
S1133FA09F92AF92CF92EF920F930F2EF4E78F2E42
S1133FB0FFE19F2EF02D6894AA24A4F86894CC24E1
S1133FC0C4F8E12C00E023E040E855E260E070E052
S1133FD04BD090933E1780933D170F91EF90CF9065
S1133FE0AF909F908F900895CF93DF93CDB7DEB7B6
S1133FF029970FB6F894DEBF0FBECDBF89E0E2E487
S1134000F2E09E012F5F3F4FD90101900D928A95F6
S1134010E1F710923C1710923B1780913D17909155
S11340203E17009731F0422F532F69E0E9D080E02A
S113403001C082E029960FB6F894DEBF0FBECDBF53
S1134040DF91CF91089520913B1730913C172115B2
S1134050310529F4FC011182108281E00895FC01EC
S11340603183208380E008952F923F924F925F9294
S11340706F927F928F929F92AF92CF92EF92FF9224
S11340800F931F93CF93DF93CDB7DEB7F82E2A019A
S11340903B0188E090E00E940B298C018F2D90E079
S11340A0FC01EE0FFF1FE15CF84E11830083011544
S11340B0110509F468C0880F991FFC01E55FFD4FE5
S11340C080819181D8018D939C938C2D90E0880FF1
S11340D0991F880F991F0E940B291C0186E090E00C
S11340E00E940B297C014C2DB101EFD6F801F58219
S11340F0E4828A2D90E0880F991F880F991F0E94EF
S11341000B291C0186E090E00E940B297C014A2DBA
S1134110B101DBD6D8011396FC92EE921297179652
S11341209C928E921697FFB6F894ED91FC9111979C
S113413036978081826080838D909C90C301B20108
S113414066D920E030E040E051E4D5D79B01AC01D2
S113415060E074E284E79BE43BD720E030E040E891
S11341605FE3CFD628D9F40132976083D801ED916B
S1134170FC911197359788E98083ED91FC913497F0
S113418086E08083FFBEC801DF91CF911F910F911C
S1134190FF90EF90CF90AF909F908F907F906F9013
S11341A05F904F903F902F900895CF93DF93DC0161
S11341B0892B01F11296ED91FC91139793818281E1
S11341C02581981B922384819817B1F083812695C9
S11341D02823C081D181C20FD11D68838F5F95814F
S11341E089238383ED91FC9135978081806280835C
S11341F080E003C081E001C082E0DF91CF910895A7
S1134200EF92FF920F931F93CF93DF937C0100975C
S113421009F441C0DC011296ED91FC91139793814E
S11342208281981B858198238481891B8617A8F134
S1134230662341F1842F952FDC016150462F50E015
S11342404F5F5F4F480F591FE701EA81FB8193815C
S113425082812581981B92238481981779F08C910F
S1134260938126952923608171818B01020F111D91
S1134270E80188839F5F8581982393831196A4170F
S1134280B50711F7D701ED91FC91359780818062D4
S1134290808380E003C081E001C082E0DF91CF91A0
S11342A01F910F91FF90EF9008950097D1F0DC01DA
S11342B01496ED91FC91159793818281981799F04A
S11342C09281858186958923A081B181A80FB11D32
S11342D08C91DB018C939F5F85819823928380E08E
S11342E0089581E0089583E008951F920F920FB618
S11342F00F9211240BB60F922F933F934F935F931A
S11343006F937F938F939F93AF93BF93CF93DF93D9
S1134310EF93FF93A0913F17B0914017109711F1BD
S11343206091C6001496ED91FC911597938182815A
S11343302581981B92238481981761F083812695A7
S11343402823C081D181C20FD11D68838F5F9581DD
S1134350892383831696ED91FC911797309711F07A
S1134360CD011995FF91EF91DF91CF91BF91AF915D
S11343709F918F917F916F915F914F913F912F9179
S11343800F900BBE0F900FBE0F901F9018951F92A9
S11343900F920FB60F9211240BB60F922F938F9397
S11343A09F93AF93BF93EF93FF93E0913F17F091E7
S11343B040173097B9F00280F381E02D9381828118
S11343C09817B1F092818581282F26952923A08101
S11343D0B181A20FB11D2C919F5F89238283209309
S11343E0C6000BC0E1ECF0E080818F7D808305C0C6
S11343F0E1ECF0E080818F7D8083FF91EF91BF91AC
S1134400AF919F918F912F910F900BBE0F900FBE84
S11344100F901F9018951F920F920FB60F921124B0
S11344200BB60F922F933F934F935F936F937F93AA
S11344308F939F93AF93BF93CF93DF93EF93FF93A8
S1134440A0914117B0914217109711F16091CE00DD
S11344501496ED91FC911597938182812581981B87
S113446092238481981761F0838126952823C08143
S1134470D181C20FD11D68838F5F95818923838386
S11344801696ED91FC911797309711F0CD0119957F
S1134490FF91EF91DF91CF91BF91AF919F918F9158
S11344A07F916F915F914F913F912F910F900BBE30
S11344B00F900FBE0F901F9018951F920F920FB67A
S11344C00F9211240BB60F922F938F939F93AF9358
S11344D0BF93EF93FF93E0914117F0914217309708
S11344E0B9F00280F381E02D938182819817B1F0B5
S11344F092818581282F26952923A081B181A20F3D
S1134500B11D2C919F5F892382832093CE000BC021
S1134510E9ECF0E080818F7D808305C0E9ECF0E078
S113452080818F7D8083FF91EF91BF91AF919F91A7
S11345308F912F910F900BBE0F900FBE0F901F9075
S113454018951F920F920FB60F9211240BB60F926B
S11345502F933F934F935F936F937F938F939F9387
S1134560AF93BF93CF93DF93EF93FF93A091431740
S1134570B0914417109711F16091D6001496ED9103
S1134580FC911597938182812581981B92238481C4
S1134590981761F0838126952823C081D181C20FA9
S11345A0D11D68838F5F9581892383831696ED914E
S11345B0FC911797309711F0CD011995FF91EF9168
S11345C0DF91CF91BF91AF919F918F917F916F9127
S11345D05F914F913F912F910F900BBE0F900FBEA3
S11345E00F901F9018951F920F920FB60F921124DF
S11345F00BB60F922F938F939F93AF93BF93EF9329
S1134600FF93E0914317F09144173097B9F002807B
S1134610F381E02D938182819817B1F09281858195
S1134620282F26952923A081B181A20FB11D2C9199
S11346309F5F892382832093D6000BC0E1EDF0E0D5
S113464080818F7D808305C0E1EDF0E080818F7DE6
S11346508083FF91EF91BF91AF919F918F912F91A3
S11346600F900BBE0F900FBE0F901F9018951F92C6
S11346700F920FB60F9211240BB60F922F933F9304
S11346804F935F936F937F938F939F93AF93BF9356
S1134690CF93DF93EF93FF93A0914517B091461703
S11346A0109711F1609136011496ED91FC911597D4
S11346B0938182812581981B92238481981761F0CC
S11346C0838126952823C081D181C20FD11D68839F
S11346D08F5F9581892383831696ED91FC911797BB
S11346E0309711F0CD011995FF91EF91DF91CF91A2
S11346F0BF91AF919F918F917F916F915F914F91F6
S11347003F912F910F900BBE0F900FBE0F901F90F3
S113471018951F920F920FB60F9211240BB60F9299
S11347202F938F939F93AF93BF93EF93FF93E09156
S11347304517F09146173097B9F00280F381E02DC8
S1134740938182819817B1F092818581282F2695D3
S11347502923A081B181A20FB11D2C919F5F8923D0
S11347608283209336010BC0E1E3F1E080818F7DE9
S1134770808305C0E1E3F1E080818F7D8083FF9138
S1134780EF91BF91AF919F918F912F910F900BBE9D
S11347900F900FBE0F901F901895CF93DF931F9229
S11347A0CDB7DEB7BE016F5F7F4F80914717909101
S11347B048177BDD8111F6CF898190E00F90DF915E
S11347C0CF910895682F8091471790914817EDDC99
S11347D080E090E008958F929F92AF92CF92EF92F3
S11347E00F93812C912C6894AA24A7F86894CC2464
S11347F0C7F8E12C00E023E040E051EE60E070E017
S113480033DC9093481780934717E4E9F7E183E199
S113481092E091838083938382830F91EF90CF9072
S1134820AF909F908F90089590E0FC01EE0FFF1FD2
S1134830E80FF91FEE0FFF1FE75BF84E23812111EC
S11348401FC09C01220F331FF901E80FF91FEE0F5F
S1134850FF1FE75BF84EA081B1814C91F901E80F8D
S1134860F91FEE0FFF1FE75BF84E81E090E0028036
S113487002C0880F991F0A94E2F7842B8C93089541
S1134880FC01EE0FFF1FDF01A80FB91FAA0FBB1F0A
S1134890A75BB84E0D90BC91A02D2C91E80FF91F89
S11348A0EE0FFF1FE75BF84E81E090E0028002C04C
S11348B0880F991F0A94E2F7809582238C930895B8
S11348C090E0FC01EE0FFF1FE80FF91FEE0FFF1F32
S11348D0E75BF84E2381211120C09C01220F331F76
S11348E0F901E80FF91FEE0FFF1FE75BF84EA081F7
S11348F0B1814C91F901E80FF91FEE0FFF1FE75B3F
S1134900F84E81E090E0028002C0880F991F0A945B
S1134910E2F7809584238C930895FC01EE0FFF1F2A
S1134920DF01A80FB91FAA0FBB1FA75BB84E0D90DC
S1134930BC91A02D2C91E80FF91FEE0FFF1FE75B30
S1134940F84E81E090E0028002C0880F991F0A941B
S1134950E2F7822B8C930895CC24C394D12C6894D1
S1134960BB24B2F8C9E4D7E110E08C81813081F036
S113497018F1823061F5E881F9812081C6010A804D
S113498002C0880F991F0A94E2F7822780831FC010
S11349908D818F5F863010F48D8319C01D82E8816C
S11349A0F9812081C6010A8002C0880F991F0A94E8
S11349B0E2F7822780830BC00D81002329F0812F29
S11349C07FDF01500D8303C0BC82812F2DDF1F5F69
S11349D02696143051F66CE070E080E090E00E947E
S11349E01310C0CFEF92FF920F931F93CF93DF93D7
S11349F0082F80E487B9C9E4D7E10F2EF8E2EF2E3F
S1134A00F12CF02DF982E88286E08A831B8214E07F
S1134A101C8380E009DF80E887B9FF82EE8287E0AB
S1134A20888719861A8781E0FFDE80E283BB84E3EE
S1134A3090E09D878C8785E08E871F86188B82E0A7
S1134A40F3DE80E18093010182E091E09B8B8A8B0D
S1134A501C8B1D8A1E8B83E0E7DEE12CF12C20E009
S1134A6030E040EC50E064E877E08CEA94E20E94A5
S1134A700D0CDF91CF911F910F91FF90EF9008954E
S1134A80CF93DF9390E0FC01EE0FFF1FDF01A80F2F
S1134A90B91FAA0FBB1FA75BB84ECD91DC9111972C
S1134AA0488121E030E012960C90129702C0220F48
S1134AB0331F0A94E2F724272883FD0181E08483CD
S1134AC0DF91CF910895CF93DF9390E0FC01EE0F37
S1134AD0FF1FDF01A80FB91FAA0FBB1FA75BB84EAA
S1134AE0CD91DC911197488121E030E012960C9031
S1134AF0129702C0220F331F0A94E2F72427288357
S1134B00FD0182E08483DF91CF910895282F30E066
S1134B10F901EE0FFF1FE20FF31FEE0FFF1FE75B1C
S1134B20F84E93E09483CCCE0895282F30E0F90119
S1134B30EE0FFF1FE20FF31FEE0FFF1FE75BF84EB0
S1134B4094E0948371CE089590E0FC01EE0FFF1F72
S1134B50DF01A80FB91FAA0FBB1FA75BB84E26E041
S1134B6015962C931597FD011482089590E0FC018D
S1134B70EE0FFF1FDF01A80FB91FAA0FBB1FA75B12
S1134B80B84E15961C921597FD01148208958091D4
S1134B906F1781110CC08CE08093B8008FEF809365
S1134BA0BB0084E08093BC0081E080936F1708957C
S1134BB0AF92BF92CF92DF92EF92FF920F931F9327
S1134BC0CF93DF93A82EB62E69017A0184E090E09A
S1134BD022D3EC01892B61F1A88281E0B81212C0C2
S1134BE0C701B60120EA36E841E050E0EAD2DA0132
S1134BF0C9014097A109B109B695A79597958795DD
S1134C00898311C0C701B60120E83AE146E050E0CB
S1134C10D8D2DA01C9014097A109B109B695A7957F
S1134C209795879589831B830A838C2F9D2F02C0B8
S1134C3080E090E0DF91CF911F910F91FF90EF9072
S1134C40DF90CF90BF90AF9008958091BC008170A9
S1134C500895FF920F931F93CF93DF930097D1F1A1
S1134C604A30D0F5F42E8B01EC01EFDF811136C010
S1134C708091621790916317C817D90741F087DFB5
S1134C8089818093B800D0936317C093621781E041
S1134C908F0D809364178881880F80936517FF2098
S1134CA089F0F801A6E6B7E14FEF4F0D642F70E0ED
S1134CB0CB010196B801680F791F81918D93E61796
S1134CC0F707D9F788EF8093210285EA8093BC0027
S1134CD084E005C086E003C087E001C082E0DF9184
S1134CE0CF911F910F91FF9008951F93CF93DF935E
S1134CF0009729F16B3028F5162FEC01A6DF8111FE
S1134D0022C08091621790916317C817D90741F0A8
S1134D103EDF89818093B800D0936317C0936217F4
S1134D20109364178881880F81608093651788EFDA
S1134D308093210285EA8093BC0085E005C086E06B
S1134D4003C087E001C082E0DF91CF911F910895F5
S1134D501F920F920FB60F9211240BB60F922F933E
S1134D603F934F935F936F937F938F939F93AF93EF
S1134D70BF93EF93FF93E091B9008E2F90E0FC0175
S1134D803897E135F10508F075C08827E458FF4FDE
S1134D908F4F39C210926117E091611780916417A7
S1134DA0E81770F481E08E0F80936117F0E0EB59FF
S1134DB0F84E80818093BB0085E88093BC0072C06C
S1134DC084E98093BC008091621790916317DC01A1
S1134DD01296ED91FC911397309709F463C020E08B
S1134DE040E050E064E019955DC0E091611781E016
S1134DF08E0F809361178091BB00F0E0EB59F84E61
S1134E0080838091B900803411F41092611720914D
S1134E10611730E08091641790E0019728173907F3
S1134E2024F485EC8093BC003DC085E88093BC00ED
S1134E3039C08091BB00E0916117F0E0EB59F84E66
S1134E40808384E98093BC008091621790916317FA
S1134E50DC011296ED91FC911397309719F1209192
S1134E60641745E657E165E019951CC085EA80930F
S1134E70BC0018C08091B9008093210284E0809323
S1134E80BC008091621790916317DC011296ED913A
S1134E90FC911397309731F020E040E050E06091AE
S1134EA021021995FF91EF91BF91AF919F918F913D
S1134EB07F916F915F914F913F912F910F900BBE16
S1134EC00F900FBE0F901F901895FC01411101C067
S1134ED0C3D2842F90E09C01215031098223932373
S1134EE0892B09F0B9D2413808F0B6D21282138264
S1134EF04483440F415045837183608380E090E094
S1134F0008955058BB27AA270ED0E4C0D5D030F05E
S1134F10DAD020F031F49F3F11F41EF4CAC00EF42D
S1134F20E095E7FBC0C0E92F0E94441A78F3BA1752
S1134F30620773078407950720F079F4A6F50C94AB
S1134F40661A0EF4E0950B2EBA2FA02D0B01B901B1
S1134F5090010C01CA01A0011124FF27591B99F0EB
S1134F60593F50F4503E68F11A16F040A22F232FF7
S1134F70342F4427585FF3CF469537952795A79547
S1134F80F0405395C9F77EF41F16BA0B620B730BEE
S1134F90840BBAF09150A1F0FF0FBB1F661F771F5F
S1134FA0881FC2F70EC0BA0F621F731F841F48F414
S1134FB0879577956795B795F7959E3F08F0B1CF9C
S1134FC09395880F08F09927EE0F97958795089584
S1134FD00DD080C078D048F06FD038F021F45F3F16
S1134FE021F061C051110C94671A63C00E94441AE5
S1134FF088F39923B9F35523A1F3951B550BBB27CC
S1135000AA2762177307840738F09F5F5F4F220F48
S1135010331F441FAA1FA9F334D00E2E3AF0E0E840
S113502031D091505040E695001CCAF72AD0FE2F8B
S113503028D0660F771F881FBB1F2617370748071E
S1135040AB07B0E809F0BB0B802DBF01FF279358D5
S11350505F4F32F09E3F510570F025C00C94671AE3
S11350605F3FE4F3983ED4F3869577956795B795BB
S1135070F7959F5FC9F7880F911D9695879597F9C6
S11350800895E1E0660F771F881FBB1F621773073F
S11350908407BA0720F0621B730B840BBA0BEE1F54
S11350A088F7E095089597F99F6780E870E060E0DD
S11350B008959FEF80EC089500240A9416161706AD
S11350C018060906089500240A94121613061406F5
S11350D005060895092E0394000C11F4882352F058
S11350E0BB0F40F4BF2B11F460FF04C06F5F7F4F10
S11350F08F4F9F4F08950CD0EDCFDEDF28F0E3DF14
S113510018F0952309F0CFCFD4CF11240C94671A4B
S11351100E94441A90F3959FC1F3950F50E0551FD8
S1135120629FF001729FBB27F00DB11D639FAA27F8
S1135130F00DB11DAA1F649F6627B00DA11D661F47
S1135140829F2227B00DA11D621F739FB00DA11D68
S1135150621F839FA00D611D221F749F3327A00D22
S1135160611D231F849F600D211D822F762F6A2FBE
S113517011249F57504092F0E9F088234AF0EE0F33
S1135180FF1FBB1F661F771F881F91505040A9F750
S11351909E3F510578F087CF0C94671A5F3FE4F384
S11351A0983ED4F3869577956795B795F795E795E7
S11351B09F5FC1F7FE2B880F911D9695879597F9F0
S11351C00895A1E21A2EAA1BBB1BFD010DC0AA1F44
S11351D0BB1FEE1FFF1FA217B307E407F50720F05C
S11351E0A21BB30BE40BF50B661F771F881F991FD7
S11351F01A9469F760957095809590959B01AC0120
S1135200BD01CF010895EE0FFF1F881F8BBF0790CC
S1135210F691E02D19940F931F93CF93DF9382306F
S1135220910510F482E090E0E0919217F0919317C9
S113523020E030E0A0E0B0E0309719F140815181E6
S11352400281138148175907C8F08417950769F438
S1135250109731F012960C93129713961C9327C053
S1135260009392171093931722C02115310519F05A
S11352704217530718F49A01BD01EF01DF01F80149
S1135280DBCF21153105F9F0281B390B243031050A
S113529080F48A819B816115710521F0FB01938360
S11352A0828304C09093931780939217FE013296E1
S11352B044C0FE01E20FF31F819391932250310900
S11352C0398328833AC02091901730919117232B6A
S11352D041F42091020230910302309391172093FC
S11352E0901720910002309101022115310541F4FB
S11352F02DB73EB74091040250910502241B350B93
S1135300E0919017F0919117E217F307A0F42E1B88
S11353103F0B2817390778F0AC014E5F5F4F241715
S1135320350748F04E0F5F1F509391174093901725
S11353308193919302C0E0E0F0E0CF01DF91CF913F
S11353401F910F910895CF93DF93009709F481C0C3
S1135350FC01329713821282A0919217B091931795
S1135360109781F420813181820F931F209190172F
S1135370309191172817390751F5F0939117E0935D
S1135380901767C0ED0120E030E0CE17DF0740F44E
S11353904A815B819E0141155105F1F0EA01F5CF87
S11353A0D383C28340815181840F951FC817D907C5
S11353B059F488819981840F951F02969183808383
S11353C08A819B81938382832115310529F4F0938B
S11353D09317E09392173DC0E901FB83EA83499157
S11353E05991C40FD51FEC17FD0761F48081918199
S11353F0840F951F0296E9019983888382819381A2
S11354009B838A83E0E0F0E012968D919C91139740
S1135410009719F0FD01DC01F7CF8D919C91119754
S11354209D012E5F3F4F820F931F20919017309163
S113543091172817390769F4309729F410929317B4
S11354401092921702C013821282B0939117A09304
S11354509017DF91CF91089581E090E0F8947DC397
S1135460FB01DC0102C001900D9241505040D8F77D
S11354700895DC0101C06D9341505040E0F7089558
S1135480FB0151915523B1F0BF01DC01052E4D9173
S1135490442369F010D0D9F7CD010190002049F0E0
S11354A04D91411108D0C9F3FB014111EECF81E0C8
S11354B090E001970895402539F0403229F44029BD
S11354C04B57465E08F018940895FB01DC010D90DB
S11354D00020E9F7119701900D920020E1F708955B
S11354E0FB01DC0101900D920020E1F70895FB011E
S11354F0DC014150504088F08D9181341CF08B3593
S11355000CF4805E619161341CF06B350CF4605EC8
S1135510861B611171F3990B0895881BFCCFCF93FF
S1135520DF93CDB7DEB7AE014A5F5F4FFA016191F9
S11355307191AF01809196179091971761D0DF9187
S1135540CF9108950F931F93CF93DF93E091961714
S1135550F0919717238121FF1BC08C01D0E0C0E09C
S1135560F80181918F016091961770919717DB0173
S11355701896ED91FC911997882331F01995892B90
S113558079F3DFEFCFEFECCF8AE01995892B19F08F
S11355908FEF9FEF02C08D2F9C2FDF91CF911F9132
S11355A00F9108950F931F93CF93DF93CDB7DEB779
S11355B02E970FB6F894DEBF0FBECDBF0E891F899C
S11355C086E08C831A8309838FEF9FE79E838D8304
S11355D0AE01465E5F4F688D798DCE01019610D085
S11355E0EF81F885E00FF11F10822E960FB6F89424
S11355F0DEBF0FBECDBFDF91CF911F910F910895F4
S11356002F923F924F925F926F927F928F929F92CE
S1135610AF92BF92CF92DF92EF92FF920F931F93BC
S1135620CF93DF93CDB7DEB72B970FB6F894DEBFD9
S11356300FBECDBF6C017B018A01FC01178216826B
S1135640838181FFBFC1CE0101963C01F6019381A4
S1135650F70193FD859193FF81917F01882309F4DC
S1135660ADC1853239F493FD859193FF81917F011A
S1135670853221F4B60190E0D6D1E8CF912C212CCB
S1135680312CFFE1F315D8F08B3279F038F4803205
S113569079F08332A1F4232D20611DC08D3261F095
S11356A0803369F4232D216016C0832D8260382E47
S11356B0E32DE4603E2E2AC0F32DF8601DC037FCB4
S11356C02DC020ED280F2A3040F08E32B9F436FC7C
S11356D075C1232D2064322E19C036FE06C08AE01F
S11356E0989E200D1124922E11C0EAE02E9E200DCA
S11356F01124222EF32DF0623F2E08C08C3621F4A3
S1135700832D8068382E02C0883641F4F70193FD5A
S1135710859193FF81917F018111B3CF982F9F7D54
S11357209554933028F40C5F1F4F9FE399830DC069
S1135730833631F0833771F0833509F055C020C0CA
S1135740F801808189830E5F1F4F88248394912CF4
S1135750530112C02801F2E04F0E511CF801A08041
S1135760B18036FE03C0692D70E002C06FEF7FEF99
S1135770C5014ED14C018201F32DFF773F2E15C098
S1135780280122E0420E511CF801A080B18036FEAF
S113579003C0692D70E002C06FEF7FEFC5012DD10A
S11357A04C01F32DF0683F2E820133FC19C0822D89
S11357B090E088169906A0F4B60180E290E033D117
S11357C02A94F5CFF50137FC859137FE81915F016D
S11357D0B60190E028D121102A9421E0821A910880
S11357E08114910479F7E1C0843611F0893639F5D2
S11357F0F80137FE07C060817181828193810C5F5B
S11358001F4F08C060817181072E000C880B990B13
S11358100E5F1F4FF32DFF763F2E97FF09C0909523
S11358208095709561957F4F8F4F9F4FF0683F2E05
S11358302AE030E0A30133D1882E861844C085378E
S113584031F4232D2F7EB22E2AE030E025C0932D93
S1135850997FB92E8F36C1F018F4883579F0AEC02F
S1135860803719F0883721F0A9C0E92FE061BE2EF6
S1135870B4FE0DC0FB2DF460BF2E09C034FE0AC077
S1135880292F2660B22E06C028E030E005C020E1B2
S113589030E002C020E132E0F801B7FE07C06081C9
S11358A07181828193810C5F1F4F06C06081718179
S11358B080E090E00E5F1F4FA301F1D0882E861880
S11358C0FB2DFF773F2E36FE0DC0232D2E7FA22EFB
S11358D0891458F434FE0BC032FC09C0832D8E7E2B
S11358E0A82E05C0B82CA32C03C0B82C01C0B92C19
S11358F0A4FE0FC0FE01E80DF11D8081803321F468
S11359009A2D997EA92E09C0A2FE06C0B394B39421
S113591004C08A2D867809F0B394A3FC10C0A0FEBD
S113592006C0B21480F4280C922C9B180DC0B2143B
S113593058F4B60180E290E076D0B394F8CFB21474
S113594018F42B1802C0982C212CA4FE0FC0B60109
S113595080E390E068D0A2FE16C0A1FC03C088E7F3
S113596090E002C088E590E0B6010CC08A2D8678EC
S113597051F0A1FE02C08BE201C080E2A7FC8DE2DF
S1135980B60190E050D0891430F4B60180E390E081
S11359904AD09A94F8CF8A94F301E80DF11D8081DE
S11359A0B60190E040D08110F6CF222009F44ECE0B
S11359B0B60180E290E037D02A94F7CFF6018681D1
S11359C0978102C08FEF9FEF2B960FB6F894DEBF3E
S11359D00FBECDBFDF91CF911F910F91FF90EF903C
S11359E0DF90CF90BF90AF909F908F907F906F90FB
S11359F05F904F903F902F900895FC010590615067
S1135A0070400110D8F7809590958E0F9F1F0895D0
S1135A10FC016150704001900110D8F78095909579
S1135A208E0F9F1F08950F931F93CF93DF93FB0156
S1135A30238121FD03C08FEF9FEF2CC022FF16C0EE
S1135A4046815781248135814217530744F4A0814C
S1135A50B1819D012F5F3F4F318320838C93268139
S1135A6037812F5F3F4F3783268314C08B01EC01AE
S1135A70FB010084F185E02D1995892BE1F6D8010D
S1135A8016968D919C911797019617969C938E93D9
S1135A901697CE01DF91CF911F910F910895FA01CE
S1135AA0AA27283051F1203181F1E8946F936E7F59
S1135AB06E5F7F4F8F4F9F4FAF4FB1E03ED0B4E04A
S1135AC03CD0670F781F891F9A1FA11D680F791F8B
S1135AD08A1F911DA11D6A0F711D811D911DA11D9C
S1135AE020D009F468943F912AE0269F11243019AC
S1135AF0305D3193DEF6CF010895462F4770405D47
S1135B004193B3E00FD0C9F7F6CF462F4F70405DF5
S1135B104A3318F0495D31FD4052419302D0A9F750
S1135B20EACFB4E0A6959795879577956795BA954A
S1135B30C9F700976105710508959B01AC010A2E10
S1135B4006945795479537952795BA95C9F7620FE7
S1115B50731F841F951FA01D0895F894FFCFA6
S1135B5E00009A1720000900400040C600CE00D66F
S1135B6E0036010000000300000000E223CD2300F4
S1135B7E00F8A027BE33E034C1332042C43360E5BD
S1135B8EAE33A0F2B133E0FFB433200DB833601A54
S1135B9EBB33FF0186000000000079FF0179A000ED
S1135BAE000000E6FF0179000000000086FF018777
S1135BBE000000000078FF0188000000000000498A
S1135BCE444C4500546D72205376630055706C6FCF
S1135BDE6164696E672076616C75657300444F5716
S1135BEE4E204C494E4B3A2066726F6D20706F7288
S1135BFE743A2025642077697468202564206279BC
S1135C0E74657320726563656976656421005468F2
S1135C1E652063757272656E74206D61782074658B
S1135C2E6D702073657474696E672069733A2025EC
S1135C3E6420616E6420756E6971206964206973D5
S1135C4E3A2025640073656E644461746100726564
S1135C5E6369657665446174610050726F67726141
S1135C6E6D2073746172746564212100484948384B
S1135C7E3132302057616B652075702073746174F6
S1135C8E75733A2025630A0048494838313230206A
S1135C9E4D656173757265207374617475733A2002
S1135CAE25630A004D485F5A3139204D656173757D
S1135CBE7265207374617475733A2025630A004605
S1135CCE6163746F72795265736574203E25733CFB
S1135CDE0A00436F6E66696775726520746F20459E
