S01300004669726D77617265305F312E7372656314
S113000046C2000065C2000063C2000061C2000075
S11300105FC200005DC200005BC2000059C2000064
S113002057C2000055C2000053C2000051C2000074
S113003032C500004DC200004BC2000049C200009E
S113004047C2000045C2000043C2000041C2000094
S11300503FC200000C949D1F3BC2000039C2000047
S11300600C94692A0C941C270C946E2731C200004E
S11300702FC200002DC200002BC2000029C20000C4
S113008027C2000025C2000023C2000021C20000D4
S11300900C94B2270C9404281BC200000C94982DD5
S11300A017C2000015C2000013C2000011C20000F4
S11300B00FC200000DC200000BC2000009C2000004
S11300C007C2000005C2000003C200000C944828C7
S11300D00C949A28FDC100000C94DE280C9430295D
S11300E0F7C10000BE01BE01BE01F8010002160204
S11300F0BE01BE01F8010002BA2D2A2E2A2E2A2E94
S11301002A2E2A2E2A2E2A2EBA2D2A2E2A2E2A2E9C
S11301102A2E2A2E2A2E2A2EBC2D2A2E2A2E2A2E8A
S11301202A2E2A2E2A2E2A2E2A2E2A2E2A2E2A2E0B
S11301302A2E2A2E2A2E2A2EBC2D2A2E2A2E2A2E6A
S11301402A2E2A2E2A2E2A2E2A2E2A2E2A2E2A2EEB
S11301502A2E2A2E2A2E2A2E262E2A2E2A2E2A2EDF
S11301602A2E2A2E2A2E2A2EF12D2A2E2A2E2A2E05
S11301702A2E2A2E2A2E2A2E2A2E2A2E2A2E2A2EBB
S11301802A2E2A2E2A2E2A2EE52D2A2E2A2E2A2EF1
S11301902A2E2A2E2A2E2A2E092E07E215E10F2EA8
S11301A0F7E5EF2EF5E1FF2EF02D8091261588233B
S11301B011F10FB6F8940F92D8011796ED91FC91B6
S11301C01897C085D185CE01029625D380911A1542
S11301D0815080931A15809126158150809326159D
S11301E00F900FBE8B8D9C8D8AD2CE0188D28091C8
S11301F026158111DECFF7018081823008F085D386
S11302000E94C718D2CFCF93DF93CDB7DEB76097E4
S11302100FB6F894DEBF0FBECDBFCE0101969A870C
S11302208987812C912CA12CB12C69847A84E0914A
S1130230D115F091D2158081882309F40EC107806D
S1130240F085E02D20803180428053800E94520E40
S1130250CE0101960E9430186B877C878D879E871C
S11302608981811164C08B859C85AD85BE8582158D
S11302709305A405B50508F444C00E94960FE091C7
S1130280D115F091D2150780F085E02DA085B185B8
S1130290B88BAF87CD010296BED2EF85F8898689E7
S11302A082FF21C04685578560897189420D531D9F
S11302B0641D751D720161010B851C852D853E85AC
S11302C0CF010E943F17882399F0C82CD92CEA2C1F
S11302D0FB2C00E010E0A201910160E08F85988979
S11302E00E94D21705C08E7FAF85B88956968C932D
S11302F0AF85B8895496ED91FC915597CD01199528
S11303009EC020E0B201A1018B859C85AD85BE8590
S1130310481B590B6A0B7B0B8091CD159091CE1520
S113032051D70E94960F81118AC0EFD288C00E94D3
S1130330960F85C0898188230CF481C04E805F802C
S1130340D2011C968D919C911D97892B19F0C201A5
S1130350029661D2CE0108960E9430188B019C014E
S1130360E9810E2E000CFF0BEA30F10508F067C09E
S11303708827EE58FF4F8F4F0C94F32FF201868994
S11303808160868BCA80DB80EC80FD804685578542
S1130390608971894C0D5D1D6E1D7F1DC2010E9417
S11303A03F17882309F44BC0D2015496ED91FC9178
S11303B05597C2011995F201868982FF40C04A818E
S11303C05B816C817D8186859785A089B1899A013D
S11303D0AB01280F391F4A1F5B1FC82CD92CEA2CEC
S11303E0FB2C00E010E060E0C2010E94D21727C09D
S11303F0D20156968C9156978E7F56968C931FC039
S1130400F20186898160868B4A815B816C817D8162
S113041046875787608B718B400F511F621F731F74
S113042068017901C2010E943F1709C0F20186895F
S113043081FD03C0C20163D102C08E7F868B282D4B
S1130440392D4A2D5B2D662D772D8091CD159091F8
S1130450CE1551D581116ECFEACE0E94520ECE0137
S113046001960E9430186B877C878D879E878981CF
S113047081115DCFE091CF15F091D015808121E0FD
S1130480811120E0282C392C4A2C5B2C3BCF1124E1
S11304901FBECFEFD1E2DEBFCDBF00E00CBF17E03F
S11304A0A0E0B2E0E2E5F9E600E00BBF02C007908D
S11304B00D92AA34B107D9F727E1AAE4B7E001C045
S11304C01D92A139B207E1F70E94291D0C94A734AB
S11304D097CD0895CF93DF93DC01E6E5F7E001C003
S11304E0F901208131812A173B07D0F3828193815E
S11304F0AF01480F591FA417B50749F412964D913F
S11305005C911397840F951F93838283DF01129666
S11305108D919C911397ED01C80FD91F2C173D079E
S1130520D9F42091540730915507C217D30781F0AD
S11305302A813B81820F931F13969C938E9312976B
S1130540C081D1818881998111969C938E9307C033
S11305501196DC93CE9303C011963C932E93AE1761
S1130560BF0711F0B183A083DF91CF910895CF929B
S1130570DF92EF92FF920F931F93CF93DF93EC01DF
S11305800E94520E8091540790915507892B41F592
S1130590E6E5F7E0AAE5B7E0B183A083138212820F
S11305A0E2E0F5E1F0935507E093540713821282D9
S11305B01182108288EA9DE013969C938E93129781
S11305C0ED93FC93909351078093500790935307B6
S11305D08093520780E090E890934B0780934A07FA
S11305E0E0904A07F0904B07C7018C239D23892B89
S11305F009F075C0209709F475C09E012C5F3F4F28
S1130600C217D30708F06EC02115310509F467C07D
S113061000915207109153070217130708F45FC0A3
S1130620C0915607D0915707E6E5F7E002C0FE01F6
S1130630EC018A819B818217930720F48881998138
S11306400097A9F78091540790915507C817D907C7
S113065009F445C0C080D18084E0C80ED11C8881D3
S11306609981918380834A815B81421B530B49307A
S1130670510548F0CE01820F931FFC01538342833E
S11306803B832A8327DF8A819B81081B190B1093E4
S113069053070093520720915007309151070217D6
S11306A0130720F41093510700935007E82AF92AFE
S11306B0FB82EA821982188280914E0790914F073B
S11306C0019690934F0780934E070E94960FC11492
S11306D0D10459F40E94CD18C12CD12C06C00E941B
S11306E0960FF8CF0E94960FF5CFC601DF91CF91F8
S11306F01F910F91FF90EF90DF90CF900895CF93CB
S1130700DF93009799F1FC01349722813381409162
S11307104A0750914B07B90164237523672B31F1C4
S113072060817181672B11F5EF0140955095242369
S11307303523338322830E94520E20915207309135
S113074053078A819B81820F931F90935307809351
S11307505207CE01BFDE80914C0790914D07019660
S113076090934D0780934C070E94960FDF91CF9191
S11307700895FC010396928381834FEF5FEFBA01E2
S113078043835483658376839087878392878187A5
S113079010820895FC011386128608950F931F9307
S11307A0CF93DF93EB01088119812A813B810F3FAD
S11307B04FEF14072407340721F4FC01A185B28507
S11307C011C0DC01139601C0DF011496ED91FC9178
S11307D0159740815181628173810417150726079B
S11307E0370790F71496ED91FC911597FD83EC83F0
S11307F0D783C683BF83AE831596DC93CE931497B9
S11308009B878A87FC0120812F5F2083DF91CF9112
S11308101F910F910895CF93DF93FC01A285B385B7
S1130820C481D581868197819F838E83C681D78138
S1130830848195819D838C8311968D919C911297CF
S1130840E817F90731F48681978112969C938E9369
S11308501197138612868C9181508C938C91DF9121
S1130860CF910895FC016083319770833197108292
S113087031971082319720E8208331971082319785
S113088010823197108277974083319750838697EF
S11308900895A89590EC88E10FB6F894A8958093F4
S11308A060000FBE90936000A091C515B091C6156D
S11308B0CD91CDBFDD91DEBFFF91EF91DF91CF915F
S11308C0BF91AF919F918F917F916F915F914F9164
S11308D03F912F911F910F91FF90EF90DF90CF9058
S11308E0BF90AF909F908F907F906F905F904F904C
S11308F03F902F901F900F900CBE0F900BBE0F9047
S11309000FBE0F90089581E008950F920FB6F894EA
S11309100F920BB60F920CB60F921F9211242F92C6
S11309203F924F925F926F927F928F929F92AF927B
S1130930BF92CF92DF92EF92FF920F931F932F9368
S11309403F934F935F936F937F938F939F93AF9353
S1130950BF93CF93DF93EF93FF93A091C515B0910D
S1130960C6150DB60D920EB60D920E94FF10A09101
S1130970C515B091C615CD91CDBFDD91DEBFFF91F8
S1130980EF91DF91CF91BF91AF919F918F917F9123
S11309906F915F914F913F912F911F910F91FF9014
S11309A0EF90DF90CF90BF90AF909F908F907F900B
S11309B06F905F904F903F902F901F900F900CBEC0
S11309C00F900BBE0F900FBE0F9008950F920FB6AD
S11309D0F8940F920BB60F920CB60F921F9211243B
S11309E02F923F924F925F926F927F928F929F923B
S11309F0AF92BF92CF92DF92EF92FF920F931F9329
S1130A002F933F934F935F936F937F938F939F9312
S1130A10AF93BF93CF93DF93EF93FF93A091C5154B
S1130A20B091C6150DB60D920EB60D9213BE0E946E
S1130A30660E81110E94FF10A091C515B091C615D4
S1130A40CD91CDBFDD91DEBFFF91EF91DF91CF91CD
S1130A50BF91AF919F918F917F916F915F914F91D2
S1130A603F912F911F910F91FF90EF90DF90CF90C6
S1130A70BF90AF909F908F907F906F905F904F90BA
S1130A803F902F901F900F900CBE0F900BBE0F90B5
S1130A900FBE0F9008959ADF18950FB6F8940F9231
S1130AA0FC01968D0F900FBE81E0911180E00895B6
S1130AB00F931F93CF93DF93EC01042F1E8D48A156
S1130AC041110CC088819981892B09F042C08C8125
S1130AD09D810E9497131D821C8242C0011117C080
S1130AE050E08A819B810E94203128A18A819B81C8
S1130AF0820F911D9B838A832C813D8182179307EA
S1130B0050F1888199819B838A8380E029C050E0D9
S1130B108E819F810E94203188A190E091958195DA
S1130B2091092E813F81280F391F3F832E834881ED
S1130B3059812417350730F42C813D81820F931F8E
S1130B409F838E83023049F4112349F0115080E0D1
S1130B5007C080E005C080E003C080E001C080E001
S1130B601F5F1E8FDF91CF911F910F910895FC019C
S1130B7040A14423A9F050E026813781240F351F7A
S1130B8037832683848195812817390720F0808153
S1130B90918197838683CB01668177810C94203180
S1130BA00895EF92FF920F931F93CF938C010FB68A
S1130BB0F8940F92FC01C2A11C16ACF48389811134
S1130BC006C011C0F8018389811105C00CC07801E9
S1130BD0F3E1EF0EF11CC7010E94C91181110E94BB
S1130BE0F912C15079F78FEFF80182A30F900FBE6D
S1130BF00FB6F8940F92C1A11C16ACF48085811134
S1130C0006C011C0F8018085811105C00CC07801AF
S1130C10F8E0EF0EF11CC7010E94C91181110E9476
S1130C20F912C15079F78FEFF80181A30F900FBE2D
S1130C30CF911F910F91FF90EF900895CF93DF9381
S1130C40EC010FB6F8940F92E881F9818F8D28A1F9
S1130C5090E030E0829FA001839F500D929F500D41
S1130C6011244E0F5F1F5D834C831E8EFB83EA832A
S1130C700197829FA001839F500D929F500D1124D4
S1130C80CF01840F951F9F838E838FEF89A38AA33F
S1130C9061110BC08885882371F0CE0108960E94EB
S1130CA0C911882341F031DE06C0CE01089661DD0A
S1130CB0CE0143965EDD0F900FBE81E0DF91CF91B0
S1130CC008950F931F93CF93DF93082F162F869FBA
S1130CD0C001112483964BDCEC01009769F01111DB
S1130CE003C09983888303C08396998388830F8F75
S1130CF018A361E0CE01A2DFCE01DF91CF911F9155
S1130D000F9108959F92AF92BF92CF92DF92EF928C
S1130D10FF920F931F93CF93DF93CDB7DEB729973D
S1130D200FB6F894DEBF0FBECDBF7C015B012E83EE
S1130D303F834887598710E0992493946C0188E095
S1130D40C80ED11C0FB6F8940F92F701968D878DBB
S1130D50981710F00230B1F4402FB501C701A8DE96
S1130D60F7019389992341F0C70143960E94C91161
S1130D70882321F0CADD02C08111C7DD0F900FBEA8
S1130D8081E051C08E819F81A885B985892B8A2BEA
S1130D908B2B21F40F900FBE80E045C0111105C0CC
S1130DA0CE0101960E948F12192D0F900FBE7AD793
S1130DB00FB6F8940F92F70181A18F3F09F411A2A5
S1130DC0F70182A18F3F09F412A20F900FBEBE015A
S1130DD06A5F7F4FCE0101960E94A01281111EC04E
S1130DE00FB6F8940F92F701968D878D0F900FBE72
S1130DF098130FC04E815F8168857985C6010E9472
S1130E007011C701CEDE0E94960F81119BCF7DDD4C
S1130E1099CFC701C6DE0E94960F94CFC701C1DEE9
S1130E200E94960F80E029960FB6F894DEBF0FBE9D
S1130E30CDBFDF91CF911F910F91FF90EF90DF9085
S1130E40CF90BF90AF909F9008950F93CF93DF936F
S1130E50482F60E081E035DFEC01009761F01D82EE
S1130E601C82198218821E8200E020E030E0A90171
S1130E7060E070E047DFCE01DF91CF910F910895DC
S1130E80EF92FF920F931F93CF93DF938A01FC019C
S1130E90568D378D531710F02230F9F4422F780114
S1130EA0EC011AA18E8DCE0103DE1F3F81F48B89E4
S1130EB08823A9F0CE0143960E94C911882389F0A2
S1130EC0E114F10481F081E0F70180830DC0FF2477
S1130ED0F394F10EFAA281E007C080E005C081E03E
S1130EE003C081E001C081E0DF91CF911F910F9198
S1130EF0FF90EF9008959F92AF92BF92CF92DF92AE
S1130F00EF92FF920F931F93CF93DF93CDB7DEB78A
S1130F1029970FB6F894DEBF0FBECDBF8C015B01DD
S1130F202E833F8348875987E12C992493946C013D
S1130F3083E1C80ED11C0FB6F8940F92F801F68C19
S1130F40FF2099F0B501C80112DEFA94F801F68E7B
S1130F508085882331F0C80108960E94C911811147
S1130F60D4DC0F900FBE81E04DC08E819F81A88597
S1130F70B985892B8A2B8B2B21F40F900FBE80E02F
S1130F8041C0E11005C0CE0101960E948F12E92CE8
S1130F900F900FBE87D60FB6F8940F92F80181A177
S1130FA08F3F09F411A2F80182A18F3F09F412A224
S1130FB00F900FBEBE016A5F7F4FCE0101960E9463
S1130FC0A012811116C0C80168DD882371F04E811A
S1130FD05F8168857985C6010E947011C801E1DDD1
S1130FE0A5D78111A8CF91DCA6CFC801DADD9ED7A1
S1130FF0A2CFC801D6DD9AD7C8014FDD882309F4F2
S11310009ACF80E029960FB6F894DEBF0FBECDBF0D
S1131010DF91CF911F910F91FF90EF90DF90CF90D0
S1131020BF90AF909F900895BF92CF92DF92EF92BE
S1131030FF920F931F93CF93DF93CDB7DEB729971A
S11310400FB6F894DEBF0FBECDBF8C014E835F8315
S113105068877987B12CD12CCC24C3947C0183E19B
S1131060E80EF11C0FB6F8940F92D8015E968C919D
S11310705E978823E1F081505E968C935E978D9104
S11310809C91892B29F40E945914F8019583848337
S1131090D80118968C91882331F0C80108960E94D3
S11310A0C911811132DC0F900FBE81E07BC08E81AB
S11310B09F81A885B985892B8A2B8B2B21F40F90CE
S11310C00FBE80E06FC0D11005C0CE0101960E9412
S11310D08F12DC2C0F900FBEE5D50FB6F8940F924B
S11310E0F80181A18F3F09F411A2D80192968C9145
S11310F092978F3F11F492961C920F900FBEBE01EF
S11311006A5F7F4FCE0101960E94A012811125C013
S1131110C801C3DC8823E9F0F80180819181892B1F
S113112051F40FB6F8940F92848195810E941013A4
S1131130B82E0F900FBE4E815F8168857985C701F7
S11311400E947011C8012DDDF1D681118BCFDDDB3A
S113115089CFC80126DDEAD685CFC80122DDE6D6CF
S1131160C8019BDC882309F47DCFBB20D1F00FB6E6
S1131170F8940F92F8018389882339F0028CF38D57
S1131180E02D80816AE0681B01C060E0D8011496FC
S11311908D919C9115970E94F2130F900FBE80E0E1
S11311A001C080E029960FB6F894DEBF0FBECDBF14
S11311B0DF91CF911F910F91FF90EF90DF90CF902F
S11311C0BF900895CF93DF93EC010FB6F8940F927C
S11311D089A18F3F09F419A28AA18F3F09F41AA2A9
S11311E00F900FBE8E8D811104C0CE0143960E94D4
S11311F08711CE01D6DCDF91CF910895FC014481A3
S1131200558122813381240F351F80819181B90159
S1131210681B790BCB016417750710F0841B950BC1
S11312200895AF92BF92CF92DF92EF92FF920F9305
S11312301F93CF93DF936C015B017A01FC01C281A0
S1131240D381048115810C1B1D0B4017510708F431
S11312508A01F60184859585A801B5018C0F9D1F2F
S11312600E9420310E151F0558F4A701401B510B95
S1131270B501600F711FF601848595850E942031A8
S1131280CE018E0D9F1DF6012481358182179307AF
S113129010F0821B930BF60193838283C701DF91C5
S11312A0CF911F910F91FF90EF90DF90CF90BF905F
S11312B0AF900895CF92DF92EF92FF920F931F9316
S11312C0CF93DF931F921F92CDB7DEB75A83498322
S11312D021153105C9F06B017C01FC01868580FD77
S11312E008C0CA012417350708F4C9019A83898301
S11312F011C02017310758F042E050E0BE016F5F83
S11313007F4FC7018EDF06C080E090E008C080E018
S113131090E005C049815A81B601C70182DF0F9070
S11313200F90DF91CF911F910F91FF90EF90DF907D
S1131330CF900895AF92BF92CF92DF92EF92FF9237
S11313400F931F93CF93DF937C015B01E901421755
S1131350530708F4EA01209779F1F701008111811C
S1131360C480D580C01AD10ACC15DD0508F46E01FD
S1131370F70164857585600F711FA601C5010E9480
S11313802031CC16DD0658F4AE014C195D09F70185
S113139064857585C5018C0D9D1D0E9420310C0F3F
S11313A01D1FF701848195810817190710F0081B88
S11313B0190BF70111830083CE01DF91CF911F91A7
S11313C00F91FF90EF90DF90CF90BF90AF90089572
S11313D0FF920F931F93CF93DF938B01FF24F3941A
S11313E0413009F0F12C0115110511F401E010E070
S11313F09C01205F3F4F82179307B0F4EC012196C4
S1131400C901B5D8FC01892B89F08FE0DF011D9259
S11314108A95E9F7CF010F9695878487D583C4838E
S113142017830683F68602C0E0E0F0E0CF01DF9187
S1131430CF911F910F91FF9008950FB6F8940F92DA
S1131440DC0118962D913C911997232B51F51A968E
S11314502D913C911B97232B31F51E962C911E97B1
S113146016964D915C91179714966D917C911597F2
S11314701C96ED91FC911D973FE01D923A95E9F77A
S1131480DC011D96FC93EE931C9715967C936E934A
S1131490149717965C934E9316971E962C9381E09F
S11314A003C080E001C080E00F900FBE0895FC01EE
S11314B0248135818081918142815381820F931FE0
S11314C00197841B950B8217930710F0821B930BD3
S11314D008952F923F924F925F926F927F928F92D4
S11314E09F92AF92BF92CF92DF92EF92FF920F93AF
S11314F01F93CF93DF93CDB7DEB72B970FB6F89436
S1131500DEBF0FBECDBF4C017B876A871A010E83F5
S11315101F8328873987FC0184819581019726855B
S113152020FF0CC02A01F2E04F0E511C84159505D2
S113153050F41E821F821886198646C02A01841719
S1131540950708F42C018E819F81A885B985892B84
S11315508A2B8B2B09F438C0CE010196CAD70FB65B
S1131560F8940F92C401A3DF3C018415950538F566
S113157060E080E090E00E9425170E94FD12F401D3
S1131580938782870F900FBEAE80BF80C884D984B2
S1131590E12CF12C00E010E0980140E050E0BA01A9
S11315A080E00E946B14F40113861286BE016A5F08
S11315B07F4FCE010196C4D7882389F202C00F90D1
S11315C00FBE6114710419F4C40171DF3C0182017E
S11315D09301A1016A857B85C4016CDE6C01892BB2
S11315E0E9F0C4010BDEF4012681378182179307E9
S11315F0A8F058D3F40180859185892B71F08085FA
S11316009185E12CF12C00E020E030E0A90160E0BC
S11316100E941315F4011186108688D4C6012B96F6
S11316200FB6F894DEBF0FBECDBFDF91CF911F91EF
S11316300F91FF90EF90DF90CF90BF90AF909F906D
S11316408F907F906F905F904F903F902F90089570
S1131650AF92BF92CF92DF92EF92FF920F931F93BC
S1131660CF93DF93EC017B015A0169018E8580FFE2
S113167004C08A010E5F1F4F01C08A01CE0117DF2B
S11316809C01A501B701CE0115DE5C01892BC1F0D7
S1131690CE01B4DD2E813F818217930788F08885BF
S11316A09985892B69F088859985E12CF12C00E0D6
S11316B020E030E0A90160E00E9407161986188630
S11316C0C501DF91CF911F910F91FF90EF90DF90B3
S11316D0CF90BF90AF9008952F923F924F925F9218
S11316E06F927F928F929F92AF92BF92CF92DF922E
S11316F0EF92FF920F931F93CF93DF931F921F924A
S1131700CDB7DEB74C011B012A0158016901FC0168
S1131710868580FD03C0612C712C04C06894662406
S113172061F8712CA114B104C104D10449F10FB6BC
S1131730F8940F92C40162DD8C016816790648F0B2
S113174060E080E090E00E94251757D7F40191876C
S113175080870F900FBE60167106C0F0E12CF12C4B
S113176000E010E0980140E050E0BA0180E00E94FF
S11317706B14F40111861086C40140DD8C0103C092
S1131780C4013CDD8C0160167106C8F56114710456
S1131790C1F0F401C080D1809801A301BE016F5F44
S11317A07F4FC401C7DD89819A810619170948163C
S11317B0590630F4F401D182C082412C512C01C06D
S11317C02C019801A201B101C401B4DD6C01892B83
S11317D0C1F068D2F40182859385892B71F08285EA
S11317E09385E12CF12C00E020E030E0A90160E0D9
S11317F00E941315F4011386128698D302C0C12CDB
S1131800D12CC6010F900F90DF91CF911F910F91B2
S1131810FF90EF90DF90CF90BF90AF909F908F900C
S11318207F906F905F904F903F902F900895E0913C
S11318303F15F0914015808181110CC08FEF9FEF0F
S1131840DC018093091590930A15A0930B15B093AE
S11318500C150895E0913F15F09140150780F0852F
S1131860E02D80819181A281B381809309159093A9
S11318700A15A0930B15B0930C1508958F929F929F
S1131880AF92BF92CF92DF92EF92FF92CF93DF930A
S11318906B017C01C42F8090161590901715A090B1
S11318A01815B09019158091C5159091C61502961A
S11318B00E940B048FEFC816D806E806F806B1F5A7
S11318C0CC23A1F1EBE1F5E1A181B281C091C51571
S11318D0D091C615BF83AE83C091C515D091C615EE
S11318E016968D919C911797998788871696CD9116
S11318F0DC9117978091C5159091C61502969D832A
S11319008C838091C5159091C615029617969C9369
S11319108E931697A091C515B091C6151D96FC938C
S1131920EE931C9780818F5F80833FC0C80CD91CC5
S1131930EA1CFB1CE091C515F091C615C282D38246
S1131940E482F582C814D904EA04FB0468F46091C3
S1131950C5157091C61580913D1590913E156E5F29
S11319607F4F0E94CE0321C06091C5157091C615AA
S113197080913F15909140156E5F7F4F0E94CE037A
S11319808091091590910A15A0910B15B0910C1531
S1131990C816D906EA06FB0640F4C0920915D0928F
S11319A00A15E0920B15F0920C15DF91CF91FF9080
S11319B0EF90DF90CF90BF90AF909F908F9008955D
S11319C04F925F926F927F928F929F92AF92BF924B
S11319D0CF92DF92EF92FF920F931F93CF93DF93F7
S11319E04C016B015A012901CA010E94B7023C0152
S11319F0892B09F40DC184E390E00E94B702EC0145
S1131A00892B99F07C8E6B8EA50165EA70E0C30189
S1131A100E94293181E0A81AB1088B8D9C8DA80EF3
S1131A20B91EC114D10429F420C0C3010E947F034C
S1131A30EFC0D6018C918D8F8C918823A1F0AE01DB
S1131A40425E5F4FF6013196B0E1CB0ED11CCF015F
S1131A502191DA012D93AD01DC018C91882319F0D9
S1131A60CE16DF06A1F71CA601C01D8E0A3008F0B1
S1131A7009E00A8F0DA71EA66E01B2E0CB0ED11CA1
S1131A80C6010E94CA03CE010E960E94CA03DB87D8
S1131A90CA878AE090E0A0E0B0E0801B9109A10928
S1131AA0B1098E879F87A88BB98BDF8BCE8B84E09F
S1131AB0FE01BF96DF011D928A95E9F71BAAA201D8
S1131AC0B401C5010E94320499838883E114F104AE
S1131AD019F0F701D183C0830FB6F8940F92809167
S1131AE01A158F5F80931A158091C5159091C615AC
S1131AF0892BD1F5D093C615C093C51580911A15BD
S1131B00813009F041C007E515E10F2EF5ECEF2E09
S1131B10F5E1FF2EF02DC8010E94B903055F1F4FA8
S1131B200E151F05C1F78CE495E10E94B90381E409
S1131B3095E10E94B90382E395E10E94B90387E22B
S1131B4095E10E94B9038BE195E10E94B9038CE40D
S1131B5095E19093401580933F1581E495E190932E
S1131B603E1580933D1510C08091141581110CC051
S1131B70E091C515F091C615928D8A8D891720F0D4
S1131B80D093C615C093C51580910D158F5F8093B2
S1131B900D15EA8D809115158E1710F4E093151527
S1131BA08BE08E9FF0011124E95AFA4E0180F281F4
S1131BB0E02DFF83EE832681378139872887A6812C
S1131BC0B7811596DC92CE921497D782C682EA8D9D
S1131BD08E9FF0011124E95AFA4EFD87EC8780812B
S1131BE08F5F80830F900FBE80911415882361F05E
S1131BF0E091C515F091C615928D8A8D981730F431
S1131C000E94850481E005C081E003C081E001C039
S1131C108FEFDF91CF911F910F91FF90EF90DF90A5
S1131C20CF90BF90AF909F908F907F906F905F9078
S1131C304F900895EF92FF920F930F2EF7E0EF2E3F
S1131C40F5E1FF2EF02D00E020E030E040EC50E024
S1131C506FE672E08DEC90E0B3DE8130E9F40E942F
S1131C60B1178130C9F4F8948FEF9FEFDC018093B2
S1131C70091590930A15A0930B15B0930C1581E0E8
S1131C8080931415109216151092171510921815AA
S1131C90109219150E944904809106020F91FF9039
S1131CA0EF900895809106158F5F8093061508952F
S1131CB00FB6F8940F9260911615709117158091D4
S1131CC01815909119150F900FBE0895CF92DF92B9
S1131CD0EF92FF920F931F93CF93DF93809106159A
S1131CE0811107C1C0901615D0901715E0901815F2
S1131CF0F09019158FEFC81AD80AE80AF80AC092AA
S1131D001615D0921715E0921815F0921915C114F2
S1131D10D104E104F104B1F480913F159091401590
S1131D2020913D1530913E153093401520933F1579
S1131D3090933E1580933D1580910E158F5F80938F
S1131D400E1575DD8091091590910A15A0910B155A
S1131D50B0910C15C816D906EA06FB0610F480E00B
S1131D60B3C080E04BE051E0E0913F15F0914015A5
S1131D70908191110CC04FEF5FEFBA0140930915A8
S1131D8050930A1560930B1570930C159DC0E09148
S1131D903F15F09140150780F085E02D0084F18512
S1131DA0E02D0281138124813581C016D106E2061B
S1131DB0F30648F40093091510930A1520930B15A4
S1131DC030930C1581C0A485B585C681D781208543
S1131DD031853F832E83C085D185268137813D831C
S1131DE02C839F012E5F3F4F11966D917C9112972A
S1131DF06217730731F46085718512967C936E9334
S1131E001197158614869C9191509C93A08DB18D49
S1131E10109709F1C289D389648975897F836E8398
S1131E20C489D589628973897D836C831196CD9128
S1131E30DC911297BF01625F7F4FC617D70731F459
S1131E406489758912967C936E931197118E108E06
S1131E509C9191509C93A28D909115159A1710F412
S1131E60A09315154A9FD0011124A95ABA4E119670
S1131E700D90BC91A02DB783A68316966D917C918D
S1131E801797718760871696CD91DC9117973D83DC
S1131E902C8317963C932E931697A28D4A9FD001BC
S1131EA01124A95ABA4EB587A4879C919F5F9C932D
S1131EB0A091C515B091C615228D5A969C912917EB
S1131EC008F452CF852F50CFE091C515F091C61577
S1131ED0E28D9BE0E99FF0011124E95AFA4E9081CA
S1131EE0923008F081E090910F159923B1F081E0D0
S1131EF014C08091101590911115A0911215B091F4
S1131F0013150196A11DB11D809310159093111501
S1131F10A0931215B093131580E0DF91CF911F9118
S1131F200F91FF90EF90DF90CF900895CF92DF92C2
S1131F30EF92FF920F931F93CF93DF930FB6F89412
S1131F400F92809106158150809306158091061595
S1131F508111C4C080911A1581118BC0C2C0D801EF
S1131F601796ED91FC9118970084F185E02DA08DD2
S1131F70B18D8289938964897589EC017F836E832D
S1131F808489958962897389EC017D836C83CF018F
S1131F900E9611966D917C9112976817790731F41A
S1131FA08489958912969C938E931197118E108E25
S1131FB08C9181508C93A485B585868197816085A9
S1131FC07185EC017F836E8380859185668177813D
S1131FD0EC017D836C83CF01029611966D917C9107
S1131FE012976817790731F46085718512967C938E
S1131FF06E931197158614862C9121502C93A28DE3
S1132000209115152A1710F4A09315153A9FD001A5
S11320101124A95ABA4E11960D90BC91A02DB783E4
S1132020A68316966D917C91179771876087169693
S11320306D917C911797EB019D838C8317969C93EC
S11320408E931697A28D3A9FD0011124A95ABA4EA5
S1132050B587A4878C918F5F8C93A091C515B0919F
S1132060C615928D5A968C91981748F040930F1587
S113207006C0E0E0F0E002E315E13BE041E0D80116
S11320808C9181116CCFEF2B09F0D1DBC09010152E
S1132090D0901115E0901215F0901315C114D104CD
S11320A0E104F10499F0C1E011DE8111C0930F1530
S11320B0B1E0CB1AD108E108F108B1F7109210157C
S11320C010921115109212151092131580910F157C
S11320D0882331F00E94850481E003C080E001C0C0
S11320E080E00F900FBEDF91CF911F910F91FF9071
S11320F0EF90DF90CF900895CF92DF92EF92FF920E
S11321000F931F93CF93DF93EC016A017B01CADD28
S11321100091161510911715209118153091191565
S113212088819981AA81BB81AC01BD014C0D5D1DE3
S11321306E1D7F1D081719072A073B07B8F44817B7
S113214059076A077B0790F5FF24F39404171507D2
S11321502607370708F0F12C488359836A837B8369
S11321600417150726073707A0F40BC048175907AB
S11321706A077B07A0F0041715072607370778F0CE
S113218015C0CB01BA01601B710B820B930B40E0AD
S113219075DBCCDE811110C00E9485040DC048831C
S11321A059836A837B83FF24F394EBCF4883598359
S11321B06A837B83F12CEDCF8F2DDF91CF911F911B
S11321C00F91FF90EF90DF90CF900895CF92DF9220
S11321D0EF92FF926B017C01672B682B692B41F016
S11321E061DD40E0C701B60149DBA0DE811102C018
S11321F00E948504FF90EF90DF90CF900895809126
S11322000615882321F081E080930F15089510921C
S11322100F15A091C515B091C615E091C515F091A3
S1132220C6152D913C91838D948D8217930758F098
S11322306091C5157091C6158091C5159091C6150C
S1132240635E7F4FB6D780911515282F30E09BE051
S1132250899FF0011124E95AFA4E908191110EC020
S11322604BE08150282F30E0429FF001439FF00D56
S11322701124E95AFA4E9081992399F39BE0929F95
S1132280A001939F500D1124DA01A95ABA4E119658
S1132290ED91FC9112970480F581E02D1296FC9348
S11322A0EE931197465A5A4EE417F50729F44481E0
S11322B05581FD01528341839BE0929FF001939FDE
S11322C0F00D1124E95AFA4E0180F281E02D2085A7
S11322D031853093C6152093C5158093151508953F
S11322E0CF92DF92EF92FF926A017B016091C51554
S11322F07091C615625F7F4F0E94CE0341E0C70113
S1132300B601BCDAFF90EF90DF90CF900895CF93A1
S1132310DF93FC01CB01BA01A181B281C091C51543
S1132320D091C615BB8BAA8BC091C515D091C6158B
S113233016964D915C9117975D8B4C8B1696CD91AB
S1132340DC9117974091C5155091C615425F5F4FB8
S11323505D834C834091C5155091C615425F5F4F14
S113236017965C934E931697A091C515B091C61518
S11323705996FC93EE93589730813F5F3083222324
S113238019F06FEF7FEFCB01422F78DADF91CF9115
S11323900895CF93DF93DC011796ED91FC91189784
S11323A00084F185E02DA08DB18DC289D389848903
S11323B095899F838E83C489D589828993899D83D6
S11323C08C839F01225F3F4F11968D919C911297B0
S11323D08217930731F48489958912969C938E937E
S11323E01197118E108E8C9181508C9380910615CB
S11323F0811152C0A485B585C681D7818085918518
S11324009F838E83C085D185868197819D838C83AC
S11324109F012E5F3F4F11968D919C9112978217C9
S1132420930731F48085918512969C938E9311972E
S1132430158614868C9181508C93A28D80911515EC
S11324408A1710F4A09315158BE08A9FD0011124EC
S1132450A95ABA4E11960D90BC91A02DB783A683AC
S113246016964D915C911797518740871696CD919A
S1132470DC9117973D832C8317963C932E931697E4
S1132480A28D8A9FD0011124A95ABA4EB587A48778
S11324908C918F5F8C931CC042E355E1DA01119655
S11324A0CD91DC911297D38BC28B8E819F81958BBA
S11324B0848B8E819F81DC0115963C932E93149717
S11324C03F832E83518F408FDA018C918F5F8C93E1
S11324D0A091C515B091C615928D5A968C91891705
S11324E020F481E080930F1501C080E0DF91CF914B
S11324F008950FB6F8940F9220910E15FC012083D5
S11325004091161550911715609118157091191571
S113251041835283638374830F900FBE0895209187
S11325200E15FC01208340911615509117156091EA
S11325301815709119154183528363837483089528
S1132540CF92DF92EF92FF920F931F93CF93DF937B
S1132550FB010FB6F8940F92409116155091171580
S113256060911815709119150081118122813381B0
S11325700F3FAFEF1A072A073A0779F1EC01C98038
S1132580DA80EB80FC80A0910E15B881BA1759F05F
S11325904C155D056E057F0530F0108211821282A4
S11325A0138281E01BC04C195D096E097F09401735
S11325B051076207730758F4041B150B260B370BDE
S11325C00083118322833383AADF80E007C0108253
S11325D011821282138281E001C080E00F900FBE4D
S11325E0DF91CF911F910F91FF90EF90DF90CF90EB
S11325F0089581E080930F1508958091C5159091F9
S1132600C615089580911415882331F0809106151C
S1132610882321F080E0089581E0089582E0089500
S11326200F931F93CF93DF93FC01892B09F479C097
S1132630828DA091C515B091C6155A969C918917A3
S113264008F063C04685578560897189772394F0C3
S1132650A091C515B091C6155A969C914AE050E0D8
S113266060E070E0491B5109610971094687578789
S1132670608B718B2BE0829FC0011124895A9A4E82
S11326802485358528173907B9F5EF018F010E5FC9
S11326901F4FC8010E940B04E091C515F091C615A7
S11326A0E28DEA8F809115158E1710F4E0931515BD
S11326B08BE08E9FF0011124E95AFA4E0180F281D9
S11326C0E02DFF83EE832681378139872887A68111
S11326D0B78115961C930E93149717830683EA8D7E
S11326E08E9FF0011124E95AFA4EFD87EC87808110
S11326F08F5F808381E016C0A091C515B091C61587
S11327005A968C91828F81E00DC0A091C515B0912D
S1132710C61581E025A55A969C91291718F080E0EA
S113272001C080E0DF91CF911F910F9108950F9325
S11327301F93CF93DF93FC01892B09F449C086A52D
S1132740815086A7228D95A5291709F443C08111CC
S113275043C0EF018F010E5F1F4FC8010E940B049D
S1132760EDA5EA8F8AE090E0A0E0B0E08E1B91092D
S1132770A109B1098E879F87A88BB98B8091151504
S11327808E1710F4E09315158BE08E9FF001112441
S1132790E95AFA4E0180F281E02DFF83EE8326810F
S11327A0378139872887A681B78115961C930E93A4
S11327B0149717830683EA8D8E9FF0011124E95A3A
S11327C0FA4EFD87EC8780818F5F808381E005C0AE
S11327D080E003C080E001C080E0DF91CF911F91D1
S11327E00F9108950F931F93CF93DF93FC01892BCF
S11327F009F45AC085A5861708F4862F928D981778
S113280009F452C026A5213009F04EC0828F4685B6
S1132810578560897189772364F04AE050E060E06D
S113282070E0481B51096109710946875787608B1D
S1132830718B2BE0929FC0011124895A9A4E2485F2
S113284035852817390781F5EF018F010E5F1F4F7A
S1132850C8010E940B04EA8D809115158E1710F49F
S1132860E09315158BE08E9FF0011124E95AFA4E7E
S11328700180F281E02DFF83EE8326813781398741
S11328802887A681B78115961C930E9314971783F6
S11328900683EA8D8E9FF0011124E95AFA4EFD87D2
S11328A0EC8780818F5F8083DF91CF911F910F919F
S11328B008958091C5159091C615892B39F0E09142
S11328C0C515F091C61586A58F5F86A78091C5159D
S11328D09091C61508954F925F926F927F92AF9236
S11328E0BF92CF92DF92EF92FF920F931F93CF93F9
S11328F0DF93280139010FB6F8940F92E091C515C2
S1132900F091C615C82FD0E0EC0FFD1F83A98230CB
S113291079F1E091C515F091C615CE01880F991F84
S1132920880F991FE80FF91F87A590A9A1A9B2A93B
S11329304095509560957095482359236A237B23CD
S113294047A750AB61AB72ABE091C515F091C615CA
S1132950EC0FFD1F81E083ABA114B104C104D104C9
S113296039F041E0C601B5010E943E0C0E94850485
S11329700F900FBE0FB6F8940F92E114F104A1F07A
S1132980E091C515F091C615CE01880F991F880FE7
S1132990991FE80FF91F87A590A9A1A9B2A9F7016A
S11329A080839183A283B383E091C515F091C6150A
S11329B0EC0FFD1F83A98230E9F4E091C515F09175
S11329C0C615CE01880F991F880F991FE80FF91FAC
S11329D087A590A9A1A9B2A9409450946094709439
S11329E0482259226A227B2247A650AA61AA72AAC7
S11329F081E001C080E02091C5153091C615C20F59
S1132A00D31F1BAA0F900FBEDF91CF911F910F917F
S1132A10FF90EF90DF90CF90BF90AF907F906F903A
S1132A205F904F9008958F929F92AF92BF92EF92D2
S1132A30FF920F93CF93DF93DC010FB6F8940F92BC
S1132A40E114F10479F0FC0184E0689FE00DF11DCC
S1132A50112487A490A8A1A8B2A8F701808291822A
S1132A60A282B38270E0FD01E60FF71F83A992E012
S1132A7093AB0230F9F018F4013031F049C003305F
S1132A8069F10430B9F144C0660F771F660F771FF0
S1132A90FD01E60FF71F87A490A8A1A8B2A8BA0168
S1132AA0A901482959296A297B2947A750AB61AB59
S1132AB072AB2EC0660F771F660F771FFD01E60FFE
S1132AC0F71F47A550A961A972A94F5F5F4F6F4FC8
S1132AD07F4F47A750AB61AB72AB1AC0660F771F2D
S1132AE0660F771FFD01E60FF71F27A730AB41AB39
S1132AF052AB0EC0823009F479C0660F771F660F9F
S1132B00771FFD01E60FF71F27A730AB41AB52AB90
S1132B10813009F06DC01C96ED91FC911D971696BD
S1132B20CD91DC91179718968D919C9119979F835D
S1132B308E831896CD91DC91199716968D919C9160
S1132B4017979D838C839D012E5F3F4F81819281D6
S1132B508217930731F418968D919C91199792835B
S1132B6081831D961C921E921C97808181508083C4
S1132B705A96EC915A97809115158E1710F4E0939C
S1132B8015158BE08E9FF0011124E95AFA4E01804D
S1132B90F281E02D1796FC93EE93169746815781A8
S1132BA019965C934E931897C681D7813D832C83E5
S1132BB0378326835A96EC915A978E9FF0011124FD
S1132BC0E95AFA4E1D96FC93EE931C9780818F5F11
S1132BD08083E091C515F091C6155A969C91828D1B
S1132BE0891740F40E94850481E005C080E003C099
S1132BF081E001C081E00F900FBEDF91CF910F9172
S1132C00FF90EF90BF90AF909F908F9008958F9218
S1132C109F92AF92BF92CF92DF92EF92FF920F9367
S1132C20CF93DF93DC01E114F10479F0FC0184E03B
S1132C30689FE00DF11D112487A490A8A1A8B2A853
S1132C40F70180829182A282B38270E0FD01E60FD7
S1132C50F71F83A992E093AB0230F9F018F4013026
S1132C6031F049C0033069F10430B9F144C0660F52
S1132C70771F660F771FFD01E60FF71F87A490A843
S1132C80A1A8B2A8BA01A901482959296A297B290E
S1132C9047A750AB61AB72AB2EC0660F771F660FB0
S1132CA0771FFD01E60FF71F47A550A961A972A977
S1132CB04F5F5F4F6F4F7F4F47A750AB61AB72AB16
S1132CC01AC0660F771F660F771FFD01E60FF71F07
S1132CD027A730AB41AB52AB0EC0823009F4A4C07D
S1132CE0660F771F660F771FFD01E60FF71F27A7F3
S1132CF030AB41AB52AB813009F098C080910615DE
S1132D0081115FC01C96ED91FC911D971696CD9193
S1132D10DC91179718968D919C9119979F838E83B8
S1132D201896CD91DC91199716968D919C911797D1
S1132D309D838C839D012E5F3F4F818192818217F9
S1132D40930731F418968D919C91199792838183FE
S1132D501D961C921E921C978081815080835A96E6
S1132D60EC915A97809115158E1710F4E093151570
S1132D708BE08E9FF0011124E95AFA4E0180F28112
S1132D80E02D1796FC93EE9316974681578119967A
S1132D905C934E931897C681D7813D832C833783E8
S1132DA026835A96EC915A978E9FF0011124E95A82
S1132DB0FA4E1D96FC93EE931C9780818F5F80835F
S1132DC020C042E355E1FA01C181D2815396DC93DC
S1132DD0CE9352978E819F8155969C938E93549750
S1132DE02E813F81CD010E96F901958384839F83C3
S1132DF08E8359965C934E935897FA0180818F5F26
S1132E008083E091C515F091C6155A969C91828DE8
S1132E10891770F4C114D10419F081E0F60180839C
S1132E2081E080930F1505C080E003C081E001C0FC
S1132E3081E0DF91CF910F91FF90EF90DF90CF90E1
S1132E40BF90AF909F908F900895009721F4809148
S1132E50C5159091C6150FB6F8940F9270E0FC0159
S1132E60E60FF71F23A9223031F4FC01E60FF71F08
S1132E7013AA81E001C080E00F900FBE0895CF92A5
S1132E80DF92EF92FF920F931F93FC0142835383CF
S1132E90648375839387828704171507260737078A
S1132EA0C0F00C191D092E093F0986859785A08954
S1132EB0B189081719072A073B0700F5BF016E5FA0
S1132EC07F4F8091CF159091D0150E94CE0380E062
S1132ED018C00C151D052E053F0528F44C155D057D
S1132EE06E057F0568F4BF016E5F7F4F8091D11539
S1132EF09091D2150E94CE0380E003C081E001C00E
S1132F0081E01F910F91FF90EF90DF90CF90089593
S1132F100FB6F8940F928091CD159091CE15892B10
S1132F20E9F48EED95E10E94B90383ED95E10E94E9
S1132F30B9038EED95E19093D2158093D11583ED6D
S1132F4095E19093D0158093CF1540E067E08AE037
S1132F500E9461069093CE158093CD150F900FBEFD
S1132F600895EF92FF920F93D3DF8091CD15909146
S1132F70CE15892B91F00F2EFBECEF2EF5E1FF2EF1
S1132F80F02D03E020E030E040EC50E064E772E034
S1132F9083E091E00E94E00C01C080E00F91FF907B
S1132FA0EF9008958F929F92AF92BF92CF92DF924B
S1132FB0EF92FF920F931F93CF93DF93CDB7DEB7BA
S1132FC027970FB6F894DEBF0FBECDBFE091CD15A5
S1132FD0F091CE15309781F169832A833B834C832A
S1132FE05D839F838E836630F4F40CDB823069F456
S1132FF000E0A7019601BE016F5F7F4F8091CD1560
S11330009091CE150E94820618C000E020E030E0C6
S1133010A901BE016F5F7F4F8091CD159091CE15B0
S11330200E9482060AC020E0A801BE016F5F7F4FA4
S1133030CF010E94400701C080E027960FB6F894A4
S1133040DEBF0FBECDBFDF91CF911F910F91FF90D7
S1133050EF90DF90CF90BF90AF909F908F900895A6
S11330602F923F924F925F926F927F928F929F9294
S1133070AF92BF92CF92DF92EF92FF920F931F9382
S1133080CF93DF931C010E94580E2B013C018091C9
S1133090C7159091C815A091C915B091CA154816C5
S11330A059066A067B0608F053C03BC00780F085CA
S11330B0E02D80809180A280B380C085D1858E016F
S11330C00E5F1F4FC8010E940B04EC89FD89CE01DD
S11330D019958E8982FF25C08E859F85A889B98917
S11330E0880D991DAA1DBB1D88169906AA06BB0644
S11330F070F48A839B83AC83BD83DB87CA87B80162
S11331008091D1159091D2150E94CE030AC0C12C92
S1133110D12C760100E010E0A501940160E0CE011D
S113312041DFE091D115F091D21580818111BECF9C
S11331308091CF159091D0159093D2158093D1158D
S1133140F093D015E093CF1581E0F101808302C0A4
S1133150F10110824092C7155092C8156092C915AA
S11331607092CA15C301B201DF91CF911F910F91E3
S1133170FF90EF90DF90CF90BF90AF909F908F9093
S11331807F906F905F904F903F902F900895089597
S1133190279A2F9A08951F9A0895FADF2FEF80E750
S11331A092E0215080409040E1F700C00000F3DF3E
S11331B0F5CFEEDF2FEF87EA91E621508040904073
S11331C0E1F700C00000E7DFF5CFCF93DF93CDB781
S11331D0DEB76A970FB6F894DEBF0FBECDBF0E946C
S11331E0580E69837A838B839C8304E011E04EE359
S11331F059E460E070E0CE0101960E947C108CE7F7
S113320092E00E949C310E831D8339D429D56F83AB
S11332106AD426D568874DD423D5698760918317EE
S113322070918417809185179091861719D56A87B4
S1133230BE016B5F7F4F80E00E94A722D8CF4F92E0
S11332405F926F927F928F929F92AF92BF92CF9232
S1133250DF92EF92FF920F931F93CF93DF93CDB73B
S1133260DEB7A2970FB6F894DEBF0FBECDBF0E94A3
S1133270580E69837A838B839C830F2EF5E68F2EF9
S1133280F7E19F2EF02D4FE954E260E070E0CE01AB
S113329001960E947C100FEF1FEF980146E150E069
S11332A0BE016B5F7F4F80917117909172170E94DE
S11332B06C0B8E81873038F36A8570E080E090E093
S11332C0FBD45B016C01698570E080E090E0F4D48C
S11332D06B8F7C8F8D8F9E8F6C8570E080E090E08B
S11332E0EBD46F8F78A389A39AA36B8570E080E0F9
S11332F090E0E2D42B013C016D8570E080E090E029
S1133300DBD49F938F937F936F93688570E080E005
S113331090E0D2D49F938F937F936F936F8170E0EB
S113332080E090E0C9D49F938F937F936F93EB8C4D
S1133330FC8C0D8D1E8D2F8D38A149A15AA1C3017E
S1133340B201F3D30FB6F894DEBF0FBECDBF892B05
S113335039F1898590E0F401938382838A8590E032
S1133360918380838B8590E0978386838C8590E01E
S1133370958384838F8190E091878087888590E00E
S1133380938782876D8570E080E090E095D46093A8
S1133390831770938417809385179093861773CF40
S11333A0A2960FB6F894DEBF0FBECDBFDF91CF91CA
S11333B01F910F91FF90EF90DF90CF90BF90AF904F
S11333C09F908F907F906F905F904F900895AED5AF
S11333D02FEF83ED90E3215080409040E1F700C04F
S11333E00000A0D583E496E0F5C408959FD52FEF9F
S11333F083ED90E3215080409040E1F700C000004D
S113340091D580ED95E0E6C4089590D52FEF83ED36
S113341090E3215080409040E1F700C0000082D545
S11334208DE892E0D7C4089581D52FEF83ED90E322
S1133430215080409040E1F700C0000073D58FE830
S113344092E0C8C4089572D52FEF83ED90E3215024
S113345080409040E1F700C0000064D581E293E031
S1133460B9C4089563D52FEF83ED90E321508040D4
S11334709040E1F700C0000055D581E992E0AAC46C
S11334800895CF93DF9300D01F92CDB7DEB70E948B
S1133490580E69837A838B839C830F2EF3E9EF2E76
S11334A0F2E0FF2EF02D0F2EF5E6CF2EF7E1DF2E02
S11334B0F02D4EE359E460E070E0CE0101960E94E5
S11334C07C104CE050E060E070E0809163179091D4
S11334D064170E9414088130A1F5EBD24B015C0102
S11334E0F60164817581072E000C880B990BE6D3D5
S11334F09B01AC01C501B401AFD3882314F494DF5C
S113350013C0D7D24B015C01F60166817781072E87
S1133510000C880B990BD2D39B01AC01C501B401FB
S113352055D418160CF471DF00E020E030E0A90156
S113353060E070E080916317909164170E948206A6
S1133540B8CFFF92EF920E9489310F900F90B1CFC4
S1133550CF93DF9300D01F92CDB7DEB70E94580EF1
S113356069837A838B839C830F2EF3E9EF2EF2E039
S1133570FF2EF02D0F2EF5E6CF2EF7E1DF2EF02DE6
S11335804EE359E460E070E0CE0101960E947C10A5
S11335904CE050E060E070E0809163179091641714
S11335A00E9414088130A1F59ED24B015C01F60102
S11335B062817381072E000C880B990B7FD39B01CA
S11335C0AC01C501B40148D3882314F400DF13C04F
S11335D08AD24B015C01F60160817181072E000CD7
S11335E0880B990B6BD39B01AC01C501B401EED3DD
S11335F018160CF4FBDE00E020E030E0A90160E0E6
S113360070E080916317909164170E948206B8CF8E
S1133610FF92EF920E9489310F900F90B1CFCF9318
S1133620DF9300D01F92CDB7DEB70E94580E698396
S11336307A838B839C830F2EF3E9EF2EF2E0FF2E27
S1133640F02D0F2EF5E6CF2EF7E1DF2EF02D4EE311
S113365059E460E070E0CE0101960E947C104CE0D9
S113366050E060E070E080916317909164170E94CD
S113367014088130A1F503D24B015C01F601608589
S11336807185072E000C880B990B18D39B01AC0194
S1133690C501B401E1D2882314F4D5DE13C0EFD1FF
S11336A04B015C01F60162857385072E000C880BC3
S11336B0990B04D39B01AC01C501B40187D318163F
S11336C00CF4D0DE00E020E030E0A90160E070E01E
S11336D080916317909164170E948206B8CFFF927D
S11336E0EF920E9489310F900F90B1CFCF93DF9367
S11336F0CDB7DEB768970FB6F894DEBF0FBECDBF67
S113370081E087D662E070E080E090E00E94E610FD
S113371080E07FD666E970E080E090E00E94E610E9
S113372031D681E00E94302C82D60E9494249F934B
S11337308F938CE992E09F938F930E948931F5D700
S11337400E9494249F938F938FEA92E09F938F9388
S11337500E9489318E010B5F1F4FC8017AD60E94E7
S113376094241F930F939F938F9388EC92E09F93DD
S11337708F930E948931C80188D60E9494249F9314
S11337808F931F930F938CED92E09F938F930E94DE
S11337908931A80161EF72E082E193E00E94732411
S11337A00E9494249F938F931F930F9381EF92E031
S11337B09F938F9382E193E09F938F9383E293E0AF
S11337C09F938F930E94893193D60E9494249F9350
S11337D08F9389E593E09F938F930E9489310FB66D
S11337E0F894DEBF0FBECDBF81E07CD70E94942445
S11337F09F938F9388E693E09F938F930E948931E0
S113380084EF91E07AD70E9494249F938F9381E070
S11338108F9384EF8F9389E893E09F938F930E9413
S113382089310FB6F894DEBF0FBECDBF0AE010E0B9
S11338300F2EF9EAEF2EF3E0FF2EF02D80E05ED696
S1133840D82E0E9494249F938F931F930F93FF92DB
S1133850EF920E9489310F900F900F900F900F906C
S11338600F90F8E0DF16C9F180E00E94942C66E323
S113387071E080E090E00E94E61001501109F1F639
S113388025C00E948504FDCF48EA58E460E070E05A
S1133890CE0101960E947C10F80182829382A48258
S11338A0B582C682D78283E00E94A62CB80180E04C
S11338B04ED60E9494249F938F93FF92EF920E947E
S11338C089310F900F900F900F90DECF81E00E940E
S11338D0852C80E00E94532CD4CF81E00E94762C6A
S11338E0E9EEF5E186E0818382E080830E94580E50
S11338F069837A838B839C8309EE15E10F2EF0E3B1
S11339008F2EF02D0F2EF9E39F2EF02D6894AA240C
S1133910A1F80F2EF3EABF2EF02D6894CC24C2F840
S11339200F2EFAE1DF2EF02D0F2EF9ECEF2EF3E03F
S1133930FF2EF02DA9CFEF92FF920F93E12CF12CE3
S1133940082F20E030E048E851E06EED73E086E7B0
S11339509BE10E94E00C0F91FF90EF900895EF928D
S1133960FF920F938091751790917617892B89F4A4
S113397081E00E942507909376178093751700972E
S113398041F000E020E030E0A90160E070E00E9436
S11339908206E12CF12C03E020E030E040EC50E022
S11339A065EE73E085EE98E10E94E00C04E020E00F
S11339B030E040EC50E06EEE73E08FE199E10E945C
S11339C0E00C05E020E030E040EC50E06AEF73E00A
S11339D081E49AE10E94E00C06E020E030E040EC53
S11339E050E065E074E088EA9AE10E94E00C07E0A8
S11339F020E030E040EC50E060E174E08FE09BE1D7
S1133A000E94E00C0F91FF90EF90089534D383E06F
S1133A100C947025089581B1816881B90E9469026E
S1133A2080E00E949229F2DF9ADF85E00E94E22B77
S1133A3041E060E070E08CE290E00E94E80990933D
S1133A40721780937117BC0181E0A3D483E073CF14
S1133A500895E1DF8CE194E00E949C310E941A0EEB
S1133A60FFCF24D31F928F938EE294E09F938F9382
S1133A700E9489310F900F900F900F900895F1DFFD
S1133A802FEF8DEE92E0215080409040E1F700C08E
S1133A90000021D309C02FEF8DEE92E02150804029
S1133AA09040E1F700C00000FED28823A1F338C3A0
S1133AB00895D7DF2FEF8DEE92E0215080409040A3
S1133AC0E1F700C0000007D309C02FEF8DEE92E0AC
S1133AD0215080409040E1F700C00000E4D28823E8
S1133AE0A1F30AC30895CF93DF931F921F92CDB71A
S1133AF0DEB70E9495251F928F938AE494E09F93EA
S1133B008F930E948931CE0101960E94C425698158
S1133B107A8180E090E0D0D00F900F900F900F90BA
S1133B200F900F90DF91CF9108954F925F926F9213
S1133B307F92AF92BF92CF92DF92EF92FF920F9358
S1133B401F93CF93DF93CDB7DEB728970FB6F894C2
S1133B50DEBF0FBECDBF2B013C0129833A834B83CB
S1133B605C83ED82FE820F8318872AA13BA14CA1BE
S1133B705DA160918317709184178091851790914E
S1133B8086176AD0882309F441C020E030E0A901F7
S1133B90C301B20161D088230CF43BC020E030E0C3
S1133BA04EEB52E469817A818B819C810FD1181686
S1133BB09CF120E030E0A901C801B7014DD0882371
S1133BC074F120E030E44CE955E4C601B501FED0BF
S1133BD0181644F120E030E040E252EC6A8D7B8D0F
S1133BE08C8D9D8D39D0882304F111E020E030E0E4
S1133BF048E452E46E8D7F8D88A199A1E7D0181610
S1133C000CF010E081E0812790E011C080E090E0AA
S1133C100EC080E090E00BC080E090E008C080E03F
S1133C2090E005C080E090E002C080E090E028963B
S1133C300FB6F894DEBF0FBECDBFDF91CF911F91B9
S1133C400F91FF90EF90DF90CF90BF90AF907F9057
S1133C506F905F904F9008956CD008F481E00895C0
S1133C6094D088F09F5790F0B92F9927B751A0F0BE
S1133C70D1F0660F771F881F991F1AF0BA95C9F7FC
S1133C8012C0B13081F09BD0B1E0089598C0672F85
S1133C90782F8827B85F39F0B93FCCF386957795AC
S1133CA06795B395D9F73EF4909580957095619595
S1133CB07F4F8F4F9F4F0895E89409C097FB3EF4C0
S1133CC090958095709561957F4F8F4F9F4F992365
S1133CD0A9F0F92F96E9BB279395F69587957795E3
S1133CE06795B795F111F8CFFAF4BB0F11F460FFA3
S1133CF01BC06F5F7F4F8F4F9F4F16C0882311F0FB
S1133D0096E911C0772321F09EE8872F762F05C00E
S1133D10662371F096E8862F70E060E02AF09A95A9
S1133D20660F771F881FDAF7880F9695879597F99E
S1133D300895990F0008550FAA0BE0E8FEEF161638
S1133D401706E807F907C0F012161306E407F5078B
S1133D5098F0621B730B840B950B39F40A2661F0FF
S1133D60232B242B252B21F408950A2609F4A140A2
S1133D70A6958FEF811D811D089557FD9058440F1E
S1133D80551F59F05F3F71F04795880F97FB991FB6
S1133D9061F09F3F79F08795089512161306140673
S1133DA0551FF2CF4695F1DF08C016161706180600
S1133DB0991FF1CF86957105610508940895E894DB
S1133DC0BB2766277727CB0197F90895B2DF08F45C
S1133DD08FEF0895CF93DF93EC01FC010190002055
S1133DE0E9F73197E81BF90BE0930316E13208F485
S1133DF07DC018A20E947F31809103168530E0F4C3
S1133E0044E050E0481B51091416150674F480E090
S1133E1090E020E02F5FFC01EC5FF94E1082822FCE
S1133E2090E084179507B4F301C020E010920016C7
S1133E3091E0920F20E02EC0E4E0F6E110821182BE
S1133E40128223E0F5CFFE01E40FF51FA08130EDCF
S1133E503A0F3A3050F4E82FF0E0EC5FF94EB0E05E
S1133E60AB5CBB4F8C91808313C03FEB3A0F363071
S1133E7050F4E82FF0E0EC5FF94EB0E0A25DBB4FE8
S1133E808C91808305C0E82FF0E0EC5FF94E10823E
S1133E902F5F9F5F8FEF890F422F50E0FE0101904B
S1133EA00020E9F73197EC1BFD0B4E175F0758F222
S1133EB020910316253010F1E82FF0E0EC5FF94E65
S1133EC01082E92FF0E0EC5FF94E1082E1E0E90F97
S1133ED0F0E0EC5FF94E10829E5F90930016109212
S1133EE0FF15109202161092011608C00E947F312D
S1133EF080910316853008F483CF9ECFEAE2F6E181
S1133F00A4E0B6E18C91808311968C911197818302
S1133F1012968C911297828313968C918383DF91EE
S1133F20CF91089585B5856085BD089585B5887F51
S1133F3085BD81B38F6081BB08951F920F920FB628
S1133F400F9211240BB60F922F933F934F935F93CD
S1133F506F937F938F939F93AF93BF93EF93FF934D
S1133F6080910016882369F1209101163091021680
S1133F70253F91E0390738F42F5F3F4F3093021605
S1133F80209301161EC01092021610920116E091A1
S1133F90FF152E2F30E090E004972817390714F40A
S1133FA0EF5F01C0E0E0E093FF15F0E0EC5FF94E55
S1133FB0AAE2B6E12EE236E181918D93A217B3070E
S1133FC0D9F780912E1690E001968370907899230A
S1133FD024F401978C6F9F6F019680932E16992776
S1133FE0FC01E65DF94E6081609580912F169091F9
S1133FF030160E94F429FF91EF91BF91AF919F91E8
S11340008F917F916F915F914F913F912F910F907D
S11340100BBE0F900FBE0F901F9018956530F1F4F2
S1134020FA0180818F7390E0982F88272181822B59
S113403090930A02809309028281F0E48F9FC00169
S11340401124FA01238126952695822B9093080248
S11340508093070281E0809331160895643051F013
S113406080E090E4909308028093070290930A0200
S11340708093090208950F931F930EE010E220E04D
S113408034E244EF50E060E087E20E94C82C909351
S113409033168093321621E0892B09F020E0822F19
S11340A01F910F91089580913116089580913216D1
S11340B090913316009759F040E060E070E00E9460
S11340C0192D843031F41092311680E0089582E085
S11340D0089583E0089580913216909133160097E5
S11340E039F064E00E94652D853021F083E0089565
S11340F082E0089580E008956091090270910A02B7
S113410080E090E0D9DD20E030E048EC52E40E9409
S11341106B2F20E038EF4FE756E40C94D82E089527
S1134120609107027091080280E090E0C5DD20E014
S113413030E045E253E40E946B2F20E038EF4FE774
S113414056E40E94D82E20E030E040E252E40C9481
S1134150712E08950F931F93CF93DF931F921F9295
S1134160CDB7DEB78C0119822DC0E0916B16EC320D
S113417050F481E08E0F80936B16F0E0E356F94E15
S11341808A81808302C010926B168A818A30D1F4AE
S113419040916B1650E0FA01E556F94E10824150F9
S11341A051099E012F5F3F4F6DE976E180916E16B4
S11341B090916F160E94280B898181110E948504B9
S11341C010926B16BE016E5F7F4FC80115D688230F
S11341D061F20F900F90DF91CF911F910F9108958D
S11341E00F931F93CF93DF938C01EB0180916E1695
S11341F090916F160E941D0AB80184E396E10E9413
S11342006031209779F0E4E3F6E101900020E9F7CA
S1134210319780E290E091838083BE0184E396E14C
S11342200E945531E4E3F6E1DF010D900020E9F747
S113423011978DE09AE011969C938E9312961C929E
S113424001900020E9F73197E453F641AE2F84E35F
S113425096E1AC016A2F809170169091711677D512
S1134260811111C008E215E020E030E04DE250E099
S113427067EF76E180916E1690916F160E946C0B39
S113428087EF96E102C080E090E0DF91CF911F912B
S11342900F9108952F923F924F925F926F927F9267
S11342A08F929F92AF92BF92CF92DF92EF92FF9242
S11342B00F931F93CF93DF935C01FC0101900020C7
S11342C0E9F731976F01C81AD90A5C2C0F2EFEE06A
S11342D08F2EF7E09F2EF02DE12CF12C4C2C370182
S11342E0F40101811281E80109900020E9F7219786
S11342F0C01BD10B3C2EF9E0CF16D10458F0F401C9
S11343002080FEE02F1206C0B801C5010E943031A2
S1134310892B09F5442D351408F44C2F50E0B801CD
S1134320C5010E946731892B49F4F301EE0FFF1F89
S1134330E60DF71DE25FF84F20800DC08FEFE81AFD
S1134340F80AE3E08E0E911CF1E1EF16F10439F660
S11343506894222424F8822DDF91CF911F910F912C
S1134360FF90EF90DF90CF90BF90AF909F908F9091
S11343707F906F905F904F903F902F90089530DF23
S113438089CF089580916E1690916F160C941D0A32
S113439008958F929F92AF92CF92EF920F931F93B3
S11343A0CF93C82F8B0141E060E070E088EC90E08F
S11343B00E94E80990936F1680936E1610936D1601
S11343C000936C160F2EFAEA8F2EF0E29F2EF02D3A
S11343D06894AA24A6F86894CC24C6F8E12C00E0DA
S11343E023E040E051EE60E070E08C2FDED3909348
S11343F0711680937016E7E0F1E08081806180831C
S1134400CF911F910F91EF90CF90AF909F908F908D
S11344100895882331F0E8E0F1E080818F7E808385
S11344200895E8E0F1E0808180618083089560E090
S113443070E084E994E0D4DEE7EFF6E10190002037
S1134440E9F73197E75FF64181E0759708F080E07E
S11344500895CF93DF93EC0160E070E085EA94E087
S1134460BFDEE7EFF6E101900020E9F7E850F741FD
S113447039F467EF76E1CE010E94603180E002C03A
S1134480188281E0DF91CF910895FC010190002012
S1134490E9F79F01215131092817390729F4BC0193
S11344A083ED94E06CCF089589E00895FC010190B8
S11344B00020E9F79F01215131092817390729F410
S11344C0BC0182EE94E05BCF089589E00895FC017D
S11344D001900020E9F79F0121523109281739077B
S11344E029F4BC0181EF94E04ACF089589E008954E
S11344F060E070E080E395E042CF08950F931F934E
S1134500E82FF0E0EE0FFF1FE65FF84F6081718146
S113451089E395E034DF811114C008E215E020E05E
S113452030E04DE250E067EF76E180916E169091B5
S11345306F160E946C0B882321F087EF96E1AADEA8
S113454003C087EF96E1A6DE1F910F9108950F93A4
S11345501F93CF93DF931F92CDB7DEB7DB01119684
S11345609C911197953108F0B4C0992381F160E0D2
S113457070E0272F30E0462F50E0FD01E40FF51FD7
S1134580928192959F709A3010F0995C01C0905D71
S1134590F901E857F94E90832F5F3F4FFD01E40F77
S11345A0F51F92819F70492F50E04A30510514F055
S11345B0995C01C0905DF901E857F94E90837E5FE4
S11345C06F5F11969C911197691798F201C070E082
S11345D0E72FF0E0E857F94E10824C91811103C0A7
S11345E082E495E002C084E495E028E836E13F9354
S11345F02F931F924F939F938F9388E495E09F93FB
S11346008F938AEC96E19F938F930E94CC3160E064
S113461070E08AEC96E1B3DE0FB6F894DEBF0FBE0D
S1134620CDBF811159C008E215E020E030E04DE231
S113463050E067EF76E180916E1690916F160E94BC
S11346406C0B882309F447C087EF96E123DE8E3094
S113465009F042C087E0898380916C1690916D16B1
S1134660892BA9F1BE016F5F7F4F87EF96E168D177
S113467080937216E981F0E0E950F94EDF010D9064
S11346800020E9F71197AE1BBF0BAA2391F0BB27BB
S1134690CD0101979C0112F42F5F3F4F359527956B
S11346A020937316AF014F5F5F4F64E184E796E197
S11346B073D101E010E020E030E046E150E062E731
S11346C076E180916C1690916D160E94690A8EE0D5
S11346D003C084E101C080E00F90DF91CF911F916E
S11346E00F910895813019F068E575E002C061E327
S11346F076E08CE595E043CE08959F938F938DE803
S113470095E09F938F938AEC96E19F938F930E94F9
S1134710CC3160E070E08AEC96E131DE0F900F90CE
S11347200F900F900F900F9008952F923F924F92F9
S11347305F926F927F928F929F92AF92BF92CF922D
S1134740DF92EF92FF920F931F93CF93DF93CDB736
S1134750DEB7A0970FB6F894DEBF0FBECDBF6AEBED
S113476075E086EC95E03CDD95DD8111A3C080E227
S1134770E2E2F2E0DE01119601900D928A95E1F7F2
S11347809E012F5F3F4F6901E12CF12C0F2EF2EDBA
S1134790AF2EF5E0BF2EF02D0AEC16E10F2EFBEE46
S11347A04F2EF5E05F2EF02D0F2EF2E08F2EF6E067
S11347B09F2EF02D0F2EFCE16F2EF6E07F2EF02DB4
S11347C03E2C2F2CFF92EF92BF92AF921F930F9328
S11347D00E94CC3160E070E0C80102DD5BDD0F9027
S11347E00F900F900F900F900F90811163C032E0E3
S11347F03E15E8F4F60183818F9382818F93818142
S11348008F9380818F93FF92EF925F924F921F93C9
S11348100F930E94CC3160E070E0C801E1DC3ADD26
S11348200FB6F894DEBF0FBECDBF811143C02F92E7
S11348303F929F928F921F930F930E94CC3160E01E
S113484070E0C801CDDC26DD0F900F900F900F9023
S11348500F900F9081112EC02F923F927F926F92F2
S11348601F930F930E94CC3160E070E0C801B8DC64
S113487011DD0F900F900F900F900F900F908111FA
S113488019C03FEFE31AF30A84E0C80ED11C98E084
S1134890E916F10409F094CF60E070E084E396E057
S11348A09FDCF8DC811106C060E070E085E496E0EE
S11348B097DCF0DCA0960FB6F894DEBF0FBECDBF38
S11348C0DF91CF911F910F91FF90EF90DF90CF90E8
S11348D0BF90AF909F908F907F906F905F904F901C
S11348E03F902F900895EF92FF920F931F93CF93D1
S11348F0DF93EC018B017A0181E0F4DE81110DC0BC
S1134900CE01D4DD811109C0C801E1DD811105C0EA
S1134910C701BBDD811101C0EBDDDF91CF911F9198
S11349200F91FF90EF90089590E0FC01EE0FFF1FB0
S11349308E0F9F1FFC01E25FF84F818192810895E1
S1134940DC01009729F1FB012081FC01019000208A
S1134950E9F73197E81BF90B822F90E0E817F90784
S1134960C8F080E008C0880F382F330F330F830F4F
S11349708053890F2F5FFD01E20FF11D908130ED0F
S1134980390F3A3010F49111EECFFB0120830895D2
S113499080E0089580E008950F931F93CF93DF93F1
S11349A0DC01EA012097E1F1FA0101900020E9F726
S11349B03197E41BF50B329710F532C08D01040FCB
S11349C0151F30E0AE01420F531FFA01908191345C
S11349D028F09753592F5295507F03C0592F529561
S11349E0507F2C0F3D1FF9019181913410F09753A2
S11349F001C09053950FF80190838F5F01C080E050
S1134A00282F220F482F50E0FE0101900020E9F7E3
S1134A103197EC1BFD0B4E175F0710F48613CECFB6
S1134A20DF91CF911F910F91089580912717860FE1
S1134A308093271790912A17913079F028F09230BB
S1134A40A9F0933019F108956F3F09F048C010920E
S1134A50271781E080932A170895663809F03FC02C
S1134A601092261782E080932A170895E091261762
S1134A7081E08E0F80932617F0E0EC5DF84E6083A2
S1134A80823069F583E080932A1708959091261760
S1134A9021E0290F20932617963009F581110EC0C5
S1134AA0E4E2F7E1808190E0982F88272181820F4A
S1134AB0911D90932C1780932B1704C010922C17E0
S1134AC010922B1710922A17E0912817F0912917AA
S1134AD0309729F080912B1790912C1719950895F0
S1134AE08F929F92AF92CF92EF920F930F2EF5E198
S1134AF08F2EF5E29F2EF02D6894AA24A4F86894D2
S1134B00CC24C4F8E12C00E023E040E855E260E066
S1134B1070E04BD090932E1780932D170F91EF9048
S1134B20CF90AF909F908F900895CF93DF93CDB7A0
S1134B30DEB729970FB6F894DEBF0FBECDBF89E06C
S1134B40E2E4F2E09E012F5F3F4FD90101900D9204
S1134B508A95E1F710922C1710922B1780912D173C
S1134B6090912E17009731F0422F532F69E0EFD028
S1134B7080E001C082E029960FB6F894DEBF0FBE34
S1134B80CDBFDF91CF91089520912B1730912C1731
S1134B902115310529F4FC011182108281E0089568
S1134BA0FC013183208380E008952F923F924F923D
S1134BB05F926F927F928F929F92AF92CF92EF9279
S1134BC0FF920F931F93CF93DF93CDB7DEB7F82EE9
S1134BD02A013B0188E090E00E94FB2F8C018F2D7D
S1134BE090E0FC01EE0FFF1FE15DF84E118300839E
S1134BF00115110509F46EC0880F991FFC01E55FCA
S1134C00FD4F80819181D8018D939C938C2D90E0F0
S1134C10880F991F880F991F0E94FB2F1C0186E0A3
S1134C2090E00E94FB2F7C014C2DB1010E94552E77
S1134C30F801F582E4828A2D90E0880F991F880F8D
S1134C40991F0E94FB2F1C0186E090E00E94FB2F1D
S1134C507C014A2DB1010E94552ED8011396FC9275
S1134C60EE92129717969C928E921697FFB6F8942E
S1134C70ED91FC91119736978081826080838D90AD
S1134C809C90C301B20118D820E030E040E051E428
S1134C900E946B2F9B01AC0160E074E284E79BE40B
S1134CA00E94D82E20E030E040E85FE30E94712E9D
S1134CB00E94301EF40132976083D801ED91FC917B
S1134CC01197359788E98083ED91FC91349786E0BC
S1134CD08083FFBEC801DF91CF911F910F91FF9098
S1134CE0EF90CF90AF909F908F907F906F905F9058
S1134CF04F903F902F900895CF93DF93DC01892B41
S1134D0001F11296ED91FC91139793818281258193
S1134D10981B922384819817B1F0838126952823C8
S1134D20C081D181C20FD11D68838F5F9581892392
S1134D308383ED91FC91359780818062808380E04C
S1134D4003C081E001C082E0DF91CF910895EF922A
S1134D50FF920F931F93CF93DF937C01009709F485
S1134D6041C0DC011296ED91FC91139793818281ED
S1134D70981B858198238481891B8617A8F1662353
S1134D8041F1842F952FDC016150462F50E04F5F95
S1134D905F4F480F591FE701EA81FB8193818281AC
S1134DA02581981B92238481981779F08C919381A3
S1134DB026952923608171818B01020F111DE80161
S1134DC088839F5F8581982393831196A417B507E1
S1134DD011F7D701ED91FC91359780818062808332
S1134DE080E003C081E001C082E0DF91CF911F9198
S1134DF00F91FF90EF9008950097D1F0DC01149685
S1134E00ED91FC91159793818281981799F0928185
S1134E10858186958923A081B181A80FB11D8C91CC
S1134E20DB018C939F5F85819823928380E00895B2
S1134E3081E0089583E008951F920F920FB60F92B8
S1134E4011240BB60F922F933F934F935F936F935D
S1134E507F938F939F93AF93BF93CF93DF93EF93FE
S1134E60FF93A0912F17B0913017109711F1609113
S1134E70C6001496ED91FC9115979381828125814A
S1134E80981B92238481981761F0838126952823A7
S1134E90C081D181C20FD11D68838F5F9581892321
S1134EA083831696ED91FC911797309711F0CD01FD
S1134EB01995FF91EF91DF91CF91BF91AF919F91A0
S1134EC08F917F916F915F914F913F912F910F90AF
S1134ED00BBE0F900FBE0F901F9018951F920F924C
S1134EE00FB60F9211240BB60F922F938F939F93AB
S1134EF0AF93BF93EF93FF93E0912F17F091301787
S1134F003097B9F00280F381E02D93818281981764
S1134F10B1F092818581282F26952923A081B18122
S1134F20A20FB11D2C919F5F892382832093C60019
S1134F300BC0E1ECF0E080818F7D808305C0E1EC63
S1134F40F0E080818F7D8083FF91EF91BF91AF91DD
S1134F509F918F912F910F900BBE0F900FBE0F90CA
S1134F601F9018951F920F920FB60F9211240BB633
S1134F700F922F933F934F935F936F937F938F93EE
S1134F809F93AF93BF93CF93DF93EF93FF93A0913E
S1134F903117B0913217109711F16091CE00149629
S1134FA0ED91FC911597938182812581981B922321
S1134FB08481981761F0838126952823C081D1814B
S1134FC0C20FD11D68838F5F9581892383831696D1
S1134FD0ED91FC911797309711F0CD011995FF9140
S1134FE0EF91DF91CF91BF91AF919F918F917F917D
S1134FF06F915F914F913F912F910F900BBE0F9046
S11350000FBE0F901F9018951F920F920FB60F921C
S113501011240BB60F922F938F939F93AF93BF934B
S1135020EF93FF93E0913117F09132173097B9F075
S11350300280F381E02D938182819817B1F09281EF
S11350408581282F26952923A081B181A20FB11D26
S11350502C919F5F892382832093CE000BC0E9ECBF
S1135060F0E080818F7D808305C0E9ECF0E08081F1
S11350708F7D8083FF91EF91BF91AF919F918F912D
S11350802F910F900BBE0F900FBE0F901F9018958D
S11350901F920F920FB60F9211240BB60F922F93FB
S11350A03F934F935F936F937F938F939F93AF93AC
S11350B0BF93CF93DF93EF93FF93A0913317B091F6
S11350C03417109711F16091D6001496ED91FC916C
S11350D01597938182812581981B92238481981747
S11350E061F0838126952823C081D181C20FD11D0F
S11350F068838F5F9581892383831696ED91FC9154
S11351001797309711F0CD011995FF91EF91DF9129
S1135110CF91BF91AF919F918F917F916F915F914B
S11351204F913F912F910F900BBE0F900FBE0F9098
S11351301F9018951F920F920FB60F9211240BB661
S11351400F922F938F939F93AF93BF93EF93FF93FC
S1135150E0913317F09134173097B9F00280F3815E
S1135160E02D938182819817B1F092818581282F57
S113517026952923A081B181A20FB11D2C919F5F97
S1135180892382832093D6000BC0E1EDF0E0808177
S11351908F7D808305C0E1EDF0E080818F7D808389
S11351A0FF91EF91BF91AF919F918F912F910F90AC
S11351B00BBE0F900FBE0F901F9018951F920F9269
S11351C00FB60F9211240BB60F922F933F934F9368
S11351D05F936F937F938F939F93AF93BF93CF937B
S11351E0DF93EF93FF93A0913517B0913617109783
S11351F011F1609136011496ED91FC91159793810C
S113520082812581981B92238481981761F0838180
S113521026952823C081D181C20FD11D68838F5F59
S11352209581892383831696ED91FC911797309786
S113523011F0CD011995FF91EF91DF91CF91BF91BD
S1135240AF919F918F917F916F915F914F913F911A
S11352502F910F900BBE0F900FBE0F901F901895BB
S11352601F920F920FB60F9211240BB60F922F9329
S11352708F939F93AF93BF93EF93FF93E091351771
S1135280F09136173097B9F00280F381E02D9381C5
S113529082819817B1F092818581282F2695292340
S11352A0A081B181A20FB11D2C919F5F89238283BC
S11352B0209336010BC0E1E3F1E080818F7D808390
S11352C005C0E1E3F1E080818F7D8083FF91EF9160
S11352D0BF91AF919F918F912F910F900BBE0F9023
S11352E00FBE0F901F901895CF93DF931F92CDB7E9
S11352F0DEB7BE016F5F7F4F8091371790913817EB
S11353007BDD8111F6CF898190E00F90DF91CF9101
S11353100895682F8091371790913817EDDC80E05D
S113532090E008958F929F92AF92CF92EF920F9355
S1135330812C912C6894AA24A7F86894CC24C7F8EB
S1135340E12C00E023E040E051EE60E070E02DDC71
S11353509093381780933717EBE8F7E183E192E0F5
S113536091838083938382830F91EF90CF90AF904A
S11353709F908F900895E0913917F0913A173097E4
S1135380F9F0A081B1811097D9F02381213069F41B
S11353904C9121E030E0028002C0220F331F0A94B6
S11353A0E2F7209524232C930BC04C9121E030E0AC
S11353B0028002C0220F331F0A94E2F7242B2C939D
S11353C090933A1780933917009769F010923B171E
S11353D02CB52F732CBDFC0124812CBD85818DBD82
S11353E08CB580648CBD08951F93CF93DF93009791
S11353F009F46AC0162FEC018091391790913A177D
S1135400C817D90711F0CE01B6DF8FB72FB7F894BC
S113541080913B17811131C081E080933B17A091AB
S11354203917B0913A17ED91FC9111973097F9F033
S113543013968C911397813069F4308181E090E068
S113544012960C9002C0880F991F0A94E2F7832BDE
S113545080830DC0308181E090E012960C9002C0F0
S1135460880F991F0A94E2F78095832380838CB573
S113547080688CBD1EBD80E025C0EE81FF81309721
S1135480E1F03481838142819581841B892338171B
S1135490B1F083814281841B8923381791F0838181
S11354A096959823A081B181A90FB11D1C938F5F9C
S11354B095818923838380E005C082E003C081E075
S11354C001C080E02FBF01C083E0DF91CF911F9125
S11354D008951F920F920FB60F9211240BB60F92DC
S11354E02F933F934F935F936F937F938F939F93E8
S11354F0AF93BF93CF93DF93EF93FF936EB5A091D8
S11355003917B0913A171896ED91FC911997309785
S1135510A1F0838122819581821B892324818217B2
S113552061F0838196959823C081D181C90FD11DE3
S113553068838F5F9581892383831696ED91FC910F
S11355401797309799F093818281981779F0928117
S11355508581282F26952923A081B181A20FB11D11
S11355602C919F5F892382832EBD2DC08CB58F77AC
S11355708CBD10923B17A0913917B0913A17ED9159
S1135580FC9111973097F9F013968C911397813011
S113559071F4208181E090E012960C9002C0880F93
S11355A0991F0A94E2F78095822380830CC020819E
S11355B081E090E012960C9002C0880F991F0A9423
S11355C0E2F7822B80838091391790913A17DC019E
S11355D01A96ED91FC911B97309709F01995FF915C
S11355E0EF91DF91CF91BF91AF919F918F917F9177
S11355F06F915F914F913F912F910F900BBE0F9040
S11356000FBE0F901F90189590E0FC01EE0FFF1F46
S1135610E80FF91FEE0FFF1FE45CF84E2381211100
S11356201FC09C01220F331FF901E80FF91FEE0F71
S1135630FF1FE45CF84EA081B1814C91F901E80FA1
S1135640F91FEE0FFF1FE45CF84E81E090E002804A
S113565002C0880F991F0A94E2F7842B8C93089553
S1135660FC01EE0FFF1FDF01A80FB91FAA0FBB1F1C
S1135670A45CB84E0D90BC91A02D2C91E80FF91F9D
S1135680EE0FFF1FE45CF84E81E090E0028002C060
S1135690880F991F0A94E2F7809582238C930895CA
S11356A090E0FC01EE0FFF1FE80FF91FEE0FFF1F44
S11356B0E45CF84E2381211120C09C01220F331F8A
S11356C0F901E80FF91FEE0FFF1FE45CF84EA0810B
S11356D0B1814C91F901E80FF91FEE0FFF1FE45C53
S11356E0F84E81E090E0028002C0880F991F0A946E
S11356F0E2F7809584238C930895FC01EE0FFF1F3D
S1135700DF01A80FB91FAA0FBB1FA45CB84E0D90F0
S1135710BC91A02D2C91E80FF91FEE0FFF1FE45C44
S1135720F84E81E090E0028002C0880F991F0A942D
S1135730E2F7822B8C930895CC24C394D12C6894E3
S1135740BB24B2F8CCE3D7E110E08C81813081F046
S113575018F1823061F5E881F9812081C6010A805F
S113576002C0880F991F0A94E2F7822780831FC022
S11357708D818F5F863010F48D8319C01D82E8817E
S1135780F9812081C6010A8002C0880F991F0A94FA
S1135790E2F7822780830BC00D81002329F0812F3B
S11357A07FDF01500D8303C0BC82812F2DDF1F5F7B
S11357B02696143051F66CE070E080E090E00E9490
S11357C0E610C0CFEF92FF920F931F93CF93DF9316
S11357D0082F80E487B9CCE3D7E10F2EF8E2EF2E4F
S11357E0F12CF02DF982E88286E08A831B8214E092
S11357F01C8380E009DF80E887B9FF82EE8287E0BE
S1135800888719861A8781E0FFDE80E283BB84E300
S113581090E09D878C8785E08E871F86188B82E0B9
S1135820F3DE80E18093010182E091E09B8B8A8B1F
S11358301C8B1D8A1E8B83E0E7DEE12CF12C20E01B
S113584030E040EC50E061E477E08CE99BE20E94B8
S1135850E00CDF91CF911F910F91FF90EF9008958D
S1135860CF93DF9390E0FC01EE0FFF1FDF01A80F41
S1135870B91FAA0FBB1FA45CB84ECD91DC91119740
S1135880488121E030E012960C90129702C0220F5A
S1135890331F0A94E2F724272883FD0181E08483DF
S11358A0DF91CF910895CF93DF9390E0FC01EE0F49
S11358B0FF1FDF01A80FB91FAA0FBB1FA45CB84EBE
S11358C0CD91DC911197488121E030E012960C9043
S11358D0129702C0220F331F0A94E2F72427288369
S11358E0FD0182E08483DF91CF910895282F30E079
S11358F0F901EE0FFF1FE20FF31FEE0FFF1FE45C31
S1135900F84E93E09483CCCE0895282F30E0F9012B
S1135910EE0FFF1FE20FF31FEE0FFF1FE45CF84EC4
S113592094E0948371CE089590E0FC01EE0FFF1F84
S1135930DF01A80FB91FAA0FBB1FA45CB84E26E055
S113594015962C931597FD011482089590E0FC019F
S1135950EE0FFF1FDF01A80FB91FAA0FBB1FA45C26
S1135960B84E15961C921597FD01148208958091E6
S1135970621781110CC08CE08093B8008FEF809384
S1135980BB0084E08093BC0081E08093621708959B
S1135990AF92BF92CF92DF92EF92FF920F931F9339
S11359A0CF93DF93A82EB62E69017A0184E090E0AC
S11359B022D3EC01892B61F1A88281E0B81212C0D4
S11359C0C701B60120EA36E841E050E0EAD2DA0144
S11359D0C9014097A109B109B695A79597958795EF
S11359E0898311C0C701B60120E83AE146E050E0DE
S11359F0D8D2DA01C9014097A109B109B695A79592
S1135A009795879589831B830A838C2F9D2F02C0CA
S1135A1080E090E0DF91CF911F910F91FF90EF9084
S1135A20DF90CF90BF90AF9008958091BC008170BB
S1135A300895FF920F931F93CF93DF930097D1F1B3
S1135A404A30D0F5F42E8B01EC01EFDF811136C022
S1135A508091551790915617C817D90741F087DFE1
S1135A6089818093B800D0935617C093551781E06D
S1135A708F0D809357178881880F80935817FF20C4
S1135A8089F0F801A9E5B7E14FEF4F0D642F70E0FD
S1135A90CB010196B801680F791F81918D93E617A8
S1135AA0F707D9F788EF8093210285EA8093BC0039
S1135AB084E005C086E003C087E001C082E0DF9196
S1135AC0CF911F910F91FF9008951F93CF93DF9370
S1135AD0009729F16B3028F5162FEC01A6DF811110
S1135AE022C08091551790915617C817D90741F0D5
S1135AF03EDF89818093B800D0935617C093551721
S1135B00109357178881880F81608093581788EF06
S1135B108093210285EA8093BC0085E005C086E07D
S1135B2003C087E001C082E0DF91CF911F91089507
S1135B301F920F920FB60F9211240BB60F922F9350
S1135B403F934F935F936F937F938F939F93AF9301
S1135B50BF93EF93FF93E091B9008E2F90E0FC0187
S1135B603897E135F10508F075C08827E458FF4FF0
S1135B708F4F39C210925417E091541780915717E0
S1135B80E81770F481E08E0F80935417F0E0E85A20
S1135B90F84E80818093BB0085E88093BC0072C07E
S1135BA084E98093BC008091551790915617DC01CD
S1135BB01296ED91FC911397309709F463C020E09D
S1135BC040E050E064E019955DC0E091541781E035
S1135BD08E0F809354178091BB00F0E0E85AF84E82
S1135BE080838091B900803411F41092541720916D
S1135BF0541730E08091571790E001972817390720
S1135C0024F485EC8093BC003DC085E88093BC00FF
S1135C1039C08091BB00E0915417F0E0E85AF84E87
S1135C20808384E98093BC00809155179091561726
S1135C30DC011296ED91FC911397309719F12091A4
S1135C40571748E557E165E019951CC085EA80932C
S1135C50BC0018C08091B9008093210284E0809335
S1135C60BC008091551790915617DC011296ED9166
S1135C70FC911397309731F020E040E050E06091C0
S1135C8021021995FF91EF91BF91AF919F918F914F
S1135C907F916F915F914F913F912F910F900BBE28
S1135CA00F900FBE0F901F901895FC01411101C079
S1135CB0C3D2842F90E09C01215031098223932385
S1135CC0892B09F0B9D2413808F0B6D21282138276
S1135CD04483440F415045837183608380E090E0A6
S1135CE008955058BB27AA270ED0E4C0D5D030F071
