S01300004669726D77617265305F312E7372656314
S113000046C2000065C2000063C2000061C2000075
S11300105FC200005DC200005BC2000059C2000064
S113002057C2000055C2000053C2000051C2000074
S113003032C500004DC200004BC2000049C200009E
S113004047C2000045C2000043C2000041C2000094
S11300503FC200003DC200003BC2000039C20000A4
S113006037C200000C9446200C94982031C2000042
S11300702FC200002DC200002BC2000029C20000C4
S113008027C2000025C2000023C2000021C20000D4
S11300900C94DC200C942E211BC200000C947925B6
S11300A017C2000015C2000013C2000011C20000F4
S11300B00FC200000DC200000BC2000009C2000004
S11300C007C2000005C2000003C200000C947221A4
S11300D00C94C421FDC100000C9408220C945A22F3
S11300E0F7C10000BE01BE01BE01F8010002160204
S11300F0BE01BE01F80100029B250B260B260B2630
S11301000B260B260B260B269B250B260B260B26D4
S11301100B260B260B260B269D250B260B260B26C2
S11301200B260B260B260B260B260B260B260B2643
S11301300B260B260B260B269D250B260B260B26A2
S11301400B260B260B260B260B260B260B260B2623
S11301500B260B260B260B2607260B260B260B2617
S11301600B260B260B260B26D2250B260B260B263D
S11301700B260B260B260B260B260B260B260B26F3
S11301800B260B260B260B26C6250B260B260B2629
S11301900B260B260B260B26EA2501E215E10F2E72
S11301A0F1E5EF2EF5E1FF2EF02D80912015882347
S11301B011F10FB6F8940F92D8011796ED91FC91B6
S11301C01897C085D185CE01029625D38091141548
S11301D081508093141580912015815080932015AF
S11301E00F900FBE8B8D9C8D8AD2CE0188D28091C8
S11301F020158111DECFF7018081823008F085D38C
S11302000E94F316D2CFCF93DF93CDB7DEB76097BA
S11302100FB6F894DEBF0FBECDBFCE0101969A870C
S11302208987812C912CA12CB12C69847A84E0914A
S1130230CB15F091CC158081882309F40EC1078079
S1130240F085E02D20803180428053800E947F0D14
S1130250CE0101960E945C166B877C878D879E87F2
S11302608981811164C08B859C85AD85BE8582158D
S11302709305A405B50508F444C00E94C30EE0919B
S1130280CB15F091CC150780F085E02DA085B185C4
S1130290B88BAF87CD010296BED2EF85F8898689E7
S11302A082FF21C04685578560897189420D531D9F
S11302B0641D751D720161010B851C852D853E85AC
S11302C0CF010E946B15882399F0C82CD92CEA2CF5
S11302D0FB2C00E010E0A201910160E08F85988979
S11302E00E94FE1505C08E7FAF85B88956968C9303
S11302F0AF85B8895496ED91FC915597CD01199528
S11303009EC020E0B201A1018B859C85AD85BE8590
S1130310481B590B6A0B7B0B8091C7159091C8152C
S113032080D60E94C30E81118AC0EFD288C00E9479
S1130330C30E85C0898188230CF481C04E805F8000
S1130340D2011C968D919C911D97892B19F0C201A5
S1130350029661D2CE0108960E945C168B019C0124
S1130360E9810E2E000CFF0BEA30F10508F067C09E
S11303708827EE58FF4F8F4F0C941128F20186897D
S11303808160868BCA80DB80EC80FD804685578542
S1130390608971894C0D5D1D6E1D7F1DC2010E9417
S11303A06B15882309F44BC0D2015496ED91FC914E
S11303B05597C2011995F201868982FF40C04A818E
S11303C05B816C817D8186859785A089B1899A013D
S11303D0AB01280F391F4A1F5B1FC82CD92CEA2CEC
S11303E0FB2C00E010E060E0C2010E94FE1527C073
S11303F0D20156968C9156978E7F56968C931FC039
S1130400F20186898160868B4A815B816C817D8162
S113041046875787608B718B400F511F621F731F74
S113042068017901C2010E946B1509C0F201868935
S113043081FD03C0C20163D102C08E7F868B282D4B
S1130440392D4A2D5B2D662D772D8091C7159091FE
S1130450C8154ED581116ECFEACE0E947F0DCE0114
S113046001960E945C166B877C878D879E878981A5
S113047081115DCFE091C915F091CA15808121E009
S1130480811120E0282C392C4A2C5B2C3BCF1124E1
S11304901FBECFEFD1E2DEBFCDBF00E00CBF17E03F
S11304A0A0E0B2E0EAE7F9E500E00BBF02C0079084
S11304B00D92A434B107D9F727E1A4E4B7E001C051
S11304C01D92A433B207E1F70E94B2170C94BB2C1F
S11304D097CD0895CF93DF93DC01E0E5F7E001C009
S11304E0F901208131812A173B07D0F3828193815E
S11304F0AF01480F591FA417B50749F412964D913F
S11305005C911397840F951F93838283DF01129666
S11305108D919C911397ED01C80FD91F2C173D079E
S1130520D9F420914E0730914F07C217D30781F0B9
S11305302A813B81820F931F13969C938E9312976B
S1130540C081D1818881998111969C938E9307C033
S11305501196DC93CE9303C011963C932E93AE1761
S1130560BF0711F0B183A083DF91CF910895CF929B
S1130570DF92EF92FF920F931F93CF93DF93EC01DF
S11305800E947F0D80914E0790914F07892B41F572
S1130590E0E5F7E0A4E5B7E0B183A083138212821B
S11305A0ECEFF4E1F0934F07E0934E0713821282CD
S11305B01182108288EA9DE013969C938E93129781
S11305C0ED93FC9390934B0780934A0790934D07C8
S11305D080934C0780E090E890934507809344070C
S11305E0E0904407F0904507C7018C239D23892B95
S11305F009F075C0209709F475C09E012C5F3F4F28
S1130600C217D30708F06EC02115310509F467C07D
S113061000914C0710914D070217130708F45FC0AF
S1130620C0915007D0915107E0E5F7E002C0FE0108
S1130630EC018A819B818217930720F48881998138
S11306400097A9F780914E0790914F07C817D907D3
S113065009F445C0C080D18084E0C80ED11C8881D3
S11306609981918380834A815B81421B530B49307A
S1130670510548F0CE01820F931FFC01538342833E
S11306803B832A8327DF8A819B81081B190B1093E4
S11306904D0700934C0720914A0730914B070217EE
S11306A0130720F410934B0700934A07E82AF92A0A
S11306B0FB82EA8219821882809148079091490747
S11306C0019690934907809348070E94C30EC11472
S11306D0D10459F40E94F916C12CD12C06C00E94F1
S11306E0C30EF8CF0E94C30EF5CFC601DF91CF91A0
S11306F01F910F91FF90EF90DF90CF900895CF93CB
S1130700DF93009799F1FC01349722813381409162
S1130710440750914507B90164237523672B31F1D0
S113072060817181672B11F5EF0140955095242369
S11307303523338322830E947F0D20914C0730910F
S11307404D078A819B81820F931F90934D0780935D
S11307504C07CE01BFDE8091460790914707019672
S113076090934707809346070E94C30EDF91CF9171
S11307700895FC010396928381834FEF5FEFBA01E2
S113078043835483658376839087878392878187A5
S113079010820895FC011386128608950F931F9307
S11307A0CF93DF93EB01088119812A813B810F3FAD
S11307B04FEF14072407340721F4FC01A185B28507
S11307C011C0DC01139601C0DF011496ED91FC9178
S11307D0159740815181628173810417150726079B
S11307E0370790F71496ED91FC911597FD83EC83F0
S11307F0D783C683BF83AE831596DC93CE931497B9
S11308009B878A87FC0120812F5F2083DF91CF9112
S11308101F910F910895CF93DF93FC01A285B385B7
S1130820C481D581868197819F838E83C681D78138
S1130830848195819D838C8311968D919C911297CF
S1130840E817F90731F48681978112969C938E9369
S11308501197138612868C9181508C938C91DF9121
S1130860CF910895FC016083319770833197108292
S113087031971082319720E8208331971082319785
S113088010823197108277974083319750838697EF
S11308900895A89590EC88E10FB6F894A8958093F4
S11308A060000FBE90936000A091BF15B091C01579
S11308B0CD91CDBFDD91DEBFFF91EF91DF91CF915F
S11308C0BF91AF919F918F917F916F915F914F9164
S11308D03F912F911F910F91FF90EF90DF90CF9058
S11308E0BF90AF909F908F907F906F905F904F904C
S11308F03F902F901F900F900CBE0F900BBE0F9047
S11309000FBE0F90089581E008950F920FB6F894EA
S11309100F920BB60F920CB60F921F9211242F92C6
S11309203F924F925F926F927F928F929F92AF927B
S1130930BF92CF92DF92EF92FF920F931F932F9368
S11309403F934F935F936F937F938F939F93AF9353
S1130950BF93CF93DF93EF93FF93A091BF15B09113
S1130960C0150DB60D920EB60D920E942C10A091DA
S1130970BF15B091C015CD91CDBFDD91DEBFFF9104
S1130980EF91DF91CF91BF91AF919F918F917F9123
S11309906F915F914F913F912F911F910F91FF9014
S11309A0EF90DF90CF90BF90AF909F908F907F900B
S11309B06F905F904F903F902F901F900F900CBEC0
S11309C00F900BBE0F900FBE0F9008950F920FB6AD
S11309D0F8940F920BB60F920CB60F921F9211243B
S11309E02F923F924F925F926F927F928F929F923B
S11309F0AF92BF92CF92DF92EF92FF920F931F9329
S1130A002F933F934F935F936F937F938F939F9312
S1130A10AF93BF93CF93DF93EF93FF93A091BF1551
S1130A20B091C0150DB60D920EB60D9213BE0E9474
S1130A30930D81110E942C10A091BF15B091C01587
S1130A40CD91CDBFDD91DEBFFF91EF91DF91CF91CD
S1130A50BF91AF919F918F917F916F915F914F91D2
S1130A603F912F911F910F91FF90EF90DF90CF90C6
S1130A70BF90AF909F908F907F906F905F904F90BA
S1130A803F902F901F900F900CBE0F900BBE0F90B5
S1130A900FBE0F9008959ADF18950FB6F8940F9231
S1130AA0FC01968D0F900FBE81E0911180E00895B6
S1130AB00F931F93CF93DF93EC01042F1E8D48A156
S1130AC041110CC088819981892B09F042C08C8125
S1130AD09D810E943D121D821C8242C0011117C0DB
S1130AE050E08A819B810E943E2928A18A819B81B2
S1130AF0820F911D9B838A832C813D8182179307EA
S1130B0050F1888199819B838A8380E029C050E0D9
S1130B108E819F810E943E2988A190E091958195C4
S1130B2091092E813F81280F391F3F832E834881ED
S1130B3059812417350730F42C813D81820F931F8E
S1130B409F838E83023049F4112349F0115080E0D1
S1130B5007C080E005C080E003C080E001C080E001
S1130B601F5F1E8FDF91CF911F910F910895FC019C
S1130B7040A14423A9F050E026813781240F351F7A
S1130B8037832683848195812817390720F0808153
S1130B90918197838683CB01668177810C943E296A
S1130BA00895EF92FF920F931F93CF938C010FB68A
S1130BB0F8940F92FC01C2A11C16ACF48389811134
S1130BC006C011C0F8018389811105C00CC07801E9
S1130BD0F3E1EF0EF11CC7010E94F61081110E948F
S1130BE02612C15079F78FEFF80182A30F900FBE40
S1130BF00FB6F8940F92C1A11C16ACF48085811134
S1130C0006C011C0F8018085811105C00CC07801AF
S1130C10F8E0EF0EF11CC7010E94F61081110E944A
S1130C202612C15079F78FEFF80181A30F900FBE00
S1130C30CF911F910F91FF90EF900895CF93DF9381
S1130C40EC010FB6F8940F92E881F9818F8D28A1F9
S1130C5090E030E0829FA001839F500D929F500D41
S1130C6011244E0F5F1F5D834C831E8EFB83EA832A
S1130C700197829FA001839F500D929F500D1124D4
S1130C80CF01840F951F9F838E838FEF89A38AA33F
S1130C9061110BC08885882371F0CE0108960E94EB
S1130CA0F610882341F031DE06C0CE01089661DDDE
S1130CB0CE0143965EDD0F900FBE81E0DF91CF91B0
S1130CC008950F931F93CF93DF93082F162F869FBA
S1130CD0C001112483964BDCEC01009769F01111DB
S1130CE003C09983888303C08396998388830F8F75
S1130CF018A361E0CE01A2DFCE01DF91CF911F9155
S1130D000F9108959F92AF92BF92CF92DF92EF928C
S1130D10FF920F931F93CF93DF93CDB7DEB729973D
S1130D200FB6F894DEBF0FBECDBF7C015B012E83EE
S1130D303F834887598710E0992493946C0188E095
S1130D40C80ED11C0FB6F8940F92F701968D878DBB
S1130D50981710F00230B1F4402FB501C701A8DE96
S1130D60F7019389992341F0C70143960E94F61035
S1130D70882321F0CADD02C08111C7DD0F900FBEA8
S1130D8081E04EC08E819F81A885B985892B8A2BED
S1130D908B2B21F40F900FBE80E042C0111105C0CF
S1130DA0CE0101960E94BC11192D0F900FBEA7D63B
S1130DB00FB6F8940F92F70181A18F3F09F411A2A5
S1130DC0F70182A18F3F09F412A20F900FBEBE015A
S1130DD06A5F7F4FCE0101960E94CD1181111CC024
S1130DE00FB6F8940F92F701968D878D0F900FBE72
S1130DF098130EC04E815F8168857985C6010E9473
S1130E009D10C701CEDEBFD781119CCF7EDD9ACF66
S1130E10C701C7DEB8D796CFC701C3DEB4D780E019
S1130E2029960FB6F894DEBF0FBECDBFDF91CF91E8
S1130E301F910F91FF90EF90DF90CF90BF90AF90F4
S1130E409F9008950F93CF93DF93482F60E081E044
S1130E5038DFEC01009761F01D821C821982188230
S1130E601E8200E020E030E0A90160E070E04ADF8B
S1130E70CE01DF91CF910F910895EF92FF920F93DE
S1130E801F93CF93DF938A01FC01568D378D53173F
S1130E9010F02230F9F4422F7801EC011AA18E8D62
S1130EA0CE0106DE1F3F81F48B898823A9F0CE0191
S1130EB043960E94F610882389F0E114F10481F02E
S1130EC081E0F70180830DC0FF24F394F10EFAA2B0
S1130ED081E007C080E005C081E003C081E001C07B
S1130EE081E0DF91CF911F910F91FF90EF900895D2
S1130EF09F92AF92BF92CF92DF92EF92FF920F93A5
S1130F001F93CF93DF93CDB7DEB729970FB6F8942D
S1130F10DEBF0FBECDBF8C015B012E833F834887AC
S1130F205987E12C992493946C0183E1C80ED11C58
S1130F300FB6F8940F92F801F68CFF2099F0B501E2
S1130F40C80115DEFA94F801F68E8085882331F005
S1130F50C80108960E94F6108111D7DC0F900FBECD
S1130F6081E04DC08E819F81A885B985892B8A2B0C
S1130F708B2B21F40F900FBE80E041C0E11005C01F
S1130F80CE0101960E94BC11E92C0F900FBEB7D57B
S1130F900FB6F8940F92F80181A18F3F09F411A2C2
S1130FA0F80182A18F3F09F412A20F900FBEBE0177
S1130FB06A5F7F4FCE0101960E94CD11811116C048
S1130FC0C8016BDD882371F04E815F816885798566
S1130FD0C6010E949D10C801E4DDD5D68111A8CFB9
S1130FE094DCA6CFC801DDDDCED6A2CFC801D9DD01
S1130FF0CAD6C80152DD882309F49ACF80E0299625
S11310000FB6F894DEBF0FBECDBFDF91CF911F9115
S11310100F91FF90EF90DF90CF90BF90AF909F9093
S11310200895CF93DF93EC010FB6F8940F9289A142
S11310308F3F09F419A28AA18F3F09F41AA20F90D5
S11310400FBE8E8D811104C0CE0143960E94B41050
S1131050CE01A7DDDF91CF910895FC014481558134
S113106022813381240F351F80819181B901681B4E
S1131070790BCB016417750710F0841B950B089549
S1131080AF92BF92CF92DF92EF92FF920F931F9392
S1131090CF93DF936C015B017A01FC01C281D381A0
S11310A0048115810C1B1D0B4017510708F48A019C
S11310B0F60184859585A801B5018C0F9D1F0E94BA
S11310C03E290E151F0558F4A701401B510BB5010D
S11310D0600F711FF601848595850E943E29CE011B
S11310E08E0D9F1DF601248135818217930710F020
S11310F0821B930BF60193838283C701DF91CF9107
S11311001F910F91FF90EF90DF90CF90BF90AF9021
S11311100895CF92DF92EF92FF920F931F93CF9394
S1131120DF931F921F92CDB7DEB75A8349832115EF
S11311303105C9F06B017C01FC01868580FD08C086
S1131140CA012417350708F4C9019A83898311C099
S11311502017310758F042E050E0BE016F5F7F4F27
S1131160C7018EDF06C080E090E008C080E090E018
S113117005C049815A81B601C70182DF0F900F90E3
S1131180DF91CF911F910F91FF90EF90DF90CF905F
S11311900895AF92BF92CF92DF92EF92FF920F9396
S11311A01F93CF93DF937C015B01E901421753073F
S11311B008F4EA01209779F1F70100811181C480D4
S11311C0D580C01AD10ACC15DD0508F46E01F701EB
S11311D064857585600F711FA601C5010E943E29B3
S11311E0CC16DD0658F4AE014C195D09F70164858F
S11311F07585C5018C0D9D1D0E943E290C0F1D1F78
S1131200F701848195810817190710F0081B190B41
S1131210F70111830083CE01DF91CF911F910F91CC
S1131220FF90EF90DF90CF90BF90AF900895FF9222
S11312300F931F93CF93DF938B01FF24F3944130DB
S113124009F0F12C0115110511F401E010E09C01E5
S1131250205F3F4F82179307B0F4EC012196C90138
S113126086D9FC01892B89F08FE0DF011D928A95D4
S1131270E9F7CF010F9695878487D583C4831783B5
S11312800683F68602C0E0E0F0E0CF01DF91CF9163
S11312901F910F91FF9008950FB6F8940F92DC01FF
S11312A018962D913C911997232B51F51A962D914F
S11312B03C911B97232B31F51E962C911E97169665
S11312C04D915C91179714966D917C9115971C968E
S11312D0ED91FC911D973FE01D923A95E9F7DC01F1
S11312E01D96FC93EE931C9715967C936E9314971E
S11312F017965C934E9316971E962C9381E003C029
S113130080E001C080E00F900FBE0895FC012481AD
S113131035818081918142815381820F931F01978E
S1131320841B950B8217930710F0821B930B08956F
S11313302F923F924F925F926F927F928F929F92E1
S1131340AF92BF92CF92DF92EF92FF920F931F93CF
S1131350CF93DF93CDB7DEB72B970FB6F894DEBFEC
S11313600FBECDBF4C017B876A871A010E831F8392
S113137028873987FC01848195810197268520FF80
S11313800CC02A01F2E04F0E511C8415950550F44F
S11313901E821F821886198646C02A018417950763
S11313A008F42C018E819F81A885B985892B8A2B0D
S11313B08B2B09F438C0CE010196C8D70FB6F89428
S11313C00F92C401A3DF3C018415950538F560E054
S11313D080E090E00E9451150E942A12F401938744
S11313E082870F900FBEAE80BF80C884D984E12C61
S11313F0F12C00E010E0980140E050E0BA0180E0F8
S11314000E949812F40113861286BE016A5F7F4F10
S1131410CE010196C2D7882389F202C00F900FBE75
S11314206114710419F4C40171DF3C018201930158
S1131430A1016A857B85C4016CDE6C01892BE9F00E
S1131440C4010BDEF4012681378182179307A8F0CB
S113145056D3F40180859185892B71F0808591851F
S1131460E12CF12C00E020E030E0A90160E00E94D2
S11314703F13F4011186108686D4C6012B960FB64D
S1131480F894DEBF0FBECDBFDF91CF911F910F91B6
S1131490FF90EF90DF90CF90BF90AF909F908F9090
S11314A07F906F905F904F903F902F900895AF92F0
S11314B0BF92CF92DF92EF92FF920F931F93CF933D
S11314C0DF93EC017B015A0169018E8580FF04C022
S11314D08A010E5F1F4F01C08A01CE0117DF9C01F4
S11314E0A501B701CE0115DE5C01892BC1F0CE0147
S11314F0B4DD2E813F818217930788F08885998512
S1131500892B69F088859985E12CF12C00E020E095
S113151030E0A90160E00E94331419861886C501E1
S1131520DF91CF911F910F91FF90EF90DF90CF90BB
S1131530BF90AF9008952F923F924F925F926F9217
S11315407F928F929F92AF92BF92CF92DF92EF924F
S1131550FF920F931F93CF93DF931F921F92CDB7E8
S1131560DEB74C011B012A0158016901FC01868583
S113157080FD03C0612C712C04C06894662461F85A
S1131580712CA114B104C104D10441F10FB6F89433
S11315900F92C40162DD8C016816790648F060E0A0
S11315A080E090E00E94511555D7F401918780871F
S11315B00F900FBE60167106B8F0E12CF12C00E01C
S11315C010E0980140E050E0BA0180E0B1D7F401A6
S11315D011861086C40141DD8C0103C0C4013DDDC8
S11315E08C0160167106C8F561147104C1F0F40130
S11315F0C080D1809801A301BE016F5F7F4FC401F9
S1131600C8DD89819A81061917094816590630F4EC
S1131610F401D182C082412C512C01C02C019801CB
S1131620A201B101C401B5DD6C01892BC1F067D2FF
S1131630F40182859385892B71F082859385E12C51
S1131640F12C00E020E030E0A90160E00E943F13AB
S1131650F4011386128697D302C0C12CD12CC60183
S11316600F900F90DF91CF911F910F91FF90EF900A
S1131670DF90CF90BF90AF909F908F907F906F90AE
S11316805F904F903F902F900895E0913915F0911D
S11316903A15808181110CC08FEF9FEFDC0180939C
S11316A0031590930415A0930515B093061508959A
S11316B0E0913915F0913A150780F085E02D80818D
S11316C09181A281B3818093031590930415A09313
S11316D00515B093061508958F929F92AF92BF920D
S11316E0CF92DF92EF92FF92CF93DF936B017C0155
S11316F0C42F8090101590901115A0901215B090E1
S113170013158091BF159091C015029684D88FEF60
S1131710C816D806E806F806B1F5CC23A1F1E5E130
S1131720F5E1A181B281C091BF15D091C015BF83ED
S1131730AE83C091BF15D091C01516968D919C9122
S11317401797998788871696CD91DC911797809182
S1131750BF159091C01502969D838C838091BF150F
S11317609091C015029617969C938E931697A0910C
S1131770BF15B091C0151D96FC93EE931C97808104
S11317808F5F80833FC0C80CD91CEA1CFB1CE0910E
S1131790BF15F091C015C282D382E482F582C814C9
S11317A0D904EA04FB0468F46091BF157091C01574
S11317B080913715909138156E5F7F4F0E94CE034C
S11317C021C06091BF157091C01580913915909119
S11317D03A156E5F7F4F0E94CE038091031590915E
S11317E00415A0910515B0910615C816D906EA0688
S11317F0FB0640F4C0920315D0920415E09205153F
S1131800F0920615DF91CF91FF90EF90DF90CF908B
S1131810BF90AF909F908F9008954F925F926F9278
S11318207F928F929F92AF92BF92CF92DF92EF926C
S1131830FF920F931F93CF93DF934C016B015A01D7
S11318402901CA010E94B7023C01892B09F40DC188
S113185084E390E00E94B702EC01892B99F07C8E1E
S11318606B8EA50165EA70E0C3010E94472981E0FF
S1131870A81AB1088B8D9C8DA80EB91EC114D10471
S113188029F420C0C3010E947F03EFC0D6018C91CC
S11318908D8F8C918823A1F0AE01425E5F4FF601DB
S11318A03196B0E1CB0ED11CCF012191DA012D93F9
S11318B0AD01DC018C91882319F0CE16DF06A1F767
S11318C01CA601C01D8E0A3008F009E00A8F0DA77E
S11318D01EA66E01B2E0CB0ED11CC6010E94CA0343
S11318E0CE010E960E94CA03DB87CA878AE090E085
S11318F0A0E0B0E0801B9109A109B1098E879F8700
S1131900A88BB98BDF8BCE8B84E0FE01BF96DF0101
S11319101D928A95E9F71BAAA201B401C5010E9490
S1131920320499838883E114F10419F0F701D18317
S1131930C0830FB6F8940F92809114158F5F809333
S113194014158091BF159091C015892BD1F5D093B2
S1131950C015C093BF1580911415813009F041C0A2
S113196001E515E10F2EFFEBEF2EF5E1FF2EF02D33
S1131970C8010E94B903055F1F4F0E151F05C1F76B
S113198086E495E10E94B9038BE395E10E94B903D3
S11319908CE295E10E94B90381E295E10E94B903CA
S11319A085E195E10E94B90386E495E190933A15A7
S11319B0809339158BE395E190933815809337150F
S11319C010C080910E1581110CC0E091BF15F091EB
S11319D0C015928D8A8D891720F0D093C015C093BD
S11319E0BF15809107158F5F80930715EA8D80914D
S11319F00F158E1710F4E0930F158BE08E9FF001F6
S1131A001124EF5AFA4E0180F281E02DFF83EE8318
S1131A102681378139872887A681B7811596DC927C
S1131A20CE921497D782C682EA8D8E9FF00111243C
S1131A30EF5AFA4EFD87EC8780818F5F80830F9089
S1131A400FBE80910E15882361F0E091BF15F091CF
S1131A50C015928D8A8D981730F40E94850481E018
S1131A6005C081E003C081E001C08FEFDF91CF9119
S1131A701F910F91FF90EF90DF90CF90BF90AF90A8
S1131A809F908F907F906F905F904F900895EF920A
S1131A90FF920F930F2EF1E0EF2EF5E1FF2EF02DC4
S1131AA000E020E030E040EC50E06FE672E08DECC6
S1131AB090E0B3DE8130E9F40E94DD158130C9F491
S1131AC0F8948FEF9FEFDC01809303159093041536
S1131AD0A0930515B093061581E080930E1510921E
S1131AE010151092111510921215109213150E94D0
S1131AF04904809106020F91FF90EF900895809120
S1131B0000158F5F8093001508950FB6F8940F9217
S1131B106091101570911115809112159091131503
S1131B200F900FBE0895CF92DF92EF92FF920F9322
S1131B301F93CF93DF9380910015811107C1C0904B
S1131B401015D0901115E0901215F09013158FEF29
S1131B50C81AD80AE80AF80AC0921015D0921115CA
S1131B60E0921215F0921315C114D104E104F104AA
S1131B70B1F48091391590913A152091371530912F
S1131B80381530933A15209339159093381580936E
S1131B903715809108158F5F8093081576DD809145
S1131BA0031590910415A0910515B0910615C8165A
S1131BB0D906EA06FB0610F480E0B3C080E04BE0EF
S1131BC051E0E0913915F0913A15908191110CC0D2
S1131BD04FEF5FEFBA0140930315509304156093E0
S1131BE00515709306159DC0E0913915F0913A15CD
S1131BF00780F085E02D0084F185E02D02811381BA
S1131C0024813581C016D106E206F30648F4009318
S1131C10031510930415209305153093061581C000
S1131C20A485B585C681D781208531853F832E83E0
S1131C30C085D185268137813D832C839F012E5F0A
S1131C403F4F11966D917C9112976217730731F48F
S1131C506085718512967C936E9311971586148610
S1131C609C9191509C93A08DB18D109709F1C289DC
S1131C70D389648975897F836E83C489D589628990
S1131C8073897D836C831196CD91DC911297BF018A
S1131C90625F7F4FC617D70731F46489758912963E
S1131CA07C936E931197118E108E9C9191509C93FE
S1131CB0A28D90910F159A1710F4A0930F154A9FB7
S1131CC0D0011124AF5ABA4E11960D90BC91A02D9B
S1131CD0B783A68316966D917C9117977187608759
S1131CE01696CD91DC9117973D832C8317963C93E0
S1131CF02E931697A28D4A9FD0011124AF5ABA4E43
S1131D00B587A4879C919F5F9C93A091BF15B091C8
S1131D10C015228D5A969C91291708F452CF852F0D
S1131D2050CFE091BF15F091C015E28D9BE0E99F83
S1131D30F0011124EF5AFA4E9081923008F081E0BC
S1131D40909109159923B1F081E014C080910A158E
S1131D5090910B15A0910C15B0910D150196A11D34
S1131D60B11D80930A1590930B15A0930C15B09395
S1131D700D1580E0DF91CF911F910F91FF90EF90AF
S1131D80DF90CF900895CF92DF92EF92FF920F935E
S1131D901F93CF93DF930FB6F8940F9280910015A1
S1131DA0815080930015809100158111C4C08091E9
S1131DB0141581118BC0C2C0D8011796ED91FC9106
S1131DC018970084F185E02DA08DB18D82899389C7
S1131DD064897589EC017F836E838489958962891E
S1131DE07389EC017D836C83CF010E9611966D91FE
S1131DF07C9112976817790731F484899589129632
S1131E009C938E931197118E108E8C9181508C938C
S1131E10A485B5858681978160857185EC017F8372
S1131E206E838085918566817781EC017D836C83E7
S1131E30CF01029611966D917C91129768177907DC
S1131E4031F46085718512967C936E931197158693
S1131E5014862C9121502C93A28D20910F152A17B2
S1131E6010F4A0930F153A9FD0011124AF5ABA4E23
S1131E7011960D90BC91A02DB783A68316966D91F3
S1131E807C9117977187608716966D917C9117974F
S1131E90EB019D838C8317969C938E931697A28D4A
S1131EA03A9FD0011124AF5ABA4EB587A4878C91BA
S1131EB08F5F8C93A091BF15B091C015928D5A96E7
S1131EC08C91981748F04093091506C0E0E0F0E0C3
S1131ED00CE215E13BE041E0D8018C9181116CCF1B
S1131EE0EF2B09F0D2DBC0900A15D0900B15E090CF
S1131EF00C15F0900D15C114D104E104F10499F00E
S1131F00C1E011DE8111C0930915B1E0CB1AD108EB
S1131F10E108F108B1F710920A1510920B1510920E
S1131F200C1510920D1580910915882331F00E942B
S1131F30850481E003C080E001C080E00F900FBE03
S1131F40DF91CF911F910F91FF90EF90DF90CF9091
S1131F500895CF92DF92EF92FF920F931F93CF9346
S1131F60DF93EC016A017B01CADD00911015109129
S1131F701115209112153091131588819981AA8128
S1131F80BB81AC01BD014C0D5D1D6E1D7F1D08178D
S1131F9019072A073B07B8F4481759076A077B074C
S1131FA090F5FF24F394041715072607370708F064
S1131FB0F12C488359836A837B830417150726070A
S1131FC03707A0F40BC0481759076A077B07A0F02E
S1131FD0041715072607370778F015C0CB01BA0197
S1131FE0601B710B820B930B40E076DBCCDE81111E
S1131FF010C00E9485040DC0488359836A837B8383
S1132000FF24F394EBCF488359836A837B83F12CB9
S1132010EDCF8F2DDF91CF911F910F91FF90EF9016
S1132020DF90CF900895CF92DF92EF92FF926B01F1
S11320307C01672B682B692B41F061DD40E0C7010F
S1132040B6014ADBA0DE811102C00E948504FF9024
S1132050EF90DF90CF90089580910015882321F0B0
S113206081E080930915089510920915A091BF1578
S1132070B091C015E091BF15F091C0152D913C9120
S1132080838D948D8217930758F06091BF157091DA
S1132090C0158091BF159091C015635E7F4FB5D672
S11320A080910F15282F30E09BE0899FF0011124C7
S11320B0EF5AFA4E908191110EC04BE08150282FB7
S11320C030E0429FF001439FF00D1124EF5AFA4E85
S11320D09081992399F39BE0929FA001939F500DC7
S11320E01124DA01AF5ABA4E1196ED91FC91129770
S11320F00480F581E02D1296FC93EE9311974C5ACF
S11321005A4EE417F50729F444815581FD015283A1
S113211041839BE0929FF001939FF00D1124EF5AAD
S1132120FA4E0180F281E02D208531853093C0156F
S11321302093BF1580930F150895CF92DF92EF92ED
S1132140FF926A017B016091BF157091C015625FB7
S11321507F4F0E94CE0341E0C701B601BDDAFF9074
S1132160EF90DF90CF900895CF93DF93FC01CB01E4
S1132170BA01A181B281C091BF15D091C015BB8BAA
S1132180AA8BC091BF15D091C01516964D915C9144
S113219017975D8B4C8B1696CD91DC9117974091D8
S11321A0BF155091C015425F5F4F5D834C834091D2
S11321B0BF155091C015425F5F4F17965C934E93C5
S11321C01697A091BF15B091C0155996FC93EE9344
S11321D0589730813F5F3083222319F06FEF7FEFF0
S11321E0CB01422F79DADF91CF910895CF93DF931A
S11321F0DC011796ED91FC9118970084F185E02D90
S1132200A08DB18DC289D389848995899F838E835A
S1132210C489D589828993899D838C839F01225F98
S11322203F4F11968D919C9112978217930731F429
S11322308489958912969C938E931197118E108E92
S11322408C9181508C9380910015811152C0A4858A
S1132250B585C681D781808591859F838E83C0850E
S1132260D185868197819D838C839F012E5F3F4F0B
S113227011968D919C9112978217930731F4808562
S1132280918512969C938E931197158614868C9142
S113229081508C93A28D80910F158A1710F4A0930E
S11322A00F158BE08A9FD0011124AF5ABA4E1196B4
S11322B00D90BC91A02DB783A68316964D915C9189
S11322C01797518740871696CD91DC9117973D83D8
S11322D02C8317963C932E931697A28D8A9FD00138
S11322E01124AF5ABA4EB587A4878C918F5F8C9313
S11322F01CC04CE255E1DA011196CD91DC911297A4
S1132300D38BC28B8E819F81958B848B8E819F8191
S1132310DC0115963C932E9314973F832E83518FA3
S1132320408FDA018C918F5F8C93A091BF15B0918F
S1132330C015928D5A968C91891720F481E0809370
S1132340091501C080E0DF91CF9108950FB6F8948C
S11323500F9220910815FC01208340911015509193
S11323601115609112157091131541835283638383
S113237074830F900FBE089520910815FC012083EB
S1132380409110155091111560911215709113150B
S113239041835283638374830895CF92DF92EF92D3
S11323A0FF920F931F93CF93DF93FB010FB6F89423
S11323B00F92409110155091111560911215709162
S11323C0131500811181228133810F3FAFEF1A076A
S11323D02A073A0779F1EC01C980DA80EB80FC80A6
S11323E0A0910815B881BA1759F04C155D056E0512
S11323F07F0530F0108211821282138281E01BC0AB
S11324004C195D096E097F0940175107620773076C
S113241058F4041B150B260B370B008311832283FE
S11324203383AADF80E007C01082118212821382F4
S113243081E001C080E00F900FBEDF91CF911F912A
S11324400F91FF90EF90DF90CF90089581E08093FB
S1132450091508958091BF159091C0150895809134
S11324600E15882331F080910015882321F080E037
S1132470089581E0089582E008950F931F93CF9308
S1132480DF93FC01892B09F449C086A5815086A7F6
S1132490228D95A5291709F443C0811143C0EF018A
S11324A08F010E5F1F4FC8010E940B04EDA5EA8F38
S11324B08AE090E0A0E0B0E08E1B9109A109B10987
S11324C08E879F87A88BB98B80910F158E1710F478
S11324D0E0930F158BE08E9FF0011124EF5AFA4E12
S11324E00180F281E02DFF83EE83268137813987D5
S11324F02887A681B78115961C930E93149717838A
S11325000683EA8D8E9FF0011124EF5AFA4EFD875F
S1132510EC8780818F5F808381E005C080E003C009
S113252080E001C080E0DF91CF911F910F91089569
S11325304F925F926F927F92AF92BF92CF92DF924F
S1132540EF92FF920F931F93CF93DF9328013901EA
S11325500FB6F8940F92E091BF15F091C015C82FF3
S1132560D0E0EC0FFD1F83A9823071F1E091BF151B
S1132570F091C015CE01880F991F880F991FE80F9D
S1132580F91F87A590A9A1A9B2A940955095609576
S11325907095482359236A237B2347A750AB61AB2B
S11325A072ABE091BF15F091C015EC0FFD1F81E0F7
S11325B083ABA114B104C104D10431F041E0C601DC
S11325C0B5018AD80E9485040F900FBE0FB6F89407
S11325D00F92E114F104A1F0E091BF15F091C01540
S11325E0CE01880F991F880F991FE80FF91F87A53F
S11325F090A9A1A9B2A9F70180839183A283B3838F
S1132600E091BF15F091C015EC0FFD1F83A9823036
S1132610E9F4E091BF15F091C015CE01880F991F20
S1132620880F991FE80FF91F87A590A9A1A9B2A93E
S11326304094509460947094482259226A227B22D8
S113264047A650AA61AA72AA81E001C080E0209145
S1132650BF153091C015C20FD31F1BAA0F900FBE18
S1132660DF91CF911F910F91FF90EF90DF90CF906A
S1132670BF90AF907F906F905F904F9008958F922E
S11326809F92AF92BF92EF92FF920F93CF93DF93FB
S1132690DC010FB6F8940F92E114F10479F0FC0117
S11326A084E0689FE00DF11D112487A490A8A1A8DF
S11326B0B2A8F70180829182A282B38270E0FD0108
S11326C0E60FF71F83A992E093AB0230F9F018F4F8
S11326D0013031F049C0033069F10430B9F144C02C
S11326E0660F771F660F771FFD01E60FF71F87A49C
S11326F090A8A1A8B2A8BA01A901482959296A2910
S11327007B2947A750AB61AB72AB2EC0660F771F16
S1132710660F771FFD01E60FF71F47A550A961A9B2
S113272072A94F5F5F4F6F4F7F4F47A750AB61ABAD
S113273072AB1AC0660F771F660F771FFD01E60F95
S1132740F71F27A730AB41AB52AB0EC0823009F460
S113275079C0660F771F660F771FFD01E60FF71F1D
S113276027A730AB41AB52AB813009F06DC01C964A
S1132770ED91FC911D971696CD91DC9117971896C3
S11327808D919C9119979F838E831896CD91DC919E
S1132790199716968D919C9117979D838C839D0113
S11327A02E5F3F4F818192818217930731F41896EF
S11327B08D919C911997928381831D961C921E92F0
S11327C01C978081815080835A96EC915A9780910E
S11327D00F158E1710F4E0930F158BE08E9FF00108
S11327E01124EF5AFA4E0180F281E02D1796FC93E2
S11327F0EE9316974681578119965C934E931897DA
S1132800C681D7813D832C83378326835A96EC91E6
S11328105A978E9FF0011124EF5AFA4E1D96FC939D
S1132820EE931C9780818F5F8083E091BF15F091B8
S1132830C0155A969C91828D891740F40E94850494
S113284081E005C080E003C081E001C081E00F9019
S11328500FBEDF91CF910F91FF90EF90BF90AF909B
S11328609F908F9008958F929F92AF92BF92CF9234
S1132870DF92EF92FF920F93CF93DF93DC01E11489
S1132880F10479F0FC0184E0689FE00DF11D11244E
S113289087A490A8A1A8B2A8F70180829182A282FD
S11328A0B38270E0FD01E60FF71F83A992E093ABBA
S11328B00230F9F018F4013031F049C0033069F105
S11328C00430B9F144C0660F771F660F771FFD010E
S11328D0E60FF71F87A490A8A1A8B2A8BA01A9017E
S11328E0482959296A297B2947A750AB61AB72ABA8
S11328F02EC0660F771F660F771FFD01E60FF71FC7
S113290047A550A961A972A94F5F5F4F6F4F7F4FD1
S113291047A750AB61AB72AB1AC0660F771F660F47
S1132920771FFD01E60FF71F27A730AB41AB52AB72
S11329300EC0823009F4A4C0660F771F660F771F9C
S1132940FD01E60FF71F27A730AB41AB52AB813037
S113295009F098C08091001581115FC01C96ED911B
S1132960FC911D971696CD91DC91179718968D9131
S11329709C9119979F838E831896CD91DC9119971A
S113298016968D919C9117979D838C839D012E5F44
S11329903F4F818192818217930731F418968D916C
S11329A09C911997928381831D961C921E921C9769
S11329B08081815080835A96EC915A9780910F15AB
S11329C08E1710F4E0930F158BE08E9FF001112405
S11329D0EF5AFA4E0180F281E02D1796FC93EE93A4
S11329E016974681578119965C934E931897C68122
S11329F0D7813D832C83378326835A96EC915A974B
S1132A008E9FF0011124EF5AFA4E1D96FC93EE931B
S1132A101C9780818F5F808320C04CE255E1FA01CE
S1132A20C181D2815396DC93CE9352978E819F813C
S1132A3055969C938E9354972E813F81CD010E968B
S1132A40F901958384839F838E8359965C934E9377
S1132A505897FA0180818F5F8083E091BF15F091D0
S1132A60C0155A969C91828D891770F4C114D104B3
S1132A7019F081E0F601808381E08093091505C097
S1132A8080E003C081E001C081E0DF91CF910F912C
S1132A90FF90EF90DF90CF90BF90AF909F908F907A
S1132AA00895009721F48091BF159091C0150FB639
S1132AB0F8940F9270E0FC01E60FF71F23A922306F
S1132AC031F4FC01E60FF71F13AA81E001C080E096
S1132AD00F900FBE0895CF92DF92EF92FF920F9363
S1132AE01F93FC0142835383648375839387828796
S1132AF00417150726073707C0F00C191D092E09FE
S1132B003F0986859785A089B189081719072A077F
S1132B103B0700F5BF016E5F7F4F8091C91590910F
S1132B20CA150E94CE0380E018C00C151D052E05A1
S1132B303F0528F44C155D056E057F0568F4BF015B
S1132B406E5F7F4F8091CB159091CC150E94CE0380
S1132B5080E003C081E001C081E01F910F91FF90EC
S1132B60EF90DF90CF9008950FB6F8940F92809174
S1132B70C7159091C815892BE9F488ED95E10E9459
S1132B80B9038DEC95E10E94B90388ED95E190932A
S1132B90CC158093CB158DEC95E19093CA15809359
S1132BA0C91540E067E08AE00E9461069093C81569
S1132BB08093C7150F900FBE0895EF92FF920F9365
S1132BC0D3DF8091C7159091C815892B91F00F2EF2
S1132BD0F5ECEF2EF5E1FF2EF02D03E020E030E0E0
S1132BE040EC50E064E772E083E091E00E940D0C59
S1132BF001C080E00F91FF90EF9008958F929F9213
S1132C00AF92BF92CF92DF92EF92FF920F931F93F6
S1132C10CF93DF93CDB7DEB727970FB6F894DEBF17
S1132C200FBECDBFE091C715F091C815309781F163
S1132C3069832A833B834C835D839F838E836630C1
S1132C40F4F40DDC823069F400E0A7019601BE01C2
S1132C506F5F7F4F8091C7159091C8150E948206BF
S1132C6018C000E020E030E0A901BE016F5F7F4F93
S1132C708091C7159091C8150E9482060AC020E071
S1132C80A801BE016F5F7F4FCF010E943D0701C0C5
S1132C9080E027960FB6F894DEBF0FBECDBFDF915C
S1132CA0CF911F910F91FF90EF90DF90CF90BF9045
S1132CB0AF909F908F9008952F923F924F925F9282
S1132CC06F927F928F929F92AF92BF92CF92DF9238
S1132CD0EF92FF920F931F93CF93DF931C010E94F7
S1132CE0850D2B013C018091C1159091C215A091D5
S1132CF0C315B091C415481659066A067B0608F038
S1132D0053C03BC00780F085E02D80809180A28075
S1132D10B380C085D1858E010E5F1F4FC8010E940C
S1132D200B04EC89FD89CE0119958E8982FF25C09B
S1132D308E859F85A889B989880D991DAA1DBB1DFB
S1132D4088169906AA06BB0670F48A839B83AC8313
S1132D50BD83DB87CA87B8018091CB159091CC15D0
S1132D600E94CE030AC0C12CD12C760100E010E0F1
S1132D70A501940160E0CE0141DFE091CB15F09113
S1132D80CC1580818111BECF8091C9159091CA154F
S1132D909093CC158093CB15F093CA15E093C91585
S1132DA081E0F101808302C0F10110824092C115DB
S1132DB05092C2156092C3157092C415C301B2013A
S1132DC0DF91CF911F910F91FF90EF90DF90CF9003
S1132DD0BF90AF909F908F907F906F905F904F9037
S1132DE03F902F9008950895279A2F9A08951F9A37
S1132DF00895FADF2FEF80E792E021508040904061
S1132E00E1F700C00000F3DFF5CFEEDF2FEF87EA34
S1132E1091E6215080409040E1F700C00000E7DFD8
S1132E20F5CFCF93DF93CDB7DEB76A970FB6F8949B
S1132E30DEBF0FBECDBF0E94850D69837A838B836D
S1132E409C8307EE12E00F2EF3E06F2EF02D772413
S1132E5073944EE359E460E070E0CE01019679D8B2
S1132E6052D2882321F08CE792E00E94B02960D2EC
S1132E70882329F08EE992E00E94B02904C085ECF1
S1132E8092E00E94B0293CD28111FDCF62D24B0165
S1132E905C0174D26B017C0177D7882331F01F93D6
S1132EA00F930E949D290F900F9080E090E09BD794
S1132EB08AEF92E00E94B0296E827D82C501B4013E
S1132EC085D16F83809100008887C701B6017ED1C8
S1132ED06987BE016B5F7F4F80E068D4BACFEF9201
S1132EE0FF920F938091281790912917892B89F4C9
S1132EF081E00E9422079093291780932817009756
S1132F0041F000E020E030E0A90160E070E00E94C0
S1132F108206E12CF12C03E020E030E040EC50E0AC
S1132F206BE073E081E197E10E940D0C0F91FF903B
S1132F30EF900895CDD183E002C7089581B18168EF
S1132F4081B90E94690280E00E94BC22F3DFC7DFDE
S1132F5085E00E94C32360E070E081E049D383E010
S1132F6021C10895EBDF84E193E00E94B0290E941F
S1132F70470DFFCFCF93DF93CDB7DEB768970FB67A
S1132F80F894DEBF0FBECDBF81E072D362E070E083
S1132F9080E090E048D880E06BD366E970E080E0A0
S1132FA090E041D81ED381E00E9411246FD3EBD569
S1132FB09F938F9386E293E09F938F930E949D2922
S1132FC0E3D4E1D59F938F9389E393E09F938F9309
S1132FD00E949D298E010B5F1F4FC80169D3D3D571
S1132FE01F930F939F938F9382E593E09F938F9307
S1132FF00E949D29C80178D3C6D59F938F931F93B0
S11330000F9386E693E09F938F930E949D29A801D6
S11330106BE773E08CE993E095D5B5D59F938F93D7
S11330201F930F938BE793E09F938F938CE993E027
S11330309F938F938DEA93E09F938F930E949D2992
S113304086D3A1D59F938F9383EE93E09F938F9321
S11330500E949D290FB6F894DEBF0FBECDBF81E05C
S113306070D491D59F938F9382EF93E09F938F9326
S11330700E949D2984EF91E06FD485D59F938F930F
S113308081E08F9384EF8F9383E194E09F938F93F8
S11330900E949D290FB6F894DEBF0FBECDBF0AE093
S11330A010E00F2EF3E3EF2EF4E0FF2EF02D80E07E
S11330B054D3D82E68D59F938F931F930F93FF9269
S11330C0EF920E949D290F900F900F900F900F90F8
S11330D00F90F8E0DF16C1F180E00E94752466E3EA
S11330E071E080E090E00E94131001501109F9F69C
S11330F024C00E948504FDCF48EA58E460E070E0F3
S1133100CE0101960E94A90FF80182829382A482C3
S1133110B582C682D78283E00E948724B80180E00A
S113312045D331D59F938F93FF92EF920E949D29AF
S11331300F900F900F900F90DFCF81E00E946624D4
S113314080E00E943424D5CF81E00E945724E3EE2E
S1133150F5E186E0818382E080830E94850D6983A6
S11331607A838B839C8303EE15E10F2EF0E38F2E7D
S1133170F02D0F2EF9E39F2EF02D6894AA24A1F8C8
S11331800F2EF3EABF2EF02D6894CC24C2F80F2E34
S1133190FAE1DF2EF02D0F2EF3E5EF2EF4E0FF2EF3
S11331A0F02DAACFEF92FF920F93E12CF12C082F70
S11331B020E030E048E851E068E674E08AEB97E10B
S11331C00E940D0C0F91FF90EF90089533D088F07A
S11331D09F5790F0B92F9927B751A0F0D1F0660FFF
S11331E0771F881F991F1AF0BA95C9F712C0B1301A
S11331F081F03AD0B1E0089537C0672F782F88273F
S1133200B85F39F0B93FCCF3869577956795B39558
S1133210D9F73EF490958095709561957F4F8F4FC7
S11332209F4F089557FD9058440F551F59F05F3F25
S113323071F04795880F97FB991F61F09F3F79F0D4
S113324087950895121613061406551FF2CF469556
S1133250F1DF08C0161617061806991FF1CF8695D8
S11332607105610508940895E894BB2766277727BC
S1133270CB0197F908956530F1F4FA0180818F73D9
S113328090E0982F88272181822B90930A028093C3
S113329009028281F0E48F9FC0011124FA01238185
S11332A026952695822B909308028093070281E04D
S11332B08093F9150895643051F080E090E4909380
S11332C008028093070290930A02809309020895EA
S11332D00F931F930BE319E120E034E244EF50E035
S11332E060E087E20E94A9249093FB158093FA156D
S11332F021E0892B09F020E0822F1F910F9108957E
S11333008091F91508958091FA159091FB15009715
S113331059F040E060E070E00E94FA24843031F417
S11333201092F91580E0089582E0089583E00895ED
S11333308091FA159091FB15009739F064E00E9492
S11333404625853021F083E0089582E0089580E0E9
S113335008956091090270910A0280E090E00E9451
S1133360242720E030E048EC52E40E94892720E042
S113337038EF4FE756E40C94B9260895609107029C
S11333807091080280E090E00E94242720E030E061
S113339045E253E40E94892720E038EF4FE756E4E2
S11333A00E94B92620E030E040E252E40C94522618
S11333B008950F931F93CF93DF931F921F92CDB75E
S11333C0DEB78C0119822DC0E0913316EC3250F433
S11333D081E08E0F80933316F0E0EB59F94E8A8129
S11333E0808302C0109233168A818A30D1F44091CE
S11333F0331650E0FA01ED59F94E1082415051094B
S11334009E012F5F3F4F65E676E1809136169091DD
S113341037160E94570A898181110E9485041092EF
S11334203316BE016E5F7F4FC80110D6882361F248
S11334300F900F90DF91CF911F910F9108950F93EB
S11334401F93CF93DF938C01EB01809136169091FB
S113345037160E944C09B8018CEF95E10E947E2931
S1133460209779F0ECEFF5E101900020E9F731972E
S113347080E290E091838083BE018CEF95E10E940D
S11334807329ECEFF5E1DF010D900020E9F71197C6
S11334908DE09AE011969C938E9312961C92019063
S11334A00020E9F73197EC5FF541AE2F8CEF95E101
S11334B0AC016A2F809138169091391672D581111A
S11334C011C008E215E020E030E04DE250E06FEB7F
S11334D076E180913616909137160E949B0A8FEB05
S11334E096E102C080E090E0DF91CF911F910F91AF
S11334F008952F923F924F925F926F927F928F9294
S11335009F92AF92BF92CF92DF92EF92FF920F936E
S11335101F93CF93DF935C01FC0101900020E9F736
S113352031976F01C81AD90A5C2C0F2EF8E08F2E40
S1133530F7E09F2EF02DE12CF12C4C2C3701F401F7
S113354001811281E80109900020E9F72197C01B4D
S1133550D10B3C2EF9E0CF16D10458F0F4012080B1
S1133560FEE02F1206C0B801C5010E944E29892B26
S113357009F5442D351408F44C2F50E0B801C50169
S11335800E948529892B49F4F301EE0FFF1FE60DF4
S1133590F71DE85FF84F20800DC08FEFE81AF80A96
S11335A0E3E08E0E911CF1E1EF16F10439F6689414
S11335B0222424F8822DDF91CF911F910F91FF9047
S11335C0EF90DF90CF90BF90AF909F908F907F90BF
S11335D06F905F904F903F902F90089530DF89CF88
S11335E0089580913616909137160C944C090895DD
S11335F08F929F92AF92CF92EF920F931F93CF939C
S1133600C82F8B0141E060E070E088EC90E00E94FC
S11336101709909337168093361610933516009336
S113362034160F2EF9ED8F2EF9E19F2EF02D6894AC
S1133630AA24A6F86894CC24C6F8E12C00E023E080
S113364040E051EE60E070E08C2FDED390933916A9
S113365080933816E7E0F1E0808180618083CF9128
S11336601F910F91EF90CF90AF909F908F900895FE
S1133670882331F0E8E0F1E080818F7E8083089533
S1133680E8E0F1E0808180618083089560E070E08B
S11336908EE894E0D4DEEFEBF6E101900020E9F748
S11336A03197EF5BF64181E0759708F080E008956B
S11336B0CF93DF93EC0160E070E08FE994E0BFDE2C
S11336C0EFEBF6E101900020E9F7E05DF64139F413
S11336D06FEB76E1CE010E947E2980E002C0188261
S11336E081E0DF91CF910895FC0101900020E9F77A
S11336F09F01215131092817390729F4BC018DECA8
S113370094E06CCF089589E00895FC0101900020B5
S1133710E9F79F01215131092817390729F4BC0120
S11337208CED94E05BCF089589E00895FC0101904D
S11337300020E9F79F01215231092817390729F49C
S1133740BC018BEE94E04ACF089589E0089560E0CF
S113375070E08AE295E042CF08950F931F93E82F1B
S1133760F0E0EE0FFF1FEC5FF84F6081718183E39F
S113377095E034DF811114C008E215E020E030E068
S11337804DE250E06FEB76E180913616909137165A
S11337900E949B0A882321F08FEB96E1AADE03C0E6
S11337A08FEB96E1A6DE1F910F9108950F931F935F
S11337B0CF93DF931F92CDB7DEB7DB0111969C91B7
S11337C01197953108F0B4C0992381F160E070E05D
S11337D0272F30E0462F50E0FD01E40FF51F9281C2
S11337E092959F709A3010F0995C01C0905DF90138
S11337F0E05BF94E90832F5F3F4FFD01E40FF51F0F
S113380092819F70492F50E04A30510514F0995C21
S113381001C0905DF901E05BF94E90837E5F6F5FBC
S113382011969C911197691798F201C070E0E72FE7
S1133830F0E0E05BF94E10824C91811103C08CE3FF
S113384095E002C08EE395E020E536E13F932F93A7
S11338501F924F939F938F9382E495E09F938F934E
S113386082E996E19F938F930E94E02960E070E0E3
S113387082E996E1B3DE0FB6F894DEBF0FBECDBF8A
S1133880811159C008E215E020E030E04DE250E03B
S11338906FEB76E180913616909137160E949B0A61
S11338A0882309F447C08FEB96E123DE8E3009F0BC
S11338B042C087E089838091341690913516892B14
S11338C0A9F1BE016F5F7F4F8FEB96E168D18093C2
S11338D03A16E981F0E0E154F94EDF010D90002041
S11338E0E9F71197AE1BBF0BAA2391F0BB27CD01BB
S11338F001979C0112F42F5F3F4F35952795209334
S11339003B16AF014F5F5F4F64E18CE396E173D1E7
S113391001E010E020E030E046E150E06AE376E1C7
S113392080913416909135160E9498098EE003C058
S113393084E101C080E00F90DF91CF911F910F913E
S11339400895813019F062E575E002C06BE276E01B
S113395086E595E043CE08959F938F9387E895E09D
S11339609F938F9382E996E19F938F930E94E0291E
S113397060E070E082E996E131DE0F900F900F90E5
S11339800F900F900F9008952F923F924F925F9255
S11339906F927F928F929F92AF92BF92CF92DF925B
S11339A0EF92FF920F931F93CF93DF93CDB7DEB7C0
S11339B0A0970FB6F894DEBF0FBECDBF64EB75E0E1
S11339C080EC95E03CDD95DD8111A3C080E2E2E26C
S11339D0F2E0DE01119601900D928A95E1F79E01C5
S11339E02F5F3F4F6901E12CF12C0F2EFCECAF2E21
S11339F0F5E0BF2EF02D02E916E10F2EF5EE4F2E65
S1133A00F5E05F2EF02D0F2EFCEF8F2EF5E09F2EAC
S1133A10F02D0F2EF6E16F2EF6E07F2EF02D3E2CCA
S1133A202F2CFF92EF92BF92AF921F930F930E949D
S1133A30E02960E070E0C80102DD5BDD0F900F90CB
S1133A400F900F900F900F90811163C032E03E15DC
S1133A50E8F4F60183818F9382818F9381818F9320
S1133A6080818F93FF92EF925F924F921F930F93F7
S1133A700E94E02960E070E0C801E1DC3ADD0FB6A5
S1133A80F894DEBF0FBECDBF811143C02F923F9289
S1133A909F928F921F930F930E94E02960E070E041
S1133AA0C801CDDC26DD0F900F900F900F900F9082
S1133AB00F9081112EC02F923F927F926F921F938D
S1133AC00F930E94E02960E070E0C801B8DC11DDCA
S1133AD00F900F900F900F900F900F90811119C0BD
S1133AE03FEFE31AF30A84E0C80ED11C98E0E9160C
S1133AF0F10409F094CF60E070E08EE296E09FDC80
S1133B00F8DC811106C060E070E08FE396E097DC9A
S1133B10F0DCA0960FB6F894DEBF0FBECDBFDF91E8
S1133B20CF911F910F91FF90EF90DF90CF90BF90B6
S1133B30AF909F908F907F906F905F904F903F9049
S1133B402F900895EF92FF920F931F93CF93DF93DB
S1133B50EC018B017A0181E0F4DE81110DC0CE010C
S1133B60D4DD811109C0C801E1DD811105C0C7019F
S1133B70BBDD811101C0EBDDDF91CF911F910F916E
S1133B80FF90EF90089590E0FC01EE0FFF1F8E0F61
S1133B909F1FFC01E85FF84F818192810895DC0149
S1133BA0009729F1FB012081FC0101900020E9F735
S1133BB03197E81BF90B822F90E0E817F907C8F05A
S1133BC080E008C0880F382F330F330F830F8053E2
S1133BD0890F2F5FFD01E20FF11D908130ED390F48
S1133BE03A3010F49111EECFFB012083089580E068
S1133BF0089580E008950F931F93CF93DF93DC0122
S1133C00EA012097E1F1FA0101900020E9F73197E8
S1133C10E41BF50B329710F532C08D01040F151F0C
S1133C2030E0AE01420F531FFA019081913428F025
S1133C309753592F5295507F03C0592F5295507F57
S1133C402C0F3D1FF9019181913410F0975301C05D
S1133C509053950FF80190838F5F01C080E0282F67
S1133C60220F482F50E0FE0101900020E9F7319720
S1133C70EC1BFD0B4E175F0710F48613CECFDF91BC
S1133C80CF911F910F9108958091EF16860F809325
S1133C90EF169091F216913079F028F09230A9F055
S1133CA0933019F108956F3F09F048C01092EF1650
S1133CB081E08093F2160895663809F03FC01092AF
S1133CC0EE1682E08093F2160895E091EE1681E0FC
S1133CD08E0F8093EE16F0E0E451F94E608382304B
S1133CE069F583E08093F21608959091EE1621E031
S1133CF0290F2093EE16963009F581110EC0ECEED3
S1133D00F6E1808190E0982F88272181820F911D10
S1133D109093F4168093F31604C01092F416109244
S1133D20F3161092F216E091F016F091F116309716
S1133D3029F08091F3169091F416199508958F92B5
S1133D409F92AF92CF92EF920F930F2EF4E48F2EA7
S1133D50FEE19F2EF02D6894AA24A4F86894CC2444
S1133D60C4F8E12C00E023E040E855E260E070E0B4
S1133D704BD09093F6168093F5160F91EF90CF9059
S1133D80AF909F908F900895CF93DF93CDB7DEB718
S1133D9029970FB6F894DEBF0FBECDBF89E0E2E4E9
S1133DA0F2E09E012F5F3F4FD90101900D928A9559
S1133DB0E1F71092F4161092F3168091F516909193
S1133DC0F616009731F0422F532F69E0EAD080E0D5
S1133DD001C082E029960FB6F894DEBF0FBECDBFB6
S1133DE0DF91CF9108952091F3163091F4162115A7
S1133DF0310529F4FC011182108281E00895FC014F
S1133E003183208380E008952F923F924F925F92F6
S1133E106F927F928F929F92AF92CF92EF92FF9286
S1133E200F931F93CF93DF93CDB7DEB7F82E2A01FC
S1133E303B0188E090E00E9419288C018F2D90E0CE
S1133E40FC01EE0FFF1FE950F94E118300830115A9
S1133E50110509F469C0880F991FFC01E55FFD4F46
S1133E6080819181D8018D939C938C2D90E0880F53
S1133E70991F880F991F0E9419281C0186E090E061
S1133E800E9419287C014C2DB101F0D6F801F5826D
S1133E90E4828A2D90E0880F991F880F991F0E9451
S1133EA019281C0186E090E00E9419287C014A2D03
S1133EB0B101DCD6D8011396FC92EE9212971796B4
S1133EC09C928E921697FFB6F894ED91FC911197FF
S1133ED036978081826080838D909C90C301B2016B
S1133EE0B3D720E030E040E051E40E9489279B01F1
S1133EF0AC0160E074E284E79BE43BD720E030E06F
S1133F0040E85FE3CFD662D9F40132976083D801E9
S1133F10ED91FC911197359788E98083ED91FC919F
S1133F20349786E08083FFBEC801DF91CF911F9153
S1133F300F91FF90EF90CF90AF909F908F907F90D4
S1133F406F905F904F903F902F900895CF93DF93A1
S1133F50DC01892B01F11296ED91FC911397938169
S1133F6082812581981B922384819817B1F08381E3
S1133F7026952823C081D181C20FD11D68838F5F0C
S1133F80958189238383ED91FC91359780818062AB
S1133F90808380E003C081E001C082E0DF91CF91A3
S1133FA00895EF92FF920F931F93CF93DF937C01B9
S1133FB0009709F441C0DC011296ED91FC9113972E
S1133FC093818281981B858198238481891B86171C
S1133FD0A8F1662341F1842F952FDC016150462F0F
S1133FE050E04F5F5F4F480F591FE701EA81FB81A3
S1133FF0938182812581981B92238481981779F07B
S11340008C91938126952923608171818B01020F04
S1134010111DE80188839F5F8581982393831196FE
S1134020A417B50711F7D701ED91FC91359780815D
S11340308062808380E003C081E001C082E0DF9180
S1134040CF911F910F91FF90EF9008950097D1F0B9
S1134050DC011496ED91FC91159793818281981758
S113406099F09281858186958923A081B181A80FD9
S1134070B11D8C91DB018C939F5F85819823928382
S113408080E0089581E0089583E008951F920F92DF
S11340900FB60F9211240BB60F922F933F934F93A9
S11340A05F936F937F938F939F93AF93BF93CF93BC
S11340B0DF93EF93FF93A091F716B091F816109742
S11340C011F16091C6001496ED91FC9115979381BE
S11340D082812581981B92238481981761F08381C2
S11340E026952823C081D181C20FD11D68838F5F9B
S11340F09581892383831696ED91FC9117973097C8
S113410011F0CD011995FF91EF91DF91CF91BF91FE
S1134110AF919F918F917F916F915F914F913F915B
S11341202F910F900BBE0F900FBE0F901F901895FC
S11341301F920F920FB60F9211240BB60F922F936A
S11341408F939F93AF93BF93EF93FF93E091F716F1
S1134150F091F8163097B9F00280F381E02D938145
S113416082819817B1F092818581282F2695292381
S1134170A081B181A20FB11D2C919F5F89238283FD
S11341802093C6000BC0E1ECF0E080818F7D80833A
S113419005C0E1ECF0E080818F7D8083FF91EF9199
S11341A0BF91AF919F918F912F910F900BBE0F9064
S11341B00FBE0F901F9018951F920F920FB60F927B
S11341C011240BB60F922F933F934F935F936F93EA
S11341D07F938F939F93AF93BF93CF93DF93EF938B
S11341E0FF93A091F916B091FA16109711F160910E
S11341F0CE001496ED91FC911597938182812581CF
S1134200981B92238481981761F083812695282333
S1134210C081D181C20FD11D68838F5F95818923AD
S113422083831696ED91FC911797309711F0CD0189
S11342301995FF91EF91DF91CF91BF91AF919F912C
S11342408F917F916F915F914F913F912F910F903B
S11342500BBE0F900FBE0F901F9018951F920F92D8
S11342600FB60F9211240BB60F922F938F939F9337
S1134270AF93BF93EF93FF93E091F916F091FA1681
S11342803097B9F00280F381E02D938182819817F1
S1134290B1F092818581282F26952923A081B181AF
S11342A0A20FB11D2C919F5F892382832093CE009E
S11342B00BC0E9ECF0E080818F7D808305C0E9ECE0
S11342C0F0E080818F7D8083FF91EF91BF91AF916A
S11342D09F918F912F910F900BBE0F900FBE0F9057
S11342E01F9018951F920F920FB60F9211240BB6C0
S11342F00F922F933F934F935F936F937F938F937B
S11343009F93AF93BF93CF93DF93EF93FF93A091CA
S1134310FB16B091FC16109711F16091D60014961B
S1134320ED91FC911597938182812581981B9223AD
S11343308481981761F0838126952823C081D181D7
S1134340C20FD11D68838F5F95818923838316965D
S1134350ED91FC911797309711F0CD011995FF91CC
S1134360EF91DF91CF91BF91AF919F918F917F9109
S11343706F915F914F913F912F910F900BBE0F90D2
S11343800FBE0F901F9018951F920F920FB60F92A9
S113439011240BB60F922F938F939F93AF93BF93D8
S11343A0EF93FF93E091FB16F091FC163097B9F070
S11343B00280F381E02D938182819817B1F092817C
S11343C08581282F26952923A081B181A20FB11DB3
S11343D02C919F5F892382832093D6000BC0E1ED4B
S11343E0F0E080818F7D808305C0E1EDF0E0808185
S11343F08F7D8083FF91EF91BF91AF919F918F91BA
S11344002F910F900BBE0F900FBE0F901F90189519
S11344101F920F920FB60F9211240BB60F922F9387
S11344203F934F935F936F937F938F939F93AF9338
S1134430BF93CF93DF93EF93FF93A091FD16B091B9
S1134440FE16109711F1609136011496ED91FC91CE
S11344501597938182812581981B922384819817D3
S113446061F0838126952823C081D181C20FD11D9B
S113447068838F5F9581892383831696ED91FC91E0
S11344801797309711F0CD011995FF91EF91DF91B6
S1134490CF91BF91AF919F918F917F916F915F91D8
S11344A04F913F912F910F900BBE0F900FBE0F9025
S11344B01F9018951F920F920FB60F9211240BB6EE
S11344C00F922F938F939F93AF93BF93EF93FF9389
S11344D0E091FD16F091FE163097B9F00280F38159
S11344E0E02D938182819817B1F092818581282FE4
S11344F026952923A081B181A20FB11D2C919F5F24
S113450089238283209336010BC0E1E3F1E08081AB
S11345108F7D808305C0E1E3F1E080818F7D80831E
S1134520FF91EF91BF91AF919F918F912F910F9038
S11345300BBE0F900FBE0F901F901895CF93DF9373
S11345401F92CDB7DEB7BE016F5F7F4F8091FF161C
S1134550909100177BDD8111F6CF898190E00F9057
S1134560DF91CF910895682F8091FF1690910017E5
S1134570EDDC80E090E008958F929F92AF92CF920D
S1134580EF920F93812C912C6894AA24A7F8689435
S1134590CC24C7F8E12C00E023E040E051EE60E0D9
S11345A070E032DC909300178093FF16EEE2F7E19F
S11345B083E192E091838083938382830F91EF90D0
S11345C0CF90AF909F908F90089590E0FC01EE0FF4
S11345D0FF1FE80FF91FEE0FFF1FEF5FF84E238157
S11345E021111FC09C01220F331FF901E80FF91F8D
S11345F0EE0FFF1FEF5FF84EA081B1814C91F901DE
S1134600E80FF91FEE0FFF1FEF5FF84E81E090E017
S1134610028002C0880F991F0A94E2F7842B8C93BE
S11346200895FC01EE0FFF1FDF01A80FB91FAA0FA9
S1134630BB1FAF5FB84E0D90BC91A02D2C91E80F1D
S1134640F91FEE0FFF1FEF5FF84E81E090E002804C
S113465002C0880F991F0A94E2F7809582238C93F5
S1134660089590E0FC01EE0FFF1FE80FF91FEE0F15
S1134670FF1FEF5FF84E2381211120C09C01220F00
S1134680331FF901E80FF91FEE0FFF1FEF5FF84E1C
S1134690A081B1814C91F901E80FF91FEE0FFF1FC2
S11346A0EF5FF84E81E090E0028002C0880F991F0E
S11346B00A94E2F7809584238C930895FC01EE0F0D
S11346C0FF1FDF01A80FB91FAA0FBB1FAF5FB84EB2
S11346D00D90BC91A02D2C91E80FF91FEE0FFF1F38
S11346E0EF5FF84E81E090E0028002C0880F991FCE
S11346F00A94E2F7822B8C930895CC24C394D12C92
S11347006894BB24B2F8C1E0D7E110E08C81813019
S113471081F018F1823061F5E881F9812081C601C8
S11347200A8002C0880F991F0A94E2F782278083C7
S11347301FC08D818F5F863010F48D8319C01D8258
S1134740E881F9812081C6010A8002C0880F991F7F
S11347500A94E2F7822780830BC00D81002329F09D
S1134760812F7FDF01500D8303C0BC82812F2DDF99
S11347701F5F2696143051F66CE070E080E090E004
S11347800E941310C0CFEF92FF920F931F93CF9309
S1134790DF93082F80E487B9C1E0D7E10F2EF8E258
S11347A0EF2EF12CF02DF982E88286E08A831B82B9
S11347B014E01C8380E009DF80E887B9FF82EE8281
S11347C087E0888719861A8781E0FFDE80E283BB51
S11347D084E390E09D878C8785E08E871F86188B05
S11347E082E0F3DE80E18093010182E091E09B8B23
S11347F08A8B1C8B1D8A1E8B83E0E7DEE12CF12C57
S113480020E030E040EC50E06BE377E08DE793E2AA
S11348100E940D0CDF91CF911F910F91FF90EF90AB
S11348200895CF93DF9390E0FC01EE0FFF1FDF01AB
S1134830A80FB91FAA0FBB1FAF5FB84ECD91DC9173
S11348401197488121E030E012960C90129702C033
S1134850220F331F0A94E2F724272883FD0181E005
S11348608483DF91CF910895CF93DF9390E0FC018F
S1134870EE0FFF1FDF01A80FB91FAA0FBB1FAF5F09
S1134880B84ECD91DC911197488121E030E0129629
S11348900C90129702C0220F331F0A94E2F72427C8
S11348A02883FD0182E08483DF91CF910895282F2E
S11348B030E0F901EE0FFF1FE20FF31FEE0FFF1FB1
S11348C0EF5FF84E93E09483CCCE0895282F30E028
S11348D0F901EE0FFF1FE20FF31FEE0FFF1FEF5F53
S11348E0F84E94E0948371CE089590E0FC01EE0FAD
S11348F0FF1FDF01A80FB91FAA0FBB1FAF5FB84E80
S113490026E015962C931597FD011482089590E0E6
S1134910FC01EE0FFF1FDF01A80FB91FAA0FBB1F79
S1134920AF5FB84E15961C921597FD011482089539
S11349308091271781110CC08CE08093B8008FEF11
S11349408093BB0084E08093BC0081E080932717B0
S11349500895AF92BF92CF92DF92EF92FF920F939E
S11349601F93CF93DF93A82EB62E69017A0184E0BA
S113497090E05FD3EC01892B61F1A88281E0B81249
S113498012C0C701B60120EA36E841E050E027D35F
S1134990DA01C9014097A109B109B695A795979580
S11349A08795898311C0C701B60120E83AE146E042
S11349B050E015D3DA01C9014097A109B109B695B0
S11349C0A7959795879589831B830A838C2F9D2FA1
S11349D002C080E090E0DF91CF911F910F91FF9092
S11349E0EF90DF90CF90BF90AF9008958091BC007E
S11349F081700895FF920F931F93CF93DF930097D5
S1134A00D1F14A30D0F5F42E8B01EC01EFDF8111A6
S1134A1036C080911A1790911B17C817D90741F017
S1134A2087DF89818093B800D0931B17C0931A172E
S1134A3081E08F0D80931C178881880F80931D1748
S1134A40FF2089F0F801AEE1B7E14FEF4F0D642F7D
S1134A5070E0CB010196B801680F791F81918D93A5
S1134A60E617F707D9F788EF8093210285EA809348
S1134A70BC0084E005C086E003C087E001C082E09A
S1134A80DF91CF911F910F91FF9008951F93CF93C2
S1134A90DF93009729F16B3028F5162FEC01A6DF80
S1134AA0811122C080911A1790911B17C817D9073A
S1134AB041F03EDF89818093B800D0931B17C093E7
S1134AC01A1710931C178881880F816080931D1713
S1134AD088EF8093210285EA8093BC0085E005C0BD
S1134AE086E003C087E001C082E0DF91CF911F918F
S1134AF008951F920F920FB60F9211240BB60F92C6
S1134B002F933F934F935F936F937F938F939F93D1
S1134B10AF93BF93EF93FF93E091B9008E2F90E092
S1134B20FC013897E135F10508F075C08827E45891
S1134B30FF4F8F4F76C210921917E0911917809189
S1134B401C17E81770F481E08E0F80931917F0E0BA
S1134B50E35EF84E80818093BB0085E88093BC00BF
S1134B6072C084E98093BC0080911A1790911B173E
S1134B70DC011296ED91FC911397309709F463C010
S1134B8020E040E050E064E019955DC0E091191721
S1134B9081E08E0F809319178091BB00F0E0E35EF3
S1134BA0F84E80838091B900803411F41092191763
S1134BB02091191730E080911C1790E00197281775
S1134BC0390724F485EC8093BC003DC085E88093CC
S1134BD0BC0039C08091BB00E0911917F0E0E35E9E
S1134BE0F84E808384E98093BC0080911A179091D9
S1134BF01B17DC011296ED91FC911397309719F174
S1134C0020911C174DE157E165E019951CC085EA18
S1134C108093BC0018C08091B9008093210284E085
S1134C208093BC0080911A1790911B17DC01129697
S1134C30ED91FC911397309731F020E040E050E083
S1134C40609121021995FF91EF91BF91AF919F91CE
S1134C508F917F916F915F914F913F912F910F9021
S1134C600BBE0F900FBE0F901F901895FC014111C1
S1134C7001C000D3842F90E09C012150310982238C
S1134C809323892B09F0F6D2413808F0F3D212822B
S1134C9013824483440F415045837183608380E0D1
S1134CA090E008955058BB27AA270ED021C112D1F5
S1134CB030F017D120F031F49F3F11F41EF407C1F6
S1134CC00EF4E095E7FBFDC0E92F0E94121978F37A
S1134CD0BA17620773078407950720F079F4A6F5DD
S1134CE00C9434190EF4E0950B2EBA2FA02D0B0161
S1134CF0B90190010C01CA01A0011124FF27591B1D
S1134D0099F0593F50F4503E68F11A16F040A22F22
S1134D10232F342F4427585FF3CF46953795279593
S1134D20A795F0405395C9F77EF41F16BA0B620B92
S1134D30730B840BBAF09150A1F0FF0FBB1F661FD9
S1134D40771F881FC2F70EC0BA0F621F731F841F1C
S1134D5048F4879577956795B795F7959E3F08F042
S1134D60B1CF9395880F08F09927EE0F9795879503
S1134D7008950DD0BDC0B5D048F0ACD038F021F4C2
S1134D805F3F21F09EC051110C943519A0C00E94C0
S1134D90121988F39923B9F35523A1F3951B550BE5
S1134DA0BB27AA2762177307840738F09F5F5F4FFA
S1134DB0220F331F441FAA1FA9F334D00E2E3AF03A
S1134DC0E0E831D091505040E695001CCAF72AD053
S1134DD0FE2F28D0660F771F881FBB1F26173707A3
S1134DE04807AB07B0E809F0BB0B802DBF01FF27D4
S1134DF093585F4F32F09E3F510570F062C00C949F
S1134E0035195F3FE4F3983ED4F38695779567951B
S1134E10B795F7959F5FC9F7880F911D969587956C
S1134E2097F90895E1E0660F771F881FBB1F62178B
S1134E3073078407BA0720F0621B730B840BBA0B49
S1134E40EE1F88F7E0950895E89409C097FB3EF4B7
S1134E5090958095709561957F4F8F4F9F4F9923C3
S1134E60A9F0F92F96E9BB279395F6958795779541
S1134E706795B795F111F8CFFAF4BB0F11F460FF01
S1134E801BC06F5F7F4F8F4F9F4F16C0882311F059
S1134E9096E911C0772321F09EE8872F762F05C06D
S1134EA0662371F096E8862F70E060E02AF09A9508
S1134EB0660F771F881FDAF7880F9695879597F9FD
S1134EC0089597F99F6780E870E060E008959FEF88
S1134ED080EC089500240A9416161706180609068D
S1134EE0089500240A94121613061406050608955C
S1134EF0092E0394000C11F4882352F0BB0F40F4E4
S1134F00BF2B11F460FF04C06F5F7F4F8F4F9F4F23
S1134F1008950CD0EDCFDEDF28F0E3DF18F0952301
S1134F2009F0CFCFD4CF11240C9435190E94121953
S1134F3090F3959FC1F3950F50E0551F629FF001C8
S1134F40729FBB27F00DB11D639FAA27F00DB11D01
S1134F50AA1F649F6627B00DA11D661F829F22278A
S1134F60B00DA11D621F739FB00DA11D621F839F11
S1134F70A00D611D221F749F3327A00D611D231FE7
S1134F80849F600D211D822F762F6A2F11249F5735
S1134F90504092F0E9F088234AF0EE0FFF1FBB1F48
S1134FA0661F771F881F91505040A9F79E3F5105F7
S1134FB078F087CF0C9435195F3FE4F3983ED4F32F
S1134FC0869577956795B795F795E7959F5FC1F7B0
S1134FD0FE2B880F911D9695879597F90895A1E268
S1134FE01A2EAA1BBB1BFD010DC0AA1FBB1FEE1F5F
S1134FF0FF1FA217B307E407F50720F0A21BB30BAA
S1135000E40BF50B661F771F881F991F1A9469F725
S113501060957095809590959B01AC01BD01CF0181
S11350200895EE0FFF1F881F8BBF0790F691E02DA8
S113503019940F931F93CF93DF938230910510F44B
S113504082E090E0E0912C17F0912D1720E030E001
S1135050A0E0B0E0309719F14081518102811381C1
S113506048175907C8F08417950769F4109731F069
S113507012960C93129713961C9327C000932C1727
S113508010932D1722C02115310519F0421753072B
S113509018F49A01BD01EF01DF01F801DBCF2115FE
S11350A03105F9F0281B390B2430310580F48A814D
S11350B09B816115710521F0FB019383828304C0F8
S11350C090932D1780932C17FE01329644C0FE0155
S11350D0E20FF31F8193919322503109398328837E
S11350E03AC020912A1730912B17232B41F4209199
S11350F002023091030230932B1720932A17209138
S11351000002309101022115310541F42DB73EB75B
S11351104091040250910502241B350BE0912A179B
S1135120F0912B17E217F307A0F42E1B3F0B28175F
S1135130390778F0AC014E5F5F4F2417350748F00C
S11351404E0F5F1F50932B1740932A17819391930F
S113515002C0E0E0F0E0CF01DF91CF911F910F9109
S11351600895CF93DF93009709F481C0FC0132972F
S113517013821282A0912C17B0912D17109781F4ED
S113518020813181820F931F20912A1730912B1790
S11351902817390751F5F0932B17E0932A1767C0A6
S11351A0ED0120E030E0CE17DF0740F44A815B8157
S11351B09E0141155105F1F0EA01F5CFD383C28375
S11351C040815181840F951FC817D90759F48881EC
S11351D09981840F951F0296918380838A819B8194
S11351E0938382832115310529F4F0932D17E093DD
S11351F02C173DC0E901FB83EA8349915991C40FFF
S1135200D51FEC17FD0761F480819181840F951FF0
S11352100296E90199838883828193819B838A839F
S1135220E0E0F0E012968D919C911397009719F0AD
S1135230FD01DC01F7CF8D919C9111979D012E5FAB
S11352403F4F820F931F20912A1730912B17281755
S1135250390769F4309729F410922D1710922C17FE
S113526002C013821282B0932B17A0932A17DF91E6
S1135270CF91089581E090E0F8947DC3FB01DC01B7
S113528002C001900D9241505040D8F70895DC01BE
S113529001C06D9341505040E0F70895FB015191D6
S11352A05523B1F0BF01DC01052E4D91442369F073
S11352B010D0D9F7CD010190002049F04D91411152
S11352C008D0C9F3FB014111EECF81E090E00197D2
S11352D00895402539F0403229F440294B57465E61
S11352E008F018940895FB01DC010D900020E9F703
S11352F0119701900D920020E1F70895FB01DC0164
S113530001900D920020E1F70895FB01DC0141506A
S1135310504088F08D9181341CF08B350CF4805E04
S1135320619161341CF06B350CF4605E861B611175
S113533071F3990B0895881BFCCFCF93DF93CDB7FE
S1135340DEB7AE014A5F5F4FFA0161917191AF011F
S1135350809130179091311761D0DF91CF910895EA
S11353600F931F93CF93DF93E0913017F091311790
S1135370238121FF1BC08C01D0E0C0E0F8018191A2
S11353808F016091301770913117DB011896ED9100
S1135390FC911997882331F01995892B79F3DFEF64
S11353A0CFEFECCF8AE01995892B19F08FEF9FEF9F
S11353B002C08D2F9C2FDF91CF911F910F910895E3
S11353C00F931F93CF93DF93CDB7DEB72E970FB60E
S11353D0F894DEBF0FBECDBF0E891F8986E08C8393
S11353E01A8309838FEF9FE79E838D83AE01465E08
S11353F05F4F688D798DCE01019610D0EF81F885CD
S1135400E00FF11F10822E960FB6F894DEBF0FBE88
S1135410CDBFDF91CF911F910F9108952F923F92AD
S11354204F925F926F927F928F929F92AF92BF92B0
S1135430CF92DF92EF92FF920F931F93CF93DF935C
S1135440CDB7DEB72B970FB6F894DEBF0FBECDBF36
S11354506C017B018A01FC0117821682838181FF22
S1135460BFC1CE0101963C01F6019381F70193FD82
S1135470859193FF81917F01882309F4ADC1853221
S113548039F493FD859193FF81917F01853221F455
S1135490B60190E0D6D1E8CF912C212C312CFFE13C
S11354A0F315D8F08B3279F038F4803279F0833206
S11354B0A1F4232D20611DC08D3261F0803369F485
S11354C0232D216016C0832D8260382EE32DE460E5
S11354D03E2E2AC0F32DF8601DC037FC2DC020EDF0
S11354E0280F2A3040F08E32B9F436FC75C1232DD2
S11354F02064322E19C036FE06C08AE0989E200D24
S11355001124922E11C0EAE02E9E200D1124222E89
S1135510F32DF0623F2E08C08C3621F4832D806871
S1135520382E02C0883641F4F70193FD859193FF2C
S113553081917F018111B3CF982F9F7D9554933032
S113554028F40C5F1F4F9FE399830DC0833631F01D
S1135550833771F0833509F055C020C0F80180818C
S113556089830E5F1F4F88248394912C530112C0AA
S11355702801F2E04F0E511CF801A080B18036FEE4
S113558003C0692D70E002C06FEF7FEFC5014ED1FB
S11355904C018201F32DFF773F2E15C0280122E034
S11355A0420E511CF801A080B18036FE03C0692D63
S11355B070E002C06FEF7FEFC5012DD14C01F32DD8
S11355C0F0683F2E820133FC19C0822D90E08816CA
S11355D09906A0F4B60180E290E033D12A94F5CF85
S11355E0F50137FC859137FE81915F01B60190E0AA
S11355F028D121102A9421E0821A9108811491045F
S113560079F7E1C0843611F0893639F5F80137FEAF
S113561007C060817181828193810C5F1F4F08C034
S113562060817181072E000C880B990B0E5F1F4F50
S1135630F32DFF763F2E97FF09C0909580957095C6
S113564061957F4F8F4F9F4FF0683F2E2AE030E0E7
S1135650A30133D1882E861844C0853731F4232D15
S11356602F7EB22E2AE030E025C0932D997FB92EEB
S11356708F36C1F018F4883579F0AEC0803719F050
S1135680883721F0A9C0E92FE061BE2EB4FE0DC019
S1135690FB2DF460BF2E09C034FE0AC0292F2660FA
S11356A0B22E06C028E030E005C020E130E002C0A0
S11356B020E132E0F801B7FE07C060817181828188
S11356C093810C5F1F4F06C06081718180E090E080
S11356D00E5F1F4FA301F1D0882E8618FB2DFF7794
S11356E03F2E36FE0DC0232D2E7FA22E891458F492
S11356F034FE0BC032FC09C0832D8E7EA82E05C05B
S1135700B82CA32C03C0B82C01C0B92CA4FE0FC024
S1135710FE01E80DF11D8081803321F49A2D997EDC
S1135720A92E09C0A2FE06C0B394B39404C08A2D66
S1135730867809F0B394A3FC10C0A0FE06C0B2148E
S113574080F4280C922C9B180DC0B21458F4B601A6
S113575080E290E076D0B394F8CFB21418F42B180A
S113576002C0982C212CA4FE0FC0B60180E390E067
S113577068D0A2FE16C0A1FC03C088E790E002C076
S113578088E590E0B6010CC08A2D867851F0A1FE20
S113579002C08BE201C080E2A7FC8DE2B60190E07A
S11357A050D0891430F4B60180E390E04AD09A9442
S11357B0F8CF8A94F301E80DF11D8081B60190E0E1
S11357C040D08110F6CF222009F44ECEB60180E2FB
S11357D090E037D02A94F7CFF6018681978102C0F2
S11357E08FEF9FEF2B960FB6F894DEBF0FBECDBFA1
S11357F0DF91CF911F910F91FF90EF90DF90CF90A9
S1135800BF90AF909F908F907F906F905F904F90DC
S11358103F902F900895FC01059061507040011055
S1135820D8F7809590958E0F9F1F0895FC016150C5
S1135830704001900110D8F7809590958E0F9F1FAE
S113584008950F931F93CF93DF93FB01238121FDD1
S113585003C08FEF9FEF2CC022FF16C046815781F3
S1135860248135814217530744F4A081B1819D01FD
S11358702F5F3F4F318320838C93268137812F5FA5
S11358803F4F3783268314C08B01EC01FB01008456
S1135890F185E02D1995892BE1F6D80116968D91A5
S11358A09C911797019617969C938E931697CE0109
S11358B0DF91CF911F910F910895FA01AA27283003
S11358C051F1203181F1E8946F936E7F6E5F7F4FC9
S11358D08F4F9F4FAF4FB1E03ED0B4E03CD0670F45
S11358E0781F891F9A1FA11D680F791F8A1F911D98
S11358F0A11D6A0F711D811D911DA11D20D009F4E8
S113590068943F912AE0269F11243019305D319329
S1135910DEF6CF010895462F4770405D4193B3E012
S11359200FD0C9F7F6CF462F4F70405D4A3318F0B9
S1135930495D31FD4052419302D0A9F7EACFB4E06A
S1135940A6959795879577956795BA95C9F7009722
S11359506105710508959B01AC010A2E06945795C3
S1135960479537952795BA95C9F7620F731F841F1A
S10D5970951FA01D0895F894FFCFC1
S113597A0000341720000900400040C600CE00D6BB
S113598A0036010000000300000000B3229E22003A
S113599A00F8A027BE33E034C1332042C43360E5A3
S11359AAAE33A0F2B133E0FFB433200DB833601A3A
S11359BABB33FF0186000000000079FF0179A000D3
S11359CA000000E6FF0179000000000086FF01875D
S11359DA000000000078FF01880000000000004970
S11359EA444C4500546D722053766300436F756CC2
S11359FA64206E6F742077616B6520757020484946
S1135A0A4838313230206472697665722E00436FE9
S1135A1A756C64206E6F74206D6561737572652090
S1135A2A66726F6D20484948383132302064726991
S1135A3A7665722E0052656164696E672048756DD9
S1135A4A696469747920616E642054656D70657245
S1135A5A61747572652E00436F756C64206E6F7481
S1135A6A206D656173757265200055706C6F616491
S1135A7A696E672076616C7565730073656E64443C
S1135A8A6174610050726F6772616D207374617220
S1135A9A746564212100466163746F727952657377
S1135AAA6574203E25733C0A00436F6E6669677508
S1135ABA726520746F204555383638203E25733C6C
S1135ACA0A00476574204857455549203E25733CCA
S1135ADA3A2025730A00536574204465764555496E
S1135AEA3A202573203E25733C0A0036363735356D
S1135AFA37413937423641443746374442423635CC
S1135B0A41413641304344364446450033453730F3
S1135B1A41303232434636314436303500536574A7
S1135B2A204F544141204964656E74697479206137
S1135B3A70704555493A2573206170704B45593A3E
S1135B4A2573206465764555493A2573203E2573A5
S1135B5A3C0A0053617665206D6163203E25733CDF
S1135B6A0A0053657420416461707469766520443F
S1135B7A61746120526174653A204F4E203E257348
S1135B8A3C0A005365742052656365697665722020
S1135B9A44656C61793A202564206D73203E25732F
S1135BAA3C0A004A6F696E204E6574776F726B20E7
S1135BBA54726965734C6566743A2564203E25738C
S1135BCA3C0A0055706C6F6164204D65737361679C
S1135BDA65203E25733C0A004C5248616E6400738A
S1135BEA7973207265736574006D616320706175E1
S1135BFA7365006D616320726573756D65007379F1
S1135C0A7320666163746F72795245534554007305
S1135C1A797320676574206877657569006D6163B7
S1135C2A206765742067776E62006D61632073650F
S1135C3A74206C696E6B63686B202564006D616304
S1135C4A2073657420646576657569006D616320E7
S1135C5A73657420617070657569006D6163207382
S1135C6A6574206170706B6579006D61632073657A
S1135C7A74206E776B736B6579006D61632073654D
S1135C8A7420617070736B6579006D61632073654C
S1135C9A742064657661646472006D616320736163
S1135CAA7665006D6163206A6F696E00756E636E56
S1135CBA66006D616320747820257320256420258D
S1135CCA73006F6666006D61632073657420616496
S1135CDA72006D61632067657420616472006D618E
