S01300004669726D77617265305F312E7372656314
S113000046C2000065C2000063C2000061C2000075
S11300105FC200005DC200005BC2000059C2000064
S113002057C2000055C2000053C2000051C2000074
S113003032C500004DC200004BC2000049C200009E
S113004047C2000045C2000043C2000041C2000094
S11300503FC200000C94071B3BC2000039C20000E1
S11300600C94A6260C9487220C94D92231C2000049
S11300702FC200002DC200002BC2000029C20000C4
S113008027C2000025C2000023C2000021C20000D4
S11300900C941D230C946F231BC200000C94D529CF
S11300A017C2000015C2000013C2000011C20000F4
S11300B00FC200000DC200000BC2000009C2000004
S11300C007C2000005C2000003C200000C94B32361
S11300D00C940524FDC100000C9449240C949B2429
S11300E0F7C10000BE01BE01BE01F8010002160204
S11300F0BE01BE01F8010002F729672A672A672AB0
S1130100672A672A672A672AF729672A672A672AD4
S1130110672A672A672A672AF929672A672A672AC2
S1130120672A672A672A672A672A672A672A672A43
S1130130672A672A672A672AF929672A672A672AA2
S1130140672A672A672A672A672A672A672A672A23
S1130150672A672A672A672A632A672A672A672A17
S1130160672A672A672A672A2E2A672A672A672A3C
S1130170672A672A672A672A672A672A672A672AF3
S1130180672A672A672A672A222A672A672A672A28
S1130190672A672A672A672A462A09E215E10F2E89
S11301A0F9E5EF2EF5E1FF2EF02D80912815882337
S11301B011F10FB6F8940F92D8011796ED91FC91B6
S11301C01897C085D185CE01029625D380911C1540
S11301D0815080931C158091281581508093281597
S11301E00F900FBE8B8D9C8D8AD2CE0188D28091C8
S11301F028158111DECFF7018081823008F085D384
S11302000E94F316D2CFCF93DF93CDB7DEB76097BA
S11302100FB6F894DEBF0FBECDBFCE0101969A870C
S11302208987812C912CA12CB12C69847A84E0914A
S1130230D315F091D4158081882309F40EC1078069
S1130240F085E02D20803180428053800E947F0D14
S1130250CE0101960E945C166B877C878D879E87F2
S11302608981811164C08B859C85AD85BE8582158D
S11302709305A405B50508F444C00E94C30EE0919B
S1130280D315F091D4150780F085E02DA085B185B4
S1130290B88BAF87CD010296BED2EF85F8898689E7
S11302A082FF21C04685578560897189420D531D9F
S11302B0641D751D720161010B851C852D853E85AC
S11302C0CF010E946B15882399F0C82CD92CEA2CF5
S11302D0FB2C00E010E0A201910160E08F85988979
S11302E00E94FE1505C08E7FAF85B88956968C9303
S11302F0AF85B8895496ED91FC915597CD01199528
S11303009EC020E0B201A1018B859C85AD85BE8590
S1130310481B590B6A0B7B0B8091CF159091D0151C
S113032080D60E94C30E81118AC0EFD288C00E9479
S1130330C30E85C0898188230CF481C04E805F8000
S1130340D2011C968D919C911D97892B19F0C201A5
S1130350029661D2CE0108960E945C168B019C0124
S1130360E9810E2E000CFF0BEA30F10508F067C09E
S11303708827EE58FF4F8F4F0C94302CF20186895A
S11303808160868BCA80DB80EC80FD804685578542
S1130390608971894C0D5D1D6E1D7F1DC2010E9417
S11303A06B15882309F44BC0D2015496ED91FC914E
S11303B05597C2011995F201868982FF40C04A818E
S11303C05B816C817D8186859785A089B1899A013D
S11303D0AB01280F391F4A1F5B1FC82CD92CEA2CEC
S11303E0FB2C00E010E060E0C2010E94FE1527C073
S11303F0D20156968C9156978E7F56968C931FC039
S1130400F20186898160868B4A815B816C817D8162
S113041046875787608B718B400F511F621F731F74
S113042068017901C2010E946B1509C0F201868935
S113043081FD03C0C20163D102C08E7F868B282D4B
S1130440392D4A2D5B2D662D772D8091CF159091F6
S1130450D0154ED581116ECFEACE0E947F0DCE010C
S113046001960E945C166B877C878D879E878981A5
S113047081115DCFE091D115F091D215808121E0F9
S1130480811120E0282C392C4A2C5B2C3BCF1124E1
S11304901FBECFEFD1E2DEBFCDBF00E00CBF17E03F
S11304A0A0E0B2E0E0E0F2E600E00BBF02C007909B
S11304B00D92AC34B107D9F727E1ACE4B7E001C041
S11304C01D92A437B207E1F70E94CA170C94FE30BC
S11304D097CD0895CF93DF93DC01E8E5F7E001C001
S11304E0F901208131812A173B07D0F3828193815E
S11304F0AF01480F591FA417B50749F412964D913F
S11305005C911397840F951F93838283DF01129666
S11305108D919C911397ED01C80FD91F2C173D079E
S1130520D9F42091560730915707C217D30781F0A9
S11305302A813B81820F931F13969C938E9312976B
S1130540C081D1818881998111969C938E9307C033
S11305501196DC93CE9303C011963C932E93AE1761
S1130560BF0711F0B183A083DF91CF910895CF929B
S1130570DF92EF92FF920F931F93CF93DF93EC01DF
S11305800E947F0D8091560790915707892B41F562
S1130590E8E5F7E0ACE5B7E0B183A083138212820B
S11305A0E4E0F5E1F0935707E093560713821282D3
S11305B01182108288EA9DE013969C938E93129781
S11305C0ED93FC93909353078093520790935507B0
S11305D08093540780E090E890934D0780934C07F4
S11305E0E0904C07F0904D07C7018C239D23892B85
S11305F009F075C0209709F475C09E012C5F3F4F28
S1130600C217D30708F06EC02115310509F467C07D
S113061000915407109155070217130708F45FC09F
S1130620C0915807D0915907E8E5F7E002C0FE01F0
S1130630EC018A819B818217930720F48881998138
S11306400097A9F78091560790915707C817D907C3
S113065009F445C0C080D18084E0C80ED11C8881D3
S11306609981918380834A815B81421B530B49307A
S1130670510548F0CE01820F931FFC01538342833E
S11306803B832A8327DF8A819B81081B190B1093E4
S113069055070093540720915207309153070217CE
S11306A0130720F41093530700935207E82AF92AFA
S11306B0FB82EA8219821882809150079091510737
S11306C0019690935107809350070E94C30EC11462
S11306D0D10459F40E94F916C12CD12C06C00E94F1
S11306E0C30EF8CF0E94C30EF5CFC601DF91CF91A0
S11306F01F910F91FF90EF90DF90CF900895CF93CB
S1130700DF93009799F1FC01349722813381409162
S11307104C0750914D07B90164237523672B31F1C0
S113072060817181672B11F5EF0140955095242369
S11307303523338322830E947F0D20915407309107
S113074055078A819B81820F931F9093550780934D
S11307505407CE01BFDE80914E0790914F0701965A
S113076090934F0780934E070E94C30EDF91CF9161
S11307700895FC010396928381834FEF5FEFBA01E2
S113078043835483658376839087878392878187A5
S113079010820895FC011386128608950F931F9307
S11307A0CF93DF93EB01088119812A813B810F3FAD
S11307B04FEF14072407340721F4FC01A185B28507
S11307C011C0DC01139601C0DF011496ED91FC9178
S11307D0159740815181628173810417150726079B
S11307E0370790F71496ED91FC911597FD83EC83F0
S11307F0D783C683BF83AE831596DC93CE931497B9
S11308009B878A87FC0120812F5F2083DF91CF9112
S11308101F910F910895CF93DF93FC01A285B385B7
S1130820C481D581868197819F838E83C681D78138
S1130830848195819D838C8311968D919C911297CF
S1130840E817F90731F48681978112969C938E9369
S11308501197138612868C9181508C938C91DF9121
S1130860CF910895FC016083319770833197108292
S113087031971082319720E8208331971082319785
S113088010823197108277974083319750838697EF
S11308900895A89590EC88E10FB6F894A8958093F4
S11308A060000FBE90936000A091C715B091C81569
S11308B0CD91CDBFDD91DEBFFF91EF91DF91CF915F
S11308C0BF91AF919F918F917F916F915F914F9164
S11308D03F912F911F910F91FF90EF90DF90CF9058
S11308E0BF90AF909F908F907F906F905F904F904C
S11308F03F902F901F900F900CBE0F900BBE0F9047
S11309000FBE0F90089581E008950F920FB6F894EA
S11309100F920BB60F920CB60F921F9211242F92C6
S11309203F924F925F926F927F928F929F92AF927B
S1130930BF92CF92DF92EF92FF920F931F932F9368
S11309403F934F935F936F937F938F939F93AF9353
S1130950BF93CF93DF93EF93FF93A091C715B0910B
S1130960C8150DB60D920EB60D920E942C10A091D2
S1130970C715B091C815CD91CDBFDD91DEBFFF91F4
S1130980EF91DF91CF91BF91AF919F918F917F9123
S11309906F915F914F913F912F911F910F91FF9014
S11309A0EF90DF90CF90BF90AF909F908F907F900B
S11309B06F905F904F903F902F901F900F900CBEC0
S11309C00F900BBE0F900FBE0F9008950F920FB6AD
S11309D0F8940F920BB60F920CB60F921F9211243B
S11309E02F923F924F925F926F927F928F929F923B
S11309F0AF92BF92CF92DF92EF92FF920F931F9329
S1130A002F933F934F935F936F937F938F939F9312
S1130A10AF93BF93CF93DF93EF93FF93A091C71549
S1130A20B091C8150DB60D920EB60D9213BE0E946C
S1130A30930D81110E942C10A091C715B091C81577
S1130A40CD91CDBFDD91DEBFFF91EF91DF91CF91CD
S1130A50BF91AF919F918F917F916F915F914F91D2
S1130A603F912F911F910F91FF90EF90DF90CF90C6
S1130A70BF90AF909F908F907F906F905F904F90BA
S1130A803F902F901F900F900CBE0F900BBE0F90B5
S1130A900FBE0F9008959ADF18950FB6F8940F9231
S1130AA0FC01968D0F900FBE81E0911180E00895B6
S1130AB00F931F93CF93DF93EC01042F1E8D48A156
S1130AC041110CC088819981892B09F042C08C8125
S1130AD09D810E943D121D821C8242C0011117C0DB
S1130AE050E08A819B810E94772D28A18A819B8175
S1130AF0820F911D9B838A832C813D8182179307EA
S1130B0050F1888199819B838A8380E029C050E0D9
S1130B108E819F810E94772D88A190E09195819587
S1130B2091092E813F81280F391F3F832E834881ED
S1130B3059812417350730F42C813D81820F931F8E
S1130B409F838E83023049F4112349F0115080E0D1
S1130B5007C080E005C080E003C080E001C080E001
S1130B601F5F1E8FDF91CF911F910F910895FC019C
S1130B7040A14423A9F050E026813781240F351F7A
S1130B8037832683848195812817390720F0808153
S1130B90918197838683CB01668177810C94772D2D
S1130BA00895EF92FF920F931F93CF938C010FB68A
S1130BB0F8940F92FC01C2A11C16ACF48389811134
S1130BC006C011C0F8018389811105C00CC07801E9
S1130BD0F3E1EF0EF11CC7010E94F61081110E948F
S1130BE02612C15079F78FEFF80182A30F900FBE40
S1130BF00FB6F8940F92C1A11C16ACF48085811134
S1130C0006C011C0F8018085811105C00CC07801AF
S1130C10F8E0EF0EF11CC7010E94F61081110E944A
S1130C202612C15079F78FEFF80181A30F900FBE00
S1130C30CF911F910F91FF90EF900895CF93DF9381
S1130C40EC010FB6F8940F92E881F9818F8D28A1F9
S1130C5090E030E0829FA001839F500D929F500D41
S1130C6011244E0F5F1F5D834C831E8EFB83EA832A
S1130C700197829FA001839F500D929F500D1124D4
S1130C80CF01840F951F9F838E838FEF89A38AA33F
S1130C9061110BC08885882371F0CE0108960E94EB
S1130CA0F610882341F031DE06C0CE01089661DDDE
S1130CB0CE0143965EDD0F900FBE81E0DF91CF91B0
S1130CC008950F931F93CF93DF93082F162F869FBA
S1130CD0C001112483964BDCEC01009769F01111DB
S1130CE003C09983888303C08396998388830F8F75
S1130CF018A361E0CE01A2DFCE01DF91CF911F9155
S1130D000F9108959F92AF92BF92CF92DF92EF928C
S1130D10FF920F931F93CF93DF93CDB7DEB729973D
S1130D200FB6F894DEBF0FBECDBF7C015B012E83EE
S1130D303F834887598710E0992493946C0188E095
S1130D40C80ED11C0FB6F8940F92F701968D878DBB
S1130D50981710F00230B1F4402FB501C701A8DE96
S1130D60F7019389992341F0C70143960E94F61035
S1130D70882321F0CADD02C08111C7DD0F900FBEA8
S1130D8081E04EC08E819F81A885B985892B8A2BED
S1130D908B2B21F40F900FBE80E042C0111105C0CF
S1130DA0CE0101960E94BC11192D0F900FBEA7D63B
S1130DB00FB6F8940F92F70181A18F3F09F411A2A5
S1130DC0F70182A18F3F09F412A20F900FBEBE015A
S1130DD06A5F7F4FCE0101960E94CD1181111CC024
S1130DE00FB6F8940F92F701968D878D0F900FBE72
S1130DF098130EC04E815F8168857985C6010E9473
S1130E009D10C701CEDEBFD781119CCF7EDD9ACF66
S1130E10C701C7DEB8D796CFC701C3DEB4D780E019
S1130E2029960FB6F894DEBF0FBECDBFDF91CF91E8
S1130E301F910F91FF90EF90DF90CF90BF90AF90F4
S1130E409F9008950F93CF93DF93482F60E081E044
S1130E5038DFEC01009761F01D821C821982188230
S1130E601E8200E020E030E0A90160E070E04ADF8B
S1130E70CE01DF91CF910F910895EF92FF920F93DE
S1130E801F93CF93DF938A01FC01568D378D53173F
S1130E9010F02230F9F4422F7801EC011AA18E8D62
S1130EA0CE0106DE1F3F81F48B898823A9F0CE0191
S1130EB043960E94F610882389F0E114F10481F02E
S1130EC081E0F70180830DC0FF24F394F10EFAA2B0
S1130ED081E007C080E005C081E003C081E001C07B
S1130EE081E0DF91CF911F910F91FF90EF900895D2
S1130EF09F92AF92BF92CF92DF92EF92FF920F93A5
S1130F001F93CF93DF93CDB7DEB729970FB6F8942D
S1130F10DEBF0FBECDBF8C015B012E833F834887AC
S1130F205987E12C992493946C0183E1C80ED11C58
S1130F300FB6F8940F92F801F68CFF2099F0B501E2
S1130F40C80115DEFA94F801F68E8085882331F005
S1130F50C80108960E94F6108111D7DC0F900FBECD
S1130F6081E04DC08E819F81A885B985892B8A2B0C
S1130F708B2B21F40F900FBE80E041C0E11005C01F
S1130F80CE0101960E94BC11E92C0F900FBEB7D57B
S1130F900FB6F8940F92F80181A18F3F09F411A2C2
S1130FA0F80182A18F3F09F412A20F900FBEBE0177
S1130FB06A5F7F4FCE0101960E94CD11811116C048
S1130FC0C8016BDD882371F04E815F816885798566
S1130FD0C6010E949D10C801E4DDD5D68111A8CFB9
S1130FE094DCA6CFC801DDDDCED6A2CFC801D9DD01
S1130FF0CAD6C80152DD882309F49ACF80E0299625
S11310000FB6F894DEBF0FBECDBFDF91CF911F9115
S11310100F91FF90EF90DF90CF90BF90AF909F9093
S11310200895CF93DF93EC010FB6F8940F9289A142
S11310308F3F09F419A28AA18F3F09F41AA20F90D5
S11310400FBE8E8D811104C0CE0143960E94B41050
S1131050CE01A7DDDF91CF910895FC014481558134
S113106022813381240F351F80819181B901681B4E
S1131070790BCB016417750710F0841B950B089549
S1131080AF92BF92CF92DF92EF92FF920F931F9392
S1131090CF93DF936C015B017A01FC01C281D381A0
S11310A0048115810C1B1D0B4017510708F48A019C
S11310B0F60184859585A801B5018C0F9D1F0E94BA
S11310C0772D0E151F0558F4A701401B510BB501D0
S11310D0600F711FF601848595850E94772DCE01DE
S11310E08E0D9F1DF601248135818217930710F020
S11310F0821B930BF60193838283C701DF91CF9107
S11311001F910F91FF90EF90DF90CF90BF90AF9021
S11311100895CF92DF92EF92FF920F931F93CF9394
S1131120DF931F921F92CDB7DEB75A8349832115EF
S11311303105C9F06B017C01FC01868580FD08C086
S1131140CA012417350708F4C9019A83898311C099
S11311502017310758F042E050E0BE016F5F7F4F27
S1131160C7018EDF06C080E090E008C080E090E018
S113117005C049815A81B601C70182DF0F900F90E3
S1131180DF91CF911F910F91FF90EF90DF90CF905F
S11311900895AF92BF92CF92DF92EF92FF920F9396
S11311A01F93CF93DF937C015B01E901421753073F
S11311B008F4EA01209779F1F70100811181C480D4
S11311C0D580C01AD10ACC15DD0508F46E01F701EB
S11311D064857585600F711FA601C5010E94772D76
S11311E0CC16DD0658F4AE014C195D09F70164858F
S11311F07585C5018C0D9D1D0E94772D0C0F1D1F3B
S1131200F701848195810817190710F0081B190B41
S1131210F70111830083CE01DF91CF911F910F91CC
S1131220FF90EF90DF90CF90BF90AF900895FF9222
S11312300F931F93CF93DF938B01FF24F3944130DB
S113124009F0F12C0115110511F401E010E09C01E5
S1131250205F3F4F82179307B0F4EC012196C90138
S113126086D9FC01892B89F08FE0DF011D928A95D4
S1131270E9F7CF010F9695878487D583C4831783B5
S11312800683F68602C0E0E0F0E0CF01DF91CF9163
S11312901F910F91FF9008950FB6F8940F92DC01FF
S11312A018962D913C911997232B51F51A962D914F
S11312B03C911B97232B31F51E962C911E97169665
S11312C04D915C91179714966D917C9115971C968E
S11312D0ED91FC911D973FE01D923A95E9F7DC01F1
S11312E01D96FC93EE931C9715967C936E9314971E
S11312F017965C934E9316971E962C9381E003C029
S113130080E001C080E00F900FBE0895FC012481AD
S113131035818081918142815381820F931F01978E
S1131320841B950B8217930710F0821B930B08956F
S11313302F923F924F925F926F927F928F929F92E1
S1131340AF92BF92CF92DF92EF92FF920F931F93CF
S1131350CF93DF93CDB7DEB72B970FB6F894DEBFEC
S11313600FBECDBF4C017B876A871A010E831F8392
S113137028873987FC01848195810197268520FF80
S11313800CC02A01F2E04F0E511C8415950550F44F
S11313901E821F821886198646C02A018417950763
S11313A008F42C018E819F81A885B985892B8A2B0D
S11313B08B2B09F438C0CE010196C8D70FB6F89428
S11313C00F92C401A3DF3C018415950538F560E054
S11313D080E090E00E9451150E942A12F401938744
S11313E082870F900FBEAE80BF80C884D984E12C61
S11313F0F12C00E010E0980140E050E0BA0180E0F8
S11314000E949812F40113861286BE016A5F7F4F10
S1131410CE010196C2D7882389F202C00F900FBE75
S11314206114710419F4C40171DF3C018201930158
S1131430A1016A857B85C4016CDE6C01892BE9F00E
S1131440C4010BDEF4012681378182179307A8F0CB
S113145056D3F40180859185892B71F0808591851F
S1131460E12CF12C00E020E030E0A90160E00E94D2
S11314703F13F4011186108686D4C6012B960FB64D
S1131480F894DEBF0FBECDBFDF91CF911F910F91B6
S1131490FF90EF90DF90CF90BF90AF909F908F9090
S11314A07F906F905F904F903F902F900895AF92F0
S11314B0BF92CF92DF92EF92FF920F931F93CF933D
S11314C0DF93EC017B015A0169018E8580FF04C022
S11314D08A010E5F1F4F01C08A01CE0117DF9C01F4
S11314E0A501B701CE0115DE5C01892BC1F0CE0147
S11314F0B4DD2E813F818217930788F08885998512
S1131500892B69F088859985E12CF12C00E020E095
S113151030E0A90160E00E94331419861886C501E1
S1131520DF91CF911F910F91FF90EF90DF90CF90BB
S1131530BF90AF9008952F923F924F925F926F9217
S11315407F928F929F92AF92BF92CF92DF92EF924F
S1131550FF920F931F93CF93DF931F921F92CDB7E8
S1131560DEB74C011B012A0158016901FC01868583
S113157080FD03C0612C712C04C06894662461F85A
S1131580712CA114B104C104D10441F10FB6F89433
S11315900F92C40162DD8C016816790648F060E0A0
S11315A080E090E00E94511555D7F401918780871F
S11315B00F900FBE60167106B8F0E12CF12C00E01C
S11315C010E0980140E050E0BA0180E0B1D7F401A6
S11315D011861086C40141DD8C0103C0C4013DDDC8
S11315E08C0160167106C8F561147104C1F0F40130
S11315F0C080D1809801A301BE016F5F7F4FC401F9
S1131600C8DD89819A81061917094816590630F4EC
S1131610F401D182C082412C512C01C02C019801CB
S1131620A201B101C401B5DD6C01892BC1F067D2FF
S1131630F40182859385892B71F082859385E12C51
S1131640F12C00E020E030E0A90160E00E943F13AB
S1131650F4011386128697D302C0C12CD12CC60183
S11316600F900F90DF91CF911F910F91FF90EF900A
S1131670DF90CF90BF90AF909F908F907F906F90AE
S11316805F904F903F902F900895E0914115F09115
S11316904215808181110CC08FEF9FEFDC01809394
S11316A00B1590930C15A0930D15B0930E1508957A
S11316B0E0914115F09142150780F085E02D80817D
S11316C09181A281B38180930B1590930C15A09303
S11316D00D15B0930E1508958F929F92AF92BF92FD
S11316E0CF92DF92EF92FF92CF93DF936B017C0155
S11316F0C42F8090181590901915A0901A15B090C9
S11317001B158091C7159091C815029684D88FEF48
S1131710C816D806E806F806B1F5CC23A1F1EDE128
S1131720F5E1A181B281C091C715D091C815BF83DD
S1131730AE83C091C715D091C81516968D919C9112
S11317401797998788871696CD91DC911797809182
S1131750C7159091C81502969D838C838091C715F7
S11317609091C815029617969C938E931697A09104
S1131770C715B091C8151D96FC93EE931C978081F4
S11317808F5F80833FC0C80CD91CEA1CFB1CE0910E
S1131790C715F091C815C282D382E482F582C814B9
S11317A0D904EA04FB0468F46091C7157091C81564
S11317B080913F15909140156E5F7F4F0E94CE033C
S11317C021C06091C7157091C81580914115909101
S11317D042156E5F7F4F0E94CE0380910B1590914E
S11317E00C15A0910D15B0910E15C816D906EA0670
S11317F0FB0640F4C0920B15D0920C15E0920D1527
S1131800F0920E15DF91CF91FF90EF90DF90CF9083
S1131810BF90AF909F908F9008954F925F926F9278
S11318207F928F929F92AF92BF92CF92DF92EF926C
S1131830FF920F931F93CF93DF934C016B015A01D7
S11318402901CA010E94B7023C01892B09F40DC188
S113185084E390E00E94B702EC01892B99F07C8E1E
S11318606B8EA50165EA70E0C3010E94802D81E0C2
S1131870A81AB1088B8D9C8DA80EB91EC114D10471
S113188029F420C0C3010E947F03EFC0D6018C91CC
S11318908D8F8C918823A1F0AE01425E5F4FF601DB
S11318A03196B0E1CB0ED11CCF012191DA012D93F9
S11318B0AD01DC018C91882319F0CE16DF06A1F767
S11318C01CA601C01D8E0A3008F009E00A8F0DA77E
S11318D01EA66E01B2E0CB0ED11CC6010E94CA0343
S11318E0CE010E960E94CA03DB87CA878AE090E085
S11318F0A0E0B0E0801B9109A109B1098E879F8700
S1131900A88BB98BDF8BCE8B84E0FE01BF96DF0101
S11319101D928A95E9F71BAAA201B401C5010E9490
S1131920320499838883E114F10419F0F701D18317
S1131930C0830FB6F8940F9280911C158F5F80932B
S11319401C158091C7159091C815892BD1F5D0939A
S1131950C815C093C71580911C15813009F041C08A
S113196009E515E10F2EF7ECEF2EF5E1FF2EF02D32
S1131970C8010E94B903055F1F4F0E151F05C1F76B
S11319808EE495E10E94B90383E495E10E94B903D2
S113199084E395E10E94B90389E295E10E94B903C9
S11319A08DE195E10E94B9038EE495E1909342158F
S11319B08093411583E495E19093401580933F15FE
S11319C010C08091161581110CC0E091C715F091DB
S11319D0C815928D8A8D891720F0D093C815C093AD
S11319E0C71580910F158F5F80930F15EA8D809135
S11319F017158E1710F4E09317158BE08E9FF001E6
S1131A001124E75AFA4E0180F281E02DFF83EE8320
S1131A102681378139872887A681B7811596DC927C
S1131A20CE921497D782C682EA8D8E9FF00111243C
S1131A30E75AFA4EFD87EC8780818F5F80830F9091
S1131A400FBE80911615882361F0E091C715F091BF
S1131A50C815928D8A8D981730F40E94850481E010
S1131A6005C081E003C081E001C08FEFDF91CF9119
S1131A701F910F91FF90EF90DF90CF90BF90AF90A8
S1131A809F908F907F906F905F904F900895EF920A
S1131A90FF920F930F2EF9E0EF2EF5E1FF2EF02DBC
S1131AA000E020E030E040EC50E06FE672E08DECC6
S1131AB090E0B3DE8130E9F40E94DD158130C9F491
S1131AC0F8948FEF9FEFDC0180930B1590930C1526
S1131AD0A0930D15B0930E1581E080931615109206
S1131AE018151092191510921A1510921B150E94B0
S1131AF04904809106020F91FF90EF900895809120
S1131B0008158F5F8093081508950FB6F8940F9207
S1131B10609118157091191580911A1590911B15E3
S1131B200F900FBE0895CF92DF92EF92FF920F9322
S1131B301F93CF93DF9380910815811107C1C09043
S1131B401815D0901915E0901A15F0901B158FEF09
S1131B50C81AD80AE80AF80AC0921815D0921915BA
S1131B60E0921A15F0921B15C114D104E104F1049A
S1131B70B1F4809141159091421520913F15309117
S1131B80401530934215209341159093401580934E
S1131B903F15809110158F5F8093101576DD80912D
S1131BA00B1590910C15A0910D15B0910E15C8163A
S1131BB0D906EA06FB0610F480E0B3C080E04BE0EF
S1131BC051E0E0914115F0914215908191110CC0C2
S1131BD04FEF5FEFBA0140930B1550930C156093D0
S1131BE00D1570930E159DC0E0914115F0914215AD
S1131BF00780F085E02D0084F185E02D02811381BA
S1131C0024813581C016D106E206F30648F4009318
S1131C100B1510930C1520930D1530930E1581C0E0
S1131C20A485B585C681D781208531853F832E83E0
S1131C30C085D185268137813D832C839F012E5F0A
S1131C403F4F11966D917C9112976217730731F48F
S1131C506085718512967C936E9311971586148610
S1131C609C9191509C93A08DB18D109709F1C289DC
S1131C70D389648975897F836E83C489D589628990
S1131C8073897D836C831196CD91DC911297BF018A
S1131C90625F7F4FC617D70731F46489758912963E
S1131CA07C936E931197118E108E9C9191509C93FE
S1131CB0A28D909117159A1710F4A09317154A9FA7
S1131CC0D0011124A75ABA4E11960D90BC91A02DA3
S1131CD0B783A68316966D917C9117977187608759
S1131CE01696CD91DC9117973D832C8317963C93E0
S1131CF02E931697A28D4A9FD0011124A75ABA4E4B
S1131D00B587A4879C919F5F9C93A091C715B091C0
S1131D10C815228D5A969C91291708F452CF852F05
S1131D2050CFE091C715F091C815E28D9BE0E99F73
S1131D30F0011124E75AFA4E9081923008F081E0C4
S1131D40909111159923B1F081E014C0809112157E
S1131D5090911315A0911415B09115150196A11D1C
S1131D60B11D8093121590931315A0931415B0937D
S1131D70151580E0DF91CF911F910F91FF90EF90A7
S1131D80DF90CF900895CF92DF92EF92FF920F935E
S1131D901F93CF93DF930FB6F8940F928091081599
S1131DA0815080930815809108158111C4C08091D9
S1131DB01C1581118BC0C2C0D8011796ED91FC91FE
S1131DC018970084F185E02DA08DB18D82899389C7
S1131DD064897589EC017F836E838489958962891E
S1131DE07389EC017D836C83CF010E9611966D91FE
S1131DF07C9112976817790731F484899589129632
S1131E009C938E931197118E108E8C9181508C938C
S1131E10A485B5858681978160857185EC017F8372
S1131E206E838085918566817781EC017D836C83E7
S1131E30CF01029611966D917C91129768177907DC
S1131E4031F46085718512967C936E931197158693
S1131E5014862C9121502C93A28D209117152A17AA
S1131E6010F4A09317153A9FD0011124A75ABA4E23
S1131E7011960D90BC91A02DB783A68316966D91F3
S1131E807C9117977187608716966D917C9117974F
S1131E90EB019D838C8317969C938E931697A28D4A
S1131EA03A9FD0011124A75ABA4EB587A4878C91C2
S1131EB08F5F8C93A091C715B091C815928D5A96D7
S1131EC08C91981748F04093111506C0E0E0F0E0BB
S1131ED004E315E13BE041E0D8018C9181116CCF22
S1131EE0EF2B09F0D2DBC0901215D0901315E090BF
S1131EF01415F0901515C114D104E104F10499F0FE
S1131F00C1E011DE8111C0931115B1E0CB1AD108E3
S1131F10E108F108B1F710921215109213151092FE
S1131F2014151092151580911115882331F00E9413
S1131F30850481E003C080E001C080E00F900FBE03
S1131F40DF91CF911F910F91FF90EF90DF90CF9091
S1131F500895CF92DF92EF92FF920F931F93CF9346
S1131F60DF93EC016A017B01CADD00911815109121
S1131F70191520911A1530911B1588819981AA8110
S1131F80BB81AC01BD014C0D5D1D6E1D7F1D08178D
S1131F9019072A073B07B8F4481759076A077B074C
S1131FA090F5FF24F394041715072607370708F064
S1131FB0F12C488359836A837B830417150726070A
S1131FC03707A0F40BC0481759076A077B07A0F02E
S1131FD0041715072607370778F015C0CB01BA0197
S1131FE0601B710B820B930B40E076DBCCDE81111E
S1131FF010C00E9485040DC0488359836A837B8383
S1132000FF24F394EBCF488359836A837B83F12CB9
S1132010EDCF8F2DDF91CF911F910F91FF90EF9016
S1132020DF90CF900895CF92DF92EF92FF926B01F1
S11320307C01672B682B692B41F061DD40E0C7010F
S1132040B6014ADBA0DE811102C00E948504FF9024
S1132050EF90DF90CF90089580910815882321F0A8
S113206081E080931115089510921115A091C71560
S1132070B091C815E091C715F091C8152D913C9108
S1132080838D948D8217930758F06091C7157091D2
S1132090C8158091C7159091C815635E7F4FB5D65A
S11320A080911715282F30E09BE0899FF0011124BF
S11320B0E75AFA4E908191110EC04BE08150282FBF
S11320C030E0429FF001439FF00D1124E75AFA4E8D
S11320D09081992399F39BE0929FA001939F500DC7
S11320E01124DA01A75ABA4E1196ED91FC91129778
S11320F00480F581E02D1296FC93EE931197445AD7
S11321005A4EE417F50729F444815581FD015283A1
S113211041839BE0929FF001939FF00D1124E75AB5
S1132120FA4E0180F281E02D208531853093C81567
S11321302093C715809317150895CF92DF92EF92DD
S1132140FF926A017B016091C7157091C815625FA7
S11321507F4F0E94CE0341E0C701B601BDDAFF9074
S1132160EF90DF90CF900895CF93DF93FC01CB01E4
S1132170BA01A181B281C091C715D091C815BB8B9A
S1132180AA8BC091C715D091C81516964D915C9134
S113219017975D8B4C8B1696CD91DC9117974091D8
S11321A0C7155091C815425F5F4F5D834C834091C2
S11321B0C7155091C815425F5F4F17965C934E93B5
S11321C01697A091C715B091C8155996FC93EE9334
S11321D0589730813F5F3083222319F06FEF7FEFF0
S11321E0CB01422F79DADF91CF910895CF93DF931A
S11321F0DC011796ED91FC9118970084F185E02D90
S1132200A08DB18DC289D389848995899F838E835A
S1132210C489D589828993899D838C839F01225F98
S11322203F4F11968D919C9112978217930731F429
S11322308489958912969C938E931197118E108E92
S11322408C9181508C9380910815811152C0A48582
S1132250B585C681D781808591859F838E83C0850E
S1132260D185868197819D838C839F012E5F3F4F0B
S113227011968D919C9112978217930731F4808562
S1132280918512969C938E931197158614868C9142
S113229081508C93A28D809117158A1710F4A09306
S11322A017158BE08A9FD0011124A75ABA4E1196B4
S11322B00D90BC91A02DB783A68316964D915C9189
S11322C01797518740871696CD91DC9117973D83D8
S11322D02C8317963C932E931697A28D8A9FD00138
S11322E01124A75ABA4EB587A4878C918F5F8C931B
S11322F01CC044E355E1DA011196CD91DC911297AB
S1132300D38BC28B8E819F81958B848B8E819F8191
S1132310DC0115963C932E9314973F832E83518FA3
S1132320408FDA018C918F5F8C93A091C715B09187
S1132330C815928D5A968C91891720F481E0809368
S1132340111501C080E0DF91CF9108950FB6F89484
S11323500F9220911015FC01208340911815509183
S1132360191560911A1570911B154183528363836B
S113237074830F900FBE089520911015FC012083E3
S1132380409118155091191560911A1570911B15EB
S113239041835283638374830895CF92DF92EF92D3
S11323A0FF920F931F93CF93DF93FB010FB6F89423
S11323B00F92409118155091191560911A1570914A
S11323C01B1500811181228133810F3FAFEF1A0762
S11323D02A073A0779F1EC01C980DA80EB80FC80A6
S11323E0A0911015B881BA1759F04C155D056E050A
S11323F07F0530F0108211821282138281E01BC0AB
S11324004C195D096E097F0940175107620773076C
S113241058F4041B150B260B370B008311832283FE
S11324203383AADF80E007C01082118212821382F4
S113243081E001C080E00F900FBEDF91CF911F912A
S11324400F91FF90EF90DF90CF90089581E08093FB
S1132450111508958091C7159091C815089580911C
S11324601615882331F080910815882321F080E027
S1132470089581E0089582E008950F931F93CF9308
S1132480DF93FC01892B09F449C086A5815086A7F6
S1132490228D95A5291709F443C0811143C0EF018A
S11324A08F010E5F1F4FC8010E940B04EDA5EA8F38
S11324B08AE090E0A0E0B0E08E1B9109A109B10987
S11324C08E879F87A88BB98B809117158E1710F470
S11324D0E09317158BE08E9FF0011124E75AFA4E12
S11324E00180F281E02DFF83EE83268137813987D5
S11324F02887A681B78115961C930E93149717838A
S11325000683EA8D8E9FF0011124E75AFA4EFD8767
S1132510EC8780818F5F808381E005C080E003C009
S113252080E001C080E0DF91CF911F910F91089569
S11325304F925F926F927F92AF92BF92CF92DF924F
S1132540EF92FF920F931F93CF93DF9328013901EA
S11325500FB6F8940F92E091C715F091C815C82FE3
S1132560D0E0EC0FFD1F83A9823071F1E091C71513
S1132570F091C815CE01880F991F880F991FE80F95
S1132580F91F87A590A9A1A9B2A940955095609576
S11325907095482359236A237B2347A750AB61AB2B
S11325A072ABE091C715F091C815EC0FFD1F81E0E7
S11325B083ABA114B104C104D10431F041E0C601DC
S11325C0B5018AD80E9485040F900FBE0FB6F89407
S11325D00F92E114F104A1F0E091C715F091C81530
S11325E0CE01880F991F880F991FE80FF91F87A53F
S11325F090A9A1A9B2A9F70180839183A283B3838F
S1132600E091C715F091C815EC0FFD1F83A9823026
S1132610E9F4E091C715F091C815CE01880F991F10
S1132620880F991FE80FF91F87A590A9A1A9B2A93E
S11326304094509460947094482259226A227B22D8
S113264047A650AA61AA72AA81E001C080E0209145
S1132650C7153091C815C20FD31F1BAA0F900FBE08
S1132660DF91CF911F910F91FF90EF90DF90CF906A
S1132670BF90AF907F906F905F904F9008958F922E
S11326809F92AF92BF92EF92FF920F93CF93DF93FB
S1132690DC010FB6F8940F92E114F10479F0FC0117
S11326A084E0689FE00DF11D112487A490A8A1A8DF
S11326B0B2A8F70180829182A282B38270E0FD0108
S11326C0E60FF71F83A992E093AB0230F9F018F4F8
S11326D0013031F049C0033069F10430B9F144C02C
S11326E0660F771F660F771FFD01E60FF71F87A49C
S11326F090A8A1A8B2A8BA01A901482959296A2910
S11327007B2947A750AB61AB72AB2EC0660F771F16
S1132710660F771FFD01E60FF71F47A550A961A9B2
S113272072A94F5F5F4F6F4F7F4F47A750AB61ABAD
S113273072AB1AC0660F771F660F771FFD01E60F95
S1132740F71F27A730AB41AB52AB0EC0823009F460
S113275079C0660F771F660F771FFD01E60FF71F1D
S113276027A730AB41AB52AB813009F06DC01C964A
S1132770ED91FC911D971696CD91DC9117971896C3
S11327808D919C9119979F838E831896CD91DC919E
S1132790199716968D919C9117979D838C839D0113
S11327A02E5F3F4F818192818217930731F41896EF
S11327B08D919C911997928381831D961C921E92F0
S11327C01C978081815080835A96EC915A9780910E
S11327D017158E1710F4E09317158BE08E9FF001F8
S11327E01124E75AFA4E0180F281E02D1796FC93EA
S11327F0EE9316974681578119965C934E931897DA
S1132800C681D7813D832C83378326835A96EC91E6
S11328105A978E9FF0011124E75AFA4E1D96FC93A5
S1132820EE931C9780818F5F8083E091C715F091B0
S1132830C8155A969C91828D891740F40E9485048C
S113284081E005C080E003C081E001C081E00F9019
S11328500FBEDF91CF910F91FF90EF90BF90AF909B
S11328609F908F9008958F929F92AF92BF92CF9234
S1132870DF92EF92FF920F93CF93DF93DC01E11489
S1132880F10479F0FC0184E0689FE00DF11D11244E
S113289087A490A8A1A8B2A8F70180829182A282FD
S11328A0B38270E0FD01E60FF71F83A992E093ABBA
S11328B00230F9F018F4013031F049C0033069F105
S11328C00430B9F144C0660F771F660F771FFD010E
S11328D0E60FF71F87A490A8A1A8B2A8BA01A9017E
S11328E0482959296A297B2947A750AB61AB72ABA8
S11328F02EC0660F771F660F771FFD01E60FF71FC7
S113290047A550A961A972A94F5F5F4F6F4F7F4FD1
S113291047A750AB61AB72AB1AC0660F771F660F47
S1132920771FFD01E60FF71F27A730AB41AB52AB72
S11329300EC0823009F4A4C0660F771F660F771F9C
S1132940FD01E60FF71F27A730AB41AB52AB813037
S113295009F098C08091081581115FC01C96ED9113
S1132960FC911D971696CD91DC91179718968D9131
S11329709C9119979F838E831896CD91DC9119971A
S113298016968D919C9117979D838C839D012E5F44
S11329903F4F818192818217930731F418968D916C
S11329A09C911997928381831D961C921E921C9769
S11329B08081815080835A96EC915A9780911715A3
S11329C08E1710F4E09317158BE08E9FF0011124FD
S11329D0E75AFA4E0180F281E02D1796FC93EE93AC
S11329E016974681578119965C934E931897C68122
S11329F0D7813D832C83378326835A96EC915A974B
S1132A008E9FF0011124E75AFA4E1D96FC93EE9323
S1132A101C9780818F5F808320C044E355E1FA01D5
S1132A20C181D2815396DC93CE9352978E819F813C
S1132A3055969C938E9354972E813F81CD010E968B
S1132A40F901958384839F838E8359965C934E9377
S1132A505897FA0180818F5F8083E091C715F091C8
S1132A60C8155A969C91828D891770F4C114D104AB
S1132A7019F081E0F601808381E08093111505C08F
S1132A8080E003C081E001C081E0DF91CF910F912C
S1132A90FF90EF90DF90CF90BF90AF909F908F907A
S1132AA00895009721F48091C7159091C8150FB629
S1132AB0F8940F9270E0FC01E60FF71F23A922306F
S1132AC031F4FC01E60FF71F13AA81E001C080E096
S1132AD00F900FBE0895CF92DF92EF92FF920F9363
S1132AE01F93FC0142835383648375839387828796
S1132AF00417150726073707C0F00C191D092E09FE
S1132B003F0986859785A089B189081719072A077F
S1132B103B0700F5BF016E5F7F4F8091D115909107
S1132B20D2150E94CE0380E018C00C151D052E0599
S1132B303F0528F44C155D056E057F0568F4BF015B
S1132B406E5F7F4F8091D3159091D4150E94CE0370
S1132B5080E003C081E001C081E01F910F91FF90EC
S1132B60EF90DF90CF9008950FB6F8940F92809174
S1132B70CF159091D015892BE9F480EE95E10E9450
S1132B80B90385ED95E10E94B90380EE95E1909338
S1132B90D4158093D31585ED95E19093D215809348
S1132BA0D11540E067E08AE00E9461069093D01559
S1132BB08093CF150F900FBE0895EF92FF920F935D
S1132BC0D3DF8091CF159091D015892B91F00F2EE2
S1132BD0FDECEF2EF5E1FF2EF02D03E020E030E0D8
S1132BE040EC50E064E772E083E091E00E940D0C59
S1132BF001C080E00F91FF90EF9008958F929F9213
S1132C00AF92BF92CF92DF92EF92FF920F931F93F6
S1132C10CF93DF93CDB7DEB727970FB6F894DEBF17
S1132C200FBECDBFE091CF15F091D015309781F153
S1132C3069832A833B834C835D839F838E836630C1
S1132C40F4F40DDC823069F400E0A7019601BE01C2
S1132C506F5F7F4F8091CF159091D0150E948206AF
S1132C6018C000E020E030E0A901BE016F5F7F4F93
S1132C708091CF159091D0150E9482060AC020E061
S1132C80A801BE016F5F7F4FCF010E943D0701C0C5
S1132C9080E027960FB6F894DEBF0FBECDBFDF915C
S1132CA0CF911F910F91FF90EF90DF90CF90BF9045
S1132CB0AF909F908F9008952F923F924F925F9282
S1132CC06F927F928F929F92AF92BF92CF92DF9238
S1132CD0EF92FF920F931F93CF93DF931C010E94F7
S1132CE0850D2B013C018091C9159091CA15A091C5
S1132CF0CB15B091CC15481659066A067B0608F028
S1132D0053C03BC00780F085E02D80809180A28075
S1132D10B380C085D1858E010E5F1F4FC8010E940C
S1132D200B04EC89FD89CE0119958E8982FF25C09B
S1132D308E859F85A889B989880D991DAA1DBB1DFB
S1132D4088169906AA06BB0670F48A839B83AC8313
S1132D50BD83DB87CA87B8018091D3159091D415C0
S1132D600E94CE030AC0C12CD12C760100E010E0F1
S1132D70A501940160E0CE0141DFE091D315F0910B
S1132D80D41580818111BECF8091D1159091D21537
S1132D909093D4158093D315F093D215E093D11565
S1132DA081E0F101808302C0F10110824092C915D3
S1132DB05092CA156092CB157092CC15C301B20122
S1132DC0DF91CF911F910F91FF90EF90DF90CF9003
S1132DD0BF90AF909F908F907F906F905F904F9037
S1132DE03F902F9008950895279A2F9A08951F9A37
S1132DF00895FADF2FEF80E792E021508040904061
S1132E00E1F700C00000F3DFF5CFEEDF2FEF87EA34
S1132E1091E6215080409040E1F700C00000E7DFD8
S1132E20F5CFCF93DF93CDB7DEB76A970FB6F8949B
S1132E30DEBF0FBECDBF0E94850D69837A838B836D
S1132E409C830F2EF3E0EF2EF02DFF24F3944EE33A
S1132E5059E460E070E0CE0101967BD88CE792E003
S1132E600E94F32DEE82FD828CE090E00E94B70276
S1132E708C01A6D0F80160817181828193812AD26C
S1132E806F83F801648175818681978123D2688775
S1132E90F80160857185828593851CD26987BE019E
S1132EA06B5F7F4F80E0BDD6C8010E947F03CFCF08
S1132EB0CF93DF9300D01F92CDB7DEB70E94850D6C
S1132EC069837A838B839C8311E041E752E060E05D
S1132ED070E0CE0101963DD88DE892E00E94F32D7A
S1132EE082B1812782B983E992E0A0D2EECFEF923A
S1132EF0FF920F938091681790916917892B89F439
S1132F0081E00E94220790936917809368170097C5
S1132F1041F000E020E030E0A90160E070E00E94B0
S1132F208206E12CF12C03E020E030E040EC50E09C
S1132F3063EA72E081E197E10E940D0C02E020E077
S1132F4030E040EC50E06CEA72E088E597E10E94E2
S1132F500D0C0F91FF90EF900895F7D383E00E943A
S1132F60DA2080E090E015D309C3089581B1816827
S1132F7081B90E94690280E00E94FD24EEDFB7DF80
S1132F8085E00E941F2860E070E081E06CD583E05A
S1132F908DC10895EBDF82EB92E00E94F32D0E9435
S1132FA0470DFFCFEDD31F928F9384EC92E09F9354
S1132FB08F930E94E02D0F900F900F900F90089523
S1132FC00F931F93CF93DF931F921F92CDB7DEB75A
S1132FD08C01E8DF2FEF8DEE92E02150804090408D
S1132FE0E1F700C00000E1D31F928F9380EE92E0DE
S1132FF09F938F930E94E02D0F900F900F900F904E
S113300009C0EFEFFDEE22E0E150F0402040E1F78F
S113301000C00000B2D38823A1F3D8D3F8016083A1
S1133020718382839383E6D3F801648375838683F3
S113303097830E94FF201F928F938CEF92E09F93BF
S11330408F930E94E02DCE0101960E942E2169816A
S11330507A8180E090E06AD1F80160877187828785
S113306093870F900F900F900F900F900F90DF9118
S1133070CF911F910F910895CF93DF93CDB7DEB712
S113308068970FB6F894DEBF0FBECDBF81E02BD595
S113309062E070E080E090E00E94131080E023D5AD
S11330A066E970E080E090E00E941310D5D481E0DE
S11330B00E946D2826D5A2D79F938F9387E193E032
S11330C09F938F930E94E02D9AD698D79F938F93C6
S11330D08AE293E09F938F930E94E02D8E010B5F11
S11330E01F4FC80120D58AD71F930F939F938F93A7
S11330F083E493E09F938F930E94E02DC8012FD522
S11331007DD79F938F931F930F9387E593E09F93AE
S11331108F930E94E02DA8016CE673E08DE893E0A4
S11331204CD76CD79F938F931F930F938CE693E0A8
S11331309F938F938DE893E09F938F938EE993E011
S11331409F938F930E94E02D3DD558D79F938F93E3
S113315084ED93E09F938F930E94E02D0FB6F89433
S1133160DEBF0FBECDBF81E027D648D79F938F9394
S113317083EE93E09F938F930E94E02D84EF91E080
S113318026D63CD79F938F9381E08F9384EF8F93C0
S113319084E094E09F938F930E94E02D0FB6F894FF
S11331A0DEBF0FBECDBF0AE010E00F2EF4E2EF2E1B
S11331B0F4E0FF2EF02D80E00BD5D82E1FD79F937F
S11331C08F931F930F93FF92EF920E94E02D0F9025
S11331D00F900F900F900F900F90F8E0DF16C1F151
S11331E080E00E94D12866E371E080E090E00E94D4
S11331F0131001501109F9F624C00E948504FDCF73
S113320048EA58E460E070E0CE0101960E94A90FFC
S1133210F80182829382A482B582C682D78283E037
S11332200E94E328B80180E0FCD4E8D69F938F93F2
S1133230FF92EF920E94E02D0F900F900F900F904D
S1133240DFCF81E00E94C22880E00E949028D5CF81
S113325081E00E94B328EBEEF5E186E0818382E011
S113326080830E94850D69837A838B839C830BEE14
S113327015E10F2EF0E38F2EF02D0F2EF9E39F2E84
S1133280F02D6894AA24A1F80F2EF3EABF2EF02D96
S11332906894CC24C2F80F2EFAE1DF2EF02D0F2E05
S11332A0F4E4EF2EF4E0FF2EF02DAACFEF92FF927C
S11332B00F93E12CF12C082F20E030E048E851E096
S11332C069E574E08CE398E10E940D0C0F91FF9086
S11332D0EF90089570D088F09F5790F0B92F9927F8
S11332E0B751A0F0D1F0660F771F881F991F1AF00D
S11332F0BA95C9F712C0B13081F077D0B1E0089522
S113330074C0672F782F8827B85F39F0B93FCCF3A2
S1133310869577956795B395D9F73EF49095809502
S1133320709561957F4F8F4F9F4F0895E89409C022
S113333097FB3EF490958095709561957F4F8F4FE4
S11333409F4F9923A9F0F92F96E9BB279395F695FA
S1133350879577956795B795F111F8CFFAF4BB0F78
S113336011F460FF1BC06F5F7F4F8F4F9F4F16C0DC
S1133370882311F096E911C0772321F09EE8872F66
S1133380762F05C0662371F096E8862F70E060E022
S11333902AF09A95660F771F881FDAF7880F96959B
S11333A0879597F9089557FD9058440F551F59F084
S11333B05F3F71F04795880F97FB991F61F09F3F1E
S11333C079F087950895121613061406551FF2CF47
S11333D04695F1DF08C0161617061806991FF1CF97
S11333E086957105610508940895E894BB276627BE
S11333F07727CB0197F9089581B38F6081BB289813
S1133400289A21B381E090E00090321602C0880F20
S1133410991F0A94E2F78095822381BBE0910116FB
S1133420F0910216309709F019950895CF93DF9320
S1133430EC01FC0101900020E9F73197E81BF90B3E
S1133440E0930716E13208F47DC018A20E94D62D3D
S1133450809107168530E0F444E050E0481B5109A0
S11334601416150674F480E090E020E02F5FFC0150
S1133470E85FF94E1082822F90E084179507B4F329
S113348001C020E01092041691E0920F20E02EC0BB
S1133490E8E0F6E110821182128223E0F5CFFE010A
S11334A0E40FF51FA08130ED3A0F3A3050F4E82FC5
S11334B0F0E0E85FF94EB0E0A05DBB4F8C918083F3
S11334C013C03FEB3A0F363050F4E82FF0E0E85FDA
S11334D0F94EB0E0A75DBB4F8C91808305C0E82F07
S11334E0F0E0E85FF94E10822F5F9F5F8FEF890F46
S11334F0422F50E0FE0101900020E9F73197EC1BC8
S1133500FD0B4E175F0758F220910716253010F176
S1133510E82FF0E0E85FF94E1082E92FF0E0E85F71
S1133520F94E1082E1E0E90FF0E0E85FF94E108215
S11335309E5F909304161092031610920616109232
S1133540051608C00E94D62D80910716853008F410
S113355083CF9ECFEEE2F6E1A8E0B6E18C918083C2
S113356011968C911197818312968C911297828374
S113357013968C918383DF91CF91089585B58560EF
S113358085BD089585B5887F85BD81B38F6081BB76
S113359008958F92AF92CF92EF920F931F93CF9390
S11335A0DF93EC0180B38F6080BB81B38F6081BBFC
S11335B0209A8CEF99E19F938F93812CA12CC12C9D
S11335C0E12C00E010E020E240E063E080E10E94B2
S11335D05F25909334168093331689E187BD84B5B3
S11335E0826084BDEEE6F0E0808182608083CADF81
S11335F0D0930216C09301160F900F90DF91CF91D4
S11336001F910F91EF90CF90AF908F9008951F92DC
S11336100F920FB60F9211240BB60F922F933F9374
S11336204F935F936F937F938F939F93AF93BF93C6
S1133630EF93FF9380910416882369F12091051676
S113364030910616253F91E0390738F42F5F3F4F3C
S113365030930616209305161EC01092061610927B
S11336600516E09103162E2F30E090E004972817FA
S1133670390714F4EF5F01C0E0E0E0930316F0E0D3
S1133680E85FF94EAEE2B6E122E336E181918D9333
S1133690A217B307D9F78091321690E00196837090
S11336A09078992324F401978C6F9F6F01968093EF
S11336B032169927FC01E25DF94E60816095809194
S11336C03316909134160E943126FF91EF91BF91E9
S11336D0AF919F918F917F916F915F914F913F91A6
S11336E02F910F900BBE0F900FBE0F901F90189547
S11336F06530F1F4FA0180818F7390E0982F882768
S11337002181822B90930A02809309028281F0E442
S11337108F9FC0011124FA01238126952695822BBF
S1133720909308028093070281E0809335160895F0
S1133730643051F080E090E4909308028093070293
S113374090930A028093090208950F931F9308E748
S11337501BE120E034E244EF50E060E087E20E94A5
S11337600529909337168093361621E0892B09F0AA
S113377020E0822F1F910F910895809135160895AE
S11337808091361690913716009759F040E060E02A
S113379070E00E945629843031F41092351680E08E
S11337A0089582E0089583E00895809136169091FB
S11337B03716009739F064E00E94A229853021F081
S11337C083E0089582E0089580E0089560910902FD
S11337D070910A0280E090E0A9DD20E030E048EC3E
S11337E052E40E94A82B20E038EF4FE756E40C94F3
S11337F0152B0895609107027091080280E090E013
S113380095DD20E030E045E253E40E94A82B20E05F
S113381038EF4FE756E40E94152B20E030E040E2F9
S113382052E40C94AE2A08950F931F93CF93DF9321
S11338301F921F92CDB7DEB78C0119822DC0E09183
S11338406F16EC3250F481E08E0F80936F16F0E027
S1133850EF55F94E8A81808302C010926F168A81D7
S11338608A30D1F440916F1650E0FA01E156F94ED6
S11338701082415051099E012F5F3F4F61EA76E16A
S113388080917216909173160E94570A8981811152
S11338900E94850410926F16BE016E5F7F4FC801AF
S11338A016D6882361F20F900F90DF91CF911F916C
S11338B00F9108950F931F93CF93DF938C01EB0126
S11338C080917216909173160E944C09B80188E396
S11338D096E10E94B72D209779F0E8E3F6E1019094
S11338E00020E9F7319780E290E091838083BE0164
S11338F088E396E10E94AC2DE8E3F6E1DF010D9048
S11339000020E9F711978DE09AE011969C938E932D
S113391012961C9201900020E9F73197E853F64182
S1133920AE2F88E396E1AC016A2F809174169091D2
S1133930751678D5811111C008E215E020E030E059
S11339404DE250E06BEF76E1809172169091731620
S11339500E949B0A8BEF96E102C080E090E0DF9129
S1133960CF911F910F9108952F923F924F925F92A2
S11339706F927F928F929F92AF92BF92CF92DF927B
S1133980EF92FF920F931F93CF93DF935C01FC019F
S113399001900020E9F731976F01C81AD90A5C2C0D
S11339A00F2EF9E08F2EF7E09F2EF02DE12CF12C55
S11339B04C2C3701F40101811281E80109900020A7
S11339C0E9F72197C01BD10B3C2EF9E0CF16D104A7
S11339D058F0F4012080FEE02F1206C0B801C501A2
S11339E00E94872D892B09F5442D351408F44C2F9A
S11339F050E0B801C5010E94BE2D892B49F4F301A2
S1133A00EE0FFF1FE60DF71DE75FF84F20800DC096
S1133A108FEFE81AF80AE3E08E0E911CF1E1EF163D
S1133A20F10439F66894222424F8822DDF91CF9191
S1133A301F910F91FF90EF90DF90CF90BF90AF90C8
S1133A409F908F907F906F905F904F903F902F90BA
S1133A50089530DF89CF089580917216909173167E
S1133A600C944C0908958F929F92AF92CF92EF924B
S1133A700F931F93CF93C82F8B0141E060E070E058
S1133A8088EC90E00E941709909373168093721645
S1133A9010937116009370160F2EF4E18F2EFCE133
S1133AA09F2EF02D6894AA24A6F86894CC24C6F816
S1133AB0E12C00E023E040E051EE60E070E08C2F68
S1133AC0DED39093751680937416E7E0F1E080815D
S1133AD080618083CF911F910F91EF90CF90AF9031
S1133AE09F908F900895882331F0E8E0F1E0808181
S1133AF08F7E80830895E8E0F1E080818061808397
S1133B00089560E070E08FE894E0D4DEEBEFF6E136
S1133B1001900020E9F73197EB5FF64181E075975A
S1133B2008F080E00895CF93DF93EC0160E070E04B
S1133B3080EA94E0BFDEEBEFF6E101900020E9F7C4
S1133B40EC50F74139F46BEF76E1CE010E94B72DCA
S1133B5080E002C0188281E0DF91CF910895FC01DA
S1133B6001900020E9F79F012151310928173907F5
S1133B7029F4BC018EEC94E06CCF089589E008959B
S1133B80FC0101900020E9F79F0121513109281718
S1133B90390729F4BC018DED94E05BCF089589E0E9
S1133BA00895FC0101900020E9F79F012152310999
S1133BB02817390729F4BC018CEE94E04ACF089504
S1133BC089E0089560E070E08BE295E042CF0895CB
S1133BD00F931F93E82FF0E0EE0FFF1FEB5FF84FFA
S1133BE06081718184E395E034DF811114C008E2BF
S1133BF015E020E030E04DE250E06BEF76E180919B
S1133C007216909173160E949B0A882321F08BEF01
S1133C1096E1AADE03C08BEF96E1A6DE1F910F9119
S1133C2008950F931F93CF93DF931F92CDB7DEB701
S1133C30DB0111969C911197953108F0B4C099233A
S1133C4081F160E070E0272F30E0462F50E0FD0165
S1133C50E40FF51F928192959F709A3010F0995C51
S1133C6001C0905DF901E457F94E90832F5F3F4FF7
S1133C70FD01E40FF51F92819F70492F50E04A30F7
S1133C80510514F0995C01C0905DF901E457F94EB7
S1133C9090837E5F6F5F11969C911197691798F2DC
S1133CA001C070E0E72FF0E0E457F94E10824C9128
S1133CB0811103C08DE395E002C08FE395E02CE809
S1133CC036E13F932F931F924F939F938F9383E4F7
S1133CD095E09F938F938EEC96E19F938F930E9430
S1133CE0232E60E070E08EEC96E1B3DE0FB6F8941C
S1133CF0DEBF0FBECDBF811159C008E215E020E040
S1133D0030E04DE250E06BEF76E1809172169091D5
S1133D1073160E949B0A882309F447C08BEF96E12F
S1133D2023DE8E3009F042C087E0898380917016CB
S1133D3090917116892BA9F1BE016F5F7F4F8BEFB4
S1133D4096E168D180937616E981F0E0E550F94E6A
S1133D50DF010D900020E9F71197AE1BBF0BAA23DA
S1133D6091F0BB27CD0101979C0112F42F5F3F4FC7
S1133D703595279520937716AF014F5F5F4F64E128
S1133D8088E796E173D101E010E020E030E046E1FD
S1133D9050E066E776E180917016909171160E946A
S1133DA098098EE003C084E101C080E00F90DF91A8
S1133DB0CF911F910F910895813019F063E575E05B
S1133DC002C06CE276E087E595E043CE08959F93C8
S1133DD08F9388E895E09F938F938EEC96E19F9361
S1133DE08F930E94232E60E070E08EEC96E131DE2A
S1133DF00F900F900F900F900F900F9008952F92A7
S1133E003F924F925F926F927F928F929F92AF9266
S1133E10BF92CF92DF92EF92FF920F931F93CF93B3
S1133E20DF93CDB7DEB7A0970FB6F894DEBF0FBE11
S1133E30CDBF65EB75E081EC95E03CDD95DD81114E
S1133E40A3C080E2E2E2F2E0DE01119601900D925D
S1133E508A95E1F79E012F5F3F4F6901E12CF12C18
S1133E600F2EFDECAF2EF5E0BF2EF02D0EEC16E17B
S1133E700F2EF6EE4F2EF5E05F2EF02D0F2EFDEFF8
S1133E808F2EF5E09F2EF02D0F2EF7E16F2EF6E02A
S1133E907F2EF02D3E2C2F2CFF92EF92BF92AF92EB
S1133EA01F930F930E94232E60E070E0C80102DD8F
S1133EB05BDD0F900F900F900F900F900F9081117A
S1133EC063C032E03E15E8F4F60183818F9382816A
S1133ED08F9381818F9380818F93FF92EF925F9272
S1133EE04F921F930F930E94232E60E070E0C8014D
S1133EF0E1DC3ADD0FB6F894DEBF0FBECDBF811111
S1133F0043C02F923F929F928F921F930F930E94D0
S1133F10232E60E070E0C801CDDC26DD0F900F9009
S1133F200F900F900F900F9081112EC02F923F92FF
S1133F307F926F921F930F930E94232E60E070E094
S1133F40C801B8DC11DD0F900F900F900F900F9007
S1133F500F90811119C03FEFE31AF30A84E0C80EF1
S1133F60D11C98E0E916F10409F094CF60E070E008
S1133F708FE296E09FDCF8DC811106C060E070E01F
S1133F8080E496E097DCF0DCA0960FB6F894DEBFF0
S1133F900FBECDBFDF91CF911F910F91FF90EF9096
S1133FA0DF90CF90BF90AF909F908F907F906F9055
S1133FB05F904F903F902F900895EF92FF920F9350
S1133FC01F93CF93DF93EC018B017A0181E0F4DE40
S1133FD081110DC0CE01D4DD811109C0C801E1DD1C
S1133FE0811105C0C701BBDD811101C0EBDDDF918B
S1133FF0CF911F910F91FF90EF90089590E0FC01F5
S1134000EE0FFF1F8E0F9F1FFC01E75FF84F8181AA
S113401092810895DC01009729F1FB012081FC01C4
S113402001900020E9F73197E81BF90B822F90E00B
S1134030E817F907C8F080E008C0880F382F330F5D
S1134040330F830F8053890F2F5FFD01E20FF11DA2
S1134050908130ED390F3A3010F49111EECFFB011D
S11340602083089580E0089580E008950F931F93BE
S1134070CF93DF93DC01EA012097E1F1FA0101908B
S11340800020E9F73197E41BF50B329710F532C0A5
S11340908D01040F151F30E0AE01420F531FFA01CA
S11340A09081913428F09753592F5295507F03C033
S11340B0592F5295507F2C0F3D1FF9019181913456
S11340C010F0975301C09053950FF80190838F5FC0
S11340D001C080E0282F220F482F50E0FE010190FC
S11340E00020E9F73197EC1BFD0B4E175F0710F426
S11340F08613CECFDF91CF911F910F9108958091B8
S11341002B17860F80932B1790912E17913079F0EF
S113411028F09230A9F0933019F108956F3F09F017
S113412048C010922B1781E080932E1708956638AB
S113413009F03FC010922A1782E080932E17089549
S1134140E0912A1781E08E0F80932A17F0E0E85D52
S1134150F84E6083823069F583E080932E170895CA
S113416090912A1721E0290F20932A17963009F5F8
S113417081110EC0E8E2F7E1808190E0982F882752
S11341802181820F911D9093301780932F1704C0C3
S11341901092301710922F1710922E17E0912C17AF
S11341A0F0912D17309729F080912F1790913017A7
S11341B0199508958F929F92AF92CF92EF920F9399
S11341C00F2EFFE78F2EF0E29F2EF02D6894AA2485
S11341D0A4F86894CC24C4F8E12C00E023E040E87F
S11341E055E260E070E04BD0909332178093311722
S11341F00F91EF90CF90AF909F908F900895CF93B1
S1134200DF93CDB7DEB729970FB6F894DEBF0FBEA4
S1134210CDBF89E0E2E4F2E09E012F5F3F4FD90178
S113422001900D928A95E1F71092301710922F1792
S11342308091311790913217009731F0422F532F0C
S113424069E0F0D080E001C082E029960FB6F894CE
S1134250DEBF0FBECDBFDF91CF91089520912F1700
S1134260309130172115310529F4FC011182108297
S113427081E00895FC013183208380E008952F922A
S11342803F924F925F926F927F928F929F92AF92E2
S1134290CF92EF92FF920F931F93CF93DF93CDB7FB
S11342A0DEB7F82E2A013B0188E090E00E94522CF0
S11342B08C018F2D90E0FC01EE0FFF1FED5CF84E9A
S11342C0118300830115110509F46FC0880F991F2C
S11342D0FC01E55FFD4F80819181D8018D939C9312
S11342E08C2D90E0880F991F880F991F0E94522CE3
S11342F01C0186E090E00E94522C7C014C2DB101FF
S11343000E94922AF801F582E4828A2D90E0880FB7
S1134310991F880F991F0E94522C1C0186E090E07F
S11343200E94522C7C014A2DB1010E94922AD8018C
S11343301396FC92EE92129717969C928E92169771
S1134340FFB6F894ED91FC911197369780818260C5
S113435080838D909C90C301B2010E94961920E045
S113436030E040E051E40E94A82B9B01AC0160E0E6
S113437074E284E79BE40E94152B20E030E040E8DF
S11343805FE30E94AE2A0E946A19F40132976083A7
S1134390D801ED91FC911197359788E98083ED91CF
S11343A0FC91349786E08083FFBEC801DF91CF91F2
S11343B01F910F91FF90EF90CF90AF909F908F90AF
S11343C07F906F905F904F903F902F900895CF9380
S11343D0DF93DC01892B01F11296ED91FC91139787
S11343E0938182812581981B922384819817B1F04F
S11343F0838126952823C081D181C20FD11D688372
S11344008F5F958189238383ED91FC91359780811A
S11344108062808380E003C081E001C082E0DF919C
S1134420CF910895EF92FF920F931F93CF93DF9351
S11344307C01009709F441C0DC011296ED91FC91D6
S1134440139793818281981B858198238481891B8A
S11344508617A8F1662341F1842F952FDC01615062
S1134460462F50E04F5F5F4F480F591FE701EA8125
S1134470FB81938182812581981B922384819817E3
S113448079F08C91938126952923608171818B0128
S1134490020F111DE80188839F5F85819823938310
S11344A01196A417B50711F7D701ED91FC91359733
S11344B080818062808380E003C081E001C082E06B
S11344C0DF91CF911F910F91FF90EF900895009786
S11344D0D1F0DC011496ED91FC91159793818281C2
S11344E0981799F09281858186958923A081B1815D
S11344F0A80FB11D8C91DB018C939F5F858198235C
S1134500928380E0089581E0089583E008951F92E6
S11345100F920FB60F9211240BB60F922F933F9365
S11345204F935F936F937F938F939F93AF93BF93B7
S1134530CF93DF93EF93FF93A0913317B091341788
S1134540109711F16091C6001496ED91FC911597A6
S1134550938182812581981B92238481981761F02D
S1134560838126952823C081D181C20FD11D688300
S11345708F5F9581892383831696ED91FC9117971C
S1134580309711F0CD011995FF91EF91DF91CF9103
S1134590BF91AF919F918F917F916F915F914F9157
S11345A03F912F910F900BBE0F900FBE0F901F9055
S11345B018951F920F920FB60F9211240BB60F92FB
S11345C02F938F939F93AF93BF93EF93FF93E091B8
S11345D03317F09134173097B9F00280F381E02D4E
S11345E0938182819817B1F092818581282F269535
S11345F02923A081B181A20FB11D2C919F5F892332
S113460082832093C6000BC0E1ECF0E080818F7DB3
S1134610808305C0E1ECF0E080818F7D8083FF9191
S1134620EF91BF91AF919F918F912F910F900BBEFE
S11346300F900FBE0F901F9018951F920F920FB6F8
S11346400F9211240BB60F922F933F934F935F93C6
S11346506F937F938F939F93AF93BF93CF93DF9386
S1134660EF93FF93A0913517B0913617109711F17E
S11346706091CE001496ED91FC91159793818281FF
S11346802581981B92238481981761F08381269554
S11346902823C081D181C20FD11D68838F5F95818A
S11346A0892383831696ED91FC911797309711F027
S11346B0CD011995FF91EF91DF91CF91BF91AF910A
S11346C09F918F917F916F915F914F913F912F9126
S11346D00F900BBE0F900FBE0F901F9018951F9256
S11346E00F920FB60F9211240BB60F922F938F9344
S11346F09F93AF93BF93EF93FF93E0913517F0919E
S113470036173097B9F00280F381E02D93818281CE
S11347109817B1F092818581282F26952923A081AD
S1134720B181A20FB11D2C919F5F892382832093B5
S1134730CE000BC0E9ECF0E080818F7D808305C062
S1134740E9ECF0E080818F7D8083FF91EF91BF9150
S1134750AF919F918F912F910F900BBE0F900FBE31
S11347600F901F9018951F920F920FB60F9211245D
S11347700BB60F922F933F934F935F936F937F9357
S11347808F939F93AF93BF93CF93DF93EF93FF9355
S1134790A0913717B0913817109711F16091D60096
S11347A01496ED91FC911597938182812581981B34
S11347B092238481981761F0838126952823C081F0
S11347C0D181C20FD11D68838F5F95818923838333
S11347D01696ED91FC911797309711F0CD0119952C
S11347E0FF91EF91DF91CF91BF91AF919F918F9105
S11347F07F916F915F914F913F912F910F900BBEDD
S11348000F900FBE0F901F9018951F920F920FB626
S11348100F9211240BB60F922F938F939F93AF9304
S1134820BF93EF93FF93E0913717F09138173097C8
S1134830B9F00280F381E02D938182819817B1F061
S113484092818581282F26952923A081B181A20FE9
S1134850B11D2C919F5F892382832093D6000BC0C6
S1134860E1EDF0E080818F7D808305C0E1EDF0E033
S113487080818F7D8083FF91EF91BF91AF919F9154
S11348808F912F910F900BBE0F900FBE0F901F9022
S113489018951F920F920FB60F9211240BB60F9218
S11348A02F933F934F935F936F937F938F939F9334
S11348B0AF93BF93CF93DF93EF93FF93A0913917F7
S11348C0B0913A17109711F1609136011496ED9159
S11348D0FC911597938182812581981B9223848171
S11348E0981761F0838126952823C081D181C20F56
S11348F0D11D68838F5F9581892383831696ED91FB
S1134900FC911797309711F0CD011995FF91EF9114
S1134910DF91CF91BF91AF919F918F917F916F91D3
S11349205F914F913F912F910F900BBE0F900FBE4F
S11349300F901F9018951F920F920FB60F9211248B
S11349400BB60F922F938F939F93AF93BF93EF93D5
S1134950FF93E0913917F0913A173097B9F002803C
S1134960F381E02D938182819817B1F09281858142
S1134970282F26952923A081B181A20FB11D2C9146
S11349809F5F89238283209336010BC0E1E3F1E02A
S113499080818F7D808305C0E1E3F1E080818F7D9C
S11349A08083FF91EF91BF91AF919F918F912F9150
S11349B00F900BBE0F900FBE0F901F901895CF93C2
S11349C0DF931F92CDB7DEB7BE016F5F7F4F80913B
S11349D03B1790913C177BDD8111F6CF898190E0E4
S11349E00F90DF91CF910895682F80913B1790919C
S11349F03C17EDDC80E090E008958F929F92AF9297
S1134A00CF92EF920F93812C912C6894AA24A7F84B
S1134A106894CC24C7F8E12C00E023E040E051EE98
S1134A2060E070E02CDC90933C1780933B17EEE63B
S1134A30F7E183E192E091838083938382830F91F2
S1134A40EF90CF90AF909F908F900895E0913E1794
S1134A50F0913F173097F9F0A081B1811097D9F008
S1134A602381213069F44C9121E030E0028002C0BE
S1134A70220F331F0A94E2F7209524232C930BC0B2
S1134A804C9121E030E0028002C0220F331F0A94CF
S1134A90E2F7242B2C9390933F1780933E170097B3
S1134AA069F0109240172CB52F732CBDFC012481A2
S1134AB02CBD85818DBD8CB580648CBD08954F92CD
S1134AC05F926F927F928F929F92AF92BF92CF929A
S1134AD0DF92EF92FF920F931F93CF93DF93CDB7A3
S1134AE0DEB7982EB62ED42EF22E80913D1781116A
S1134AF006C084B1876084B981E080933D178CE05F
S1134B0090E0D0D63C01DC0111961C930E931296D2
S1134B10EC9212971396CC9213978D2D880F880FD1
S1134B20F82AEB2DF0E0E45CF84F8081982A8F2D71
S1134B30892914968C93B3E0BB1518F481E0F30132
S1134B408583A11006C0D30119961C921E92189752
S1134B5012C06A2D70E084E090E08AD62C0161E0F6
S1134B6070E086E090E084D66C014A2DB201DAD47C
S1134B70F301D186C086811006C0D30117961C921A
S1134B801E92169712C0682D70E084E090E070D6F3
S1134B905C0161E070E086E090E06AD66C01482D2B
S1134BA0B501C0D4F301D782C6828C899D89D30113
S1134BB01B969C938E931A970115110559F0F801D1
S1134BC0229181E090E002C0880F991FEA94E2F7F5
S1134BD0822B80832FB7F89440913E1750913F1752
S1134BE070923F1760923E17D301ED91FC9111979B
S1134BF0309701F113968C911397813071F43081C1
S1134C0081E090E012960C9002C0880F991F0A94DC
S1134C10E2F78095832380830DC0308181E090E0AA
S1134C20D30112960C9002C0880F991F0A94E2F7E0
S1134C30832B808350933F1740933E172FBFC301AC
S1134C40DF91CF911F910F91FF90EF90DF90CF9064
S1134C50BF90AF909F908F907F906F905F904F9098
S1134C6008951F93CF93DF93009709F46AC0162F1A
S1134C70EC0180913E1790913F17C817D90711F0A6
S1134C80CE01E4DE8FB72FB7F894809140178111DD
S1134C9031C081E080934017A0913E17B0913F1737
S1134CA0ED91FC9111973097F9F013968C9113972D
S1134CB0813069F4308181E090E012960C9002C05A
S1134CC0880F991F0A94E2F7832B80830DC03081EB
S1134CD081E090E012960C9002C0880F991F0A940C
S1134CE0E2F78095832380838CB580688CBD1EBDDC
S1134CF080E025C0EE81FF813097E1F0348183812B
S1134D0042819581841B89233817B1F083814281C4
S1134D10841B8923381791F0838196959823A08169
S1134D20B181A90FB11D1C938F5F95818923838362
S1134D3080E005C082E003C081E001C080E02FBFB5
S1134D4001C083E0DF91CF911F9108951F920F92CC
S1134D500FB60F9211240BB60F922F933F934F93DC
S1134D605F936F937F938F939F93AF93BF93CF93EF
S1134D70DF93EF93FF936EB5A0913E17B0913F1769
S1134D801896ED91FC9119973097A1F083812281B7
S1134D909581821B89232481821761F083819695F2
S1134DA09823C081D181C90FD11D68838F5F9581FC
S1134DB0892383831696ED91FC911797309799F088
S1134DC093818281981779F092818581282F269585
S1134DD02923A081B181A20FB11D2C919F5F89234A
S1134DE082832EBD2DC08CB58F778CBD1092401759
S1134DF0A0913E17B0913F17ED91FC911197309718
S1134E00F9F013968C911397813071F4208181E02D
S1134E1090E012960C9002C0880F991F0A94E2F752
S1134E208095822380830CC0208181E090E01296DB
S1134E300C9002C0880F991F0A94E2F7822B80839A
S1134E4080913E1790913F17DC011A96ED91FC91E9
S1134E501B97309709F01995FF91EF91DF91CF914E
S1134E60BF91AF919F918F917F916F915F914F917E
S1134E703F912F910F900BBE0F900FBE0F901F907C
S1134E80189590E0FC01EE0FFF1FE80FF91FEE0FDD
S1134E90FF1FEF5BF84E238121111FC09C01220FDD
S1134EA0331FF901E80FF91FEE0FFF1FEF5BF84EF8
S1134EB0A081B1814C91F901E80FF91FEE0FFF1F9A
S1134EC0EF5BF84E81E090E0028002C0880F991FEA
S1134ED00A94E2F7842B8C930895FC01EE0FFF1FD4
S1134EE0DF01A80FB91FAA0FBB1FAF5BB84E0D900F
S1134EF0BC91A02D2C91E80FF91FEE0FFF1FEF5B63
S1134F00F84E81E090E0028002C0880F991F0A9455
S1134F10E2F7809582238C93089590E0FC01EE0FD4
S1134F20FF1FE80FF91FEE0FFF1FEF5BF84E238101
S1134F30211120C09C01220F331FF901E80FF91F32
S1134F40EE0FFF1FEF5BF84EA081B1814C91F90188
S1134F50E80FF91FEE0FFF1FEF5BF84E81E090E0C2
S1134F60028002C0880F991F0A94E2F78095842377
S1134F708C930895FC01EE0FFF1FDF01A80FB91FEA
S1134F80AA0FBB1FAF5BB84E0D90BC91A02D2C9106
S1134F90E80FF91FEE0FFF1FEF5BF84E81E090E082
S1134FA0028002C0880F991F0A94E2F7822B8C9327
S1134FB00895CC24C394D12C6894BB24B2F8C1E4E2
S1134FC0D7E110E08C81813081F018F1823061F5F5
S1134FD0E881F9812081C6010A8002C0880F991FE7
S1134FE00A94E2F7822780831FC08D818F5F863009
S1134FF010F48D8319C01D82E881F9812081C601D6
S11350000A8002C0880F991F0A94E2F782278083DE
S11350100BC00D81002329F0812F7FDF01500D8308
S113502003C0BC82812F2DDF1F5F2696143051F6FA
S11350306CE070E080E090E00E941310C0CFEF922B
S1135040FF920F931F93CF93DF93082F80E487B9C8
S1135050C1E4D7E10F2EF8E2EF2EF12CF02DF98206
S1135060E88286E08A831B8214E01C8380E009DFE7
S113507080E887B9FF82EE8287E0888719861A87DD
S113508081E0FFDE80E283BB84E390E09D878C8730
S113509085E08E871F86188B82E0F3DE80E18093A3
S11350A0010182E091E09B8B8A8B1C8B1D8A1E8BF5
S11350B083E0E7DEE12CF12C20E030E040EC50E02E
S11350C063E477E089ED97E20E940D0CDF91CF91C4
S11350D01F910F91FF90EF900895CF93DF9390E08D
S11350E0FC01EE0FFF1FDF01A80FB91FAA0FBB1FA2
S11350F0AF5BB84ECD91DC911197488121E030E04F
S113510012960C90129702C0220F331F0A94E2F7F2
S113511024272883FD0181E08483DF91CF910895C2
S1135120CF93DF9390E0FC01EE0FFF1FDF01A80F88
S1135130B91FAA0FBB1FAF5BB84ECD91DC9111977D
S1135140488121E030E012960C90129702C0220FA1
S1135150331F0A94E2F724272883FD0182E0848325
S1135160DF91CF910895282F30E0F901EE0FFF1F52
S1135170E20FF31FEE0FFF1FEF5BF84E93E09483F3
S1135180CCCE0895282F30E0F901EE0FFF1FE20F77
S1135190F31FEE0FFF1FEF5BF84E94E0948371CE84
S11351A0089590E0FC01EE0FFF1FDF01A80FB91F67
S11351B0AA0FBB1FAF5BB84E26E015962C9315972C
S11351C0FD011482089590E0FC01EE0FFF1FDF0142
S11351D0A80FB91FAA0FBB1FAF5BB84E15961C9240
S11351E01597FD01148208958091671781110CC0F1
S11351F08CE08093B8008FEF8093BB0084E08093B1
S1135200BC0081E0809367170895AF92BF92CF925C
S1135210DF92EF92FF920F931F93CF93DF93A82E09
S1135220B62E69017A0184E090E03CD3EC01892B2D
S113523061F1A88281E0B81212C0C701B60120EA68
S113524036E841E050E0EAD2DA01C9014097A10909
S1135250B109B695A79597958795898311C0C7011C
S1135260B60120E83AE146E050E0D8D2DA01C901BB
S11352704097A109B109B695A79597958795898314
S11352801B830A838C2F9D2F02C080E090E0DF9166
S1135290CF911F910F91FF90EF90DF90CF90BF902F
S11352A0AF9008958091BC0081700895FF920F9390
S11352B01F93CF93DF930097D1F14A30D0F5F42EAA
S11352C08B01EC01EFDF811136C080915A17909168
S11352D05B17C817D90741F087DF89818093B8002D
S11352E0D0935B17C0935A1781E08F0D80935C179E
S11352F08881880F80935D17FF2089F0F801AEE55F
S1135300B7E14FEF4F0D642F70E0CB010196B80168
S1135310680F791F81918D93E617F707D9F788EF06
S11353208093210285EA8093BC0084E005C086E076
S113533003C087E001C082E0DF91CF911F910F91FC
S1135340FF9008951F93CF93DF93009729F16B305B
S113535028F5162FEC01A6DF811122C080915A177F
S113536090915B17C817D90741F03EDF898180937C
S1135370B800D0935B17C0935A1710935C178881B9
S1135380880F816080935D1788EF8093210285EAFE
S11353908093BC0085E005C086E003C087E001C0BF
S11353A082E0DF91CF911F9108951F920F920FB663
S11353B00F9211240BB60F922F933F934F935F9349
S11353C06F937F938F939F93AF93BF93EF93FF93C9
S11353D0E091B9008E2F90E0FC013897E135F1059A
S11353E008F075C08827E458FF4F8F4F39C21092D8
S11353F05917E091591780915C17E81770F481E010
S11354008E0F80935917F0E0E35AF84E8081809311
S1135410BB0085E88093BC0072C084E98093BC0023
S113542080915A1790915B17DC011296ED91FC91D3
S11354301397309709F463C020E040E050E064E043
S113544019955DC0E091591781E08E0F809359172B
S11354508091BB00F0E0E35AF84E80838091B9005C
S1135460803411F4109259172091591730E080912B
S11354705C1790E001972817390724F485EC809392
S1135480BC003DC085E88093BC0039C08091BB005E
S1135490E0915917F0E0E35AF84E808384E9809351
S11354A0BC0080915A1790915B17DC011296ED9124
S11354B0FC911397309719F120915C174DE557E152
S11354C065E019951CC085EA8093BC0018C08091E2
S11354D0B9008093210284E08093BC0080915A1724
S11354E090915B17DC011296ED91FC911397309724
S11354F031F020E040E050E0609121021995FF91E5
S1135500EF91BF91AF919F918F917F916F915F9137
S11355104F913F912F910F900BBE0F900FBE0F90A4
S11355201F901895FC01411101C0DDD2842F90E039
S11355309C012150310982239323892B09F0D3D272
S1135540413808F0D0D2128213824483440F415070
S113555045837183608380E090E008955058BB27B1
S1135560AA270ED0E4C0D5D030F0DAD020F031F440
S11355709F3F11F41EF4CAC00EF4E095E7FBC0C0CF
S1135580E92F0E94D31978F3BA17620773078407C7
S1135590950720F079F4A6F50C94F5190EF4E0952E
S11355A00B2EBA2FA02D0B01B90190010C01CA01D9
S11355B0A0011124FF27591B99F0593F50F4503E84
S11355C068F11A16F040A22F232F342F4427585F76
S11355D0F3CF469537952795A795F0405395C9F78E
S11355E07EF41F16BA0B620B730B840BBAF0915046
S11355F0A1F0FF0FBB1F661F771F881FC2F70EC0E5
S1135600BA0F621F731F841F48F4879577956795B7
S1135610B795F7959E3F08F0B1CF9395880F08F0A2
S11356209927EE0F9795879508950DD080C078D06F
S113563048F06FD038F021F45F3F21F061C0511180
S11356400C94F61963C00E94D31988F39923B9F313
S11356505523A1F3951B550BBB27AA276217730784
S1135660840738F09F5F5F4F220F331F441FAA1F28
S1135670A9F334D00E2E3AF0E0E831D091505040E6
S1135680E695001CCAF72AD0FE2F28D0660F771F94
S1135690881FBB1F261737074807AB07B0E809F078
S11356A0BB0B802DBF01FF2793585F4F32F09E3F05
S11356B0510570F025C00C94F6195F3FE4F3983E51
S11356C0D4F3869577956795B795F7959F5FC9F756
S11356D0880F911D9695879597F90895E1E0660FD7
S11356E0771F881FBB1F621773078407BA0720F050
S11356F0621B730B840BBA0BEE1F88F7E0950895B9
S113570097F99F6780E870E060E008959FEF80EC70
S1135710089500240A941616170618060906089513
S113572000240A9412161306140605060895092E79
S11357300394000C11F4882352F0BB0F40F4BF2BE8
S113574011F460FF04C06F5F7F4F8F4F9F4F089528
S11357500CD0EDCFDEDF28F0E3DF18F0952309F05D
S1135760CFCFD4CF11240C94F6190E94D31990F3FF
S1135770959FC1F3950F50E0551F629FF001729FF2
S1135780BB27F00DB11D639FAA27F00DB11DAA1F01
S1135790649F6627B00DA11D661F829F2227B00D4E
S11357A0A11D621F739FB00DA11D621F839FA00DD9
S11357B0611D221F749F3327A00D611D231F849F29
S11357C0600D211D822F762F6A2F11249F57504080
S11357D092F0E9F088234AF0EE0FFF1FBB1F661F0B
S11357E0771F881F91505040A9F79E3F510578F0CC
S11357F087CF0C94F6195F3FE4F3983ED4F3869573
S113580077956795B795F795E7959F5FC1F7FE2B59
S1135810880F911D9695879597F90895A1E21A2E00
S1135820AA1BBB1BFD010DC0AA1FBB1FEE1FFF1F40
S1135830A217B307E407F50720F0A21BB30BE40B90
S1135840F50B661F771F881F991F1A9469F76095D7
S11358507095809590959B01AC01BD01CF01089591
S1135860EE0FFF1F881F8BBF0790F691E02D199450
S11358700F931F93CF93DF93869F8001879F100D13
S1135880969F100D1124C8010DD0EC01009721F052
S1135890A80160E070E034D1CE01DF91CF911F9177
S11358A00F9108950F931F93CF93DF938230910547
S11358B010F482E090E0E0916C17F0916D1720E015
S11358C030E0A0E0B0E0309719F1408151810281CD
S11358D0138148175907C8F08417950769F410977E
S11358E031F012960C93129713961C9327C00093D1
S11358F06C1710936D1722C02115310519F042174A
S1135900530718F49A01BD01EF01DF01F801DBCF61
S113591021153105F9F0281B390B2430310580F4A9
S11359208A819B816115710521F0FB019383828338
S113593004C090936D1780936C17FE01329644C097
S1135940FE01E20FF31F81939193225031093983B1
S113595028833AC020916A1730916B17232B41F4A6
S1135960209102023091030230936B1720936A173F
S113597020910002309101022115310541F42DB727
S11359803EB74091040250910502241B350BE0916F
S11359906A17F0916B17E217F307A0F42E1B3F0B65
S11359A02817390778F0AC014E5F5F4F241735078D
S11359B048F04E0F5F1F50936B1740936A17819303
S11359C0919302C0E0E0F0E0CF01DF91CF911F910D
S11359D00F910895CF93DF93009709F481C0FC01E0
S11359E0329713821282A0916C17B0916D171097A1
S11359F081F420813181820F931F20916A173091A5
S1135A006B172817390751F5F0936B17E0936A1752
S1135A1067C0ED0120E030E0CE17DF0740F44A8193
S1135A205B819E0141155105F1F0EA01F5CFD38365
S1135A30C28340815181840F951FC817D90759F437
S1135A4088819981840F951F0296918380838A812E
S1135A509B81938382832115310529F4F0936D177B
S1135A60E0936C173DC0E901FB83EA8349915991A6
S1135A70C40FD51FEC17FD0761F480819181840F59
S1135A80951F0296E90199838883828193819B8380
S1135A908A83E0E0F0E012968D919C911397009731
S1135AA019F0FD01DC01F7CF8D919C9111979D01B7
S1135AB02E5F3F4F820F931F20916A1730916B170F
S1135AC02817390769F4309729F410926D1710924A
S1135AD06C1702C013821282B0936B17A0936A17DB
S1135AE0DF91CF91089581E090E0F89487C3FB01A2
S1135AF0DC0102C001900D9241505040D8F7089546
S1135B00DC0101C06D9341505040E0F70895FB0162
S1135B1051915523B1F0BF01DC01052E4D91442371
S1135B2069F010D0D9F7CD010190002049F04D91D2
S1135B30411108D0C9F3FB014111EECF81E090E09F
S1135B4001970895402539F0403229F440294B57F4
S1135B50465E08F018940895FB01DC010D900020C6
S1135B60E9F7119701900D920020E1F70895FB01E8
S1135B70DC0101900D920020E1F70895FB01DC01A6
S1135B804150504088F08D9181341CF08B350CF4D9
S1135B90805E619161341CF06B350CF4605E861B91
S1135BA0611171F3990B0895881BFCCFDC016C9192
S1135BB061566A3108F0605E6F5B6D93C1F70895BA
S1135BC0CF93DF93CDB7DEB7AE014A5F5F4FFA01E3
S1135BD061917191AF01809170179091711761D0AB
S1135BE0DF91CF9108950F931F93CF93DF93E091AB
S1135BF07017F0917117238121FF1BC08C01D0E035
S1135C00C0E0F80181918F01609170177091711754
S1135C10DB011896ED91FC911997882331F01995C1
S1135C20892B79F3DFEFCFEFECCF8AE01995892B3D
S1135C3019F08FEF9FEF02C08D2F9C2FDF91CF9132
S1135C401F910F9108950F931F93CF93DF93CDB7B7
S1135C50DEB72E970FB6F894DEBF0FBECDBF0E8908
S1135C601F8986E08C831A8309838FEF9FE79E83C5
S1135C708D83AE01465E5F4F688D798DCE010196AE
S1135C8010D0EF81F885E00FF11F10822E960FB629
S1135C90F894DEBF0FBECDBFDF91CF911F910F915E
S1135CA008952F923F924F925F926F927F928F92BC
S1135CB09F92AF92BF92CF92DF92EF92FF920F9397
S1135CC01F93CF93DF93CDB7DEB72B970FB6F8941E
S1135CD0DEBF0FBECDBF6C017B018A01FC011782C0
S1135CE01682838181FFBFC1CE0101963C01F6017A
