S01300004669726D77617265305F312E7372656314
S113000046C2000065C2000063C2000061C2000075
S11300105FC200005DC200005BC2000059C2000064
S113002057C2000055C2000053C2000051C2000074
S113003032C500004DC200004BC2000049C200009E
S113004047C2000045C2000043C2000041C2000094
S11300503FC200000C94141B3BC2000039C20000D4
S11300600C94B3260C9494220C94E62231C2000022
S11300702FC200002DC200002BC2000029C20000C4
S113008027C2000025C2000023C2000021C20000D4
S11300900C942A230C947C231BC200000C94E229A8
S11300A017C2000015C2000013C2000011C20000F4
S11300B00FC200000DC200000BC2000009C2000004
S11300C007C2000005C2000003C200000C94C02354
S11300D00C941224FDC100000C9456240C94A82402
S11300E0F7C10000BE01BE01BE01F8010002160204
S11300F0BE01BE01F8010002042A742A742A742A7B
S1130100742A742A742A742A042A742A742A742A6B
S1130110742A742A742A742A062A742A742A742A59
S1130120742A742A742A742A742A742A742A742ADB
S1130130742A742A742A742A062A742A742A742A39
S1130140742A742A742A742A742A742A742A742ABB
S1130150742A742A742A742A702A742A742A742AAF
S1130160742A742A742A742A3B2A742A742A742AD4
S1130170742A742A742A742A742A742A742A742A8B
S1130180742A742A742A742A2F2A742A742A742AC0
S1130190742A742A742A742A532A0FE115E10F2E43
S11301A0FFE4EF2EF5E1FF2EF02D80911E1588233C
S11301B011F10FB6F8940F92D8011796ED91FC91B6
S11301C01897C085D185CE01029625D3809112154A
S11301D081508093121580911E15815080931E15B5
S11301E00F900FBE8B8D9C8D8AD2CE0188D28091C8
S11301F01E158111DECFF7018081823008F085D38E
S11302000E94F316D2CFCF93DF93CDB7DEB76097BA
S11302100FB6F894DEBF0FBECDBFCE0101969A870C
S11302208987812C912CA12CB12C69847A84E0914A
S1130230C915F091CA158081882309F40EC107807D
S1130240F085E02D20803180428053800E947F0D14
S1130250CE0101960E945C166B877C878D879E87F2
S11302608981811164C08B859C85AD85BE8582158D
S11302709305A405B50508F444C00E94C30EE0919B
S1130280C915F091CA150780F085E02DA085B185C8
S1130290B88BAF87CD010296BED2EF85F8898689E7
S11302A082FF21C04685578560897189420D531D9F
S11302B0641D751D720161010B851C852D853E85AC
S11302C0CF010E946B15882399F0C82CD92CEA2CF5
S11302D0FB2C00E010E0A201910160E08F85988979
S11302E00E94FE1505C08E7FAF85B88956968C9303
S11302F0AF85B8895496ED91FC915597CD01199528
S11303009EC020E0B201A1018B859C85AD85BE8590
S1130310481B590B6A0B7B0B8091C5159091C61530
S113032080D60E94C30E81118AC0EFD288C00E9479
S1130330C30E85C0898188230CF481C04E805F8000
S1130340D2011C968D919C911D97892B19F0C201A5
S1130350029661D2CE0108960E945C168B019C0124
S1130360E9810E2E000CFF0BEA30F10508F067C09E
S11303708827EE58FF4F8F4F0C943D2CF20186894D
S11303808160868BCA80DB80EC80FD804685578542
S1130390608971894C0D5D1D6E1D7F1DC2010E9417
S11303A06B15882309F44BC0D2015496ED91FC914E
S11303B05597C2011995F201868982FF40C04A818E
S11303C05B816C817D8186859785A089B1899A013D
S11303D0AB01280F391F4A1F5B1FC82CD92CEA2CEC
S11303E0FB2C00E010E060E0C2010E94FE1527C073
S11303F0D20156968C9156978E7F56968C931FC039
S1130400F20186898160868B4A815B816C817D8162
S113041046875787608B718B400F511F621F731F74
S113042068017901C2010E946B1509C0F201868935
S113043081FD03C0C20163D102C08E7F868B282D4B
S1130440392D4A2D5B2D662D772D8091C515909100
S1130450C6154ED581116ECFEACE0E947F0DCE0116
S113046001960E945C166B877C878D879E878981A5
S113047081115DCFE091C715F091C815808121E00D
S1130480811120E0282C392C4A2C5B2C3BCF1124E1
S11304901FBECFEFD1E2DEBFCDBF00E00CBF17E03F
S11304A0A0E0B2E0EAE1F2E600E00BBF02C0079090
S11304B00D92A234B107D9F727E1A2E4B7E001C055
S11304C01D92AA36B207E1F70E94D7170C940B319C
S11304D097CD0895CF93DF93DC01EEE4F7E001C0FC
S11304E0F901208131812A173B07D0F3828193815E
S11304F0AF01480F591FA417B50749F412964D913F
S11305005C911397840F951F93838283DF01129666
S11305108D919C911397ED01C80FD91F2C173D079E
S1130520D9F420914C0730914D07C217D30781F0BD
S11305302A813B81820F931F13969C938E9312976B
S1130540C081D1818881998111969C938E9307C033
S11305501196DC93CE9303C011963C932E93AE1761
S1130560BF0711F0B183A083DF91CF910895CF929B
S1130570DF92EF92FF920F931F93CF93DF93EC01DF
S11305800E947F0D80914C0790914D07892B41F576
S1130590EEE4F7E0A2E5B7E0B183A0831382128210
S11305A0EAEFF4E1F0934D07E0934C0713821282D3
S11305B01182108288EA9DE013969C938E93129781
S11305C0ED93FC93909349078093480790934B07CE
S11305D080934A0780E090E8909343078093420712
S11305E0E0904207F0904307C7018C239D23892B99
S11305F009F075C0209709F475C09E012C5F3F4F28
S1130600C217D30708F06EC02115310509F467C07D
S113061000914A0710914B070217130708F45FC0B3
S1130620C0914E07D0914F07EEE4F7E002C0FE01FF
S1130630EC018A819B818217930720F48881998138
S11306400097A9F780914C0790914D07C817D907D7
S113065009F445C0C080D18084E0C80ED11C8881D3
S11306609981918380834A815B81421B530B49307A
S1130670510548F0CE01820F931FFC01538342833E
S11306803B832A8327DF8A819B81081B190B1093E4
S11306904B0700934A0720914807309149070217F6
S11306A0130720F41093490700934807E82AF92A0E
S11306B0FB82EA821982188280914607909147074B
S11306C0019690934707809346070E94C30EC11476
S11306D0D10459F40E94F916C12CD12C06C00E94F1
S11306E0C30EF8CF0E94C30EF5CFC601DF91CF91A0
S11306F01F910F91FF90EF90DF90CF900895CF93CB
S1130700DF93009799F1FC01349722813381409162
S1130710420750914307B90164237523672B31F1D4
S113072060817181672B11F5EF0140955095242369
S11307303523338322830E947F0D20914A07309111
S11307404B078A819B81820F931F90934B07809361
S11307504A07CE01BFDE8091440790914507019678
S113076090934507809344070E94C30EDF91CF9175
S11307700895FC010396928381834FEF5FEFBA01E2
S113078043835483658376839087878392878187A5
S113079010820895FC011386128608950F931F9307
S11307A0CF93DF93EB01088119812A813B810F3FAD
S11307B04FEF14072407340721F4FC01A185B28507
S11307C011C0DC01139601C0DF011496ED91FC9178
S11307D0159740815181628173810417150726079B
S11307E0370790F71496ED91FC911597FD83EC83F0
S11307F0D783C683BF83AE831596DC93CE931497B9
S11308009B878A87FC0120812F5F2083DF91CF9112
S11308101F910F910895CF93DF93FC01A285B385B7
S1130820C481D581868197819F838E83C681D78138
S1130830848195819D838C8311968D919C911297CF
S1130840E817F90731F48681978112969C938E9369
S11308501197138612868C9181508C938C91DF9121
S1130860CF910895FC016083319770833197108292
S113087031971082319720E8208331971082319785
S113088010823197108277974083319750838697EF
S11308900895A89590EC88E10FB6F894A8958093F4
S11308A060000FBE90936000A091BD15B091BE157D
S11308B0CD91CDBFDD91DEBFFF91EF91DF91CF915F
S11308C0BF91AF919F918F917F916F915F914F9164
S11308D03F912F911F910F91FF90EF90DF90CF9058
S11308E0BF90AF909F908F907F906F905F904F904C
S11308F03F902F901F900F900CBE0F900BBE0F9047
S11309000FBE0F90089581E008950F920FB6F894EA
S11309100F920BB60F920CB60F921F9211242F92C6
S11309203F924F925F926F927F928F929F92AF927B
S1130930BF92CF92DF92EF92FF920F931F932F9368
S11309403F934F935F936F937F938F939F93AF9353
S1130950BF93CF93DF93EF93FF93A091BD15B09115
S1130960BE150DB60D920EB60D920E942C10A091DC
S1130970BD15B091BE15CD91CDBFDD91DEBFFF9108
S1130980EF91DF91CF91BF91AF919F918F917F9123
S11309906F915F914F913F912F911F910F91FF9014
S11309A0EF90DF90CF90BF90AF909F908F907F900B
S11309B06F905F904F903F902F901F900F900CBEC0
S11309C00F900BBE0F900FBE0F9008950F920FB6AD
S11309D0F8940F920BB60F920CB60F921F9211243B
S11309E02F923F924F925F926F927F928F929F923B
S11309F0AF92BF92CF92DF92EF92FF920F931F9329
S1130A002F933F934F935F936F937F938F939F9312
S1130A10AF93BF93CF93DF93EF93FF93A091BD1553
S1130A20B091BE150DB60D920EB60D9213BE0E9476
S1130A30930D81110E942C10A091BD15B091BE158B
S1130A40CD91CDBFDD91DEBFFF91EF91DF91CF91CD
S1130A50BF91AF919F918F917F916F915F914F91D2
S1130A603F912F911F910F91FF90EF90DF90CF90C6
S1130A70BF90AF909F908F907F906F905F904F90BA
S1130A803F902F901F900F900CBE0F900BBE0F90B5
S1130A900FBE0F9008959ADF18950FB6F8940F9231
S1130AA0FC01968D0F900FBE81E0911180E00895B6
S1130AB00F931F93CF93DF93EC01042F1E8D48A156
S1130AC041110CC088819981892B09F042C08C8125
S1130AD09D810E943D121D821C8242C0011117C0DB
S1130AE050E08A819B810E94842D28A18A819B8168
S1130AF0820F911D9B838A832C813D8182179307EA
S1130B0050F1888199819B838A8380E029C050E0D9
S1130B108E819F810E94842D88A190E0919581957A
S1130B2091092E813F81280F391F3F832E834881ED
S1130B3059812417350730F42C813D81820F931F8E
S1130B409F838E83023049F4112349F0115080E0D1
S1130B5007C080E005C080E003C080E001C080E001
S1130B601F5F1E8FDF91CF911F910F910895FC019C
S1130B7040A14423A9F050E026813781240F351F7A
S1130B8037832683848195812817390720F0808153
S1130B90918197838683CB01668177810C94842D20
S1130BA00895EF92FF920F931F93CF938C010FB68A
S1130BB0F8940F92FC01C2A11C16ACF48389811134
S1130BC006C011C0F8018389811105C00CC07801E9
S1130BD0F3E1EF0EF11CC7010E94F61081110E948F
S1130BE02612C15079F78FEFF80182A30F900FBE40
S1130BF00FB6F8940F92C1A11C16ACF48085811134
S1130C0006C011C0F8018085811105C00CC07801AF
S1130C10F8E0EF0EF11CC7010E94F61081110E944A
S1130C202612C15079F78FEFF80181A30F900FBE00
S1130C30CF911F910F91FF90EF900895CF93DF9381
S1130C40EC010FB6F8940F92E881F9818F8D28A1F9
S1130C5090E030E0829FA001839F500D929F500D41
S1130C6011244E0F5F1F5D834C831E8EFB83EA832A
S1130C700197829FA001839F500D929F500D1124D4
S1130C80CF01840F951F9F838E838FEF89A38AA33F
S1130C9061110BC08885882371F0CE0108960E94EB
S1130CA0F610882341F031DE06C0CE01089661DDDE
S1130CB0CE0143965EDD0F900FBE81E0DF91CF91B0
S1130CC008950F931F93CF93DF93082F162F869FBA
S1130CD0C001112483964BDCEC01009769F01111DB
S1130CE003C09983888303C08396998388830F8F75
S1130CF018A361E0CE01A2DFCE01DF91CF911F9155
S1130D000F9108959F92AF92BF92CF92DF92EF928C
S1130D10FF920F931F93CF93DF93CDB7DEB729973D
S1130D200FB6F894DEBF0FBECDBF7C015B012E83EE
S1130D303F834887598710E0992493946C0188E095
S1130D40C80ED11C0FB6F8940F92F701968D878DBB
S1130D50981710F00230B1F4402FB501C701A8DE96
S1130D60F7019389992341F0C70143960E94F61035
S1130D70882321F0CADD02C08111C7DD0F900FBEA8
S1130D8081E04EC08E819F81A885B985892B8A2BED
S1130D908B2B21F40F900FBE80E042C0111105C0CF
S1130DA0CE0101960E94BC11192D0F900FBEA7D63B
S1130DB00FB6F8940F92F70181A18F3F09F411A2A5
S1130DC0F70182A18F3F09F412A20F900FBEBE015A
S1130DD06A5F7F4FCE0101960E94CD1181111CC024
S1130DE00FB6F8940F92F701968D878D0F900FBE72
S1130DF098130EC04E815F8168857985C6010E9473
S1130E009D10C701CEDEBFD781119CCF7EDD9ACF66
S1130E10C701C7DEB8D796CFC701C3DEB4D780E019
S1130E2029960FB6F894DEBF0FBECDBFDF91CF91E8
S1130E301F910F91FF90EF90DF90CF90BF90AF90F4
S1130E409F9008950F93CF93DF93482F60E081E044
S1130E5038DFEC01009761F01D821C821982188230
S1130E601E8200E020E030E0A90160E070E04ADF8B
S1130E70CE01DF91CF910F910895EF92FF920F93DE
S1130E801F93CF93DF938A01FC01568D378D53173F
S1130E9010F02230F9F4422F7801EC011AA18E8D62
S1130EA0CE0106DE1F3F81F48B898823A9F0CE0191
S1130EB043960E94F610882389F0E114F10481F02E
S1130EC081E0F70180830DC0FF24F394F10EFAA2B0
S1130ED081E007C080E005C081E003C081E001C07B
S1130EE081E0DF91CF911F910F91FF90EF900895D2
S1130EF09F92AF92BF92CF92DF92EF92FF920F93A5
S1130F001F93CF93DF93CDB7DEB729970FB6F8942D
S1130F10DEBF0FBECDBF8C015B012E833F834887AC
S1130F205987E12C992493946C0183E1C80ED11C58
S1130F300FB6F8940F92F801F68CFF2099F0B501E2
S1130F40C80115DEFA94F801F68E8085882331F005
S1130F50C80108960E94F6108111D7DC0F900FBECD
S1130F6081E04DC08E819F81A885B985892B8A2B0C
S1130F708B2B21F40F900FBE80E041C0E11005C01F
S1130F80CE0101960E94BC11E92C0F900FBEB7D57B
S1130F900FB6F8940F92F80181A18F3F09F411A2C2
S1130FA0F80182A18F3F09F412A20F900FBEBE0177
S1130FB06A5F7F4FCE0101960E94CD11811116C048
S1130FC0C8016BDD882371F04E815F816885798566
S1130FD0C6010E949D10C801E4DDD5D68111A8CFB9
S1130FE094DCA6CFC801DDDDCED6A2CFC801D9DD01
S1130FF0CAD6C80152DD882309F49ACF80E0299625
S11310000FB6F894DEBF0FBECDBFDF91CF911F9115
S11310100F91FF90EF90DF90CF90BF90AF909F9093
S11310200895CF93DF93EC010FB6F8940F9289A142
S11310308F3F09F419A28AA18F3F09F41AA20F90D5
S11310400FBE8E8D811104C0CE0143960E94B41050
S1131050CE01A7DDDF91CF910895FC014481558134
S113106022813381240F351F80819181B901681B4E
S1131070790BCB016417750710F0841B950B089549
S1131080AF92BF92CF92DF92EF92FF920F931F9392
S1131090CF93DF936C015B017A01FC01C281D381A0
S11310A0048115810C1B1D0B4017510708F48A019C
S11310B0F60184859585A801B5018C0F9D1F0E94BA
S11310C0842D0E151F0558F4A701401B510BB501C3
S11310D0600F711FF601848595850E94842DCE01D1
S11310E08E0D9F1DF601248135818217930710F020
S11310F0821B930BF60193838283C701DF91CF9107
S11311001F910F91FF90EF90DF90CF90BF90AF9021
S11311100895CF92DF92EF92FF920F931F93CF9394
S1131120DF931F921F92CDB7DEB75A8349832115EF
S11311303105C9F06B017C01FC01868580FD08C086
S1131140CA012417350708F4C9019A83898311C099
S11311502017310758F042E050E0BE016F5F7F4F27
S1131160C7018EDF06C080E090E008C080E090E018
S113117005C049815A81B601C70182DF0F900F90E3
S1131180DF91CF911F910F91FF90EF90DF90CF905F
S11311900895AF92BF92CF92DF92EF92FF920F9396
S11311A01F93CF93DF937C015B01E901421753073F
S11311B008F4EA01209779F1F70100811181C480D4
S11311C0D580C01AD10ACC15DD0508F46E01F701EB
S11311D064857585600F711FA601C5010E94842D69
S11311E0CC16DD0658F4AE014C195D09F70164858F
S11311F07585C5018C0D9D1D0E94842D0C0F1D1F2E
S1131200F701848195810817190710F0081B190B41
S1131210F70111830083CE01DF91CF911F910F91CC
S1131220FF90EF90DF90CF90BF90AF900895FF9222
S11312300F931F93CF93DF938B01FF24F3944130DB
S113124009F0F12C0115110511F401E010E09C01E5
S1131250205F3F4F82179307B0F4EC012196C90138
S113126086D9FC01892B89F08FE0DF011D928A95D4
S1131270E9F7CF010F9695878487D583C4831783B5
S11312800683F68602C0E0E0F0E0CF01DF91CF9163
S11312901F910F91FF9008950FB6F8940F92DC01FF
S11312A018962D913C911997232B51F51A962D914F
S11312B03C911B97232B31F51E962C911E97169665
S11312C04D915C91179714966D917C9115971C968E
S11312D0ED91FC911D973FE01D923A95E9F7DC01F1
S11312E01D96FC93EE931C9715967C936E9314971E
S11312F017965C934E9316971E962C9381E003C029
S113130080E001C080E00F900FBE0895FC012481AD
S113131035818081918142815381820F931F01978E
S1131320841B950B8217930710F0821B930B08956F
S11313302F923F924F925F926F927F928F929F92E1
S1131340AF92BF92CF92DF92EF92FF920F931F93CF
S1131350CF93DF93CDB7DEB72B970FB6F894DEBFEC
S11313600FBECDBF4C017B876A871A010E831F8392
S113137028873987FC01848195810197268520FF80
S11313800CC02A01F2E04F0E511C8415950550F44F
S11313901E821F821886198646C02A018417950763
S11313A008F42C018E819F81A885B985892B8A2B0D
S11313B08B2B09F438C0CE010196C8D70FB6F89428
S11313C00F92C401A3DF3C018415950538F560E054
S11313D080E090E00E9451150E942A12F401938744
S11313E082870F900FBEAE80BF80C884D984E12C61
S11313F0F12C00E010E0980140E050E0BA0180E0F8
S11314000E949812F40113861286BE016A5F7F4F10
S1131410CE010196C2D7882389F202C00F900FBE75
S11314206114710419F4C40171DF3C018201930158
S1131430A1016A857B85C4016CDE6C01892BE9F00E
S1131440C4010BDEF4012681378182179307A8F0CB
S113145056D3F40180859185892B71F0808591851F
S1131460E12CF12C00E020E030E0A90160E00E94D2
S11314703F13F4011186108686D4C6012B960FB64D
S1131480F894DEBF0FBECDBFDF91CF911F910F91B6
S1131490FF90EF90DF90CF90BF90AF909F908F9090
S11314A07F906F905F904F903F902F900895AF92F0
S11314B0BF92CF92DF92EF92FF920F931F93CF933D
S11314C0DF93EC017B015A0169018E8580FF04C022
S11314D08A010E5F1F4F01C08A01CE0117DF9C01F4
S11314E0A501B701CE0115DE5C01892BC1F0CE0147
S11314F0B4DD2E813F818217930788F08885998512
S1131500892B69F088859985E12CF12C00E020E095
S113151030E0A90160E00E94331419861886C501E1
S1131520DF91CF911F910F91FF90EF90DF90CF90BB
S1131530BF90AF9008952F923F924F925F926F9217
S11315407F928F929F92AF92BF92CF92DF92EF924F
S1131550FF920F931F93CF93DF931F921F92CDB7E8
S1131560DEB74C011B012A0158016901FC01868583
S113157080FD03C0612C712C04C06894662461F85A
S1131580712CA114B104C104D10441F10FB6F89433
S11315900F92C40162DD8C016816790648F060E0A0
S11315A080E090E00E94511555D7F401918780871F
S11315B00F900FBE60167106B8F0E12CF12C00E01C
S11315C010E0980140E050E0BA0180E0B1D7F401A6
S11315D011861086C40141DD8C0103C0C4013DDDC8
S11315E08C0160167106C8F561147104C1F0F40130
S11315F0C080D1809801A301BE016F5F7F4FC401F9
S1131600C8DD89819A81061917094816590630F4EC
S1131610F401D182C082412C512C01C02C019801CB
S1131620A201B101C401B5DD6C01892BC1F067D2FF
S1131630F40182859385892B71F082859385E12C51
S1131640F12C00E020E030E0A90160E00E943F13AB
S1131650F4011386128697D302C0C12CD12CC60183
S11316600F900F90DF91CF911F910F91FF90EF900A
S1131670DF90CF90BF90AF909F908F907F906F90AE
S11316805F904F903F902F900895E0913715F0911F
S11316903815808181110CC08FEF9FEFDC0180939E
S11316A0011590930215A0930315B09304150895A2
S11316B0E0913715F09138150780F085E02D808191
S11316C09181A281B3818093011590930215A09317
S11316D00315B093041508958F929F92AF92BF9211
S11316E0CF92DF92EF92FF92CF93DF936B017C0155
S11316F0C42F80900E1590900F15A0901015B090E7
S113170011158091BD159091BE15029684D88FEF66
S1131710C816D806E806F806B1F5CC23A1F1E3E132
S1131720F5E1A181B281C091BD15D091BE15BF83F1
S1131730AE83C091BD15D091BE1516968D919C9126
S11317401797998788871696CD91DC911797809182
S1131750BD159091BE1502969D838C838091BD1515
S11317609091BE15029617969C938E931697A0910E
S1131770BD15B091BE151D96FC93EE931C97808108
S11317808F5F80833FC0C80CD91CEA1CFB1CE0910E
S1131790BD15F091BE15C282D382E482F582C814CD
S11317A0D904EA04FB0468F46091BD157091BE1578
S11317B080913515909136156E5F7F4F0E94CE0350
S11317C021C06091BD157091BE158091371590911F
S11317D038156E5F7F4F0E94CE0380910115909162
S11317E00215A0910315B0910415C816D906EA068E
S11317F0FB0640F4C0920115D0920215E092031545
S1131800F0920415DF91CF91FF90EF90DF90CF908D
S1131810BF90AF909F908F9008954F925F926F9278
S11318207F928F929F92AF92BF92CF92DF92EF926C
S1131830FF920F931F93CF93DF934C016B015A01D7
S11318402901CA010E94B7023C01892B09F40DC188
S113185084E390E00E94B702EC01892B99F07C8E1E
S11318606B8EA50165EA70E0C3010E948D2D81E0B5
S1131870A81AB1088B8D9C8DA80EB91EC114D10471
S113188029F420C0C3010E947F03EFC0D6018C91CC
S11318908D8F8C918823A1F0AE01425E5F4FF601DB
S11318A03196B0E1CB0ED11CCF012191DA012D93F9
S11318B0AD01DC018C91882319F0CE16DF06A1F767
S11318C01CA601C01D8E0A3008F009E00A8F0DA77E
S11318D01EA66E01B2E0CB0ED11CC6010E94CA0343
S11318E0CE010E960E94CA03DB87CA878AE090E085
S11318F0A0E0B0E0801B9109A109B1098E879F8700
S1131900A88BB98BDF8BCE8B84E0FE01BF96DF0101
S11319101D928A95E9F71BAAA201B401C5010E9490
S1131920320499838883E114F10419F0F701D18317
S1131930C0830FB6F8940F92809112158F5F809335
S113194012158091BD159091BE15892BD1F5D093B8
S1131950BE15C093BD1580911215813009F041C0A8
S11319600FE415E10F2EFDEBEF2EF5E1FF2EF02D28
S1131970C8010E94B903055F1F4F0E151F05C1F76B
S113198084E495E10E94B90389E395E10E94B903D7
S11319908AE295E10E94B9038FE195E10E94B903BF
S11319A083E195E10E94B90384E495E190933815AD
S11319B08093371589E395E1909336158093351517
S11319C010C080910C1581110CC0E091BD15F091EF
S11319D0BE15928D8A8D891720F0D093BE15C093C1
S11319E0BD15809105158F5F80930515EA8D809153
S11319F00D158E1710F4E0930D158BE08E9FF001FA
S1131A001124E15BFA4E0180F281E02DFF83EE8325
S1131A102681378139872887A681B7811596DC927C
S1131A20CE921497D782C682EA8D8E9FF00111243C
S1131A30E15BFA4EFD87EC8780818F5F80830F9096
S1131A400FBE80910C15882361F0E091BD15F091D3
S1131A50BE15928D8A8D981730F40E94850481E01A
S1131A6005C081E003C081E001C08FEFDF91CF9119
S1131A701F910F91FF90EF90DF90CF90BF90AF90A8
S1131A809F908F907F906F905F904F900895EF920A
S1131A90FF920F930F2EFFEFEF2EF4E1FF2EF02DA8
S1131AA000E020E030E040EC50E06FE672E08DECC6
S1131AB090E0B3DE8130E9F40E94DD158130C9F491
S1131AC0F8948FEF9FEFDC0180930115909302153A
S1131AD0A0930315B093041581E080930C15109224
S1131AE00E1510920F1510921015109211150E94D8
S1131AF04904809106020F91FF90EF900895809120
S1131B00FE148F5F8093FE1408950FB6F8940F921D
S1131B1060910E1570910F1580911015909111150B
S1131B200F900FBE0895CF92DF92EF92FF920F9322
S1131B301F93CF93DF938091FE14811107C1C0904E
S1131B400E15D0900F15E0901015F09011158FEF31
S1131B50C81AD80AE80AF80AC0920E15D0920F15CE
S1131B60E0921015F0921115C114D104E104F104AE
S1131B70B1F4809137159091381520913515309135
S1131B803615309338152093371590933615809376
S1131B903515809106158F5F8093061576DD80914B
S1131BA0011590910215A0910315B0910415C81662
S1131BB0D906EA06FB0610F480E0B3C080E04BE0EF
S1131BC051E0E0913715F0913815908191110CC0D6
S1131BD04FEF5FEFBA0140930115509302156093E4
S1131BE00315709304159DC0E0913715F0913815D5
S1131BF00780F085E02D0084F185E02D02811381BA
S1131C0024813581C016D106E206F30648F4009318
S1131C10011510930215209303153093041581C008
S1131C20A485B585C681D781208531853F832E83E0
S1131C30C085D185268137813D832C839F012E5F0A
S1131C403F4F11966D917C9112976217730731F48F
S1131C506085718512967C936E9311971586148610
S1131C609C9191509C93A08DB18D109709F1C289DC
S1131C70D389648975897F836E83C489D589628990
S1131C8073897D836C831196CD91DC911297BF018A
S1131C90625F7F4FC617D70731F46489758912963E
S1131CA07C936E931197118E108E9C9191509C93FE
S1131CB0A28D90910D159A1710F4A0930D154A9FBB
S1131CC0D0011124A15BBA4E11960D90BC91A02DA8
S1131CD0B783A68316966D917C9117977187608759
S1131CE01696CD91DC9117973D832C8317963C93E0
S1131CF02E931697A28D4A9FD0011124A15BBA4E50
S1131D00B587A4879C919F5F9C93A091BD15B091CA
S1131D10BE15228D5A969C91291708F452CF852F0F
S1131D2050CFE091BD15F091BE15E28D9BE0E99F87
S1131D30F0011124E15BFA4E9081923008F081E0C9
S1131D40909107159923B1F081E014C08091081592
S1131D5090910915A0910A15B0910B150196A11D3A
S1131D60B11D8093081590930915A0930A15B0939B
S1131D700B1580E0DF91CF911F910F91FF90EF90B1
S1131D80DF90CF900895CF92DF92EF92FF920F935E
S1131D901F93CF93DF930FB6F8940F928091FE14A4
S1131DA081508093FE148091FE148111C4C08091EF
S1131DB0121581118BC0C2C0D8011796ED91FC9108
S1131DC018970084F185E02DA08DB18D82899389C7
S1131DD064897589EC017F836E838489958962891E
S1131DE07389EC017D836C83CF010E9611966D91FE
S1131DF07C9112976817790731F484899589129632
S1131E009C938E931197118E108E8C9181508C938C
S1131E10A485B5858681978160857185EC017F8372
S1131E206E838085918566817781EC017D836C83E7
S1131E30CF01029611966D917C91129768177907DC
S1131E4031F46085718512967C936E931197158693
S1131E5014862C9121502C93A28D20910D152A17B4
S1131E6010F4A0930D153A9FD0011124A15BBA4E32
S1131E7011960D90BC91A02DB783A68316966D91F3
S1131E807C9117977187608716966D917C9117974F
S1131E90EB019D838C8317969C938E931697A28D4A
S1131EA03A9FD0011124A15BBA4EB587A4878C91C7
S1131EB08F5F8C93A091BD15B091BE15928D5A96EB
S1131EC08C91981748F04093071506C0E0E0F0E0C5
S1131ED00AE215E13BE041E0D8018C9181116CCF1D
S1131EE0EF2B09F0D2DBC0900815D0900915E090D3
S1131EF00A15F0900B15C114D104E104F10499F012
S1131F00C1E011DE8111C0930715B1E0CB1AD108ED
S1131F10E108F108B1F71092081510920915109212
S1131F200A1510920B1580910715882331F00E9431
S1131F30850481E003C080E001C080E00F900FBE03
S1131F40DF91CF911F910F91FF90EF90DF90CF9091
S1131F500895CF92DF92EF92FF920F931F93CF9346
S1131F60DF93EC016A017B01CADD00910E1510912B
S1131F700F15209110153091111588819981AA812E
S1131F80BB81AC01BD014C0D5D1D6E1D7F1D08178D
S1131F9019072A073B07B8F4481759076A077B074C
S1131FA090F5FF24F394041715072607370708F064
S1131FB0F12C488359836A837B830417150726070A
S1131FC03707A0F40BC0481759076A077B07A0F02E
S1131FD0041715072607370778F015C0CB01BA0197
S1131FE0601B710B820B930B40E076DBCCDE81111E
S1131FF010C00E9485040DC0488359836A837B8383
S1132000FF24F394EBCF488359836A837B83F12CB9
S1132010EDCF8F2DDF91CF911F910F91FF90EF9016
S1132020DF90CF900895CF92DF92EF92FF926B01F1
S11320307C01672B682B692B41F061DD40E0C7010F
S1132040B6014ADBA0DE811102C00E948504FF9024
S1132050EF90DF90CF9008958091FE14882321F0B3
S113206081E080930715089510920715A091BD157E
S1132070B091BE15E091BD15F091BE152D913C9126
S1132080838D948D8217930758F06091BD157091DC
S1132090BE158091BD159091BE15635E7F4FB5D678
S11320A080910D15282F30E09BE0899FF0011124C9
S11320B0E15BFA4E908191110EC04BE08150282FC4
S11320C030E0429FF001439FF00D1124E15BFA4E92
S11320D09081992399F39BE0929FA001939F500DC7
S11320E01124DA01A15BBA4E1196ED91FC9112977D
S11320F00480F581E02D1296FC93EE9311974E5ACD
S11321005A4EE417F50729F444815581FD015283A1
S113211041839BE0929FF001939FF00D1124E15BBA
S1132120FA4E0180F281E02D208531853093BE1571
S11321302093BD1580930D150895CF92DF92EF92F1
S1132140FF926A017B016091BD157091BE15625FBB
S11321507F4F0E94CE0341E0C701B601BDDAFF9074
S1132160EF90DF90CF900895CF93DF93FC01CB01E4
S1132170BA01A181B281C091BD15D091BE15BB8BAE
S1132180AA8BC091BD15D091BE1516964D915C9148
S113219017975D8B4C8B1696CD91DC9117974091D8
S11321A0BD155091BE15425F5F4F5D834C834091D6
S11321B0BD155091BE15425F5F4F17965C934E93C9
S11321C01697A091BD15B091BE155996FC93EE9348
S11321D0589730813F5F3083222319F06FEF7FEFF0
S11321E0CB01422F79DADF91CF910895CF93DF931A
S11321F0DC011796ED91FC9118970084F185E02D90
S1132200A08DB18DC289D389848995899F838E835A
S1132210C489D589828993899D838C839F01225F98
S11322203F4F11968D919C9112978217930731F429
S11322308489958912969C938E931197118E108E92
S11322408C9181508C938091FE14811152C0A4858D
S1132250B585C681D781808591859F838E83C0850E
S1132260D185868197819D838C839F012E5F3F4F0B
S113227011968D919C9112978217930731F4808562
S1132280918512969C938E931197158614868C9142
S113229081508C93A28D80910D158A1710F4A09310
S11322A00D158BE08A9FD0011124A15BBA4E1196C3
S11322B00D90BC91A02DB783A68316964D915C9189
S11322C01797518740871696CD91DC9117973D83D8
S11322D02C8317963C932E931697A28D8A9FD00138
S11322E01124A15BBA4EB587A4878C918F5F8C9320
S11322F01CC04AE255E1DA011196CD91DC911297A6
S1132300D38BC28B8E819F81958B848B8E819F8191
S1132310DC0115963C932E9314973F832E83518FA3
S1132320408FDA018C918F5F8C93A091BD15B09191
S1132330BE15928D5A968C91891720F481E0809372
S1132340071501C080E0DF91CF9108950FB6F8948E
S11323500F9220910615FC01208340910E15509197
S11323600F15609110157091111541835283638389
S113237074830F900FBE089520910615FC012083ED
S113238040910E1550910F15609110157091111513
S113239041835283638374830895CF92DF92EF92D3
S11323A0FF920F931F93CF93DF93FB010FB6F89423
S11323B00F9240910E1550910F1560911015709168
S11323C0111500811181228133810F3FAFEF1A076C
S11323D02A073A0779F1EC01C980DA80EB80FC80A6
S11323E0A0910615B881BA1759F04C155D056E0514
S11323F07F0530F0108211821282138281E01BC0AB
S11324004C195D096E097F0940175107620773076C
S113241058F4041B150B260B370B008311832283FE
S11324203383AADF80E007C01082118212821382F4
S113243081E001C080E00F900FBEDF91CF911F912A
S11324400F91FF90EF90DF90CF90089581E08093FB
S1132450071508958091BD159091BE15089580913A
S11324600C15882331F08091FE14882321F080E03C
S1132470089581E0089582E008950F931F93CF9308
S1132480DF93FC01892B09F449C086A5815086A7F6
S1132490228D95A5291709F443C0811143C0EF018A
S11324A08F010E5F1F4FC8010E940B04EDA5EA8F38
S11324B08AE090E0A0E0B0E08E1B9109A109B10987
S11324C08E879F87A88BB98B80910D158E1710F47A
S11324D0E0930D158BE08E9FF0011124E15BFA4E21
S11324E00180F281E02DFF83EE83268137813987D5
S11324F02887A681B78115961C930E93149717838A
S11325000683EA8D8E9FF0011124E15BFA4EFD876C
S1132510EC8780818F5F808381E005C080E003C009
S113252080E001C080E0DF91CF911F910F91089569
S11325304F925F926F927F92AF92BF92CF92DF924F
S1132540EF92FF920F931F93CF93DF9328013901EA
S11325500FB6F8940F92E091BD15F091BE15C82FF7
S1132560D0E0EC0FFD1F83A9823071F1E091BD151D
S1132570F091BE15CE01880F991F880F991FE80F9F
S1132580F91F87A590A9A1A9B2A940955095609576
S11325907095482359236A237B2347A750AB61AB2B
S11325A072ABE091BD15F091BE15EC0FFD1F81E0FB
S11325B083ABA114B104C104D10431F041E0C601DC
S11325C0B5018AD80E9485040F900FBE0FB6F89407
S11325D00F92E114F104A1F0E091BD15F091BE1544
S11325E0CE01880F991F880F991FE80FF91F87A53F
S11325F090A9A1A9B2A9F70180839183A283B3838F
S1132600E091BD15F091BE15EC0FFD1F83A982303A
S1132610E9F4E091BD15F091BE15CE01880F991F24
S1132620880F991FE80FF91F87A590A9A1A9B2A93E
S11326304094509460947094482259226A227B22D8
S113264047A650AA61AA72AA81E001C080E0209145
S1132650BD153091BE15C20FD31F1BAA0F900FBE1C
S1132660DF91CF911F910F91FF90EF90DF90CF906A
S1132670BF90AF907F906F905F904F9008958F922E
S11326809F92AF92BF92EF92FF920F93CF93DF93FB
S1132690DC010FB6F8940F92E114F10479F0FC0117
S11326A084E0689FE00DF11D112487A490A8A1A8DF
S11326B0B2A8F70180829182A282B38270E0FD0108
S11326C0E60FF71F83A992E093AB0230F9F018F4F8
S11326D0013031F049C0033069F10430B9F144C02C
S11326E0660F771F660F771FFD01E60FF71F87A49C
S11326F090A8A1A8B2A8BA01A901482959296A2910
S11327007B2947A750AB61AB72AB2EC0660F771F16
S1132710660F771FFD01E60FF71F47A550A961A9B2
S113272072A94F5F5F4F6F4F7F4F47A750AB61ABAD
S113273072AB1AC0660F771F660F771FFD01E60F95
S1132740F71F27A730AB41AB52AB0EC0823009F460
S113275079C0660F771F660F771FFD01E60FF71F1D
S113276027A730AB41AB52AB813009F06DC01C964A
S1132770ED91FC911D971696CD91DC9117971896C3
S11327808D919C9119979F838E831896CD91DC919E
S1132790199716968D919C9117979D838C839D0113
S11327A02E5F3F4F818192818217930731F41896EF
S11327B08D919C911997928381831D961C921E92F0
S11327C01C978081815080835A96EC915A9780910E
S11327D00D158E1710F4E0930D158BE08E9FF0010C
S11327E01124E15BFA4E0180F281E02D1796FC93EF
S11327F0EE9316974681578119965C934E931897DA
S1132800C681D7813D832C83378326835A96EC91E6
S11328105A978E9FF0011124E15BFA4E1D96FC93AA
S1132820EE931C9780818F5F8083E091BD15F091BA
S1132830BE155A969C91828D891740F40E94850496
S113284081E005C080E003C081E001C081E00F9019
S11328500FBEDF91CF910F91FF90EF90BF90AF909B
S11328609F908F9008958F929F92AF92BF92CF9234
S1132870DF92EF92FF920F93CF93DF93DC01E11489
S1132880F10479F0FC0184E0689FE00DF11D11244E
S113289087A490A8A1A8B2A8F70180829182A282FD
S11328A0B38270E0FD01E60FF71F83A992E093ABBA
S11328B00230F9F018F4013031F049C0033069F105
S11328C00430B9F144C0660F771F660F771FFD010E
S11328D0E60FF71F87A490A8A1A8B2A8BA01A9017E
S11328E0482959296A297B2947A750AB61AB72ABA8
S11328F02EC0660F771F660F771FFD01E60FF71FC7
S113290047A550A961A972A94F5F5F4F6F4F7F4FD1
S113291047A750AB61AB72AB1AC0660F771F660F47
S1132920771FFD01E60FF71F27A730AB41AB52AB72
S11329300EC0823009F4A4C0660F771F660F771F9C
S1132940FD01E60FF71F27A730AB41AB52AB813037
S113295009F098C08091FE1481115FC01C96ED911E
S1132960FC911D971696CD91DC91179718968D9131
S11329709C9119979F838E831896CD91DC9119971A
S113298016968D919C9117979D838C839D012E5F44
S11329903F4F818192818217930731F418968D916C
S11329A09C911997928381831D961C921E921C9769
S11329B08081815080835A96EC915A9780910D15AD
S11329C08E1710F4E0930D158BE08E9FF001112407
S11329D0E15BFA4E0180F281E02D1796FC93EE93B1
S11329E016974681578119965C934E931897C68122
S11329F0D7813D832C83378326835A96EC915A974B
S1132A008E9FF0011124E15BFA4E1D96FC93EE9328
S1132A101C9780818F5F808320C04AE255E1FA01D0
S1132A20C181D2815396DC93CE9352978E819F813C
S1132A3055969C938E9354972E813F81CD010E968B
S1132A40F901958384839F838E8359965C934E9377
S1132A505897FA0180818F5F8083E091BD15F091D2
S1132A60BE155A969C91828D891770F4C114D104B5
S1132A7019F081E0F601808381E08093071505C099
S1132A8080E003C081E001C081E0DF91CF910F912C
S1132A90FF90EF90DF90CF90BF90AF909F908F907A
S1132AA00895009721F48091BD159091BE150FB63D
S1132AB0F8940F9270E0FC01E60FF71F23A922306F
S1132AC031F4FC01E60FF71F13AA81E001C080E096
S1132AD00F900FBE0895CF92DF92EF92FF920F9363
S1132AE01F93FC0142835383648375839387828796
S1132AF00417150726073707C0F00C191D092E09FE
S1132B003F0986859785A089B189081719072A077F
S1132B103B0700F5BF016E5F7F4F8091C715909111
S1132B20C8150E94CE0380E018C00C151D052E05A3
S1132B303F0528F44C155D056E057F0568F4BF015B
S1132B406E5F7F4F8091C9159091CA150E94CE0384
S1132B5080E003C081E001C081E01F910F91FF90EC
S1132B60EF90DF90CF9008950FB6F8940F92809174
S1132B70C5159091C615892BE9F486ED95E10E945F
S1132B80B9038BEC95E10E94B90386ED95E190932E
S1132B90CA158093C9158BEC95E19093C815809361
S1132BA0C71540E067E08AE00E9461069093C6156D
S1132BB08093C5150F900FBE0895EF92FF920F9367
S1132BC0D3DF8091C5159091C615892B91F00F2EF6
S1132BD0F3ECEF2EF5E1FF2EF02D03E020E030E0E2
S1132BE040EC50E064E772E083E091E00E940D0C59
S1132BF001C080E00F91FF90EF9008958F929F9213
S1132C00AF92BF92CF92DF92EF92FF920F931F93F6
S1132C10CF93DF93CDB7DEB727970FB6F894DEBF17
S1132C200FBECDBFE091C515F091C615309781F167
S1132C3069832A833B834C835D839F838E836630C1
S1132C40F4F40DDC823069F400E0A7019601BE01C2
S1132C506F5F7F4F8091C5159091C6150E948206C3
S1132C6018C000E020E030E0A901BE016F5F7F4F93
S1132C708091C5159091C6150E9482060AC020E075
S1132C80A801BE016F5F7F4FCF010E943D0701C0C5
S1132C9080E027960FB6F894DEBF0FBECDBFDF915C
S1132CA0CF911F910F91FF90EF90DF90CF90BF9045
S1132CB0AF909F908F9008952F923F924F925F9282
S1132CC06F927F928F929F92AF92BF92CF92DF9238
S1132CD0EF92FF920F931F93CF93DF931C010E94F7
S1132CE0850D2B013C018091BF159091C015A091D9
S1132CF0C115B091C215481659066A067B0608F03C
S1132D0053C03BC00780F085E02D80809180A28075
S1132D10B380C085D1858E010E5F1F4FC8010E940C
S1132D200B04EC89FD89CE0119958E8982FF25C09B
S1132D308E859F85A889B989880D991DAA1DBB1DFB
S1132D4088169906AA06BB0670F48A839B83AC8313
S1132D50BD83DB87CA87B8018091C9159091CA15D4
S1132D600E94CE030AC0C12CD12C760100E010E0F1
S1132D70A501940160E0CE0141DFE091C915F09115
S1132D80CA1580818111BECF8091C7159091C81555
S1132D909093CA158093C915F093C815E093C7158D
S1132DA081E0F101808302C0F10110824092BF15DD
S1132DB05092C0156092C1157092C215C301B20140
S1132DC0DF91CF911F910F91FF90EF90DF90CF9003
S1132DD0BF90AF909F908F907F906F905F904F9037
S1132DE03F902F9008950895279A2F9A08951F9A37
S1132DF00895FADF2FEF80E792E021508040904061
S1132E00E1F700C00000F3DFF5CFEEDF2FEF87EA34
S1132E1091E6215080409040E1F700C00000E7DFD8
S1132E20F5CFBDD32FEF83ED90E321508040904048
S1132E30E1F700C00000AFD384E396E004C3089533
S1132E40CF93DF93CDB7DEB76A970FB6F894DEBFA2
S1132E500FBECDBF0E94850D69837A838B839C83CB
S1132E600F2EF3E0EF2EF02DFF24F3944EE359E4FC
S1132E7060E070E0CE0101966CD882E892E00E9496
S1132E80002EEE82FD828CE090E00E94B7028C015D
S1132E90A4D0F801608171818281938128D26F83EB
S1132EA0F801648175818681978121D26887F80150
S1132EB060857185828593851AD26987BE016B5FAF
S1132EC07F4F80E0BBD6C8010E947F03CFCFCF9352
S1132ED0DF9300D01F92CDB7DEB70E94850D6983C2
S1132EE07A838B839C8311E041E752E060E070E0D9
S1132EF0CE0101962ED883E992E00E94002E82B181
S1132F00812782B98EDFF0CFEF92FF920F938091E9
S1132F105E1790915F17892B89F481E00E94220744
S1132F2090935F1780935E17009741F000E020E0D4
S1132F3030E0A90160E070E00E948206E12CF12CEF
S1132F4003E020E030E040EC50E069E972E080E228
S1132F5097E10E940D0C02E020E030E040EC50E0EC
S1132F6062EA72E087E697E10E940D0C0F91FF90F0
S1132F70EF900895F7D383E00E94E72080E090E08B
S1132F8015D309C3089581B1816881B90E9469028A
S1132F9080E00E940A25EEDFB7DF85E00E942C283E
S1132FA060E070E081E06CD583E08DC10895EBDFD3
S1132FB088EA92E00E94002E0E94470DFFCFEDD3D5
S1132FC01F928F938AEB92E09F938F930E94ED2D33
S1132FD00F900F900F900F9008950F931F93CF931E
S1132FE0DF931F921F92CDB7DEB78C01E8DF2FEF7E
S1132FF08DEE92E0215080409040E1F700C0000047
S1133000E1D31F928F9386ED92E09F938F930E945A
S1133010ED2D0F900F900F900F9009C0EFEFFDEE84
S113302022E0E150F0402040E1F700C00000B2D3BC
S11330308823A1F3D8D3F8016083718382839383B7
S1133040E6D3F80164837583868397830E940C21F9
S11330501F928F9382EF92E09F938F930E94ED2DA6
S1133060CE0101960E943B2169817A8180E090E043
S11330706AD1F80160877187828793870F900F90D8
S11330800F900F900F900F90DF91CF911F910F91A0
S11330900895CF93DF93CDB7DEB768970FB6F89452
S11330A0DEBF0FBECDBF81E02BD562E070E080E0D3
S11330B090E00E94131080E023D566E970E080E080
S11330C090E00E941310D5D481E00E947A2826D57E
S11330D0A2D79F938F938DE093E09F938F930E9449
S11330E0ED2D9AD698D79F938F9380E293E09F9388
S11330F08F930E94ED2D8E010B5F1F4FC80120D5C9
S11331008AD71F930F939F938F9389E393E09F93A1
S11331108F930E94ED2DC8012FD57DD79F938F9358
S11331201F930F938DE493E09F938F930E94ED2D53
S1133130A80162E673E083E893E04CD76CD79F93D1
S11331408F931F930F9382E693E09F938F9383E86B
S113315093E09F938F9384E993E09F938F930E94CE
S1133160ED2D3DD558D79F938F938AEC93E09F9391
S11331708F930E94ED2D0FB6F894DEBF0FBECDBF26
S113318081E027D648D79F938F9389ED93E09F934F
S11331908F930E94ED2D84EF91E026D63CD79F9328
S11331A08F9381E08F9384EF8F938AEF93E09F93C3
S11331B08F930E94ED2D0FB6F894DEBF0FBECDBFE6
S11331C00AE010E00F2EFAE1EF2EF4E0FF2EF02DCE
S11331D080E00BD5D82E1FD79F938F931F930F9307
S11331E0FF92EF920E94ED2D0F900F900F900F9091
S11331F00F900F90F8E0DF16C1F180E00E94DE2806
S113320066E371E080E090E00E9413100150110920
S1133210F9F624C00E948504FDCF48EA58E460E032
S113322070E0CE0101960E94A90FF8018282938278
S1133230A482B582C682D78283E00E94F028B801B6
S113324080E0FCD4E8D69F938F93FF92EF920E9484
S1133250ED2D0F900F900F900F90DFCF81E00E9423
S1133260CF2880E00E949D28D5CF81E00E94C0280D
S1133270E1EEF5E186E0818382E080830E94850DA2
S113328069837A838B839C8301EE15E10F2EF0E32F
S11332908F2EF02D0F2EF9E39F2EF02D6894AA2483
S11332A0A1F80F2EF3EABF2EF02D6894CC24C2F8B7
S11332B00F2EFAE1DF2EF02D0F2EFAE3EF2EF4E0BD
S11332C0FF2EF02DAACFEF92FF920F93E12CF12C59
S11332D0082F20E030E048E851E06FE474E089E42E
S11332E098E10E940D0C0F91FF90EF90089570D01B
S11332F088F09F5790F0B92F9927B751A0F0D1F0DB
S1133300660F771F881F991F1AF0BA95C9F712C064
S1133310B13081F077D0B1E0089574C0672F782F71
S11333208827B85F39F0B93FCCF3869577956795D0
S1133330B395D9F73EF490958095709561957F4F3C
S11333408F4F9F4F0895E89409C097FB3EF49095E2
S11333508095709561957F4F8F4F9F4F9923A9F06A
S1133360F92F96E9BB279395F695879577956795F9
S1133370B795F111F8CFFAF4BB0F11F460FF1BC03D
S11333806F5F7F4F8F4F9F4F16C0882311F096E9D0
S113339011C0772321F09EE8872F762F05C066237E
S11333A071F096E8862F70E060E02AF09A95660F37
S11333B0771F881FDAF7880F9695879597F90895F0
S11333C057FD9058440F551F59F05F3F71F04795D2
S11333D0880F97FB991F61F09F3F79F087950895B7
S11333E0121613061406551FF2CF4695F1DF08C0D6
S11333F0161617061806991FF1CF869571056105F3
S113340008940895E894BB2766277727CB0197F99A
S1133410089581B38F6081BB2898289A21B381E0F5
S113342090E00090281602C0880F991F0A94E2F7D2
S11334308095822381BBE091F715F091F8153097C0
S113344009F019950895CF93DF93EC01FC010190E5
S11334500020E9F73197E81BF90BE093FD15E13201
S113346008F47DC018A20E94E32D8091FD158530DB
S1133470E0F444E050E0481B51091416150674F4B6
S113348080E090E020E02F5FFC01E250FA4E1082D1
S1133490822F90E084179507B4F301C020E01092C6
S11334A0FA1591E0920F20E02EC0EEEFF5E11082C4
S11334B01182128223E0F5CFFE01E40FF51FA081F3
S11334C030ED3A0F3A3050F4E82FF0E0E250FA4E83
S11334D0B0E0AA5DBB4F8C91808313C03FEB3A0FE1
S11334E0363050F4E82FF0E0E250FA4EB0E0A15E3E
S11334F0BB4F8C91808305C0E82FF0E0E250FA4E78
S113350010822F5F9F5F8FEF890F422F50E0FE01E3
S113351001900020E9F73197EC1BFD0B4E175F0774
S113352058F22091FD15253010F1E82FF0E0E2501B
S1133530FA4E1082E92FF0E0E250FA4E1082E1E0F8
S1133540E90FF0E0E250FA4E10829E5F9093FA1574
S11335501092F9151092FC151092FB1508C00E94E8
S1133560E32D8091FD15853008F483CF9ECFE4E2EE
S1133570F6E1AEEFB5E18C91808311968C911197B1
S1133580818312968C911297828313968C918383F4
S1133590DF91CF91089585B5856085BD089585B582
S11335A0887F85BD81B38F6081BB08958F92AF9270
S11335B0CF92EF920F931F93CF93DF93EC0180B3DD
S11335C08F6080BB81B38F6081BB209A89E09AE1D0
S11335D09F938F93812CA12CC12CE12C00E010E04F
S11335E020E240E063E080E10E946C2590932A167B
S11335F08093291689E187BD84B5826084BDEEE697
S1133600F0E0808182608083CADFD093F815C09394
S1133610F7150F900F90DF91CF911F910F91EF90BD
S1133620CF90AF908F9008951F920F920FB60F9284
S113363011240BB60F922F933F934F935F936F9385
S11336407F938F939F93AF93BF93EF93FF93809157
S1133650FA15882369F12091FB153091FC15253F5B
S113366091E0390738F42F5F3F4F3093FC152093D6
S1133670FB151EC01092FC151092FB15E091F91574
S11336802E2F30E090E004972817390714F4EF5FE9
S113369001C0E0E0E093F915F0E0E250FA4EA4E254
S11336A0B6E128E236E181918D93A217B307D9F7E9
S11336B08091281690E0019683709078992324F4E1
S11336C001978C6F9F6F0196809328169927FC01B0
S11336D0EC5DF94E608160958091291690912A16CF
S11336E00E943E26FF91EF91BF91AF919F918F91E0
S11336F07F916F915F914F913F912F910F900BBEEE
S11337000F900FBE0F901F9018956530F1F4FA01D9
S113371080818F7390E0982F88272181822B90934A
S11337200A02809309028281F0E48F9FC001112470
S1133730FA01238126952695822B90930802809383
S1133740070281E080932B160895643051F080E0E5
S113375090E4909308028093070290930A02809366
S1133760090208950F931F9305E81BE120E034E25A
S113377044EF50E060E087E20E94122990932D16F6
S113378080932C1621E0892B09F020E0822F1F91D1
S11337900F91089580912B16089580912C16909185
S11337A02D16009759F040E060E070E00E94632914
S11337B0843031F410922B1680E0089582E008954D
S11337C083E0089580912C1690912D16009739F07E
S11337D064E00E94AF29853021F083E0089582E0FF
S11337E0089580E008956091090270910A0280E0D2
S11337F090E0A9DD20E030E048EC52E40E94B52BD3
S113380020E038EF4FE756E40C94222B08956091A2
S113381007027091080280E090E095DD20E030E03E
S113382045E253E40E94B52B20E038EF4FE756E41D
S11338300E94222B20E030E040E252E40C94BB2AA8
S113384008950F931F93CF93DF931F921F92CDB7C9
S1133850DEB78C0119822DC0E0916516EC3250F46C
S113386081E08E0F80936516F0E0E956F94E8A8167
S1133870808302C0109265168A818A30D1F4409107
S1133880651650E0FA01EB56F94E10824150510989
S11338909E012F5F3F4F67E976E180916816909112
S11338A069160E94570A898181110E948504109229
S11338B06516BE016E5F7F4FC80116D6882361F27C
S11338C00F900F90DF91CF911F910F9108950F9357
S11338D01F93CF93DF938C01EB0180916816909135
S11338E069160E944C09B8018EE296E10E94C42D2B
S11338F0209779F0EEE2F6E101900020E9F73197A4
S113390080E290E091838083BE018EE296E10E9482
S1133910B92DEEE2F6E1DF010D900020E9F71197F1
S11339208DE09AE011969C938E9312961C920190CE
S11339300020E9F73197EE52F641AE2F8EE296E180
S1133940AC016A2F80916A1690916B1678D581111B
S113395011C008E215E020E030E04DE250E061EFF4
S113396076E180916816909169160E949B0A81EF16
S113397096E102C080E090E0DF91CF911F910F911A
S113398008952F923F924F925F926F927F928F92FF
S11339909F92AF92BF92CF92DF92EF92FF920F93DA
S11339A01F93CF93DF935C01FC0101900020E9F7A2
S11339B031976F01C81AD90A5C2C0F2EFFEF8F2E96
S11339C0F6E09F2EF02DE12CF12C4C2C3701F40164
S11339D001811281E80109900020E9F72197C01BB9
S11339E0D10B3C2EF9E0CF16D10458F0F40120801D
S11339F0FEE02F1206C0B801C5010E94942D892B48
S1133A0009F5442D351408F44C2F50E0B801C501D4
S1133A100E94CB2D892B49F4F301EE0FFF1FE60D15
S1133A20F71DE150F94F20800DC08FEFE81AF80A16
S1133A30E3E08E0E911CF1E1EF16F10439F668947F
S1133A40222424F8822DDF91CF911F910F91FF90B2
S1133A50EF90DF90CF90BF90AF909F908F907F902A
S1133A606F905F904F903F902F90089530DF89CFF3
S1133A70089580916816909169160C944C090895E4
S1133A808F929F92AF92CF92EF920F931F93CF9307
S1133A90C82F8B0141E060E070E088EC90E00E9468
S1133AA0170990936916809368161093671600930C
S1133AB066160F2EF1E28F2EFCE19F2EF02D6894F6
S1133AC0AA24A6F86894CC24C6F8E12C00E023E0EC
S1133AD040E051EE60E070E08C2FDED390936B16E3
S1133AE080936A16E7E0F1E0808180618083CF9162
S1133AF01F910F91EF90CF90AF909F908F9008956A
S1133B00882331F0E8E0F1E080818F7E808308959E
S1133B10E8E0F1E0808180618083089560E070E0F6
S1133B2085E894E0D4DEE1EFF6E101900020E9F7C6
S1133B303197E15FF64181E0759708F080E00895E0
S1133B40CF93DF93EC0160E070E086E994E0BFDEA0
S1133B50E1EFF6E101900020E9F7E250F74139F492
S1133B6061EF76E1CE010E94C42D80E002C018828C
S1133B7081E0DF91CF910895FC0101900020E9F7E5
S1133B809F01215131092817390729F4BC0184EC1C
S1133B9094E06CCF089589E00895FC010190002021
S1133BA0E9F79F01215131092817390729F4BC018C
S1133BB083ED94E05BCF089589E00895FC010190C2
S1133BC00020E9F79F01215231092817390729F408
S1133BD0BC0182EE94E04ACF089589E0089560E044
S1133BE070E081E295E042CF08950F931F93E82F90
S1133BF0F0E0EE0FFF1FE550F94F608171818AE21A
S1133C0095E034DF811114C008E215E020E030E0D3
S1133C104DE250E061EF76E180916816909169166B
S1133C200E949B0A882321F081EF96E1AADE03C05B
S1133C3081EF96E1A6DE1F910F9108950F931F93D4
S1133C40CF93DF931F92CDB7DEB7DB0111969C9122
S1133C501197953108F0B4C0992381F160E070E0C8
S1133C60272F30E0462F50E0FD01E40FF51F92812D
S1133C7092959F709A3010F0995C01C0905DF901A3
S1133C80EE57F94E90832F5F3F4FFD01E40FF51F70
S1133C9092819F70492F50E04A30510514F0995C8D
S1133CA001C0905DF901EE57F94E90837E5F6F5F1E
S1133CB011969C911197691798F201C070E0E72F53
S1133CC0F0E0EE57F94E10824C91811103C083E36A
S1133CD095E002C085E395E022E836E13F932F9317
S1133CE01F924F939F938F9389E395E09F938F93B4
S1133CF084EC96E19F938F930E94302E60E070E0F5
S1133D0084EC96E1B3DE0FB6F894DEBF0FBECDBFF0
S1133D10811159C008E215E020E030E04DE250E0A6
S1133D2061EF76E180916816909169160E949B0A72
S1133D30882309F447C081EF96E123DE8E3009F031
S1133D4042C087E089838091661690916716892B1B
S1133D50A9F1BE016F5F7F4F81EF96E168D1809337
S1133D606C16E981F0E0EF50F94EDF010D90002070
S1133D70E9F71197AE1BBF0BAA2391F0BB27CD0126
S1133D8001979C0112F42F5F3F4F3595279520939F
S1133D906D16AF014F5F5F4F64E18EE696E173D11C
S1133DA001E010E020E030E046E150E06CE676E12E
S1133DB080916616909167160E9498098EE003C060
S1133DC084E101C080E00F90DF91CF911F910F91AA
S1133DD00895813019F069E475E002C062E276E08A
S1133DE08DE495E043CE08959F938F938EE795E0FD
S1133DF09F938F9384EC96E19F938F930E94302E30
S1133E0060E070E084EC96E131DE0F900F900F904B
S1133E100F900F900F9008952F923F924F925F92C0
S1133E206F927F928F929F92AF92BF92CF92DF92C6
S1133E30EF92FF920F931F93CF93DF93CDB7DEB72B
S1133E40A0970FB6F894DEBF0FBECDBF6BEA75E046
S1133E5087EB95E03CDD95DD8111A3C080E2E2E2D1
S1133E60F2E0DE01119601900D928A95E1F79E0130
S1133E702F5F3F4F6901E12CF12C0F2EF3ECAF2E95
S1133E80F5E0BF2EF02D04EC16E10F2EFCED4F2EC5
S1133E90F5E05F2EF02D0F2EF3EF8F2EF5E09F2E21
S1133EA0F02D0F2EFDE06F2EF6E07F2EF02D3E2C30
S1133EB02F2CFF92EF92BF92AF921F930F930E9409
S1133EC0302E60E070E0C80102DD5BDD0F900F90E2
S1133ED00F900F900F900F90811163C032E03E1548
S1133EE0E8F4F60183818F9382818F9381818F938C
S1133EF080818F93FF92EF925F924F921F930F9363
S1133F000E94302E60E070E0C801E1DC3ADD0FB6BB
S1133F10F894DEBF0FBECDBF811143C02F923F92F4
S1133F209F928F921F930F930E94302E60E070E057
S1133F30C801CDDC26DD0F900F900F900F900F90ED
S1133F400F9081112EC02F923F927F926F921F93F8
S1133F500F930E94302E60E070E0C801B8DC11DDE0
S1133F600F900F900F900F900F900F90811119C028
S1133F703FEFE31AF30A84E0C80ED11C98E0E91677
S1133F80F10409F094CF60E070E085E296E09FDCF4
S1133F90F8DC811106C060E070E086E396E097DC0F
S1133FA0F0DCA0960FB6F894DEBF0FBECDBFDF9154
S1133FB0CF911F910F91FF90EF90DF90CF90BF9022
S1133FC0AF909F908F907F906F905F904F903F90B5
S1133FD02F900895EF92FF920F931F93CF93DF9347
S1133FE0EC018B017A0181E0F4DE81110DC0CE0178
S1133FF0D4DD811109C0C801E1DD811105C0C7010B
S1134000BBDD811101C0EBDDDF91CF911F910F91D9
S1134010FF90EF90089590E0FC01EE0FFF1F8E0FCC
S11340209F1FFC01E150F94F818192810895DC01C9
S1134030009729F1FB012081FC0101900020E9F7A0
S11340403197E81BF90B822F90E0E817F907C8F0C5
S113405080E008C0880F382F330F330F830F80534D
S1134060890F2F5FFD01E20FF11D908130ED390FB3
S11340703A3010F49111EECFFB012083089580E0D3
S1134080089580E008950F931F93CF93DF93DC018D
S1134090EA012097E1F1FA0101900020E9F7319754
S11340A0E41BF50B329710F532C08D01040F151F78
S11340B030E0AE01420F531FFA019081913428F091
S11340C09753592F5295507F03C0592F5295507FC3
S11340D02C0F3D1FF9019181913410F0975301C0C9
S11340E09053950FF80190838F5F01C080E0282FD3
S11340F0220F482F50E0FE0101900020E9F731978C
S1134100EC1BFD0B4E175F0710F48613CECFDF9127
S1134110CF911F910F91089580912117860F80935D
S1134120211790912417913079F028F09230A9F05A
S1134130933019F108956F3F09F048C01092211788
S113414081E0809324170895663809F03FC01092E7
S1134150201782E0809324170895E091201781E0CE
S11341608E0F80932017F0E0E25EF84E6083823079
S113417069F583E08093241708959091201721E036
S1134180290F20932017963009F581110EC0EEE116
S1134190F7E1808190E0982F88272181820F911D7B
S11341A0909326178093251704C010922617109217
S11341B0251710922417E0912217F09123173097B6
S11341C029F08091251790912617199508958F92BB
S11341D09F92AF92CF92EF920F930F2EFCE88F2E07
S11341E0F0E29F2EF02D6894AA24A4F86894CC24BD
S11341F0C4F8E12C00E023E040E855E260E070E020
S11342004BD090932817809327170F91EF90CF905E
S1134210AF909F908F900895CF93DF93CDB7DEB783
S113422029970FB6F894DEBF0FBECDBF89E0E2E454
S1134230F2E09E012F5F3F4FD90101900D928A95C4
S1134240E1F7109226171092251780912717909165
S11342502817009731F0422F532F69E0F0D080E007
S113426001C082E029960FB6F894DEBF0FBECDBF21
S1134270DF91CF91089520912517309126172115AC
S1134280310529F4FC011182108281E00895FC01BA
S11342903183208380E008952F923F924F925F9262
S11342A06F927F928F929F92AF92CF92EF92FF92F2
S11342B00F931F93CF93DF93CDB7DEB7F82E2A0168
S11342C03B0188E090E00E945F2C8C018F2D90E0F0
S11342D0FC01EE0FFF1FE75DF84E1183008301150B
S11342E0110509F46FC0880F991FFC01E55FFD4FAC
S11342F080819181D8018D939C938C2D90E0880FBF
S1134300991F880F991F0E945F2C1C0186E090E082
S11343100E945F2C7C014C2DB1010E949F2AF80160
S1134320F582E4828A2D90E0880F991F880F991FE7
S11343300E945F2C1C0186E090E00E945F2C7C01AF
S11343404A2DB1010E949F2AD8011396FC92EE9245
S1134350129717969C928E921697FFB6F894ED9149
S1134360FC91119736978081826080838D909C9018
S1134370C301B2010E94A31920E030E040E051E4FF
S11343800E94B52B9B01AC0160E074E284E79BE4DE
S11343900E94222B20E030E040E85FE30E94BB2A29
S11343A00E947719F40132976083D801ED91FC9152
S11343B01197359788E98083ED91FC91349786E0D5
S11343C08083FFBEC801DF91CF911F910F91FF90B1
S11343D0EF90CF90AF909F908F907F906F905F9071
S11343E04F903F902F900895CF93DF93DC01892B5A
S11343F001F11296ED91FC911397938182812581AD
S1134400981B922384819817B1F0838126952823E1
S1134410C081D181C20FD11D68838F5F95818923AB
S11344208383ED91FC91359780818062808380E065
S113443003C081E001C082E0DF91CF910895EF9243
S1134440FF920F931F93CF93DF937C01009709F49E
S113445041C0DC011296ED91FC9113979381828106
S1134460981B858198238481891B8617A8F166236C
S113447041F1842F952FDC016150462F50E04F5FAE
S11344805F4F480F591FE701EA81FB8193818281C5
S11344902581981B92238481981779F08C919381BC
S11344A026952923608171818B01020F111DE8017A
S11344B088839F5F8581982393831196A417B507FA
S11344C011F7D701ED91FC9135978081806280834B
S11344D080E003C081E001C082E0DF91CF911F91B1
S11344E00F91FF90EF9008950097D1F0DC0114969E
S11344F0ED91FC91159793818281981799F092819F
S1134500858186958923A081B181A80FB11D8C91E5
S1134510DB018C939F5F85819823928380E00895CB
S113452081E0089583E008951F920F920FB60F92D1
S113453011240BB60F922F933F934F935F936F9376
S11345407F938F939F93AF93BF93CF93DF93EF9317
S1134550FF93A0912917B0912A17109711F1609138
S1134560C6001496ED91FC91159793818281258163
S1134570981B92238481981761F0838126952823C0
S1134580C081D181C20FD11D68838F5F958189233A
S113459083831696ED91FC911797309711F0CD0116
S11345A01995FF91EF91DF91CF91BF91AF919F91B9
S11345B08F917F916F915F914F913F912F910F90C8
S11345C00BBE0F900FBE0F901F9018951F920F9265
S11345D00FB60F9211240BB60F922F938F939F93C4
S11345E0AF93BF93EF93FF93E0912917F0912A17AC
S11345F03097B9F00280F381E02D9381828198177E
S1134600B1F092818581282F26952923A081B1813B
S1134610A20FB11D2C919F5F892382832093C60032
S11346200BC0E1ECF0E080818F7D808305C0E1EC7C
S1134630F0E080818F7D8083FF91EF91BF91AF91F6
S11346409F918F912F910F900BBE0F900FBE0F90E3
S11346501F9018951F920F920FB60F9211240BB64C
S11346600F922F933F934F935F936F937F938F9307
S11346709F93AF93BF93CF93DF93EF93FF93A09157
S11346802B17B0912C17109711F16091CE0014964E
S1134690ED91FC911597938182812581981B92233A
S11346A08481981761F0838126952823C081D18164
S11346B0C20FD11D68838F5F9581892383831696EA
S11346C0ED91FC911797309711F0CD011995FF9159
S11346D0EF91DF91CF91BF91AF919F918F917F9196
S11346E06F915F914F913F912F910F900BBE0F905F
S11346F00FBE0F901F9018951F920F920FB60F9236
S113470011240BB60F922F938F939F93AF93BF9364
S1134710EF93FF93E0912B17F0912C173097B9F09A
S11347200280F381E02D938182819817B1F0928108
S11347308581282F26952923A081B181A20FB11D3F
S11347402C919F5F892382832093CE000BC0E9ECD8
S1134750F0E080818F7D808305C0E9ECF0E080810A
S11347608F7D8083FF91EF91BF91AF919F918F9146
S11347702F910F900BBE0F900FBE0F901F901895A6
S11347801F920F920FB60F9211240BB60F922F9314
S11347903F934F935F936F937F938F939F93AF93C5
S11347A0BF93CF93DF93EF93FF93A0912D17B09115
S11347B02E17109711F16091D6001496ED91FC918B
S11347C01597938182812581981B92238481981760
S11347D061F0838126952823C081D181C20FD11D28
S11347E068838F5F9581892383831696ED91FC916D
S11347F01797309711F0CD011995FF91EF91DF9143
S1134800CF91BF91AF919F918F917F916F915F9164
S11348104F913F912F910F900BBE0F900FBE0F90B1
S11348201F9018951F920F920FB60F9211240BB67A
S11348300F922F938F939F93AF93BF93EF93FF9315
S1134840E0912D17F0912E173097B9F00280F38183
S1134850E02D938182819817B1F092818581282F70
S113486026952923A081B181A20FB11D2C919F5FB0
S1134870892382832093D6000BC0E1EDF0E0808190
S11348808F7D808305C0E1EDF0E080818F7D8083A2
S1134890FF91EF91BF91AF919F918F912F910F90C5
S11348A00BBE0F900FBE0F901F9018951F920F9282
S11348B00FB60F9211240BB60F922F933F934F9381
S11348C05F936F937F938F939F93AF93BF93CF9394
S11348D0DF93EF93FF93A0912F17B09130171097A8
S11348E011F1609136011496ED91FC911597938125
S11348F082812581981B92238481981761F083819A
S113490026952823C081D181C20FD11D68838F5F72
S11349109581892383831696ED91FC91179730979F
S113492011F0CD011995FF91EF91DF91CF91BF91D6
S1134930AF919F918F917F916F915F914F913F9133
S11349402F910F900BBE0F900FBE0F901F901895D4
S11349501F920F920FB60F9211240BB60F922F9342
S11349608F939F93AF93BF93EF93FF93E0912F1790
S1134970F09130173097B9F00280F381E02D9381E4
S113498082819817B1F092818581282F2695292359
S1134990A081B181A20FB11D2C919F5F89238283D5
S11349A0209336010BC0E1E3F1E080818F7D8083A9
S11349B005C0E1E3F1E080818F7D8083FF91EF9179
S11349C0BF91AF919F918F912F910F900BBE0F903C
S11349D00FBE0F901F901895CF93DF931F92CDB702
S11349E0DEB7BE016F5F7F4F809131179091321710
S11349F07BDD8111F6CF898190E00F90DF91CF911B
S1134A000895682F8091311790913217EDDC80E082
S1134A1090E008958F929F92AF92CF92EF920F936E
S1134A20812C912C6894AA24A7F86894CC24C7F804
S1134A30E12C00E023E040E051EE60E070E02CDC8B
S1134A409093321780933117E4E6F7E183E192E023
S1134A5091838083938382830F91EF90CF90AF9063
S1134A609F908F900895E0913417F0913517309707
S1134A70F9F0A081B1811097D9F02381213069F434
S1134A804C9121E030E0028002C0220F331F0A94CF
S1134A90E2F7209524232C930BC04C9121E030E0C5
S1134AA0028002C0220F331F0A94E2F7242B2C93B6
S1134AB09093351780933417009769F01092361746
S1134AC02CB52F732CBDFC0124812CBD85818DBD9B
S1134AD08CB580648CBD08954F925F926F927F92E3
S1134AE08F929F92AF92BF92CF92DF92EF92FF92FA
S1134AF00F931F93CF93DF93CDB7DEB7982EB62EC7
S1134B00D42EF22E80913317811106C084B18760B0
S1134B1084B981E0809333178CE090E0D0D63C01D7
S1134B20DC0111961C930E931296EC921297139635
S1134B30CC9213978D2D880F880FF82AEB2DF0E077
S1134B40EE5CF84F8081982A8F2D892914968C93D6
S1134B50B3E0BB1518F481E0F3018583A11006C00E
S1134B60D30119961C921E92189712C06A2D70E0F8
S1134B7084E090E08AD62C0161E070E086E090E069
S1134B8084D66C014A2DB201DAD4F301D186C086F1
S1134B90811006C0D30117961C921E92169712C05C
S1134BA0682D70E084E090E070D65C0161E070E014
S1134BB086E090E06AD66C01482DB501C0D4F301BB
S1134BC0D782C6828C899D89D3011B969C938E9330
S1134BD01A970115110559F0F801229181E090E02E
S1134BE002C0880F991FEA94E2F7822B80832FB7C3
S1134BF0F89440913417509135177092351760929C
S1134C003417D301ED91FC911197309701F113966C
S1134C108C911397813071F4308181E090E0129689
S1134C200C9002C0880F991F0A94E2F780958323A1
S1134C3080830DC0308181E090E0D30112960C9006
S1134C4002C0880F991F0A94E2F7832B8083509344
S1134C503517409334172FBFC301DF91CF911F91B4
S1134C600F91FF90EF90DF90CF90BF90AF909F9007
S1134C708F907F906F905F904F9008951F93CF9384
S1134C80DF93009709F46AC0162FEC018091341762
S1134C9090913517C817D90711F0CE01E4DE8FB70C
S1134CA02FB7F89480913617811131C081E0809339
S1134CB03617A0913417B0913517ED91FC911197E7
S1134CC03097F9F013968C911397813069F4308101
S1134CD081E090E012960C9002C0880F991F0A940C
S1134CE0E2F7832B80830DC0308181E090E012963F
S1134CF00C9002C0880F991F0A94E2F780958323D1
S1134D0080838CB580688CBD1EBD80E025C0EE819B
S1134D10FF813097E1F03481838142819581841B46
S1134D2089233817B1F083814281841B8923381782
S1134D3091F0838196959823A081B181A90FB11D2B
S1134D401C938F5F95818923838380E005C082E073
S1134D5003C081E001C080E02FBF01C083E0DF9188
S1134D60CF911F9108951F920F920FB60F921124A5
S1134D700BB60F922F933F934F935F936F937F9351
S1134D808F939F93AF93BF93CF93DF93EF93FF934F
S1134D906EB5A0913417B09135171896ED91FC912A
S1134DA019973097A1F0838122819581821B8923F1
S1134DB02481821761F0838196959823C081D181E3
S1134DC0C90FD11D68838F5F9581892383831696CC
S1134DD0ED91FC911797309799F093818281981700
S1134DE079F092818581282F26952923A081B1818C
S1134DF0A20FB11D2C919F5F892382832EBD2DC0EC
S1134E008CB58F778CBD10923617A0913417B09162
S1134E103517ED91FC9111973097F9F013968C9119
S1134E201397813071F4208181E090E012960C9008
S1134E3002C0880F991F0A94E2F780958223808329
S1134E400CC0208181E090E012960C9002C0880F83
S1134E50991F0A94E2F7822B8083809134179091F2
S1134E603517DC011A96ED91FC911B97309709F0E8
S1134E701995FF91EF91DF91CF91BF91AF919F91E0
S1134E808F917F916F915F914F913F912F910F90EF
S1134E900BBE0F900FBE0F901F90189590E0FC0171
S1134EA0EE0FFF1FE80FF91FEE0FFF1FE95CF84E2E
S1134EB0238121111FC09C01220F331FF901E80F28
S1134EC0F91FEE0FFF1FE95CF84EA081B1814C91F0
S1134ED0F901E80FF91FEE0FFF1FE95CF84E81E0BE
S1134EE090E0028002C0880F991F0A94E2F7842B95
S1134EF08C930895FC01EE0FFF1FDF01A80FB91F6B
S1134F00AA0FBB1FA95CB84E0D90BC91A02D2C918B
S1134F10E80FF91FEE0FFF1FE95CF84E81E090E007
S1134F20028002C0880F991F0A94E2F780958223B9
S1134F308C93089590E0FC01EE0FFF1FE80FF91F1A
S1134F40EE0FFF1FE95CF84E2381211120C09C0164
S1134F50220F331FF901E80FF91FEE0FFF1FE95C61
S1134F60F84EA081B1814C91F901E80FF91FEE0FC1
S1134F70FF1FE95CF84E81E090E0028002C0880FD8
S1134F80991F0A94E2F7809584238C930895FC0179
S1134F90EE0FFF1FDF01A80FB91FAA0FBB1FA95CEB
S1134FA0B84E0D90BC91A02D2C91E80FF91FEE0F77
S1134FB0FF1FE95CF84E81E090E0028002C0880F98
S1134FC0991F0A94E2F7822B8C930895CC24C394FE
S1134FD0D12C6894BB24B2F8C7E3D7E110E08C81EC
S1134FE0813081F018F1823061F5E881F981208106
S1134FF0C6010A8002C0880F991F0A94E2F782272B
S113500080831FC08D818F5F863010F48D8319C01B
S11350101D82E881F9812081C6010A8002C0880FBF
S1135020991F0A94E2F7822780830BC00D81002325
S113503029F0812F7FDF01500D8303C0BC82812FB3
S11350402DDF1F5F2696143051F66CE070E080E08F
S113505090E00E941310C0CFEF92FF920F931F9322
S1135060CF93DF93082F80E487B9C7E3D7E10F2EEE
S1135070F8E2EF2EF12CF02DF982E88286E08A83A3
S11350801B8214E01C8380E009DF80E887B9FF827B
S1135090EE8287E0888719861A8781E0FFDE80E246
S11350A083BB84E390E09D878C8785E08E871F8691
S11350B0188B82E0F3DE80E18093010182E091E0CD
S11350C09B8B8A8B1C8B1D8A1E8B83E0E7DEE12C75
S11350D0F12C20E030E040EC50E069E377E086EE2C
S11350E097E20E940D0CDF91CF911F910F91FF90D9
S11350F0EF900895CF93DF9390E0FC01EE0FFF1F34
S1135100DF01A80FB91FAA0FBB1FA95CB84ECD9130
S1135110DC911197488121E030E012960C901297AF
S113512002C0220F331F0A94E2F724272883FD01CB
S113513081E08483DF91CF910895CF93DF9390E052
S1135140FC01EE0FFF1FDF01A80FB91FAA0FBB1F41
S1135150A95CB84ECD91DC911197488121E030E0F3
S113516012960C90129702C0220F331F0A94E2F792
S113517024272883FD0182E08483DF91CF91089561
S1135180282F30E0F901EE0FFF1FE20FF31FEE0F9F
S1135190FF1FE95CF84E93E09483CCCE0895282F4A
S11351A030E0F901EE0FFF1FE20FF31FEE0FFF1FB8
S11351B0E95CF84E94E0948371CE089590E0FC018C
S11351C0EE0FFF1FDF01A80FB91FAA0FBB1FA95CB9
S11351D0B84E26E015962C931597FD011482089578
S11351E090E0FC01EE0FFF1FDF01A80FB91FAA0F0B
S11351F0BB1FA95CB84E15961C921597FD0114822D
S1135200089580915D1781110CC08CE08093B800E3
S11352108FEF8093BB0084E08093BC0081E0809397
S11352205D170895AF92BF92CF92DF92EF92FF92F3
S11352300F931F93CF93DF93A82EB62E69017A01A3
S113524084E090E03CD3EC01892B61F1A88281E0F9
S1135250B81212C0C701B60120EA36E841E050E0B6
S1135260EAD2DA01C9014097A109B109B695A79517
S113527097958795898311C0C701B60120E83AE163
S113528046E050E0D8D2DA01C9014097A109B1093A
S1135290B695A7959795879589831B830A838C2F49
S11352A09D2F02C080E090E0DF91CF911F910F917C
S11352B0FF90EF90DF90CF90BF90AF9008958091D2
S11352C0BC0081700895FF920F931F93CF93DF93D7
S11352D00097D1F14A30D0F5F42E8B01EC01EFDFC9
S11352E0811136C08091501790915117C817D90772
S11352F041F087DF89818093B800D0935117C09320
S1135300501781E08F0D809352178881880F809306
S11353105317FF2089F0F801A4E5B7E14FEF4F0DD3
S1135320642F70E0CB010196B801680F791F819159
S11353308D93E617F707D9F788EF8093210285EA62
S11353408093BC0084E005C086E003C087E001C010
S113535082E0DF91CF911F910F91FF9008951F93E9
S1135360CF93DF93009729F16B3028F5162FEC01CA
S1135370A6DF811122C08091501790915117C81750
S1135380D90741F03EDF89818093B800D09351174B
S1135390C0935017109352178881880F81608093AF
S11353A0531788EF8093210285EA8093BC0085E03F
S11353B005C086E003C087E001C082E0DF91CF91A1
S11353C01F9108951F920F920FB60F9211240BB6DE
S11353D00F922F933F934F935F936F937F938F938A
S11353E09F93AF93BF93EF93FF93E091B9008E2FF8
S11353F090E0FC013897E135F10508F075C0882785
S1135400E458FF4F8F4F39C210924F17E0914F1756
S113541080915217E81770F481E08E0F80934F1734
S1135420F0E0ED5AF84E80818093BB0085E88093CC
S1135430BC0072C084E98093BC00809150179091A5
S11354405117DC011296ED91FC911397309709F4F2
S113545063C020E040E050E064E019955DC0E09155
S11354604F1781E08E0F80934F178091BB00F0E0BF
S1135470ED5AF84E80838091B900803411F4109273
S11354804F1720914F1730E08091521790E0019709
S11354902817390724F485EC8093BC003DC085E8C7
S11354A08093BC0039C08091BB00E0914F17F0E0BD
S11354B0ED5AF84E808384E98093BC0080915017A4
S11354C090915117DC011296ED91FC91139730974E
S11354D019F12091521743E557E165E019951CC075
S11354E085EA8093BC0018C08091B90080932102A2
S11354F084E08093BC008091501790915117DC0197
S11355001296ED91FC911397309731F020E040E032
S113551050E0609121021995FF91EF91BF91AF91F5
S11355209F918F917F916F915F914F913F912F91B7
S11355300F900BBE0F900FBE0F901F901895FC019B
S1135540411101C0DDD2842F90E09C01215031092A
S113555082239323892B09F0D3D2413808F0D0D287
S1135560128213824483440F4150458371836083C4
S113557080E090E008955058BB27AA270ED0E4C0DD
S1135580D5D030F0DAD020F031F49F3F11F41EF47E
S1135590CAC00EF4E095E7FBC0C0E92F0E94E019F1
S11355A078F3BA17620773078407950720F079F434
S11355B0A6F50C94021A0EF4E0950B2EBA2FA02D2A
S11355C00B01B90190010C01CA01A0011124FF27AC
S11355D0591B99F0593F50F4503E68F11A16F040A7
S11355E0A22F232F342F4427585FF3CF46953795A6
S11355F02795A795F0405395C9F77EF41F16BA0B6B
S1135600620B730B840BBAF09150A1F0FF0FBB1F18
S1135610661F771F881FC2F70EC0BA0F621F731F61
S1135620841F48F4879577956795B795F7959E3FBE
S113563008F0B1CF9395880F08F09927EE0F97954E
S1135640879508950DD080C078D048F06FD038F099
S113565021F45F3F21F061C051110C94031A63C01F
S11356600E94E01988F39923B9F35523A1F3951BFC
S1135670550BBB27AA2762177307840738F09F5F6F
S11356805F4F220F331F441FAA1FA9F334D00E2EDD
S11356903AF0E0E831D091505040E695001CCAF74A
S11356A02AD0FE2F28D0660F771F881FBB1F26170E
S11356B037074807AB07B0E809F0BB0B802DBF01E3
S11356C0FF2793585F4F32F09E3F510570F025C07D
S11356D00C94031A5F3FE4F3983ED4F386957795D0
S11356E06795B795F7959F5FC9F7880F911D9695B4
S11356F0879597F90895E1E0660F771F881FBB1F10
S1135700621773078407BA0720F0621B730B840BBC
S1135710BA0BEE1F88F7E095089597F99F6780E824
S113572070E060E008959FEF80EC089500240A94EF
S11357301616170618060906089500240A94121668
S11357401306140605060895092E0394000C11F49B
S1135750882352F0BB0F40F4BF2B11F460FF04C048
S11357606F5F7F4F8F4F9F4F08950CD0EDCFDEDFDB
S113577028F0E3DF18F0952309F0CFCFD4CF11241C
S11357800C94031A0E94E01990F3959FC1F3950FAE
S113579050E0551F629FF001729FBB27F00DB11DB1
S11357A0639FAA27F00DB11DAA1F649F6627B00D41
S11357B0A11D661F829F2227B00DA11D621F739F2A
S11357C0B00DA11D621F839FA00D611D221F749F38
S11357D03327A00D611D231F849F600D211D822F7F
S11357E0762F6A2F11249F57504092F0E9F08823B6
S11357F04AF0EE0FFF1FBB1F661F771F881F9150D3
S11358005040A9F79E3F510578F087CF0C94031AB6
S11358105F3FE4F3983ED4F3869577956795B79503
S1135820F795E7959F5FC1F7FE2B880F911D96951D
S1135830879597F90895A1E21A2EAA1BBB1BFD01B7
S11358400DC0AA1FBB1FEE1FFF1FA217B307E4075B
S1135850F50720F0A21BB30BE40BF50B661F771FB3
S1135860881F991F1A9469F7609570958095909593
S11358709B01AC01BD01CF010895EE0FFF1F881FEE
S11358808BBF0790F691E02D19940F931F93CF933C
S1135890DF93869F8001879F100D969F100D112422
S11358A0C8010DD0EC01009721F0A80160E070E080
S11358B034D1CE01DF91CF911F910F9108950F93B1
S11358C01F93CF93DF938230910510F482E090E030
S11358D0E0916217F091631720E030E0A0E0B0E0BF
S11358E0309719F14081518102811381481759077A
S11358F0C8F08417950769F4109731F012960C9349
S1135900129713961C9327C0009362171093631782
S113591022C02115310519F04217530718F49A01D2
S1135920BD01EF01DF01F801DBCF21153105F9F0ED
S1135930281B390B2430310580F48A819B81611541
S1135940710521F0FB019383828304C09093631754
S113595080936217FE01329644C0FE01E20FF31FEA
S11359608193919322503109398328833AC020913D
S1135970601730916117232B41F42091020230917A
S11359800302309361172093601720910002309135
S113599001022115310541F42DB73EB740910402AF
S11359A050910502241B350BE0916017F0916117AB
S11359B0E217F307A0F42E1B3F0B2817390778F0E2
S11359C0AC014E5F5F4F2417350748F04E0F5F1F41
S11359D050936117409360178193919302C0E0E064
S11359E0F0E0CF01DF91CF911F910F910895CF93F4
S11359F0DF93009709F481C0FC013297138212826D
S1135A00A0916217B0916317109781F420813181BE
S1135A10820F931F2091601730916117281739075F
S1135A2051F5F0936117E093601767C0ED0120E032
S1135A3030E0CE17DF0740F44A815B819E014115B7
S1135A405105F1F0EA01F5CFD383C283408151813E
S1135A50840F951FC817D90759F488819981840F39
S1135A60951F0296918380838A819B81938382838D
S1135A702115310529F4F0936317E09362173DC0B3
S1135A80E901FB83EA8349915991C40FD51FEC17AF
S1135A90FD0761F480819181840F951F0296E901CD
S1135AA099838883828193819B838A83E0E0F0E0F9
S1135AB012968D919C911397009719F0FD01DC01CA
S1135AC0F7CF8D919C9111979D012E5F3F4F820FCF
S1135AD0931F20916017309161172817390769F4D3
S1135AE0309729F4109263171092621702C0138240
S1135AF01282B0936117A0936017DF91CF9108953C
S1135B0081E090E0F89487C3FB01DC0102C00190BE
S1135B100D9241505040D8F70895DC0101C06D93B7
S1135B2041505040E0F70895FB0151915523B1F0E5
S1135B30BF01DC01052E4D91442369F010D0D9F743
S1135B40CD010190002049F04D91411108D0C9F3D5
S1135B50FB014111EECF81E090E0019708954025CB
S1135B6039F0403229F440294B57465E08F0189426
S1135B700895FB01DC010D900020E9F711970190D5
S1135B800D920020E1F70895FB01DC0101900D92D4
S1135B900020E1F70895FB01DC014150504088F0FA
S1135BA08D9181341CF08B350CF4805E61916134ED
S1135BB01CF06B350CF4605E861B611171F3990B5C
S1135BC00895881BFCCFDC016C9161566A3108F0A2
S1135BD0605E6F5B6D93C1F70895CF93DF93CDB78C
S1135BE0DEB7AE014A5F5F4FFA0161917191AF0177
S1135BF0809166179091671761D0DF91CF910895D6
S1135C000F931F93CF93DF93E0916617F09167177B
S1135C10238121FF1BC08C01D0E0C0E0F8018191F9
S1135C208F016091661770916717DB011896ED91EB
S1135C30FC911997882331F01995892B79F3DFEFBB
S1135C40CFEFECCF8AE01995892B19F08FEF9FEFF6
S1135C5002C08D2F9C2FDF91CF911F910F9108953A
S1135C600F931F93CF93DF93CDB7DEB72E970FB665
S1135C70F894DEBF0FBECDBF0E891F8986E08C83EA
S1135C801A8309838FEF9FE79E838D83AE01465E5F
S1135C905F4F688D798DCE01019610D0EF81F88524
S1135CA0E00FF11F10822E960FB6F894DEBF0FBEE0
S1135CB0CDBFDF91CF911F910F9108952F923F9205
S1135CC04F925F926F927F928F929F92AF92BF9208
S1135CD0CF92DF92EF92FF920F931F93CF93DF93B4
S1135CE0CDB7DEB72B970FB6F894DEBF0FBECDBF8E
