S01300004669726D77617265305F312E7372656314
S1130000F5C1000014C2000012C2000010C20000BA
S11300100EC200000CC200000AC2000008C20000A8
S113002006C2000004C2000002C2000000C20000B8
S1130030E1C40000FCC10000FAC10000F8C10000E6
S1130040F6C10000F4C10000F2C10000F0C10000DC
S1130050EEC10000ECC10000EAC10000E8C10000EC
S1130060E6C100000C94581E0C94AA1EE0C10000C6
S1130070DEC10000DCC10000DAC10000D8C100000C
S1130080D6C10000D4C10000D2C10000D0C100001C
S11300900C94EE1E0C94401FCAC10000C8C100009D
S11300A0C6C10000C4C10000C2C10000C0C100003C
S11300B0BEC10000BCC10000BAC10000B8C100004C
S11300C0B6C10000B4C10000B2C100000C94841F8A
S11300D00C94D61FACC100000C941A200C946C2014
S11300E0A6C100006D016D016D01A701AF01C5013D
S11300F06D016D01A701AF0109E614E10F2EF9E9C5
S1130100EF2EF4E1FF2EF02D80916814882311F175
S11301100FB6F8940F92D8011796ED91FC911897A9
S1130120C085D185CE01029625D380915C1481507F
S113013080935C14809168148150809368140F90AC
S11301400FBE8B8D9C8D8AD2CE0188D2809168148B
S11301508111DECFF7018081823008F085D30E94BF
S1130160A216D2CFCF93DF93CDB7DEB760970FB689
S1130170F894DEBF0FBECDBFCE0101969A87898762
S1130180812C912CA12CB12C69847A84E0911315D3
S1130190F09114158081882309F40EC10780F0853D
S11301A0E02D20803180428053800E942E0DCE01AC
S11301B001960E940B166B877C878D879E878981A9
S11301C0811164C08B859C85AD85BE8582159305A0
S11301D0A405B50508F444C00E94720EE0911315FD
S11301E0F09114150780F085E02DA085B185B88BBA
S11301F0AF87CD010296BED2EF85F889868982FF4A
S113020021C04685578560897189420D531D641D3F
S1130210751D720161010B851C852D853E85CF01FD
S11302200E941A15882399F0C82CD92CEA2CFB2C8F
S113023000E010E0A201910160E08F8598890E949E
S1130240AD1505C08E7FAF85B88956968C93AF8562
S1130250B8895496ED91FC915597CD0119959EC09E
S113026020E0B201A1018B859C85AD85BE85481B2C
S1130270590B6A0B7B0B80910F159091101580D64A
S11302800E94720E81118AC0EFD288C00E94720E41
S113029085C0898188230CF481C04E805F80D2019F
S11302A01C968D919C911D97892B19F0C201029681
S11302B061D2CE0108960E940B168B019C01E98144
S11302C00E2E000CFF0BEA30F10508F067C08827FA
S11302D0EE58FF4F8F4F0C94B024F2018689816051
S11302E0868BCA80DB80EC80FD80468557856089DB
S11302F071894C0D5D1D6E1D7F1DC2010E941A1572
S1130300882309F44BC0D2015496ED91FC91559782
S1130310C2011995F201868982FF40C04A815B813E
S11303206C817D8186859785A089B1899A01AB010D
S1130330280F391F4A1F5B1FC82CD92CEA2CFB2C11
S113034000E010E060E0C2010E94AD1527C0D201B8
S113035056968C9156978E7F56968C931FC0F201B9
S113036086898160868B4A815B816C817D81468729
S11303705787608B718B400F511F621F731F680179
S11303807901C2010E941A1509C0F201868981FD12
S113039003C0C20163D102C08E7F868B282D392D04
S11303A04A2D5B2D662D772D80910F159091101598
S11303B04ED581116ECFEACE0E942E0DCE0101964C
S11303C00E940B166B877C878D879E87898181119C
S11303D05DCFE0911115F0911215808121E081111A
S11303E020E0282C392C4A2C5B2C3BCF11241FBE37
S11303F0CFEFD1E2DEBFCDBF00E00CBF16E0A0E03E
S1130400B2E0E8EBF2E500E00BBF02C007900D920A
S1130410AC38B107D9F726E1ACE8B6E001C01D92CB
S1130420AF35B207E1F70E947D170C945A29E8CD45
S11304300895CF93DF93DC01E8E9F6E001C0F90108
S1130440208131812A173B07D0F382819381AF0148
S1130450480F591FA417B50749F412964D915C91A2
S11304601397840F951F93838283DF0112968D91D6
S11304709C911397ED01C80FD91F2C173D07D9F490
S11304802091960630919706C217D30781F02A81EE
S11304903B81820F931F13969C938E931297C08176
S11304A0D1818881998111969C938E9307C011966E
S11304B0DC93CE9303C011963C932E93AE17BF07E3
S11304C011F0B183A083DF91CF910895CF92DF9291
S11304D0EF92FF920F931F93CF93DF93EC010E944F
S11304E02E0D8091960690919706892B41F5E8E9A7
S11304F0F6E0ACE9B6E0B183A08313821282E4E4AF
S1130500F4E1F0939706E093960613821282118227
S1130510108288EA9DE013969C938E931297ED9334
S1130520FC93909393068093920690939506809300
S1130530940680E090E890938D0680938C06E0907A
S11305408C06F0908D06C7018C239D23892B09F01E
S113055075C0209709F475C09E012C5F3F4FC217E8
S1130560D30708F06EC02115310509F467C0009166
S11305709406109195060217130708F45FC0C09102
S11305809806D0919906E8E9F6E002C0FE01EC0174
S11305908A819B818217930720F48881998100972F
S11305A0A9F78091960690919706C817D90709F480
S11305B045C0C080D18084E0C80ED11C8881998157
S11305C0918380834A815B81421B530B49305105DF
S11305D048F0CE01820F931FFC01538342833B8377
S11305E02A8327DF8A819B81081B190B10939506A8
S11305F000939406209192063091930602171307F4
S113060020F41093930600939206E82AF92AFB82B9
S1130610EA8219821882809190069091910601963F
S113062090939106809390060E94720EC114D10497
S113063059F40E94A816C12CD12C06C00E94720E37
S1130640F8CF0E94720EF5CFC601DF91CF911F91B2
S11306500F91FF90EF90DF90CF900895CF93DF93A9
S1130660009799F1FC0134972281338140918C06E3
S113067050918D06B90164237523672B31F1608194
S11306807181672B11F5EF01409550952423352393
S1130690338322830E942E0D209194063091950677
S11306A08A819B81820F931F909395068093940671
S11306B0CE01BFDE80918E0690918F0601969093B5
S11306C08F0680938E060E94720EDF91CF9108955B
S11306D0FC010396928381834FEF5FEFBA0143835A
S11306E0548365837683908787839287818710827A
S11306F00895FC011386128608950F931F93CF93D8
S1130700DF93EB01088119812A813B810F3F4FEF71
S113071014072407340721F4FC01A185B28511C014
S1130720DC01139601C0DF011496ED91FC9115973D
S113073040815181628173810417150726073707A9
S113074090F71496ED91FC911597FD83EC83D78374
S1130750C683BF83AE831596DC93CE9314979B8791
S11307608A87FC0120812F5F2083DF91CF911F9125
S11307700F910895CF93DF93FC01A285B385C481C3
S1130780D581868197819F838E83C681D781848119
S113079095819D838C8311968D919C911297E81776
S11307A0F90731F48681978112969C938E93119761
S11307B0138612868C9181508C938C91DF91CF910A
S11307C00895FC01608331977083319710823197CB
S11307D01082319720E8208331971082319710825C
S11307E03197108277974083319750838697089585
S11307F0A89590EC88E10FB6F894A89580936000D2
S11308000FBE90936000A0910715B0910815CD918B
S1130810CDBFDD91DEBFFF91EF91DF91CF91BF910D
S1130820AF919F918F917F916F915F914F913F9184
S11308302F911F910F91FF90EF90DF90CF90BF9079
S1130840AF909F908F907F906F905F904F903F906C
S11308502F901F900F900CBE0F900BBE0F900FBEE9
S11308600F90089581E008950F920FB6F8940F92B7
S11308700BB60F920CB60F921F9211242F923F9237
S11308804F925F926F927F928F929F92AF92BF929C
S1130890CF92DF92EF92FF920F931F932F933F9388
S11308A04F935F936F937F938F939F93AF93BF9374
S11308B0CF93DF93EF93FF93A0910715B0910815A1
S11308C00DB60D920EB60D920E94DB0FA091071586
S11308D0B0910815CD91CDBFDD91DEBFFF91EF91B1
S11308E0DF91CF91BF91AF919F918F917F916F9144
S11308F05F914F913F912F911F910F91FF90EF9036
S1130900DF90CF90BF90AF909F908F907F906F902B
S11309105F904F903F902F901F900F900CBE0F90C0
S11309200BBE0F900FBE0F9008950F920FB6F89460
S11309300F920BB60F920CB60F921F9211242F92A6
S11309403F924F925F926F927F928F929F92AF925B
S1130950BF92CF92DF92EF92FF920F931F932F9348
S11309603F934F935F936F937F938F939F93AF9333
S1130970BF93CF93DF93EF93FF93A0910715B091AB
S113098008150DB60D920EB60D9213BE0E94420DBF
S113099081110E94DB0FA0910715B0910815CD912C
S11309A0CDBFDD91DEBFFF91EF91DF91CF91BF917C
S11309B0AF919F918F917F916F915F914F913F91F3
S11309C02F911F910F91FF90EF90DF90CF90BF90E8
S11309D0AF909F908F907F906F905F904F903F90DB
S11309E02F901F900F900CBE0F900BBE0F900FBE58
S11309F00F9008959ADF18950FB6F8940F92FC01A2
S1130A00968D0F900FBE81E0911180E008950F93B1
S1130A101F93CF93DF93EC01042F1E8D48A1411146
S1130A200CC088819981892B09F042C08C819D81F9
S1130A300E94EC111D821C8242C0011117C050E0BB
S1130A408A819B810E94DD2528A18A819B81820F56
S1130A50911D9B838A832C813D818217930750F1DA
S1130A60888199819B838A8380E029C050E08E81AC
S1130A709F810E94DD2588A190E09195819591093F
S1130A802E813F81280F391F3F832E83488159814E
S1130A902417350730F42C813D81820F931F9F83E7
S1130AA08E83023049F4112349F0115080E007C0CD
S1130AB080E005C080E003C080E001C080E01F5FEB
S1130AC01E8FDF91CF911F910F910895FC0140A1DA
S1130AD04423A9F050E026813781240F351F378342
S1130AE02683848195812817390720F0808191819C
S1130AF097838683CB01668177810C94DD250895E5
S1130B00EF92FF920F931F93CF938C010FB6F8943B
S1130B100F92FC01C2A11C16ACF48389811106C09A
S1130B2011C0F8018389811105C00CC07801F3E17B
S1130B30EF0EF11CC7010E94A51081110E94D5116E
S1130B40C15079F78FEFF80182A30F900FBE0FB653
S1130B50F8940F92C1A11C16ACF48085811106C0D3
S1130B6011C0F8018085811105C00CC07801F8E03E
S1130B70EF0EF11CC7010E94A51081110E94D5112E
S1130B80C15079F78FEFF80181A30F900FBECF9179
S1130B901F910F91FF90EF900895CF93DF93EC0195
S1130BA00FB6F8940F92E881F9818F8D28A190E017
S1130BB030E0829FA001839F500D929F500D11241D
S1130BC04E0F5F1F5D834C831E8EFB83EA83019768
S1130BD0829FA001839F500D929F500D1124CF013D
S1130BE0840F951F9F838E838FEF89A38AA361113E
S1130BF00BC08885882371F0CE0108960E94A51049
S1130C00882341F031DE06C0CE01089661DDCE01B5
S1130C1043965EDD0F900FBE81E0DF91CF91089582
S1130C200F931F93CF93DF93082F162F869FC00136
S1130C30112483964BDCEC01009769F0111103C079
S1130C409983888303C08396998388830F8F18A31D
S1130C5061E0CE01A2DFCE01DF91CF911F910F9110
S1130C6008959F92AF92BF92CF92DF92EF92FF923C
S1130C700F931F93CF93DF93CDB7DEB729970FB6AA
S1130C80F894DEBF0FBECDBF7C015B012E833F8392
S1130C904887598710E0992493946C0188E0C80E22
S1130CA0D11C0FB6F8940F92F701968D878D981783
S1130CB010F00230B1F4402FB501C701A8DEF701EE
S1130CC09389992341F0C70143960E94A510882374
S1130CD021F0CADD02C08111C7DD0F900FBE81E093
S1130CE04EC08E819F81A885B985892B8A2B8B2B39
S1130CF021F40F900FBE80E042C0111105C0CE0157
S1130D0001960E946B11192D0F900FBEA7D60FB636
S1130D10F8940F92F70181A18F3F09F411A2F70112
S1130D2082A18F3F09F412A20F900FBEBE016A5F29
S1130D307F4FCE0101960E947C1181111CC00FB619
S1130D40F8940F92F701968D878D0F900FBE98132C
S1130D500EC04E815F8168857985C6010E944C1062
S1130D60C701CEDEBFD781119CCF7EDD9ACFC701EC
S1130D70C7DEB8D796CFC701C3DEB4D780E02996C3
S1130D800FB6F894DEBF0FBECDBFDF91CF911F9198
S1130D900F91FF90EF90DF90CF90BF90AF909F9016
S1130DA008950F93CF93DF93482F60E081E038DFFD
S1130DB0EC01009761F01D821C82198218821E8248
S1130DC000E020E030E0A90160E070E04ADFCE01FD
S1130DD0DF91CF910F910895EF92FF920F931F939C
S1130DE0CF93DF938A01FC01568D378D531710F092
S1130DF02230F9F4422F7801EC011AA18E8DCE0134
S1130E0006DE1F3F81F48B898823A9F0CE01439627
S1130E100E94A510882389F0E114F10481F081E097
S1130E20F70180830DC0FF24F394F10EFAA281E050
S1130E3007C080E005C081E003C081E001C081E01B
S1130E40DF91CF911F910F91FF90EF9008959F92A2
S1130E50AF92BF92CF92DF92EF92FF920F931F93C4
S1130E60CF93DF93CDB7DEB729970FB6F894DEBFE3
S1130E700FBECDBF8C015B012E833F83488759870A
S1130E80E12C992493946C0183E1C80ED11C0FB614
S1130E90F8940F92F801F68CFF2099F0B501C8017F
S1130EA015DEFA94F801F68E8085882331F0C801A6
S1130EB008960E94A5108111D7DC0F900FBE81E027
S1130EC04DC08E819F81A885B985892B8A2B8B2B58
S1130ED021F40F900FBE80E041C0E11005C0CE01A7
S1130EE001960E946B11E92C0F900FBEB7D50FB677
S1130EF0F8940F92F80181A18F3F09F411A2F8012F
S1130F0082A18F3F09F412A20F900FBEBE016A5F47
S1130F107F4FCE0101960E947C11811116C0C80139
S1130F206BDD882371F04E815F8168857985C60108
S1130F300E944C10C801E4DDD5D68111A8CF94DC01
S1130F40A6CFC801DDDDCED6A2CFC801D9DDCAD671
S1130F50C80152DD882309F49ACF80E029960FB6A0
S1130F60F894DEBF0FBECDBFDF91CF911F910F91DB
S1130F70FF90EF90DF90CF90BF90AF909F90089537
S1130F80CF93DF93EC010FB6F8940F9289A18F3FB2
S1130F9009F419A28AA18F3F09F41AA20F900FBE77
S1130FA08E8D811104C0CE0143960E946310CE0140
S1130FB0A7DDDF91CF910895FC0144815581228101
S1130FC03381240F351F80819181B901681B790B0E
S1130FD0CB016417750710F0841B950B0895AF922D
S1130FE0BF92CF92DF92EF92FF920F931F93CF9312
S1130FF0DF936C015B017A01FC01C281D38104811E
S113100015810C1B1D0B4017510708F48A01F601CA
S113101084859585A801B5018C0F9D1F0E94DD254F
S11310200E151F0558F4A701401B510BB501600FA5
S1131030711FF601848595850E94DD25CE018E0DF4
S11310409F1DF601248135818217930710F0821BBE
S1131050930BF60193838283C701DF91CF911F9194
S11310600F91FF90EF90DF90CF90BF90AF900895D5
S1131070CF92DF92EF92FF920F931F93CF93DF9360
S11310801F921F92CDB7DEB75A83498321153105CC
S1131090C9F06B017C01FC01868580FD08C0CA0192
S11310A02417350708F4C9019A83898311C02017CE
S11310B0310758F042E050E0BE016F5F7F4FC70137
S11310C08EDF06C080E090E008C080E090E005C0BC
S11310D049815A81B601C70182DF0F900F90DF91D9
S11310E0CF911F910F91FF90EF90DF90CF900895D3
S11310F0AF92BF92CF92DF92EF92FF920F931F9322
S1131100CF93DF937C015B01E9014217530708F495
S1131110EA01209779F1F70100811181C480D5801B
S1131120C01AD10ACC15DD0508F46E01F7016485F7
S11311307585600F711FA601C5010E94DD25CC16BF
S1131140DD0658F4AE014C195D09F7016485758517
S1131150C5018C0D9D1D0E94DD250C0F1D1FF7017F
S1131160848195810817190710F0081B190BF701E2
S113117011830083CE01DF91CF911F910F91FF90D6
S1131180EF90DF90CF90BF90AF900895FF920F93B0
S11311901F93CF93DF938B01FF24F394413009F025
S11311A0F12C0115110511F401E010E09C01205F00
S11311B03F4F82179307B0F4EC012196C90186D9F9
S11311C0FC01892B89F08FE0DF011D928A95E9F7F4
S11311D0CF010F9695878487D583C48317830683AD
S11311E0F68602C0E0E0F0E0CF01DF91CF911F91DD
S11311F00F91FF9008950FB6F8940F92DC011896A2
S11312002D913C911997232B51F51A962D913C91D0
S11312101B97232B31F51E962C911E9716964D91F4
S11312205C91179714966D917C9115971C96ED918E
S1131230FC911D973FE01D923A95E9F7DC011D965C
S1131240FC93EE931C9715967C936E9314971796C4
S11312505C934E9316971E962C9381E003C080E016
S113126001C080E00F900FBE0895FC0124813581F8
S11312708081918142815381820F931F0197841B46
S1131280950B8217930710F0821B930B08952F92EE
S11312903F924F925F926F927F928F929F92AF9202
S11312A0BF92CF92DF92EF92FF920F931F93CF934F
S11312B0DF93CDB7DEB72B970FB6F894DEBF0FBE22
S11312C0CDBF4C017B876A871A010E831F83288751
S11312D03987FC01848195810197268520FF0CC004
S11312E02A01F2E04F0E511C8415950550F41E821C
S11312F01F821886198646C02A018417950708F4A8
S11313002C018E819F81A885B985892B8A2B8B2BF3
S113131009F438C0CE010196C8D70FB6F8940F92DD
S1131320C401A3DF3C018415950538F560E080E035
S113133090E00E9400150E94D911F40193878287DE
S11313400F900FBEAE80BF80C884D984E12CF12CED
S113135000E010E0980140E050E0BA0180E00E9413
S11313604712F40113861286BE016A5F7F4FCE01D5
S11313700196C2D7882389F202C00F900FBE611470
S1131380710419F4C40171DF3C0182019301A101CC
S11313906A857B85C4016CDE6C01892BE9F0C4018C
S11313A00BDEF4012681378182179307A8F056D308
S11313B0F40180859185892B71F080859185E12CDC
S11313C0F12C00E020E030E0A90160E00E94EE1280
S11313D0F4011186108686D4C6012B960FB6F894B4
S11313E0DEBF0FBECDBFDF91CF911F910F91FF9054
S11313F0EF90DF90CF90BF90AF909F908F907F90B1
S11314006F905F904F903F902F900895AF92BF924E
S1131410CF92DF92EF92FF920F931F93CF93DF93BC
S1131420EC017B015A0169018E8580FF04C08A01A9
S11314300E5F1F4F01C08A01CE0117DF9C01A50179
S1131440B701CE0115DE5C01892BC1F0CE01B4DDFC
S11314502E813F818217930788F088859985892B8F
S113146069F088859985E12CF12C00E020E030E0DA
S1131470A90160E00E94E21319861886C501DF9174
S1131480CF911F910F91FF90EF90DF90CF90BF907D
S1131490AF9008952F923F924F925F926F927F92F6
S11314A08F929F92AF92BF92CF92DF92EF92FF9270
S11314B00F931F93CF93DF931F921F92CDB7DEB785
S11314C04C011B012A0158016901FC01868580FD3C
S11314D003C0612C712C04C06894662461F8712CDB
S11314E0A114B104C104D10441F10FB6F8940F92D0
S11314F0C40162DD8C016816790648F060E080E082
S113150090E00E94001555D7F401918780870F90D1
S11315100FBE60167106B8F0E12CF12C00E010E06B
S1131520980140E050E0BA0180E0B1D7F40111869F
S11315301086C40141DD8C0103C0C4013DDD8C0172
S113154060167106C8F561147104C1F0F401C0801D
S1131550D1809801A301BE016F5F7F4FC401C8DD34
S113156089819A81061917094816590630F4F4013D
S1131570D182C082412C512C01C02C019801A201BE
S1131580B101C401B5DD6C01892BC1F067D2F4014E
S113159082859385892B71F082859385E12CF12CCA
S11315A000E020E030E0A90160E00E94EE12F401C6
S11315B01386128697D302C0C12CD12CC6010F907A
S11315C00F90DF91CF911F910F91FF90EF90DF90DB
S11315D0CF90BF90AF909F908F907F906F905F90CF
S11315E04F903F902F900895E0918114F0918214D0
S11315F0808181110CC08FEF9FEFDC0180934B142D
S113160090934C14A0934D14B0934E140895E0910C
S11316108114F09182140780F085E02D80819181FE
S1131620A281B38180934B1490934C14A0934D14D6
S1131630B0934E1408958F929F92AF92BF92CF921F
S1131640DF92EF92FF92CF93DF936B017C01C42F63
S11316508090581490905914A0905A14B0905B1430
S11316608091071590910815029684D88FEFC816BB
S1131670D806E806F806B1F5CC23A1F1EDE5F4E1CE
S1131680A181B281C0910715D0910815BF83AE83A3
S1131690C0910715D091081516968D919C911797B6
S11316A0998788871696CD91DC91179780910715B5
S11316B09091081502969D838C83809107159091D3
S11316C00815029617969C938E931697A09107156A
S11316D0B09108151D96FC93EE931C9780818F5F43
S11316E080833FC0C80CD91CEA1CFB1CE091071581
S11316F0F0910815C282D382E482F582C814D90419
S1131700EA04FB0468F46091071570910815809150
S11317107F14909180146E5F7F4F0E947D0321C0DF
S1131720609107157091081580918114909182142D
S11317306E5F7F4F0E947D0380914B1490914C14F7
S1131740A0914D14B0914E14C816D906EA06FB06B2
S113175040F4C0924B14D0924C14E0924D14F09289
S11317604E14DF91CF91FF90EF90DF90CF90BF9018
S1131770AF909F908F9008954F925F926F927F9257
S11317808F929F92AF92BF92CF92DF92EF92FF928D
S11317900F931F93CF93DF934C016B015A012901DF
S11317A0CA010E9466023C01892B09F40DC184E33D
S11317B090E00E946602EC01892B99F07C8E6B8E7E
S11317C0A50165EA70E0C3010E94E62581E0A81A3C
S11317D0B1088B8D9C8DA80EB91EC114D10429F4B7
S11317E020C0C3010E942E03EFC0D6018C918D8FBF
S11317F08C918823A1F0AE01425E5F4FF6013196D1
S1131800B0E1CB0ED11CCF012191DA012D93AD01B2
S1131810DC018C91882319F0CE16DF06A1F71CA6F3
S113182001C01D8E0A3008F009E00A8F0DA71EA61C
S11318306E01B2E0CB0ED11CC6010E947903CE0129
S11318400E960E947903DB87CA878AE090E0A0E0C5
S1131850B0E0801B9109A109B1098E879F87A88BED
S1131860B98BDF8BCE8B84E0FE01BF96DF011D9226
S11318708A95E9F71BAAA201B401C5010E94E103FC
S113188099838883E114F10419F0F701D183C083AB
S11318900FB6F8940F9280915C148F5F80935C1460
S11318A08091071590910815892BD1F5D0930815CF
S11318B0C093071580915C14813009F041C009E997
S11318C014E10F2EF7E0EF2EF5E1FF2EF02DC80105
S11318D00E946803055F1F4F0E151F05C1F78EE8B0
S11318E094E10E94680383E894E10E94680384E71A
S11318F094E10E94680389E694E10E9468038DE5FF
S113190094E10E9468038EE894E19093821480939A
S1131910811483E894E19093801480937F1410C021
S11319208091561481110CC0E0910715F0910815AF
S1131930928D8A8D891720F0D0930815C0930715CE
S113194080914F148F5F80934F14EA8D80915714C8
S11319508E1710F4E09357148BE08E9FF00111243E
S1131960E756FB4E0180F281E02DFF83EE83268152
S1131970378139872887A681B7811596DC92CE9264
S11319801497D782C682EA8D8E9FF0011124E75600
S1131990FB4EFD87EC8780818F5F80830F900FBEA5
S11319A080915614882361F0E0910715F091081591
S11319B0928D8A8D981730F40E94340481E005C01A
S11319C081E003C081E001C08FEFDF91CF911F91CF
S11319D00F91FF90EF90DF90CF90BF90AF909F90CA
S11319E08F907F906F905F904F900895EF92FF9249
S11319F00F930F2EF9E4EF2EF4E1FF2EF02D00E00B
S1131A0020E030E040EC50E06DE372E08CE790E0E1
S1131A10B3DE8130E9F40E948C158130C9F4F89466
S1131A208FEF9FEFDC0180934B1490934C14A093A1
S1131A304D14B0934E1481E08093561410925814B0
S1131A401092591410925A1410925B140E94F803C5
S1131A50809106020F91FF90EF90089580914814B1
S1131A608F5F8093481408950FB6F8940F92609195
S1131A7058147091591480915A1490915B140F90DA
S1131A800FBE0895CF92DF92EF92FF920F931F93B0
S1131A90CF93DF9380914814811107C1C0905814EB
S1131AA0D0905914E0905A14F0905B148FEFC81A38
S1131AB0D80AE80AF80AC0925814D0925914E0924D
S1131AC05A14F0925B14C114D104E104F104B1F48A
S1131AD0809181149091821420917F14309180140C
S1131AE030938214209381149093801480937F14F4
S1131AF0809150148F5F8093501476DD80914B1445
S1131B0090914C14A0914D14B0914E14C816D9065E
S1131B10EA06FB0610F480E0B3C080E04BE051E03D
S1131B20E0918114F0918214908191110CC04FEFD7
S1131B305FEFBA0140934B1450934C1460934D14CF
S1131B4070934E149DC0E0918114F091821407802B
S1131B50F085E02D0084F185E02D0281138124813C
S1131B603581C016D106E206F30648F400934B14FF
S1131B7010934C1420934D1430934E1481C0A485BB
S1131B80B585C681D781208531853F832E83C08565
S1131B90D185268137813D832C839F012E5F3F4F62
S1131BA011966D917C9112976217730731F46085D9
S1131BB0718512967C936E931197158614869C9169
S1131BC091509C93A08DB18D109709F1C289D3894E
S1131BD0648975897F836E83C489D5896289738991
S1131BE07D836C831196CD91DC911297BF01625F66
S1131BF07F4FC617D70731F46489758912967C9391
S1131C006E931197118E108E9C9191509C93A28D7E
S1131C10909157149A1710F4A09357144A9FD00127
S1131C201124A756BB4E11960D90BC91A02DB783DD
S1131C30A68316966D917C91179771876087169687
S1131C40CD91DC9117973D832C8317963C932E936B
S1131C501697A28D4A9FD0011124A756BB4EB58773
S1131C60A4879C919F5F9C93A0910715B091081540
S1131C70228D5A969C91291708F452CF852F50CF64
S1131C80E0910715F0910815E28D9BE0E99FF001C2
S1131C901124E756FB4E9081923008F081E0909138
S1131CA051149923B1F081E014C0809152149091A1
S1131CB05314A0915414B09155140196A11DB11D53
S1131CC08093521490935314A0935414B0935514C6
S1131CD080E0DF91CF911F910F91FF90EF90DF9003
S1131CE0CF900895CF92DF92EF92FF920F931F93BC
S1131CF0CF93DF930FB6F8940F92809148148150DC
S1131D0080934814809148148111C4C080915C145C
S1131D1081118BC0C2C0D8011796ED91FC91189720
S1131D200084F185E02DA08DB18D82899389648929
S1131D307589EC017F836E838489958962897389AF
S1131D40EC017D836C83CF010E9611966D917C918D
S1131D5012976817790731F48489958912969C93B0
S1131D608E931197118E108E8C9181508C93A48533
S1131D70B5858681978160857185EC017F836E834B
S1131D808085918566817781EC017D836C83CF01A9
S1131D90029611966D917C9112976817790731F428
S1131DA06085718512967C936E93119715861486BF
S1131DB02C9121502C93A28D209157142A1710F4A2
S1131DC0A09357143A9FD0011124A756BB4E1196E5
S1131DD00D90BC91A02DB783A68316966D917C912E
S1131DE017977187608716966D917C911797EB0111
S1131DF09D838C8317969C938E931697A28D3A9FFE
S1131E00D0011124A756BB4EB587A4878C918F5F50
S1131E108C93A0910715B0910815928D5A968C91C8
S1131E20981748F04093511406C0E0E0F0E004E74E
S1131E3014E13BE041E0D8018C9181116CCFEF2B90
S1131E4009F0D2DBC0905214D0905314E090541493
S1131E50F0905514C114D104E104F10499F0C1E0E7
S1131E6011DE8111C0935114B1E0CB1AD108E108FD
S1131E70F108B1F7109252141092531410925414A2
S1131E801092551480915114882331F00E94340427
S1131E9081E003C080E001C080E00F900FBEDF91BD
S1131EA0CF911F910F91FF90EF90DF90CF90089505
S1131EB0CF92DF92EF92FF920F931F93CF93DF9312
S1131EC0EC016A017B01CADD009158141091591488
S1131ED020915A1430915B1488819981AA81BB8125
S1131EE0AC01BD014C0D5D1D6E1D7F1D081719074A
S1131EF02A073B07B8F4481759076A077B0790F588
S1131F00FF24F394041715072607370708F0F12C6C
S1131F10488359836A837B83041715072607370789
S1131F20A0F40BC0481759076A077B07A0F00417F1
S1131F3015072607370778F015C0CB01BA01601BD7
S1131F40710B820B930B40E076DBCCDE811110C069
S1131F500E9434040DC0488359836A837B83FF2421
S1131F60F394EBCF488359836A837B83F12CEDCFC1
S1131F708F2DDF91CF911F910F91FF90EF90DF9004
S1131F80CF900895CF92DF92EF92FF926B017C0184
S1131F90672B682B692B41F061DD40E0C701B60176
S1131FA04ADBA0DE811102C00E943404FF90EF904E
S1131FB0DF90CF90089580914814882321F081E028
S1131FC080935114089510925114A0910715B09163
S1131FD00815E0910715F09108152D913C91838D1A
S1131FE0948D8217930758F0609107157091081526
S1131FF08091071590910815635E7F4FB5D6809147
S11320005714282F30E09BE0899FF0011124E756F4
S1132010FB4E908191110EC04BE08150282F30E08F
S1132020429FF001439FF00D1124E756FB4E90812F
S1132030992399F39BE0929FA001939F500D112443
S1132040DA01A756BB4E1196ED91FC9112970480CC
S1132050F581E02D1296FC93EE93119744565B4E56
S1132060E417F50729F444815581FD015283418326
S11320709BE0929FF001939FF00D1124E756FB4ED5
S11320800180F281E02D208531853093081520935D
S11320900715809357140895CF92DF92EF92FF9221
S11320A06A017B016091071570910815625F7F4F8B
S11320B00E947D0341E0C701B601BDDAFF90EF90B5
S11320C0DF90CF900895CF93DF93FC01CB01BA0149
S11320D0A181B281C0910715D0910815BB8BAA8B41
S11320E0C0910715D091081516964D915C911797DC
S11320F05D8B4C8B1696CD91DC911797409107150B
S113210050910815425F5F4F5D834C8340910715E2
S113211050910815425F5F4F17965C934E93169744
S1132120A0910715B09108155996FC93EE93589712
S113213030813F5F3083222319F06FEF7FEFCB01B3
S1132140422F79DADF91CF910895CF93DF93DC01A9
S11321501796ED91FC9118970084F185E02DA08DE0
S1132160B18DC289D389848995899F838E83C489DB
S1132170D589828993899D838C839F01225F3F4FF8
S113218011968D919C9112978217930731F484894B
S1132190958912969C938E931197118E108E8C9123
S11321A081508C9380914814811152C0A485B585C7
S11321B0C681D781808591859F838E83C085D18593
S11321C0868197819D838C839F012E5F3F4F11965B
S11321D08D919C9112978217930731F48085918594
S11321E012969C938E931197158614868C91815028
S11321F08C93A28D809157148A1710F4A0935714CE
S11322008BE08A9FD0011124A756BB4E11960D90E6
S1132210BC91A02DB783A68316964D915C91179718
S1132220518740871696CD91DC9117973D832C8377
S113223017963C932E931697A28D8A9FD001112452
S1132240A756BB4EB587A4878C918F5F8C931CC017
S113225044E754E1DA011196CD91DC911297D38BC6
S1132260C28B8E819F81958B848B8E819F81DC01B3
S113227015963C932E9314973F832E83518F408F52
S1132280DA018C918F5F8C93A0910715B09108159A
S1132290928D5A968C91891720F481E08093511481
S11322A001C080E0DF91CF9108950FB6F8940F92AA
S11322B020915014FC0120834091581450915914DA
S11322C060915A1470915B144183528363837483C5
S11322D00F900FBE089520915014FC01208340916B
S11322E058145091591460915A1470915B1441839D
S11322F05283638374830895CF92DF92EF92FF92A7
S11323000F931F93CF93DF93FB010FB6F8940F92B3
S1132310409158145091591460915A1470915B145F
S113232000811181228133810F3FAFEF1A072A0701
S11323303A0779F1EC01C980DA80EB80FC80A09146
S11323405014B881BA1759F04C155D056E057F0518
S113235030F0108211821282138281E01BC04C196A
S11323605D096E097F09401751076207730758F426
S1132370041B150B260B370B008311832283338335
S1132380AADF80E007C0108211821282138281E0EA
S113239001C080E00F900FBEDF91CF911F910F918C
S11323A0FF90EF90DF90CF90089581E080935114D7
S11323B008958091071590910815089580915614F9
S11323C0882331F080914814882321F080E0089517
S11323D081E0089582E008950F931F93CF93DF93D4
S11323E0FC01892B09F449C086A5815086A7228D5A
S11323F095A5291709F443C0811143C0EF018F014A
S11324000E5F1F4FC8010E94BA03EDA5EA8F8AE050
S113241090E0A0E0B0E08E1B9109A109B1098E877C
S11324209F87A88BB98B809157148E1710F4E09373
S113243057148BE08E9FF0011124E756FB4E018068
S1132440F281E02DFF83EE83268137813987288747
S1132450A681B78115961C930E9314971783068350
S1132460EA8D8E9FF0011124E756FB4EFD87EC8721
S113247080818F5F808381E005C080E003C080E0BD
S113248001C080E0DF91CF911F910F9108954F9289
S11324905F926F927F92AF92BF92CF92DF92EF9250
S11324A0FF920F931F93CF93DF93280139010FB647
S11324B0F8940F92E0910715F0910815C82FD0E019
S11324C0EC0FFD1F83A9823071F1E0910715F091A3
S11324D00815CE01880F991F880F991FE80FF91F5F
S11324E087A590A9A1A9B2A940955095609570952A
S11324F0482359236A237B2347A750AB61AB72ABB4
S1132500E0910715F0910815EC0FFD1F81E083ABF6
S1132510A114B104C104D10431F041E0C601B501F4
S11325208AD80E9434040F900FBE0FB6F8940F920D
S1132530E114F104A1F0E0910715F0910815CE0122
S1132540880F991F880F991FE80FF91F87A590A975
S1132550A1A9B2A9F70180839183A283B383E091F7
S11325600715F0910815EC0FFD1F83A98230E9F4DB
S1132570E0910715F0910815CE01880F991F880F77
S1132580991FE80FF91F87A590A9A1A9B2A94094A2
S1132590509460947094482259226A227B2247A660
S11325A050AA61AA72AA81E001C080E020910715B7
S11325B030910815C20FD31F1BAA0F900FBEDF91D5
S11325C0CF911F910F91FF90EF90DF90CF90BF902C
S11325D0AF907F906F905F904F9008958F929F92ED
S11325E0AF92BF92EF92FF920F93CF93DF93DC01F0
S11325F00FB6F8940F92E114F10479F0FC0184E031
S1132600689FE00DF11D112487A490A8A1A8B2A889
S1132610F70180829182A282B38270E0FD01E60F0D
S1132620F71F83A992E093AB0230F9F018F401305C
S113263031F049C0033069F10430B9F144C0660F88
S1132640771F660F771FFD01E60FF71F87A490A879
S1132650A1A8B2A8BA01A901482959296A297B2944
S113266047A750AB61AB72AB2EC0660F771F660FE6
S1132670771FFD01E60FF71F47A550A961A972A9AD
S11326804F5F5F4F6F4F7F4F47A750AB61AB72AB4C
S11326901AC0660F771F660F771FFD01E60FF71F3D
S11326A027A730AB41AB52AB0EC0823009F479C0DE
S11326B0660F771F660F771FFD01E60FF71F27A729
S11326C030AB41AB52AB813009F06DC01C96ED913B
S11326D0FC911D971696CD91DC91179718968D91C4
S11326E09C9119979F838E831896CD91DC911997AD
S11326F016968D919C9117979D838C839D012E5FD7
S11327003F4F818192818217930731F418968D91FE
S11327109C911997928381831D961C921E921C97FB
S11327208081815080835A96EC915A9780915714F6
S11327308E1710F4E09357148BE08E9FF001112450
S1132740E756FB4E0180F281E02D1796FC93EE9341
S113275016974681578119965C934E931897C681B4
S1132760D7813D832C83378326835A96EC915A97DD
S11327708E9FF0011124E756FB4E1D96FC93EE93B9
S11327801C9780818F5F8083E0910715F091081575
S11327905A969C91828D891740F40E94340481E0FA
S11327A005C080E003C081E001C081E00F900FBE4E
S11327B0DF91CF910F91FF90EF90BF90AF909F90DA
S11327C08F9008958F929F92AF92BF92CF92DF9293
S11327D0EF92FF920F93CF93DF93DC01E114F104A6
S11327E079F0FC0184E0689FE00DF11D112487A4B9
S11327F090A8A1A8B2A8F70180829182A282B38294
S113280070E0FD01E60FF71F83A992E093AB02305D
S1132810F9F018F4013031F049C0033069F10430A3
S1132820B9F144C0660F771F660F771FFD01E60FED
S1132830F71F87A490A8A1A8B2A8BA01A9014829A2
S113284059296A297B2947A750AB61AB72AB2EC0CB
S1132850660F771F660F771FFD01E60FF71F47A569
S113286050A961A972A94F5F5F4F6F4F7F4F47A770
S113287050AB61AB72AB1AC0660F771F660F771F40
S1132880FD01E60FF71F27A730AB41AB52AB0EC0DB
S1132890823009F4A4C0660F771F660F771FFD010D
S11328A0E60FF71F27A730AB41AB52AB813009F0DD
S11328B098C08091481481115FC01C96ED91FC91E1
S11328C01D971696CD91DC91179718968D919C9132
S11328D019979F838E831896CD91DC91199716963C
S11328E08D919C9117979D838C839D012E5F3F4F03
S11328F0818192818217930731F418968D919C916E
S11329001997928381831D961C921E921C97808135
S1132910815080835A96EC915A97809157148E1760
S113292010F4E09357148BE08E9FF0011124E756C6
S1132930FB4E0180F281E02D1796FC93EE931697DF
S11329404681578119965C934E931897C681D78117
S11329503D832C83378326835A96EC915A978E9F16
S1132960F0011124E756FB4E1D96FC93EE931C9741
S113297080818F5F808320C044E754E1FA01C181E4
S1132980D2815396DC93CE9352978E819F81559634
S11329909C938E9354972E813F81CD010E96F9011D
S11329A0958384839F838E8359965C934E93589723
S11329B0FA0180818F5F8083E0910715F0910815FB
S11329C05A969C91828D891770F4C114D10419F020
S11329D081E0F601808381E08093511405C080E09A
S11329E003C081E001C081E0DF91CF910F91FF909E
S11329F0EF90DF90CF90BF90AF909F908F9008950D
S1132A00009721F480910715909108150FB6F8945A
S1132A100F9270E0FC01E60FF71F23A9223031F476
S1132A20FC01E60FF71F13AA81E001C080E00F90BC
S1132A300FBE0895CF92DF92EF92FF920F931F93F0
S1132A40FC014283538364837583938782870417CD
S1132A50150726073707C0F00C191D092E093F0971
S1132A6086859785A089B189081719072A073B0726
S1132A7000F5BF016E5F7F4F809111159091121583
S1132A800E947D0380E018C00C151D052E053F052E
S1132A9028F44C155D056E057F0568F4BF016E5F73
S1132AA07F4F80911315909114150E947D0380E04F
S1132AB003C081E001C081E01F910F91FF90EF906E
S1132AC0DF90CF9008950FB6F8940F9280910F1570
S1132AD090911015892BE9F480E295E10E94680336
S1132AE085E195E10E94680380E295E190931415D5
S1132AF08093131585E195E1909312158093111538
S1132B0040E067E08AE00E941006909310158093DD
S1132B100F150F900FBE0895EF92FF920F93D3DF1E
S1132B2080910F1590911015892B91F00F2EFDE0D7
S1132B30EF2EF5E1FF2EF02D03E020E030E040EC35
S1132B4050E062E472E082EB90E00E94BC0B01C0B2
S1132B5080E00F91FF90EF9008958F929F92AF9233
S1132B60BF92CF92DF92EF92FF920F931F93CF9376
S1132B70DF93CDB7DEB727970FB6F894DEBF0FBE4D
S1132B80CDBFE0910F15F0911015309781F1698355
S1132B902A833B834C835D839F838E836630F4F466
S1132BA00DDC823069F400E0A7019601BE016F5F7D
S1132BB07F4F80910F15909110150E94310618C017
S1132BC000E020E030E0A901BE016F5F7F4F8091FB
S1132BD00F15909110150E9431060AC020E0A8013B
S1132BE0BE016F5F7F4FCF010E94EC0601C080E001
S1132BF027960FB6F894DEBF0FBECDBFDF91CF91FD
S1132C001F910F91FF90EF90DF90CF90BF90AF9006
S1132C109F908F9008952F923F924F925F926F9260
S1132C207F928F929F92AF92BF92CF92DF92EF9258
S1132C30FF920F931F93CF93DF931C010E94340DD7
S1132C402B013C018091091590910A15A0910B1557
S1132C50B0910C15481659066A067B0608F053C055
S1132C603BC00780F085E02D80809180A280B380F6
S1132C70C085D1858E010E5F1F4FC8010E94BA0323
S1132C80EC89FD89CE0119958E8982FF25C08E8538
S1132C909F85A889B989880D991DAA1DBB1D881611
S1132CA09906AA06BB0670F48A839B83AC83BD8312
S1132CB0DB87CA87B80180911315909114150E947F
S1132CC07D030AC0C12CD12C760100E010E0A501DF
S1132CD0940160E0CE0141DFE0911315F0911415E9
S1132CE080818111BECF809111159091121590931E
S1132CF0141580931315F0931215E093111581E0C8
S1132D00F101808302C0F1011082409209155092B2
S1132D100A1560920B1570920C15C301B201DF9174
S1132D20CF911F910F91FF90EF90DF90CF90BF90C4
S1132D30AF909F908F907F906F905F904F903F9057
S1132D402F9008950895279A2F9A08951F9A089509
S1132D50FADF2FEF80E792E0215080409040E1F7C6
S1132D6000C00000F3DFF5CFEEDF2FEF87EA91E636
S1132D70215080409040E1F700C00000E7DFF5CF2C
S1132D80CF93DF93CDB7DEB76A970FB6F894DEBF63
S1132D900FBECDBF0E94340D69837A838B839C83DD
S1132DA00F2EF3E0DF2EF02DEE24E3940F2EF4E14A
S1132DB0FF2EF02D05E41DE28AE492E00E944F26E6
S1132DC0DE82ED82FF8208871987BE016B5F7F4F29
S1132DD080E0C4D34EE359E460E070E0CE01019694
S1132DE067D8EACFCF93DF9300D01F92CDB7DEB779
S1132DF00E94340D69837A838B839C8311E04FE1B5
S1132E0050E060E070E0CE01019652D880E592E097
S1132E100E944F2682B1812782B9F1CFCF93DF93ED
S1132E2000D01F92CDB7DEB70E94340D69837A8338
S1132E308B839C834EE350E060E070E0CE0101960A
S1132E4037D886E592E00E944F2682B1805882B935
S1132E50F1CFEF92FF920F938091531690915416F5
S1132E60892B89F481E00E94D106909354168093B3
S1132E705316009741F000E020E030E0A90160E043
S1132E8070E00E943106E12CF12C02E020E030E0F9
S1132E9040EC50E060E572E082EF96E10E94BC0BEA
S1132EA001E020E030E040EC50E066E572E08EE0C6
S1132EB097E10E94BC0B03E020E030E040EC50E0DE
S1132EC06AE472E080EC96E10E94BC0B0F91FF90E3
S1132ED0EF90089581B1816881B90E94180280E061
S1132EE00E94CE20B6DF85E00E94D52160E070E02C
S1132EF081E056D283E021C10895ECDF8CE592E0B5
S1132F000E944F260E94F60CFFCFCF93DF93CDB7DC
S1132F10DEB768970FB6F894DEBF0FBECDBF81E071
S1132F207FD262E070E080E090E02CD880E078D23C
S1132F3066E970E080E090E025D82BD281E00E9421
S1132F4023227CD2F8D49F938F938EE692E09F93B2
S1132F508F930E943C26F0D3EED49F938F9381E805
S1132F6092E09F938F930E943C268E010B5F1F4F2C
S1132F70C80176D2E0D41F930F939F938F938AE96D
S1132F8092E09F938F930E943C26C80185D2D3D4AC
S1132F909F938F931F930F938EEA92E09F938F9347
S1132FA00E943C26A80163EC72E084EE92E0A2D475
S1132FB0C2D49F938F931F930F9383EC92E09F93BC
S1132FC08F9384EE92E09F938F9385EF92E09F938B
S1132FD08F930E943C2693D2AED49F938F938BE21F
S1132FE093E09F938F930E943C260FB6F894DEBF24
S1132FF00FBECDBF81E07DD39ED49F938F938AE390
S113300093E09F938F930E943C2684EF91E07CD3BE
S113301092D49F938F9381E08F9384EF8F938BE56A
S113302093E09F938F930E943C260FB6F894DEBFE3
S11330300FBECDBF0AE010E00F2EFBE7EF2EF3E04A
S1133040FF2EF02D80E061D2D82E75D49F938F93FC
S11330501F930F93FF92EF920E943C260F900F90C4
S11330600F900F900F900F90F8E0DF16C1F180E001
S11330700E94872266E371E080E090E00E94C20F24
S113308001501109F9F624C00E943404FDCF48EA26
S113309058E460E070E0CE0101960E94580FF801F8
S11330A082829382A482B582C682D78283E00E9400
S11330B09922B80180E052D23ED49F938F93FF921D
S11330C0EF920E943C260F900F900F900F90DFCF4D
S11330D081E00E94782280E00E944622D5CF81E0E0
S11330E00E946922EBE2F5E186E0818382E080833D
S11330F00E94340D69837A838B839C830BE215E1F0
S11331000F2EF0E38F2EF02D0F2EF9E39F2EF02DCE
S11331106894AA24A1F80F2EF3EABF2EF02D689428
S1133120CC24C2F80F2EFAE1DF2EF02D0F2EFBE98E
S1133130EF2EF3E0FF2EF02DAACFEF92FF920F9324
S1133140E12CF12C082F20E030E048E851E060EB5E
S113315073E085E897E10E94BC0B0F91FF90EF901C
S113316008950F931F93CF93DF931F921F92CDB7B0
S1133170DEB78C0119822DC0E0917815EC3250F441
S113318081E08E0F80937815F0E0E655FA4E8A813F
S1133190808302C0109278158A818A30D1F44091DC
S11331A0781550E0FA01E855FA4E10824150510961
S11331B09E012F5F3F4F6AEA75E180917B159091E4
S11331C07C150E94060A898181110E9434041092A0
S11331D07815BE016E5F7F4FC8014AD5882361F21E
S11331E00F900F90DF91CF911F910F9108950F933E
S11331F01F93CF93DF938C01EB0180917B1590910A
S11332007C150E94FB08B80181E495E10E941D260B
S1133210209779F0E1E4F5E101900020E9F7319796
S113322080E290E091838083BE0181E495E10E9475
S11332301226E1E4F5E1DF010D900020E9F7119792
S11332408DE09AE011969C938E9312961C920190B5
S11332500020E9F73197E154F541AE2F81E495E17F
S1133260AC016A2F80917D1590917E15ACD48111AB
S113327011C008E215E020E030E04DE250E064E0E7
S113328076E180917B1590917C150E944A0A84E036
S113329096E102C080E090E0DF91CF911F910F9101
S11332A008952F923F924F925F926F927F928F92E6
S11332B09F92AF92BF92CF92DF92EF92FF920F93C1
S11332C01F93CF93DF935C01FC0101900020E9F789
S11332D031976F01C81AD90A5C2C0F2EF0E58F2E96
S11332E0F6E09F2EF02DE12CF12C4C2C3701F4014B
S11332F001811281E80109900020E9F72197C01BA0
S1133300D10B3C2EF9E0CF16D10458F0F401208003
S1133310FEE02F1206C0B801C5010E94ED25892BDD
S113332009F5442D351408F44C2F50E0B801C501BB
S11333300E942426892B49F4F301EE0FFF1FE60DAA
S1133340F71DE05BF94F20800DC08FEFE81AF80AF3
S1133350E3E08E0E911CF1E1EF16F10439F6689466
S1133360222424F8822DDF91CF911F910F91FF9099
S1133370EF90DF90CF90BF90AF909F908F907F9011
S11333806F905F904F903F902F90089530DF89CFDA
S1133390089580917B1590917C150C94FB080895F9
S11333A08F929F92AF92CF92EF920F931F93CF93EE
S11333B0C82F8B0141E060E070E088EC90E00E944F
S11333C0C60890937C1580937B1510937A1500930F
S11333D079150F2EF1EB8F2EF8E19F2EF02D6894C6
S11333E0AA24A6F86894CC24C6F8E12C00E023E0D3
S11333F040E051EE60E070E08C2F1ED390937E1578
S113340080937D15E7E0F1E0808180618083CF9136
S11334101F910F91EF90CF90AF909F908F90089550
S1133420882331F0E8E0F1E080818F7E8083089585
S1133430E8E0F1E0808180618083089560E070E0DD
S113344086ED93E0D4DEE4E0F6E101900020E9F7B4
S11334503197E450F64181E0759708F080E00895D3
S1133460CF93DF93EC0160E070E087EE93E0BFDE82
S1133470E4E0F6E101900020E9F7E551F64139F482
S113348064E076E1CE010E941D2680E002C018822D
S113349081E0DF91CF910895FC0101900020E9F7CC
S11334A09F01215131092817390729F4BC0185E10D
S11334B094E06CCF089589E00895FC010190002008
S11334C0E9F79F01215131092817390729F4BC0173
S11334D084E294E05BCF089589E00895FC010190B3
S11334E00020E9F79F01215231092817390729F4EF
S11334F0BC0183E394E04ACF089589E0089560E035
S113350070E082E794E042CF08950F931F93E82F71
S1133510F0E0EE0FFF1FE45BF94F608171818BE7F0
S113352094E034DF811114C008E215E020E030E0BB
S11335304DE250E064E076E180917B1590917C153A
S11335400E944A0A882321F084E096E1AADE03C09F
S113355084E096E1A6DE1F910F9108950F931F93C7
S1133560CF93DF931F92CDB7DEB7DB0111969C9109
S11335701197953108F0B4C0992381F160E070E0AF
S1133580272F30E0462F50E0FD01E40FF51F928114
S113359092959F709A3010F0995C01C0905DF9018A
S11335A0EB56FA4E90832F5F3F4FFD01E40FF51F5A
S11335B092819F70492F50E04A30510514F0995C74
S11335C001C0905DF901EB56FA4E90837E5F6F5F08
S11335D011969C911197691798F201C070E0E72F3A
S11335E0F0E0EB56FA4E10824C91811103C084E84E
S11335F094E002C086E894E025E935E13F932F93F7
S11336001F924F939F938F938AE894E09F938F9395
S113361087ED95E19F938F930E947F2660E070E091
S113362087ED95E1B3DE0FB6F894DEBF0FBECDBFD4
S1133630811159C008E215E020E030E04DE250E08D
S113364064E076E180917B1590917C150E944A0A92
S1133650882309F447C084E096E123DE8E3009F024
S113366042C087E089838091791590917A15892BDE
S1133670A9F1BE016F5F7F4F84E096E168D180932A
S11336807F15E981F0E0EC5FF94EDF010D90002039
S1133690E9F71197AE1BBF0BAA2391F0BB27CD010D
S11336A001979C0112F42F5F3F4F35952795209386
S11336B08015AF014F5F5F4F64E181E895E173D1FD
S11336C001E010E020E030E046E150E06FE775E112
S11336D08091791590917A150E9447098EE003C074
S11336E084E101C080E00F90DF91CF911F910F9191
S11336F00895813019F06AE974E002C063E775E067
S11337008EE994E043CE08959F938F938FEC94E0D9
S11337109F938F9387ED95E19F938F930E947F26CC
S113372060E070E087ED95E131DE0F900F900F902F
S11337300F900F900F9008952F923F924F925F92A7
S11337406F927F928F929F92AF92BF92CF92DF92AD
S1133750EF92FF920F931F93CF93DF93CDB7DEB712
S1133760A0970FB6F894DEBF0FBECDBF6CEF74E028
S113377088E095E03CDD95DD8111A3C080E2EDE1B8
S1133780F2E0DE01119601900D928A95E1F79E0117
S11337902F5F3F4F6901E12CF12C0F2EF4E1AF2E86
S11337A0F5E0BF2EF02D07ED15E10F2EFDE24F2EB3
S11337B0F5E05F2EF02D0F2EF4E48F2EF5E09F2E12
S11337C0F02D0F2EFEE56F2EF5E07F2EF02D3E2C12
S11337D02F2CFF92EF92BF92AF921F930F930E94F0
S11337E07F2660E070E0C80102DD5BDD0F900F9082
S11337F00F900F900F900F90811163C032E03E152F
S1133800E8F4F60183818F9382818F9381818F9372
S113381080818F93FF92EF925F924F921F930F9349
S11338200E947F2660E070E0C801E1DC3ADD0FB65B
S1133830F894DEBF0FBECDBF811143C02F923F92DB
S11338409F928F921F930F930E947F2660E070E0F7
S1133850C801CDDC26DD0F900F900F900F900F90D4
S11338600F9081112EC02F923F927F926F921F93DF
S11338700F930E947F2660E070E0C801B8DC11DD80
S11338800F900F900F900F900F900F90811119C00F
S11338903FEFE31AF30A84E0C80ED11C98E0E9165E
S11338A0F10409F094CF60E070E086E795E09FDCD6
S11338B0F8DC811106C060E070E087E895E097DCF1
S11338C0F0DCA0960FB6F894DEBF0FBECDBFDF913B
S11338D0CF911F910F91FF90EF90DF90CF90BF9009
S11338E0AF909F908F907F906F905F904F903F909C
S11338F02F900895EF92FF920F931F93CF93DF932E
S1133900EC018B017A0181E0F4DE81110DC0CE015E
S1133910D4DD811109C0C801E1DD811105C0C701F1
S1133920BBDD811101C0EBDDDF91CF911F910F91C0
S1133930FF90EF90089590E0FC01EE0FFF1F8E0FB3
S11339409F1FFC01E05BF94F818192810895DC01A6
S1133950009729F1FB012081FC0101900020E9F787
S11339603197E81BF90B822F90E0E817F907C8F0AC
S113397080E008C0880F382F330F330F830F805334
S1133980890F2F5FFD01E20FF11D908130ED390F9A
S11339903A3010F49111EECFFB012083089580E0BA
S11339A0089580E008950F931F93CF93DF93DC0174
S11339B0EA012097E1F1FA0101900020E9F731973B
S11339C0E41BF50B329710F532C08D01040F151F5F
S11339D030E0AE01420F531FFA019081913428F078
S11339E09753592F5295507F03C0592F5295507FAA
S11339F02C0F3D1FF9019181913410F0975301C0B0
S1133A009053950FF80190838F5F01C080E0282FB9
S1133A10220F482F50E0FE0101900020E9F7319772
S1133A20EC1BFD0B4E175F0710F48613CECFDF910E
S1133A30CF911F910F9108952F923F924F925F92D1
S1133A406F927F928F929F92AF92CF92EF92FF925A
S1133A500F931F93CF93DF93CDB7DEB7F82E2A01D0
S1133A603B0188E090E084D78C018F2D90E0FC012D
S1133A70EE0FFF1FEF5CF94E118300830115110552
S1133A8009F464C0880F991FFC01E95FFD4F808130
S1133A909181D8018D939C938C2D90E0880F991F70
S1133AA0880F991F65D71C0186E090E061D77C01DF
S1133AB04C2DB1014FD5F801F582E4828A2D90E0B6
S1133AC0880F991F880F991F53D71C0186E090E037
S1133AD04FD77C014A2DB1013DD5D8011396FC92F4
S1133AE0EE92129717969C928E921697FFB6F894C0
S1133AF0ED91FC91119736978081826080838D903F
S1133B009C90C301B2013BD620E030E040E051E498
S1133B10C4D69B01AC0160E074E284E79BE49BD5CE
S1133B2020E030E040E85FE331D5FDD5F401329781
S1133B306083D801ED91FC911197359788E98083D2
S1133B40ED91FC91349786E08083FFBEC801DF913C
S1133B50CF911F910F91FF90EF90CF90AF909F90D6
S1133B608F907F906F905F904F903F902F9008952B
S1133B70CF93DF93DC01892B01F11296ED91FC9137
S1133B801397938182812581981B922384819817AE
S1133B90B1F0838126952823C081D181C20FD11D24
S1133BA068838F5F958189238383ED91FC91359799
S1133BB080818062808380E003C081E001C082E074
S1133BC0DF91CF910895EF92FF920F931F93CF93BC
S1133BD0DF937C01009709F441C0DC011296ED915A
S1133BE0FC91139793818281981B8581982384810A
S1133BF0891B8617A8F1662341F1842F952FDC01D8
S1133C006150462F50E04F5F5F4F480F591FE70147
S1133C10EA81FB81938182812581981B922384818F
S1133C20981779F08C91938126952923608171816D
S1133C308B01020F111DE80188839F5F8581982302
S1133C4093831196A417B50711F7D701ED91FC9151
S1133C50359780818062808380E003C081E001C069
S1133C6082E0DF91CF911F910F91FF90EF90089523
S1133C700097D1F0DC011496ED91FC911597938196
S1133C808281981799F09281858186958923A081F4
S1133C90B181A80FB11D8C91DB018C939F5F85814D
S1133CA09823928380E0089581E0089583E0089545
S1133CB01F920F920FB60F9211240BB60F922F93EF
S1133CC03F934F935F936F937F938F939F93AF93A0
S1133CD0BF93CF93DF93EF93FF93A0913116B091ED
S1133CE03216109711F16091C6001496ED91FC9173
S1133CF01597938182812581981B9223848198173B
S1133D0061F0838126952823C081D181C20FD11D02
S1133D1068838F5F9581892383831696ED91FC9147
S1133D201797309711F0CD011995FF91EF91DF911D
S1133D30CF91BF91AF919F918F917F916F915F913F
S1133D404F913F912F910F900BBE0F900FBE0F908C
S1133D501F9018951F920F920FB60F9211240BB655
S1133D600F922F938F939F93AF93BF93EF93FF93F0
S1133D70E0913116F09132163097B9F00280F38158
S1133D80E02D938182819817B1F092818581282F4B
S1133D9026952923A081B181A20FB11D2C919F5F8B
S1133DA0892382832093C6000BC0E1ECF0E080817C
S1133DB08F7D808305C0E1ECF0E080818F7D80837E
S1133DC0FF91EF91BF91AF919F918F912F910F90A0
S1133DD00BBE0F900FBE0F901F9018951F920F925D
S1133DE00FB60F9211240BB60F922F933F934F935C
S1133DF05F936F937F938F939F93AF93BF93CF936F
S1133E00DF93EF93FF93A0913316B091341610977C
S1133E1011F16091CE001496ED91FC911597938168
S1133E2082812581981B92238481981761F0838174
S1133E3026952823C081D181C20FD11D68838F5F4D
S1133E409581892383831696ED91FC91179730977A
S1133E5011F0CD011995FF91EF91DF91CF91BF91B1
S1133E60AF919F918F917F916F915F914F913F910E
S1133E702F910F900BBE0F900FBE0F901F901895AF
S1133E801F920F920FB60F9211240BB60F922F931D
S1133E908F939F93AF93BF93EF93FF93E091331668
S1133EA0F09134163097B9F00280F381E02D9381BC
S1133EB082819817B1F092818581282F2695292334
S1133EC0A081B181A20FB11D2C919F5F89238283B0
S1133ED02093CE000BC0E9ECF0E080818F7D8083DD
S1133EE005C0E9ECF0E080818F7D8083FF91EF9144
S1133EF0BF91AF919F918F912F910F900BBE0F9017
S1133F000FBE0F901F9018951F920F920FB60F922D
S1133F1011240BB60F922F933F934F935F936F939C
S1133F207F938F939F93AF93BF93CF93DF93EF933D
S1133F30FF93A0913516B0913616109711F1609148
S1133F40D6001496ED91FC91159793818281258179
S1133F50981B92238481981761F0838126952823E6
S1133F60C081D181C20FD11D68838F5F9581892360
S1133F7083831696ED91FC911797309711F0CD013C
S1133F801995FF91EF91DF91CF91BF91AF919F91DF
S1133F908F917F916F915F914F913F912F910F90EE
S1133FA00BBE0F900FBE0F901F9018951F920F928B
S1133FB00FB60F9211240BB60F922F938F939F93EA
S1133FC0AF93BF93EF93FF93E0913516F0913616BC
S1133FD03097B9F00280F381E02D938182819817A4
S1133FE0B1F092818581282F26952923A081B18162
S1133FF0A20FB11D2C919F5F892382832093D60049
S11340000BC0E1EDF0E080818F7D808305C0E1EDA0
S1134010F0E080818F7D8083FF91EF91BF91AF911C
S11340209F918F912F910F900BBE0F900FBE0F9009
S11340301F9018951F920F920FB60F9211240BB672
S11340400F922F933F934F935F936F937F938F932D
S11340509F93AF93BF93CF93DF93EF93FF93A0917D
S11340603716B0913816109711F1609136011496F5
S1134070ED91FC911597938182812581981B922360
S11340808481981761F0838126952823C081D1818A
S1134090C20FD11D68838F5F958189238383169610
S11340A0ED91FC911797309711F0CD011995FF917F
S11340B0EF91DF91CF91BF91AF919F918F917F91BC
S11340C06F915F914F913F912F910F900BBE0F9085
S11340D00FBE0F901F9018951F920F920FB60F925C
S11340E011240BB60F922F938F939F93AF93BF938B
S11340F0EF93FF93E0913716F09138163097B9F0AB
S11341000280F381E02D938182819817B1F092812E
S11341108581282F26952923A081B181A20FB11D65
S11341202C919F5F89238283209336010BC0E1E3A6
S1134130F1E080818F7D808305C0E1E3F1E080813F
S11341408F7D8083FF91EF91BF91AF919F918F916C
S11341502F910F900BBE0F900FBE0F901F901895CC
S1134160CF93DF931F92CDB7DEB7BE016F5F7F4F52
S11341708091391690913A167BDD8111F6CF8981B1
S113418090E00F90DF91CF910895682F80913916B8
S113419090913A16EDDC80E090E008958F929F9222
S11341A0AF92CF92EF920F93812C912C6894AA2412
S11341B0A7F86894CC24C7F8E12C00E023E040E0A1
S11341C051EE60E070E038DC90933A168093391633
S11341D0E9E5F6E18FE092E0918380839383828323
S11341E00F91EF90CF90AF909F908F90089590E0B3
S11341F0FC01EE0FFF1FE80FF91FEE0FFF1FE55C38
S1134200F94E238121111FC09C01220F331FF90194
S1134210E80FF91FEE0FFF1FE55CF94EA081B18195
S11342204C91F901E80FF91FEE0FFF1FE55CF94E01
S113423081E090E0028002C0880F991F0A94E2F79F
S1134240842B8C930895FC01EE0FFF1FDF01A80F50
S1134250B91FAA0FBB1FA55CB94E0D90BC91A02D30
S11342602C91E80FF91FEE0FFF1FE55CF94E81E07A
S113427090E0028002C0880F991F0A94E2F78095AB
S113428082238C93089590E0FC01EE0FFF1FE80F4A
S1134290F91FEE0FFF1FE55CF94E2381211120C0A9
S11342A09C01220F331FF901E80FF91FEE0FFF1FC6
S11342B0E55CF94EA081B1814C91F901E80FF91F39
S11342C0EE0FFF1FE55CF94E81E090E0028002C032
S11342D0880F991F0A94E2F7809584238C9308959C
S11342E0FC01EE0FFF1FDF01A80FB91FAA0FBB1FB0
S11342F0A55CB94E0D90BC91A02D2C91E80FF91F2F
S1134300EE0FFF1FE55CF94E81E090E0028002C0F1
S1134310880F991F0A94E2F7822B8C930895CC247A
S1134320C394D12C6894BB24B2F8CBE3D6E110E05B
S11343308C81813081F018F1823061F5E881F98156
S11343402081C6010A8002C0880F991F0A94E2F7EF
S1134350822780831FC08D818F5F863010F48D8308
S113436019C01D82E881F9812081C6010A8002C03A
S1134370880F991F0A94E2F7822780830BC00D816E
S1134380002329F0812F7FDF01500D8303C0BC82FD
S1134390812F2DDF1F5F2696143051F66CE070E0FC
S11343A080E090E00E94C20FC0CFEF92FF920F9383
S11343B01F93CF93DF93082F80E487B9CBE3D6E133
S11343C00F2EF8E2EF2EF12CF02DF982E88286E030
S11343D08A831B8214E01C8380E009DF80E887B9AC
S11343E0FF82EE8287E0888719861A8781E0FFDEE4
S11343F080E283BB84E390E09D878C8785E08E8791
S11344001F86188B82E0F3DE80E18093010182E055
S113441091E09B8B8A8B1C8B1D8A1E8B83E0E7DECD
S1134420E12CF12C20E030E040EC50E063E876E051
S11344308FE891E20E94BC0BDF91CF911F910F9105
S1134440FF90EF900895CF93DF9390E0FC01EE0F7F
S1134450FF1FDF01A80FB91FAA0FBB1FA55CB94E30
S1134460CD91DC911197488121E030E012960C90B7
S1134470129702C0220F331F0A94E2F724272883DD
S1134480FD0181E08483DF91CF910895CF93DF9381
S113449090E0FC01EE0FFF1FDF01A80FB91FAA0F68
S11344A0BB1FA55CB94ECD91DC911197488121E0E9
S11344B030E012960C90129702C0220F331F0A9418
S11344C0E2F724272883FD0182E08483DF91CF91E2
S11344D00895282F30E0F901EE0FFF1FE20FF31FBC
S11344E0EE0FFF1FE55CF94E93E09483CCCE089564
S11344F0282F30E0F901EE0FFF1FE20FF31FEE0F3C
S1134500FF1FE55CF94E94E0948371CE089590E02A
S1134510FC01EE0FFF1FDF01A80FB91FAA0FBB1F7D
S1134520A55CB94E26E015962C931597FD011482CF
S1134530089590E0FC01EE0FFF1FDF01A80FB91FE3
S1134540AA0FBB1FA55CB94E15961C921597FD01C9
S113455014820895FC01411101C02BD3842F90E0F3
S11345609C012150310982239323892B09F021D303
S1134570413808F01ED3128213824483440F415001
S113458045837183608380E090E008955058BB2791
S1134590AA270ED048C139D130F03ED120F031F4F1
S11345A09F3F11F41EF42EC10EF4E095E7FB24C1E5
S11345B0E92F4AD180F3BA17620773078407950776
S11345C018F071F49EF562C10EF4E0950B2EBA2F2B
S11345D0A02D0B01B90190010C01CA01A001112405
S11345E0FF27591B99F0593F50F4503E68F11A16B1
S11345F0F040A22F232F342F4427585FF3CF469542
S113460037952795A795F0405395C9F77EF41F1663
S1134610BA0B620B730B840BBAF09150A1F0FF0F2D
S1134620BB1F661F771F881FC2F70EC0BA0F621F19
S1134630731F841F48F4879577956795B795F79509
S11346409E3F08F0B3CF9395880F08F09927EE0F9B
S11346509795879508950CD0E6C0DED040F0D5D06C
S113466030F021F45F3F19F0C7C0511110C1CAC026
S1134670EBD098F39923C9F35523B1F3951B550B4C
S1134680BB27AA2762177307840738F09F5F5F4F21
S1134690220F331F441FAA1FA9F333D00E2E3AF062
S11346A0E0E830D091505040E695001CCAF729D07C
S11346B0FE2F27D0660F771F881FBB1F26173707CB
S11346C04807AB07B0E809F0BB0B802DBF01FF27FB
S11346D093585F4F2AF09E3F510568F08DC0D7C0B4
S11346E05F3FECF3983EDCF3869577956795B79535
S11346F0F7959F5FC9F7880F911D9695879597F950
S11347000895E1E0660F771F881FBB1F62177307C8
S11347108407BA0720F0621B730B840BBA0BEE1FDD
S113472088F7E095089598D088F09F5790F0B92FB6
S11347309927B751A0F0D1F0660F771F881F991FF2
S11347401AF0BA95C9F712C0B13081F09FD0B1E028
S113475008959CC0672F782F8827B85F39F0B93F38
S1134760CCF3869577956795B395D9F73EF49095F4
S11347708095709561957F4F8F4F9F4F0895E89472
S113478009C097FB3EF490958095709561957F4F95
S11347908F4F9F4F9923A9F0F92F96E9BB27939543
S11347A0F695879577956795B795F111F8CFFAF453
S11347B0BB0F11F460FF1BC06F5F7F4F8F4F9F4F84
S11347C016C0882311F096E911C0772321F09EE8E2
S11347D0872F762F05C0662371F096E8862F70E048
S11347E060E02AF09A95660F771F881FDAF7880F22
S11347F09695879597F9089597F99F6780E870E0F3
S113480060E008959FEF80EC089500240A94161642
S1134810170618060906089500240A9412161306AA
S1134820140605060895092E0394000C11F4882338
S113483052F0BB0F40F4BF2B11F460FF04C06F5F54
S11348407F4F8F4F9F4F089557FD9058440F551F2A
S113485059F05F3F71F04795880F97FB991F61F0FE
S11348609F3F79F087950895121613061406551F75
S1134870F2CF4695F1DF08C0161617061806991FE1
S1134880F1CF86957105610508940895E894BB27D6
S113489066277727CB0197F908950BD0C4CFB5DFEE
S11348A028F0BADF18F0952309F0A6CFABCF112476
S11348B0EECFCADFA0F3959FD1F3950F50E0551FBB
S11348C0629FF001729FBB27F00DB11D639FAA2761
S11348D0F00DB11DAA1F649F6627B00DA11D661FB0
S11348E0829F2227B00DA11D621F739FB00DA11DD1
S11348F0621F839FA00D611D221F749F3327A00D8B
S1134900611D231F849F600D211D822F762F6A2F26
S113491011249F5750408AF0E1F088234AF0EE0FAB
S1134920FF1FBB1F661F771F881F91505040A9F7B8
S11349309E3F510570F060CFAACF5F3FECF3983EE5
S1134940DCF3869577956795B795F795E7959F5F1F
S1134950C1F7FE2B880F911D9695879597F90895B9
S1134960EE0FFF1F881F8BBF0790F691E02D19945F
S11349700F931F93CF93DF938230910510F482E05D
S113498090E0E0915716F091581620E030E0A0E056
S1134990B0E0309719F140815181028113814817A9
S11349A05907C8F08417950769F4109731F01296E7
S11349B00C93129713961C9327C0009357161093C9
S11349C0581622C02115310519F04217530718F45F
S11349D09A01BD01EF01DF01F801DBCF211531059B
S11349E0F9F0281B390B2430310580F48A819B812E
S11349F06115710521F0FB019383828304C09093B8
S1134A00581680935716FE01329644C0FE01E20FF9
S1134A10F31F8193919322503109398328833AC03B
S1134A202091551630915616232B41F42091020201
S1134A3030910302309356162093551620910002AC
S1134A40309101022115310541F42DB73EB7409153
S1134A50040250910502241B350BE0915516F09188
S1134A605616E217F307A0F42E1B3F0B281739073D
S1134A7078F0AC014E5F5F4F2417350748F04E0FB6
S1134A805F1F50935616409355168193919302C01D
S1134A90E0E0F0E0CF01DF91CF911F910F910895F5
S1134AA0CF93DF93009709F481C0FC0132971382FE
S1134AB01282A0915716B0915816109781F4208154
S1134AC03181820F931F2091551630915616281765
S1134AD0390751F5F0935616E093551667C0ED016A
S1134AE020E030E0CE17DF0740F44A815B819E016D
S1134AF041155105F1F0EA01F5CFD383C28340811A
S1134B005181840F951FC817D90759F48881998159
S1134B10840F951F0296918380838A819B8193835E
S1134B2082832115310529F4F0935816E093571622
S1134B303DC0E901FB83EA8349915991C40FD51F14
S1134B40EC17FD0761F480819181840F951F029613
S1134B50E90199838883828193819B838A83E0E03E
S1134B60F0E012968D919C911397009719F0FD0136
S1134B70DC01F7CF8D919C9111979D012E5F3F4FE2
S1134B80820F931F20915516309156162817390716
S1134B9069F4309729F4109258161092571602C0EF
S1134BA013821282B0935616A0935516DF91CF91BB
S1134BB0089581E090E0F8947DC3FB01DC0102C01C
S1134BC001900D9241505040D8F70895DC0101C086
S1134BD06D9341505040E0F70895FB0151915523E6
S1134BE0B1F0BF01DC01052E4D91442369F010D0D2
S1134BF0D9F7CD010190002049F04D91411108D021
S1134C00C9F3FB014111EECF81E090E001970895D3
S1134C10402539F0403229F440294B57465E08F0CC
S1134C2018940895FB01DC010D900020E9F7119719
S1134C3001900D920020E1F70895FB01DC01019041
S1134C400D920020E1F70895FB01DC014150504032
S1134C5088F08D9181341CF08B350CF4805E619169
S1134C6061341CF06B350CF4605E861B611171F3CA
S1134C70990B0895881BFCCFCF93DF93CDB7DEB794
S1134C80AE014A5F5F4FFA0161917191AF0180916A
S1134C905B1690915C1661D0DF91CF9108950F93CC
S1134CA01F93CF93DF93E0915B16F0915C16238101
S1134CB021FF1BC08C01D0E0C0E0F80181918F017D
S1134CC060915B1670915C16DB011896ED91FC9176
S1134CD01997882331F01995892B79F3DFEFCFEFFA
S1134CE0ECCF8AE01995892B19F08FEF9FEF02C062
S1134CF08D2F9C2FDF91CF911F910F9108950F93CA
S1134D001F93CF93DF93CDB7DEB72E970FB6F894EA
S1134D10DEBF0FBECDBF0E891F8986E08C831A8348
S1134D2009838FEF9FE79E838D83AE01465E5F4FBD
S1134D30688D798DCE01019610D0EF81F885E00F52
S1134D40F11F10822E960FB6F894DEBF0FBECDBFB2
S1134D50DF91CF911F910F9108952F923F924F921F
S1134D605F926F927F928F929F92AF92BF92CF92F7
S1134D70DF92EF92FF920F931F93CF93DF93CDB700
S1134D80DEB72B970FB6F894DEBF0FBECDBF6C0114
S1134D907B018A01FC0117821682838181FFBFC1D6
S1134DA0CE0101963C01F6019381F70193FD8591B3
S1134DB093FF81917F01882309F4ADC1853239F4D1
S1134DC093FD859193FF81917F01853221F4B60192
S1134DD090E0D6D1E8CF912C212C312CFFE1F315B2
S1134DE0D8F08B3279F038F4803279F08332A1F440
S1134DF0232D20611DC08D3261F0803369F4232D91
S1134E00216016C0832D8260382EE32DE4603E2E8F
S1134E102AC0F32DF8601DC037FC2DC020ED280FEB
S1134E202A3040F08E32B9F436FC75C1232D20644B
S1134E30322E19C036FE06C08AE0989E200D112439
S1134E40922E11C0EAE02E9E200D1124222EF32D65
S1134E50F0623F2E08C08C3621F4832D8068382EF2
S1134E6002C0883641F4F70193FD859193FF819147
S1134E707F018111B3CF982F9F7D9554933028F4EF
S1134E800C5F1F4F9FE399830DC0833631F0833746
S1134E9071F0833509F055C020C0F8018081898301
S1134EA00E5F1F4F88248394912C530112C0280154
S1134EB0F2E04F0E511CF801A080B18036FE03C011
S1134EC0692D70E002C06FEF7FEFC5014ED14C0138
S1134ED08201F32DFF773F2E15C0280122E0420EF8
S1134EE0511CF801A080B18036FE03C0692D70E02A
S1134EF002C06FEF7FEFC5012DD14C01F32DF06897
S1134F003F2E820133FC19C0822D90E08816990649
S1134F10A0F4B60180E290E033D12A94F5CFF501F4
S1134F2037FC859137FE81915F01B60190E028D16D
S1134F3021102A9421E0821A91088114910479F7AE
S1134F40E1C0843611F0893639F5F80137FE07C01F
S1134F5060817181828193810C5F1F4F08C06081E1
S1134F607181072E000C880B990B0E5F1F4FF32DD8
S1134F70FF763F2E97FF09C09095809570956195B7
S1134F807F4F8F4F9F4FF0683F2E2AE030E0A30100
S1134F9033D1882E861844C0853731F4232D2F7ED3
S1134FA0B22E2AE030E025C0932D997FB92E8F369A
S1134FB0C1F018F4883579F0AEC0803719F088371D
S1134FC021F0A9C0E92FE061BE2EB4FE0DC0FB2D77
S1134FD0F460BF2E09C034FE0AC0292F2660B22E09
S1134FE006C028E030E005C020E130E002C020E146
S1134FF032E0F801B7FE07C060817181828193813C
S11350000C5F1F4F06C06081718180E090E00E5FED
S11350101F4FA301F1D0882E8618FB2DFF773F2E5A
S113502036FE0DC0232D2E7FA22E891458F434FE93
S11350300BC032FC09C0832D8E7EA82E05C0B82C6F
S1135040A32C03C0B82C01C0B92CA4FE0FC0FE01D0
S1135050E80DF11D8081803321F49A2D997EA92ECB
S113506009C0A2FE06C0B394B39404C08A2D867806
S113507009F0B394A3FC10C0A0FE06C0B21480F4DF
S1135080280C922C9B180DC0B21458F4B60180E27F
S113509090E076D0B394F8CFB21418F42B1802C071
S11350A0982C212CA4FE0FC0B60180E390E068D0B8
S11350B0A2FE16C0A1FC03C088E790E002C088E508
S11350C090E0B6010CC08A2D867851F0A1FE02C092
S11350D08BE201C080E2A7FC8DE2B60190E050D0E3
S11350E0891430F4B60180E390E04AD09A94F8CF62
S11350F08A94F301E80DF11D8081B60190E040D05F
S11351008110F6CF222009F44ECEB60180E290E061
S113511037D02A94F7CFF6018681978102C08FEFAA
S11351209FEF2B960FB6F894DEBF0FBECDBFDF9175
S1135130CF911F910F91FF90EF90DF90CF90BF9090
S1135140AF909F908F907F906F905F904F903F9023
S11351502F900895FC010590615070400110D8F71C
S1135160809590958E0F9F1F0895FC0161507040AB
S113517001900110D8F7809590958E0F9F1F089588
S11351800F931F93CF93DF93FB01238121FD03C072
S11351908FEF9FEF2CC022FF16C0468157812481D8
S11351A035814217530744F4A081B1819D012F5FDB
S11351B03F4F318320838C93268137812F5F3F4F6C
S11351C03783268314C08B01EC01FB010084F18535
S11351D0E02D1995892BE1F6D80116968D919C91B5
S11351E01797019617969C938E931697CE01DF918D
S11351F0CF911F910F910895FA01AA27283051F1F8
S1135200203181F1E8946F936E7F6E5F7F4F8F4FF3
S11352109F4FAF4FB1E03ED0B4E03CD0670F781F52
S1135220891F9A1FA11D680F791F8A1F911DA11D37
S11352306A0F711D811D911DA11D20D009F4689470
S11352403F912AE0269F11243019305D3193DEF618
S1135250CF010895462F4770405D4193B3E00FD0CE
S1135260C9F7F6CF462F4F70405D4A3318F0495DB9
S113527031FD4052419302D0A9F7EACFB4E0A6959C
S11352809795879577956795BA95C9F700976105BE
S1135290710508959B01AC010A2E06945795479514
S11352A037952795BA95C9F7620F731F841F951F09
S10B52B0A01D0895F894FFCF3E
S11352B800005F16200009C600CE00D600360100A3
S11352C800000300000000C520B0200000A027BE95
S11352D833E034C1332042C43360E5AE33A0F2B1C5
S11352E833E0FFB433200DB833601ABB3349444C60
S11352F84500546D7220537663005461736B330018
S11353085461736B31005461736B320050726F6770
S113531872616D2073746172746564212100466141
S113532863746F72795265736574203E25733C0A01
S113533800436F6E66696775726520746F20455502
S1135348383638203E25733C0A0047657420485790
S1135358455549203E25733C3A2025730A00536578
S113536874204465764555493A202573203E2573B3
S11353783C0A0036363735353741393742364144E9
S11353883746374442423635414136413043443644
S1135398444645003345373041303232434636318E
S11353A84436303500536574204F544141204964D4
S11353B8656E74697479206170704555493A25732E
S11353C8206170704B45593A2573206465764555BC
S11353D8493A2573203E25733C0A005361766520BB
S11353E86D6163203E25733C0A0053657420416453
S11353F861707469766520446174612052617465D2
S11354083A204F4E203E25733C0A005365742052BF
S1135418656365697665722044656C61793A20250F
S113542864206D73203E25733C0A004A6F696E2020
S11354384E6574776F726B2054726965734C656638
S1135448743A2564203E25733C0A0055706C6F61DC
S113545864204D657373616765203E25733C0A00BB
S11354684C5248616E640073797320726573657475
S1135478006D6163207061757365006D61632072EE
S11354886573756D650073797320666163746F72F3
S113549879524553455400737973206765742068BD
S11354A877657569006D6163206765742067776E39
S11354B862006D616320736574206C696E6B636848
S11354C86B202564006D61632073657420646576C0
S11354D8657569006D61632073657420617070651A
S11354E87569006D616320736574206170706B6504
S11354F879006D616320736574206E776B736B65D7
S113550879006D61632073657420617070736B65D5
S113551879006D61632073657420646576616464E1
S113552872006D61632073617665006D6163206A42
S11355386F696E00756E636E66006D6163207478C2
S1135548202573202564202573006F6666006D612D
S1135558632073657420616472006D6163206765FC
S11355687420616472006D616320736574206472D1
S1135578202564006D616320676574206472006D82
S113558861632073657420727864656C6179312075
S11355982564006D6163207365742061722025732E
S11355A8006D6163206765742061720033203836AA
S11355B839353235303030006D61632073657420BD
S11355C8727832006D6163207365742063682064A7
S11355D86379636C6520256420373939006D61630C
S11355E820736574206368206672657120256420C1
S11355F8256C75006D61632073657420636820648D
S11356087272616E676520256420302037006D61F1
S113561863207365742063682073746174757320E0
S11356282564206F6E006D61632073657420707744
S1135638726964782031006D616320736574207227
S11356486574782037006F74616100616270004B83
S11356584559535F4E4F545F494E4954004E4F5F6E
S1135668465245455F43480053494C454E54004211
S1135678555359004D41435F5041555345440044E7
S1135688454E494544004143434550544544004927
S11356984E56414C49445F504152414D004E4F547F
S11356A85F4A4F494E454400494E56414C49445F70
S11356B8444154415F4C454E004652414D455F4379
S11356C84F554E5445525F4552525F52454A4F49D1
S11356D84E5F4E4545444544004D41435F54585F31
S11356E84F4B004D41435F5258004D41435F455273
S11356F8524F5200554E4B4E4F574E0096059B0540
S1135708003006013E06029F0503AD0504B80505F1
S1135718BF0506C40507CF0508D60509DF050AED48
S1135728050BF8050C09060D29060E33060F3A0673
S10F573810440648414C5F4C45440000FE
S9030000FC
